{
	"PublicContract.sol": {
		"PublicContract": {
			"abi": [
				{
					"inputs": [
						{
							"internalType": "address",
							"name": "holderAddress",
							"type": "address"
						}
					],
					"name": "checkRequestsByShareholder",
					"outputs": [
						{
							"internalType": "address[]",
							"name": "",
							"type": "address[]"
						}
					],
					"stateMutability": "view",
					"type": "function"
				},
				{
					"inputs": [
						{
							"internalType": "address[]",
							"name": "secretOwners",
							"type": "address[]"
						}
					],
					"name": "checkRequestsForTheSeceret",
					"outputs": [
						{
							"internalType": "address[]",
							"name": "",
							"type": "address[]"
						}
					],
					"stateMutability": "view",
					"type": "function"
				},
				{
					"inputs": [
						{
							"internalType": "address",
							"name": "requseterAddress",
							"type": "address"
						},
						{
							"internalType": "address",
							"name": "secretOwnerAddress",
							"type": "address"
						}
					],
					"name": "deleteShareRequest",
					"outputs": [],
					"stateMutability": "nonpayable",
					"type": "function"
				},
				{
					"inputs": [
						{
							"internalType": "string",
							"name": "name",
							"type": "string"
						}
					],
					"name": "getContractAddressByName",
					"outputs": [
						{
							"components": [
								{
									"internalType": "address",
									"name": "publicAddress",
									"type": "address"
								},
								{
									"internalType": "address",
									"name": "contractAddress",
									"type": "address"
								}
							],
							"internalType": "struct PublicContract.SampleNode",
							"name": "",
							"type": "tuple"
						}
					],
					"stateMutability": "view",
					"type": "function"
				},
				{
					"inputs": [
						{
							"internalType": "address",
							"name": "publicAddress",
							"type": "address"
						}
					],
					"name": "getContractAddressByPublicAddress",
					"outputs": [
						{
							"internalType": "address",
							"name": "",
							"type": "address"
						}
					],
					"stateMutability": "view",
					"type": "function"
				},
				{
					"inputs": [
						{
							"internalType": "string",
							"name": "name",
							"type": "string"
						}
					],
					"name": "getEmailAddressByUserName",
					"outputs": [
						{
							"internalType": "string",
							"name": "",
							"type": "string"
						}
					],
					"stateMutability": "view",
					"type": "function"
				},
				{
					"inputs": [
						{
							"internalType": "address",
							"name": "secretOwner",
							"type": "address"
						}
					],
					"name": "getRequestAcceptedHoldersList",
					"outputs": [
						{
							"internalType": "address[]",
							"name": "",
							"type": "address[]"
						}
					],
					"stateMutability": "nonpayable",
					"type": "function"
				},
				{
					"inputs": [
						{
							"internalType": "address",
							"name": "secretOwner",
							"type": "address"
						}
					],
					"name": "getRequestRejectedHoldersList",
					"outputs": [
						{
							"internalType": "address[]",
							"name": "",
							"type": "address[]"
						}
					],
					"stateMutability": "nonpayable",
					"type": "function"
				},
				{
					"inputs": [
						{
							"internalType": "address",
							"name": "ownerAddress",
							"type": "address"
						}
					],
					"name": "getSecretHolderAddressesCountInAcceptedHoldersList",
					"outputs": [
						{
							"internalType": "uint256",
							"name": "",
							"type": "uint256"
						}
					],
					"stateMutability": "view",
					"type": "function"
				},
				{
					"inputs": [
						{
							"internalType": "address",
							"name": "ownerAddress",
							"type": "address"
						}
					],
					"name": "getSecretHolderAddressesCountInRejectedHoldersList",
					"outputs": [
						{
							"internalType": "uint256",
							"name": "",
							"type": "uint256"
						}
					],
					"stateMutability": "view",
					"type": "function"
				},
				{
					"inputs": [
						{
							"internalType": "address",
							"name": "holderAddress",
							"type": "address"
						}
					],
					"name": "getSecretOwnerAddressesCountInHolderRequests",
					"outputs": [
						{
							"internalType": "uint256",
							"name": "",
							"type": "uint256"
						}
					],
					"stateMutability": "view",
					"type": "function"
				},
				{
					"inputs": [
						{
							"internalType": "address[]",
							"name": "secretOwners",
							"type": "address[]"
						}
					],
					"name": "getSecretOwnerAddressesCountInSecretRequests",
					"outputs": [
						{
							"internalType": "uint256",
							"name": "",
							"type": "uint256"
						}
					],
					"stateMutability": "view",
					"type": "function"
				},
				{
					"inputs": [
						{
							"internalType": "string",
							"name": "name",
							"type": "string"
						}
					],
					"name": "isExists",
					"outputs": [
						{
							"internalType": "bool",
							"name": "",
							"type": "bool"
						}
					],
					"stateMutability": "view",
					"type": "function"
				},
				{
					"inputs": [
						{
							"internalType": "address",
							"name": "secretOwner",
							"type": "address"
						},
						{
							"internalType": "address",
							"name": "holder",
							"type": "address"
						}
					],
					"name": "makeARequestToBeAShareHolder",
					"outputs": [],
					"stateMutability": "nonpayable",
					"type": "function"
				},
				{
					"inputs": [
						{
							"internalType": "string",
							"name": "name",
							"type": "string"
						},
						{
							"internalType": "address",
							"name": "requesterAddress",
							"type": "address"
						},
						{
							"internalType": "string",
							"name": "tempOtp",
							"type": "string"
						}
					],
					"name": "makeARequestToGetShares",
					"outputs": [],
					"stateMutability": "nonpayable",
					"type": "function"
				},
				{
					"inputs": [
						{
							"internalType": "string",
							"name": "name",
							"type": "string"
						},
						{
							"internalType": "string",
							"name": "tempOtp",
							"type": "string"
						}
					],
					"name": "makeARequestToGetVaultHash",
					"outputs": [
						{
							"internalType": "string",
							"name": "",
							"type": "string"
						}
					],
					"stateMutability": "view",
					"type": "function"
				},
				{
					"inputs": [
						{
							"internalType": "address",
							"name": "secretOwner",
							"type": "address"
						},
						{
							"internalType": "address",
							"name": "holder",
							"type": "address"
						},
						{
							"internalType": "string",
							"name": "sharedString",
							"type": "string"
						}
					],
					"name": "makeSharesAccessibleToTheHolders",
					"outputs": [],
					"stateMutability": "nonpayable",
					"type": "function"
				},
				{
					"inputs": [
						{
							"internalType": "string",
							"name": "name",
							"type": "string"
						},
						{
							"internalType": "address",
							"name": "publicAddress",
							"type": "address"
						},
						{
							"internalType": "address",
							"name": "myContractAddress",
							"type": "address"
						}
					],
					"name": "register",
					"outputs": [],
					"stateMutability": "nonpayable",
					"type": "function"
				},
				{
					"inputs": [
						{
							"internalType": "address",
							"name": "secretOwner",
							"type": "address"
						},
						{
							"internalType": "string",
							"name": "sharedString",
							"type": "string"
						}
					],
					"name": "releaseTheSecret",
					"outputs": [],
					"stateMutability": "nonpayable",
					"type": "function"
				},
				{
					"inputs": [
						{
							"internalType": "uint256",
							"name": "index",
							"type": "uint256"
						}
					],
					"name": "removeFromHolderRequestList",
					"outputs": [],
					"stateMutability": "nonpayable",
					"type": "function"
				},
				{
					"inputs": [
						{
							"internalType": "address",
							"name": "shareHolder",
							"type": "address"
						},
						{
							"internalType": "address",
							"name": "secretOwner",
							"type": "address"
						},
						{
							"internalType": "bool",
							"name": "acceptance",
							"type": "bool"
						}
					],
					"name": "respondToBeShareHolder",
					"outputs": [],
					"stateMutability": "nonpayable",
					"type": "function"
				},
				{
					"inputs": [
						{
							"internalType": "address",
							"name": "secretOwner",
							"type": "address"
						},
						{
							"internalType": "address",
							"name": "shareHolder",
							"type": "address"
						}
					],
					"name": "updateOwnersAcceptedToReleaseList",
					"outputs": [],
					"stateMutability": "nonpayable",
					"type": "function"
				}
			],
			"devdoc": {
				"kind": "dev",
				"methods": {},
				"version": 1
			},
			"evm": {
				"assembly": "    /* \"PublicContract.sol\":77:13301  contract PublicContract {... */\n  mstore(0x40, 0x80)\n  callvalue\n  dup1\n  iszero\n  tag_1\n  jumpi\n  0x00\n  dup1\n  revert\ntag_1:\n  pop\n  dataSize(sub_0)\n  dup1\n  dataOffset(sub_0)\n  0x00\n  codecopy\n  0x00\n  return\nstop\n\nsub_0: assembly {\n        /* \"PublicContract.sol\":77:13301  contract PublicContract {... */\n      mstore(0x40, 0x80)\n      callvalue\n      dup1\n      iszero\n      tag_1\n      jumpi\n      0x00\n      dup1\n      revert\n    tag_1:\n      pop\n      jumpi(tag_2, lt(calldatasize, 0x04))\n      shr(0xe0, calldataload(0x00))\n      dup1\n      0x8292cae3\n      gt\n      tag_25\n      jumpi\n      dup1\n      0xc5882344\n      gt\n      tag_26\n      jumpi\n      dup1\n      0xc5882344\n      eq\n      tag_19\n      jumpi\n      dup1\n      0xc6244a27\n      eq\n      tag_20\n      jumpi\n      dup1\n      0xcc2f22f1\n      eq\n      tag_21\n      jumpi\n      dup1\n      0xd71e80e3\n      eq\n      tag_22\n      jumpi\n      dup1\n      0xec6ea3aa\n      eq\n      tag_23\n      jumpi\n      dup1\n      0xfe5686df\n      eq\n      tag_24\n      jumpi\n      jump(tag_2)\n    tag_26:\n      dup1\n      0x8292cae3\n      eq\n      tag_14\n      jumpi\n      dup1\n      0x99f8b09f\n      eq\n      tag_15\n      jumpi\n      dup1\n      0x9c111559\n      eq\n      tag_16\n      jumpi\n      dup1\n      0xa5311bcf\n      eq\n      tag_17\n      jumpi\n      dup1\n      0xbc9d6271\n      eq\n      tag_18\n      jumpi\n      jump(tag_2)\n    tag_25:\n      dup1\n      0x6e8548bb\n      gt\n      tag_27\n      jumpi\n      dup1\n      0x6e8548bb\n      eq\n      tag_8\n      jumpi\n      dup1\n      0x74cf3e51\n      eq\n      tag_9\n      jumpi\n      dup1\n      0x7568708f\n      eq\n      tag_10\n      jumpi\n      dup1\n      0x7915c069\n      eq\n      tag_11\n      jumpi\n      dup1\n      0x7cbfc58f\n      eq\n      tag_12\n      jumpi\n      dup1\n      0x82760fca\n      eq\n      tag_13\n      jumpi\n      jump(tag_2)\n    tag_27:\n      dup1\n      0x09da40ae\n      eq\n      tag_3\n      jumpi\n      dup1\n      0x0d85d839\n      eq\n      tag_4\n      jumpi\n      dup1\n      0x14338f9d\n      eq\n      tag_5\n      jumpi\n      dup1\n      0x54f5fcba\n      eq\n      tag_6\n      jumpi\n      dup1\n      0x67e37f70\n      eq\n      tag_7\n      jumpi\n    tag_2:\n      0x00\n      dup1\n      revert\n        /* \"PublicContract.sol\":4915:5486  function getSecretOwnerAddressesCountInSecretRequests(address[]memory secretOwners)public view returns(uint256) {... */\n    tag_3:\n      tag_28\n      0x04\n      dup1\n      calldatasize\n      sub\n      dup2\n      add\n      swap1\n      tag_29\n      swap2\n      swap1\n      tag_30\n      jump\t// in\n    tag_29:\n      tag_31\n      jump\t// in\n    tag_28:\n      mload(0x40)\n      tag_32\n      swap2\n      swap1\n      tag_33\n      jump\t// in\n    tag_32:\n      mload(0x40)\n      dup1\n      swap2\n      sub\n      swap1\n      return\n        /* \"PublicContract.sol\":1557:1752  function isExists(string memory name) public view returns (bool){... */\n    tag_4:\n      tag_34\n      0x04\n      dup1\n      calldatasize\n      sub\n      dup2\n      add\n      swap1\n      tag_35\n      swap2\n      swap1\n      tag_36\n      jump\t// in\n    tag_35:\n      tag_37\n      jump\t// in\n    tag_34:\n      mload(0x40)\n      tag_38\n      swap2\n      swap1\n      tag_39\n      jump\t// in\n    tag_38:\n      mload(0x40)\n      dup1\n      swap2\n      sub\n      swap1\n      return\n        /* \"PublicContract.sol\":9957:10386  function getSecretHolderAddressesCountInRejectedHoldersList(address ownerAddress)public view returns(uint256) {... */\n    tag_5:\n      tag_40\n      0x04\n      dup1\n      calldatasize\n      sub\n      dup2\n      add\n      swap1\n      tag_41\n      swap2\n      swap1\n      tag_42\n      jump\t// in\n    tag_41:\n      tag_43\n      jump\t// in\n    tag_40:\n      mload(0x40)\n      tag_44\n      swap2\n      swap1\n      tag_33\n      jump\t// in\n    tag_44:\n      mload(0x40)\n      dup1\n      swap2\n      sub\n      swap1\n      return\n        /* \"PublicContract.sol\":8383:8812  function getSecretHolderAddressesCountInAcceptedHoldersList(address ownerAddress)public view returns(uint256) {... */\n    tag_6:\n      tag_45\n      0x04\n      dup1\n      calldatasize\n      sub\n      dup2\n      add\n      swap1\n      tag_46\n      swap2\n      swap1\n      tag_42\n      jump\t// in\n    tag_46:\n      tag_47\n      jump\t// in\n    tag_45:\n      mload(0x40)\n      tag_48\n      swap2\n      swap1\n      tag_33\n      jump\t// in\n    tag_48:\n      mload(0x40)\n      dup1\n      swap2\n      sub\n      swap1\n      return\n        /* \"PublicContract.sol\":12985:13288  function getEmailAddressByUserName(string memory name)public view returns(string memory) {... */\n    tag_7:\n      tag_49\n      0x04\n      dup1\n      calldatasize\n      sub\n      dup2\n      add\n      swap1\n      tag_50\n      swap2\n      swap1\n      tag_36\n      jump\t// in\n    tag_50:\n      tag_51\n      jump\t// in\n    tag_49:\n      mload(0x40)\n      tag_52\n      swap2\n      swap1\n      tag_53\n      jump\t// in\n    tag_52:\n      mload(0x40)\n      dup1\n      swap2\n      sub\n      swap1\n      return\n        /* \"PublicContract.sol\":8132:8330  function makeARequestToBeAShareHolder(address secretOwner,address holder)public {... */\n    tag_8:\n      tag_54\n      0x04\n      dup1\n      calldatasize\n      sub\n      dup2\n      add\n      swap1\n      tag_55\n      swap2\n      swap1\n      tag_56\n      jump\t// in\n    tag_55:\n      tag_57\n      jump\t// in\n    tag_54:\n      stop\n        /* \"PublicContract.sol\":3554:3951  function getSecretOwnerAddressesCountInHolderRequests(address holderAddress)public view returns(uint256) {... */\n    tag_9:\n      tag_58\n      0x04\n      dup1\n      calldatasize\n      sub\n      dup2\n      add\n      swap1\n      tag_59\n      swap2\n      swap1\n      tag_42\n      jump\t// in\n    tag_59:\n      tag_60\n      jump\t// in\n    tag_58:\n      mload(0x40)\n      tag_61\n      swap2\n      swap1\n      tag_33\n      jump\t// in\n    tag_61:\n      mload(0x40)\n      dup1\n      swap2\n      sub\n      swap1\n      return\n        /* \"PublicContract.sol\":10448:11476  function getRequestRejectedHoldersList(address secretOwner)public returns(address[] memory) {... */\n    tag_10:\n      tag_62\n      0x04\n      dup1\n      calldatasize\n      sub\n      dup2\n      add\n      swap1\n      tag_63\n      swap2\n      swap1\n      tag_42\n      jump\t// in\n    tag_63:\n      tag_64\n      jump\t// in\n    tag_62:\n      mload(0x40)\n      tag_65\n      swap2\n      swap1\n      tag_66\n      jump\t// in\n    tag_65:\n      mload(0x40)\n      dup1\n      swap2\n      sub\n      swap1\n      return\n        /* \"PublicContract.sol\":1800:2217  function register(string memory  name,address publicAddress,address myContractAddress)public {... */\n    tag_11:\n      tag_67\n      0x04\n      dup1\n      calldatasize\n      sub\n      dup2\n      add\n      swap1\n      tag_68\n      swap2\n      swap1\n      tag_69\n      jump\t// in\n    tag_68:\n      tag_70\n      jump\t// in\n    tag_67:\n      stop\n        /* \"PublicContract.sol\":5992:6616  function releaseTheSecret(address secretOwner,string memory sharedString)public {... */\n    tag_12:\n      tag_71\n      0x04\n      dup1\n      calldatasize\n      sub\n      dup2\n      add\n      swap1\n      tag_72\n      swap2\n      swap1\n      tag_73\n      jump\t// in\n    tag_72:\n      tag_74\n      jump\t// in\n    tag_71:\n      stop\n        /* \"PublicContract.sol\":2269:2454  function getContractAddressByName(string memory name) public view returns(SampleNode memory){... */\n    tag_13:\n      tag_75\n      0x04\n      dup1\n      calldatasize\n      sub\n      dup2\n      add\n      swap1\n      tag_76\n      swap2\n      swap1\n      tag_36\n      jump\t// in\n    tag_76:\n      tag_77\n      jump\t// in\n    tag_75:\n      mload(0x40)\n      tag_78\n      swap2\n      swap1\n      tag_79\n      jump\t// in\n    tag_78:\n      mload(0x40)\n      dup1\n      swap2\n      sub\n      swap1\n      return\n        /* \"PublicContract.sol\":12465:12945  function makeARequestToGetVaultHash(string memory name,string memory tempOtp)public view returns(string memory) {... */\n    tag_14:\n      tag_80\n      0x04\n      dup1\n      calldatasize\n      sub\n      dup2\n      add\n      swap1\n      tag_81\n      swap2\n      swap1\n      tag_82\n      jump\t// in\n    tag_81:\n      tag_83\n      jump\t// in\n    tag_80:\n      mload(0x40)\n      tag_84\n      swap2\n      swap1\n      tag_53\n      jump\t// in\n    tag_84:\n      mload(0x40)\n      dup1\n      swap2\n      sub\n      swap1\n      return\n        /* \"PublicContract.sol\":2845:3546  function checkRequestsByShareholder(address holderAddress)public view returns(address[] memory ) {... */\n    tag_15:\n      tag_85\n      0x04\n      dup1\n      calldatasize\n      sub\n      dup2\n      add\n      swap1\n      tag_86\n      swap2\n      swap1\n      tag_42\n      jump\t// in\n    tag_86:\n      tag_87\n      jump\t// in\n    tag_85:\n      mload(0x40)\n      tag_88\n      swap2\n      swap1\n      tag_66\n      jump\t// in\n    tag_88:\n      mload(0x40)\n      dup1\n      swap2\n      sub\n      swap1\n      return\n        /* \"PublicContract.sol\":5528:5950  function deleteShareRequest(address requseterAddress,address secretOwnerAddress)public{... */\n    tag_16:\n      tag_89\n      0x04\n      dup1\n      calldatasize\n      sub\n      dup2\n      add\n      swap1\n      tag_90\n      swap2\n      swap1\n      tag_56\n      jump\t// in\n    tag_90:\n      tag_91\n      jump\t// in\n    tag_89:\n      stop\n        /* \"PublicContract.sol\":2507:2672  function getContractAddressByPublicAddress(address publicAddress) public view returns(address ){... */\n    tag_17:\n      tag_92\n      0x04\n      dup1\n      calldatasize\n      sub\n      dup2\n      add\n      swap1\n      tag_93\n      swap2\n      swap1\n      tag_42\n      jump\t// in\n    tag_93:\n      tag_94\n      jump\t// in\n    tag_92:\n      mload(0x40)\n      tag_95\n      swap2\n      swap1\n      tag_96\n      jump\t// in\n    tag_95:\n      mload(0x40)\n      dup1\n      swap2\n      sub\n      swap1\n      return\n        /* \"PublicContract.sol\":7379:7967  function respondToBeShareHolder(address shareHolder,address secretOwner,bool  acceptance)public {... */\n    tag_18:\n      tag_97\n      0x04\n      dup1\n      calldatasize\n      sub\n      dup2\n      add\n      swap1\n      tag_98\n      swap2\n      swap1\n      tag_99\n      jump\t// in\n    tag_98:\n      tag_100\n      jump\t// in\n    tag_97:\n      stop\n        /* \"PublicContract.sol\":4015:4901  function checkRequestsForTheSeceret(address[]memory secretOwners)public view returns(address[] memory ) {... */\n    tag_19:\n      tag_101\n      0x04\n      dup1\n      calldatasize\n      sub\n      dup2\n      add\n      swap1\n      tag_102\n      swap2\n      swap1\n      tag_30\n      jump\t// in\n    tag_102:\n      tag_103\n      jump\t// in\n    tag_101:\n      mload(0x40)\n      tag_104\n      swap2\n      swap1\n      tag_66\n      jump\t// in\n    tag_104:\n      mload(0x40)\n      dup1\n      swap2\n      sub\n      swap1\n      return\n        /* \"PublicContract.sol\":6680:7023  function updateOwnersAcceptedToReleaseList(address secretOwner,address shareHolder)public {... */\n    tag_20:\n      tag_105\n      0x04\n      dup1\n      calldatasize\n      sub\n      dup2\n      add\n      swap1\n      tag_106\n      swap2\n      swap1\n      tag_56\n      jump\t// in\n    tag_106:\n      tag_107\n      jump\t// in\n    tag_105:\n      stop\n        /* \"PublicContract.sol\":11533:11892  function makeSharesAccessibleToTheHolders(address secretOwner,address holder,string memory sharedString) public{... */\n    tag_21:\n      tag_108\n      0x04\n      dup1\n      calldatasize\n      sub\n      dup2\n      add\n      swap1\n      tag_109\n      swap2\n      swap1\n      tag_110\n      jump\t// in\n    tag_109:\n      tag_111\n      jump\t// in\n    tag_108:\n      stop\n        /* \"PublicContract.sol\":8872:9900  function getRequestAcceptedHoldersList(address secretOwner)public returns(address[] memory) {... */\n    tag_22:\n      tag_112\n      0x04\n      dup1\n      calldatasize\n      sub\n      dup2\n      add\n      swap1\n      tag_113\n      swap2\n      swap1\n      tag_42\n      jump\t// in\n    tag_113:\n      tag_114\n      jump\t// in\n    tag_112:\n      mload(0x40)\n      tag_115\n      swap2\n      swap1\n      tag_66\n      jump\t// in\n    tag_115:\n      mload(0x40)\n      dup1\n      swap2\n      sub\n      swap1\n      return\n        /* \"PublicContract.sol\":7067:7336  function removeFromHolderRequestList(uint256 index) public {... */\n    tag_23:\n      tag_116\n      0x04\n      dup1\n      calldatasize\n      sub\n      dup2\n      add\n      swap1\n      tag_117\n      swap2\n      swap1\n      tag_118\n      jump\t// in\n    tag_117:\n      tag_119\n      jump\t// in\n    tag_116:\n      stop\n        /* \"PublicContract.sol\":11944:12459  function makeARequestToGetShares(string memory name,address requesterAddress,string memory tempOtp)public {... */\n    tag_24:\n      tag_120\n      0x04\n      dup1\n      calldatasize\n      sub\n      dup2\n      add\n      swap1\n      tag_121\n      swap2\n      swap1\n      tag_122\n      jump\t// in\n    tag_121:\n      tag_123\n      jump\t// in\n    tag_120:\n      stop\n        /* \"PublicContract.sol\":4915:5486  function getSecretOwnerAddressesCountInSecretRequests(address[]memory secretOwners)public view returns(uint256) {... */\n    tag_31:\n        /* \"PublicContract.sol\":5018:5025  uint256 */\n      0x00\n        /* \"PublicContract.sol\":5038:5052  uint256  count */\n      dup1\n        /* \"PublicContract.sol\":5055:5056  0 */\n      0x00\n        /* \"PublicContract.sol\":5038:5056  uint256  count = 0 */\n      swap1\n      pop\n        /* \"PublicContract.sol\":5072:5081  uint256 i */\n      0x00\n        /* \"PublicContract.sol\":5067:5456  for (uint256 i = 0; i<secretOwners.length; i++){... */\n    tag_125:\n        /* \"PublicContract.sol\":5089:5101  secretOwners */\n      dup4\n        /* \"PublicContract.sol\":5089:5108  secretOwners.length */\n      mload\n        /* \"PublicContract.sol\":5087:5088  i */\n      dup2\n        /* \"PublicContract.sol\":5087:5108  i<secretOwners.length */\n      lt\n        /* \"PublicContract.sol\":5067:5456  for (uint256 i = 0; i<secretOwners.length; i++){... */\n      iszero\n      tag_126\n      jumpi\n        /* \"PublicContract.sol\":5128:5146  address  tempOwner */\n      0x00\n        /* \"PublicContract.sol\":5148:5160  secretOwners */\n      dup5\n        /* \"PublicContract.sol\":5161:5162  i */\n      dup3\n        /* \"PublicContract.sol\":5148:5163  secretOwners[i] */\n      dup2\n      mload\n      dup2\n      lt\n      tag_128\n      jumpi\n      tag_129\n      tag_130\n      jump\t// in\n    tag_129:\n    tag_128:\n      0x20\n      mul\n      0x20\n      add\n      add\n      mload\n        /* \"PublicContract.sol\":5128:5163  address  tempOwner =secretOwners[i] */\n      swap1\n      pop\n        /* \"PublicContract.sol\":5183:5192  uint256 j */\n      0x00\n        /* \"PublicContract.sol\":5178:5443  for (uint256 j = 0; j<secretRequests.length; j++){... */\n    tag_131:\n        /* \"PublicContract.sol\":5200:5214  secretRequests */\n      0x03\n        /* \"PublicContract.sol\":5200:5221  secretRequests.length */\n      dup1\n      sload\n      swap1\n      pop\n        /* \"PublicContract.sol\":5198:5199  j */\n      dup2\n        /* \"PublicContract.sol\":5198:5221  j<secretRequests.length */\n      lt\n        /* \"PublicContract.sol\":5178:5443  for (uint256 j = 0; j<secretRequests.length; j++){... */\n      iszero\n      tag_132\n      jumpi\n        /* \"PublicContract.sol\":5246:5283  ShareRequest memory tempSecretRequest */\n      0x00\n        /* \"PublicContract.sol\":5284:5298  secretRequests */\n      0x03\n        /* \"PublicContract.sol\":5299:5300  j */\n      dup3\n        /* \"PublicContract.sol\":5284:5301  secretRequests[j] */\n      dup2\n      sload\n      dup2\n      lt\n      tag_134\n      jumpi\n      tag_135\n      tag_130\n      jump\t// in\n    tag_135:\n    tag_134:\n      swap1\n      0x00\n      mstore\n      keccak256(0x00, 0x20)\n      swap1\n      0x03\n      mul\n      add\n        /* \"PublicContract.sol\":5246:5301  ShareRequest memory tempSecretRequest=secretRequests[j] */\n      mload(0x40)\n      dup1\n      0x60\n      add\n      0x40\n      mstore\n      swap1\n      dup2\n      0x00\n      dup3\n      add\n      0x00\n      swap1\n      sload\n      swap1\n      0x0100\n      exp\n      swap1\n      div\n      0xffffffffffffffffffffffffffffffffffffffff\n      and\n      0xffffffffffffffffffffffffffffffffffffffff\n      and\n      0xffffffffffffffffffffffffffffffffffffffff\n      and\n      dup2\n      mstore\n      0x20\n      add\n      0x01\n      dup3\n      add\n      dup1\n      sload\n      tag_137\n      swap1\n      tag_138\n      jump\t// in\n    tag_137:\n      dup1\n      0x1f\n      add\n      0x20\n      dup1\n      swap2\n      div\n      mul\n      0x20\n      add\n      mload(0x40)\n      swap1\n      dup2\n      add\n      0x40\n      mstore\n      dup1\n      swap3\n      swap2\n      swap1\n      dup2\n      dup2\n      mstore\n      0x20\n      add\n      dup3\n      dup1\n      sload\n      tag_139\n      swap1\n      tag_138\n      jump\t// in\n    tag_139:\n      dup1\n      iszero\n      tag_140\n      jumpi\n      dup1\n      0x1f\n      lt\n      tag_141\n      jumpi\n      0x0100\n      dup1\n      dup4\n      sload\n      div\n      mul\n      dup4\n      mstore\n      swap2\n      0x20\n      add\n      swap2\n      jump(tag_140)\n    tag_141:\n      dup3\n      add\n      swap2\n      swap1\n      0x00\n      mstore\n      keccak256(0x00, 0x20)\n      swap1\n    tag_142:\n      dup2\n      sload\n      dup2\n      mstore\n      swap1\n      0x01\n      add\n      swap1\n      0x20\n      add\n      dup1\n      dup4\n      gt\n      tag_142\n      jumpi\n      dup3\n      swap1\n      sub\n      0x1f\n      and\n      dup3\n      add\n      swap2\n    tag_140:\n      pop\n      pop\n      pop\n      pop\n      pop\n      dup2\n      mstore\n      0x20\n      add\n      0x02\n      dup3\n      add\n      0x00\n      swap1\n      sload\n      swap1\n      0x0100\n      exp\n      swap1\n      div\n      0xffffffffffffffffffffffffffffffffffffffff\n      and\n      0xffffffffffffffffffffffffffffffffffffffff\n      and\n      0xffffffffffffffffffffffffffffffffffffffff\n      and\n      dup2\n      mstore\n      pop\n      pop\n      swap1\n      pop\n        /* \"PublicContract.sol\":5356:5365  tempOwner */\n      dup3\n        /* \"PublicContract.sol\":5324:5365  tempSecretRequest.ownerAddress==tempOwner */\n      0xffffffffffffffffffffffffffffffffffffffff\n      and\n        /* \"PublicContract.sol\":5324:5341  tempSecretRequest */\n      dup2\n        /* \"PublicContract.sol\":5324:5354  tempSecretRequest.ownerAddress */\n      0x40\n      add\n      mload\n        /* \"PublicContract.sol\":5324:5365  tempSecretRequest.ownerAddress==tempOwner */\n      0xffffffffffffffffffffffffffffffffffffffff\n      and\n      sub\n        /* \"PublicContract.sol\":5320:5426  if (tempSecretRequest.ownerAddress==tempOwner){... */\n      tag_143\n      jumpi\n        /* \"PublicContract.sol\":5405:5406  1 */\n      0x01\n        /* \"PublicContract.sol\":5397:5402  count */\n      dup6\n        /* \"PublicContract.sol\":5397:5406  count + 1 */\n      tag_144\n      swap2\n      swap1\n      tag_145\n      jump\t// in\n    tag_144:\n        /* \"PublicContract.sol\":5389:5406  count = count + 1 */\n      swap5\n      pop\n        /* \"PublicContract.sol\":5320:5426  if (tempSecretRequest.ownerAddress==tempOwner){... */\n    tag_143:\n        /* \"PublicContract.sol\":5227:5443  {... */\n      pop\n        /* \"PublicContract.sol\":5223:5226  j++ */\n      dup1\n      dup1\n      tag_146\n      swap1\n      tag_147\n      jump\t// in\n    tag_146:\n      swap2\n      pop\n      pop\n        /* \"PublicContract.sol\":5178:5443  for (uint256 j = 0; j<secretRequests.length; j++){... */\n      jump(tag_131)\n    tag_132:\n      pop\n        /* \"PublicContract.sol\":5114:5456  {... */\n      pop\n        /* \"PublicContract.sol\":5110:5113  i++ */\n      dup1\n      dup1\n      tag_148\n      swap1\n      tag_147\n      jump\t// in\n    tag_148:\n      swap2\n      pop\n      pop\n        /* \"PublicContract.sol\":5067:5456  for (uint256 i = 0; i<secretOwners.length; i++){... */\n      jump(tag_125)\n    tag_126:\n      pop\n        /* \"PublicContract.sol\":5473:5478  count */\n      dup1\n        /* \"PublicContract.sol\":5466:5478  return count */\n      swap2\n      pop\n      pop\n        /* \"PublicContract.sol\":4915:5486  function getSecretOwnerAddressesCountInSecretRequests(address[]memory secretOwners)public view returns(uint256) {... */\n      swap2\n      swap1\n      pop\n      jump\t// out\n        /* \"PublicContract.sol\":1557:1752  function isExists(string memory name) public view returns (bool){... */\n    tag_37:\n        /* \"PublicContract.sol\":1616:1620  bool */\n      0x00\n        /* \"PublicContract.sol\":1681:1682  0 */\n      dup1\n        /* \"PublicContract.sol\":1635:1683  sampleNodesMap[name].publicAddress == address(0) */\n      0xffffffffffffffffffffffffffffffffffffffff\n      and\n        /* \"PublicContract.sol\":1635:1649  sampleNodesMap */\n      0x01\n        /* \"PublicContract.sol\":1650:1654  name */\n      dup4\n        /* \"PublicContract.sol\":1635:1655  sampleNodesMap[name] */\n      mload(0x40)\n      tag_150\n      swap2\n      swap1\n      tag_151\n      jump\t// in\n    tag_150:\n      swap1\n      dup2\n      mstore\n      0x20\n      add\n      mload(0x40)\n      dup1\n      swap2\n      sub\n      swap1\n      keccak256\n        /* \"PublicContract.sol\":1635:1669  sampleNodesMap[name].publicAddress */\n      0x00\n      add\n      0x00\n      swap1\n      sload\n      swap1\n      0x0100\n      exp\n      swap1\n      div\n      0xffffffffffffffffffffffffffffffffffffffff\n      and\n        /* \"PublicContract.sol\":1635:1683  sampleNodesMap[name].publicAddress == address(0) */\n      0xffffffffffffffffffffffffffffffffffffffff\n      and\n      sub\n        /* \"PublicContract.sol\":1632:1723  if(sampleNodesMap[name].publicAddress == address(0)){... */\n      tag_152\n      jumpi\n        /* \"PublicContract.sol\":1706:1711  false */\n      0x00\n        /* \"PublicContract.sol\":1699:1711  return false */\n      swap1\n      pop\n      jump(tag_149)\n        /* \"PublicContract.sol\":1632:1723  if(sampleNodesMap[name].publicAddress == address(0)){... */\n    tag_152:\n        /* \"PublicContract.sol\":1740:1744  true */\n      0x01\n        /* \"PublicContract.sol\":1733:1744  return true */\n      swap1\n      pop\n        /* \"PublicContract.sol\":1557:1752  function isExists(string memory name) public view returns (bool){... */\n    tag_149:\n      swap2\n      swap1\n      pop\n      jump\t// out\n        /* \"PublicContract.sol\":9957:10386  function getSecretHolderAddressesCountInRejectedHoldersList(address ownerAddress)public view returns(uint256) {... */\n    tag_43:\n        /* \"PublicContract.sol\":10058:10065  uint256 */\n      0x00\n        /* \"PublicContract.sol\":10078:10092  uint256  count */\n      dup1\n        /* \"PublicContract.sol\":10095:10096  0 */\n      0x00\n        /* \"PublicContract.sol\":10078:10096  uint256  count = 0 */\n      swap1\n      pop\n        /* \"PublicContract.sol\":10112:10121  uint256 i */\n      0x00\n        /* \"PublicContract.sol\":10107:10356  for (uint256 i = 0; i<rejectedShareHolderRequests.length; i++){... */\n    tag_154:\n        /* \"PublicContract.sol\":10129:10156  rejectedShareHolderRequests */\n      0x05\n        /* \"PublicContract.sol\":10129:10163  rejectedShareHolderRequests.length */\n      dup1\n      sload\n      swap1\n      pop\n        /* \"PublicContract.sol\":10127:10128  i */\n      dup2\n        /* \"PublicContract.sol\":10127:10163  i<rejectedShareHolderRequests.length */\n      lt\n        /* \"PublicContract.sol\":10107:10356  for (uint256 i = 0; i<rejectedShareHolderRequests.length; i++){... */\n      iszero\n      tag_155\n      jumpi\n        /* \"PublicContract.sol\":10184:10206  Request memory request */\n      0x00\n        /* \"PublicContract.sol\":10208:10235  rejectedShareHolderRequests */\n      0x05\n        /* \"PublicContract.sol\":10236:10237  i */\n      dup3\n        /* \"PublicContract.sol\":10208:10238  rejectedShareHolderRequests[i] */\n      dup2\n      sload\n      dup2\n      lt\n      tag_157\n      jumpi\n      tag_158\n      tag_130\n      jump\t// in\n    tag_158:\n    tag_157:\n      swap1\n      0x00\n      mstore\n      keccak256(0x00, 0x20)\n      swap1\n      0x02\n      mul\n      add\n        /* \"PublicContract.sol\":10184:10238  Request memory request= rejectedShareHolderRequests[i] */\n      mload(0x40)\n      dup1\n      0x40\n      add\n      0x40\n      mstore\n      swap1\n      dup2\n      0x00\n      dup3\n      add\n      0x00\n      swap1\n      sload\n      swap1\n      0x0100\n      exp\n      swap1\n      div\n      0xffffffffffffffffffffffffffffffffffffffff\n      and\n      0xffffffffffffffffffffffffffffffffffffffff\n      and\n      0xffffffffffffffffffffffffffffffffffffffff\n      and\n      dup2\n      mstore\n      0x20\n      add\n      0x01\n      dup3\n      add\n      0x00\n      swap1\n      sload\n      swap1\n      0x0100\n      exp\n      swap1\n      div\n      0xffffffffffffffffffffffffffffffffffffffff\n      and\n      0xffffffffffffffffffffffffffffffffffffffff\n      and\n      0xffffffffffffffffffffffffffffffffffffffff\n      and\n      dup2\n      mstore\n      pop\n      pop\n      swap1\n      pop\n        /* \"PublicContract.sol\":10278:10290  ownerAddress */\n      dup5\n        /* \"PublicContract.sol\":10257:10290  request.secretOwner==ownerAddress */\n      0xffffffffffffffffffffffffffffffffffffffff\n      and\n        /* \"PublicContract.sol\":10257:10264  request */\n      dup2\n        /* \"PublicContract.sol\":10257:10276  request.secretOwner */\n      0x00\n      add\n      mload\n        /* \"PublicContract.sol\":10257:10290  request.secretOwner==ownerAddress */\n      0xffffffffffffffffffffffffffffffffffffffff\n      and\n      sub\n        /* \"PublicContract.sol\":10253:10343  if (request.secretOwner==ownerAddress){... */\n      tag_160\n      jumpi\n        /* \"PublicContract.sol\":10326:10327  1 */\n      0x01\n        /* \"PublicContract.sol\":10318:10323  count */\n      dup4\n        /* \"PublicContract.sol\":10318:10327  count + 1 */\n      tag_161\n      swap2\n      swap1\n      tag_145\n      jump\t// in\n    tag_161:\n        /* \"PublicContract.sol\":10310:10327  count = count + 1 */\n      swap3\n      pop\n        /* \"PublicContract.sol\":10253:10343  if (request.secretOwner==ownerAddress){... */\n    tag_160:\n        /* \"PublicContract.sol\":10169:10356  {... */\n      pop\n        /* \"PublicContract.sol\":10165:10168  i++ */\n      dup1\n      dup1\n      tag_162\n      swap1\n      tag_147\n      jump\t// in\n    tag_162:\n      swap2\n      pop\n      pop\n        /* \"PublicContract.sol\":10107:10356  for (uint256 i = 0; i<rejectedShareHolderRequests.length; i++){... */\n      jump(tag_154)\n    tag_155:\n      pop\n        /* \"PublicContract.sol\":10373:10378  count */\n      dup1\n        /* \"PublicContract.sol\":10366:10378  return count */\n      swap2\n      pop\n      pop\n        /* \"PublicContract.sol\":9957:10386  function getSecretHolderAddressesCountInRejectedHoldersList(address ownerAddress)public view returns(uint256) {... */\n      swap2\n      swap1\n      pop\n      jump\t// out\n        /* \"PublicContract.sol\":8383:8812  function getSecretHolderAddressesCountInAcceptedHoldersList(address ownerAddress)public view returns(uint256) {... */\n    tag_47:\n        /* \"PublicContract.sol\":8484:8491  uint256 */\n      0x00\n        /* \"PublicContract.sol\":8504:8518  uint256  count */\n      dup1\n        /* \"PublicContract.sol\":8521:8522  0 */\n      0x00\n        /* \"PublicContract.sol\":8504:8522  uint256  count = 0 */\n      swap1\n      pop\n        /* \"PublicContract.sol\":8538:8547  uint256 i */\n      0x00\n        /* \"PublicContract.sol\":8533:8782  for (uint256 i = 0; i<acceptedShareHolderRequests.length; i++){... */\n    tag_164:\n        /* \"PublicContract.sol\":8555:8582  acceptedShareHolderRequests */\n      0x04\n        /* \"PublicContract.sol\":8555:8589  acceptedShareHolderRequests.length */\n      dup1\n      sload\n      swap1\n      pop\n        /* \"PublicContract.sol\":8553:8554  i */\n      dup2\n        /* \"PublicContract.sol\":8553:8589  i<acceptedShareHolderRequests.length */\n      lt\n        /* \"PublicContract.sol\":8533:8782  for (uint256 i = 0; i<acceptedShareHolderRequests.length; i++){... */\n      iszero\n      tag_165\n      jumpi\n        /* \"PublicContract.sol\":8610:8632  Request memory request */\n      0x00\n        /* \"PublicContract.sol\":8634:8661  acceptedShareHolderRequests */\n      0x04\n        /* \"PublicContract.sol\":8662:8663  i */\n      dup3\n        /* \"PublicContract.sol\":8634:8664  acceptedShareHolderRequests[i] */\n      dup2\n      sload\n      dup2\n      lt\n      tag_167\n      jumpi\n      tag_168\n      tag_130\n      jump\t// in\n    tag_168:\n    tag_167:\n      swap1\n      0x00\n      mstore\n      keccak256(0x00, 0x20)\n      swap1\n      0x02\n      mul\n      add\n        /* \"PublicContract.sol\":8610:8664  Request memory request= acceptedShareHolderRequests[i] */\n      mload(0x40)\n      dup1\n      0x40\n      add\n      0x40\n      mstore\n      swap1\n      dup2\n      0x00\n      dup3\n      add\n      0x00\n      swap1\n      sload\n      swap1\n      0x0100\n      exp\n      swap1\n      div\n      0xffffffffffffffffffffffffffffffffffffffff\n      and\n      0xffffffffffffffffffffffffffffffffffffffff\n      and\n      0xffffffffffffffffffffffffffffffffffffffff\n      and\n      dup2\n      mstore\n      0x20\n      add\n      0x01\n      dup3\n      add\n      0x00\n      swap1\n      sload\n      swap1\n      0x0100\n      exp\n      swap1\n      div\n      0xffffffffffffffffffffffffffffffffffffffff\n      and\n      0xffffffffffffffffffffffffffffffffffffffff\n      and\n      0xffffffffffffffffffffffffffffffffffffffff\n      and\n      dup2\n      mstore\n      pop\n      pop\n      swap1\n      pop\n        /* \"PublicContract.sol\":8704:8716  ownerAddress */\n      dup5\n        /* \"PublicContract.sol\":8683:8716  request.secretOwner==ownerAddress */\n      0xffffffffffffffffffffffffffffffffffffffff\n      and\n        /* \"PublicContract.sol\":8683:8690  request */\n      dup2\n        /* \"PublicContract.sol\":8683:8702  request.secretOwner */\n      0x00\n      add\n      mload\n        /* \"PublicContract.sol\":8683:8716  request.secretOwner==ownerAddress */\n      0xffffffffffffffffffffffffffffffffffffffff\n      and\n      sub\n        /* \"PublicContract.sol\":8679:8769  if (request.secretOwner==ownerAddress){... */\n      tag_170\n      jumpi\n        /* \"PublicContract.sol\":8752:8753  1 */\n      0x01\n        /* \"PublicContract.sol\":8744:8749  count */\n      dup4\n        /* \"PublicContract.sol\":8744:8753  count + 1 */\n      tag_171\n      swap2\n      swap1\n      tag_145\n      jump\t// in\n    tag_171:\n        /* \"PublicContract.sol\":8736:8753  count = count + 1 */\n      swap3\n      pop\n        /* \"PublicContract.sol\":8679:8769  if (request.secretOwner==ownerAddress){... */\n    tag_170:\n        /* \"PublicContract.sol\":8595:8782  {... */\n      pop\n        /* \"PublicContract.sol\":8591:8594  i++ */\n      dup1\n      dup1\n      tag_172\n      swap1\n      tag_147\n      jump\t// in\n    tag_172:\n      swap2\n      pop\n      pop\n        /* \"PublicContract.sol\":8533:8782  for (uint256 i = 0; i<acceptedShareHolderRequests.length; i++){... */\n      jump(tag_164)\n    tag_165:\n      pop\n        /* \"PublicContract.sol\":8799:8804  count */\n      dup1\n        /* \"PublicContract.sol\":8792:8804  return count */\n      swap2\n      pop\n      pop\n        /* \"PublicContract.sol\":8383:8812  function getSecretHolderAddressesCountInAcceptedHoldersList(address ownerAddress)public view returns(uint256) {... */\n      swap2\n      swap1\n      pop\n      jump\t// out\n        /* \"PublicContract.sol\":12985:13288  function getEmailAddressByUserName(string memory name)public view returns(string memory) {... */\n    tag_51:\n        /* \"PublicContract.sol\":13059:13072  string memory */\n      0x60\n        /* \"PublicContract.sol\":12985:13288  function getEmailAddressByUserName(string memory name)public view returns(string memory) {... */\n      swap2\n      swap1\n      pop\n      jump\t// out\n        /* \"PublicContract.sol\":8132:8330  function makeARequestToBeAShareHolder(address secretOwner,address holder)public {... */\n    tag_57:\n        /* \"PublicContract.sol\":8223:8249  Request memory new_request */\n      0x00\n        /* \"PublicContract.sol\":8251:8278  Request(secretOwner,holder) */\n      mload(0x40)\n      dup1\n      0x40\n      add\n      0x40\n      mstore\n      dup1\n        /* \"PublicContract.sol\":8259:8270  secretOwner */\n      dup5\n        /* \"PublicContract.sol\":8251:8278  Request(secretOwner,holder) */\n      0xffffffffffffffffffffffffffffffffffffffff\n      and\n      dup2\n      mstore\n      0x20\n      add\n        /* \"PublicContract.sol\":8271:8277  holder */\n      dup4\n        /* \"PublicContract.sol\":8251:8278  Request(secretOwner,holder) */\n      0xffffffffffffffffffffffffffffffffffffffff\n      and\n      dup2\n      mstore\n      pop\n        /* \"PublicContract.sol\":8223:8278  Request memory new_request= Request(secretOwner,holder) */\n      swap1\n      pop\n        /* \"PublicContract.sol\":8289:8303  holderRequests */\n      0x02\n        /* \"PublicContract.sol\":8309:8320  new_request */\n      dup2\n        /* \"PublicContract.sol\":8289:8321  holderRequests.push(new_request) */\n      swap1\n      dup1\n      0x01\n      dup2\n      sload\n      add\n      dup1\n      dup3\n      sstore\n      dup1\n      swap2\n      pop\n      pop\n      0x01\n      swap1\n      sub\n      swap1\n      0x00\n      mstore\n      keccak256(0x00, 0x20)\n      swap1\n      0x02\n      mul\n      add\n      0x00\n      swap1\n      swap2\n      swap1\n      swap2\n      swap1\n      swap2\n      pop\n      0x00\n      dup3\n      add\n      mload\n      dup2\n      0x00\n      add\n      exp(0x0100, 0x00)\n      dup2\n      sload\n      dup2\n      0xffffffffffffffffffffffffffffffffffffffff\n      mul\n      not\n      and\n      swap1\n      dup4\n      0xffffffffffffffffffffffffffffffffffffffff\n      and\n      mul\n      or\n      swap1\n      sstore\n      pop\n      0x20\n      dup3\n      add\n      mload\n      dup2\n      0x01\n      add\n      exp(0x0100, 0x00)\n      dup2\n      sload\n      dup2\n      0xffffffffffffffffffffffffffffffffffffffff\n      mul\n      not\n      and\n      swap1\n      dup4\n      0xffffffffffffffffffffffffffffffffffffffff\n      and\n      mul\n      or\n      swap1\n      sstore\n      pop\n      pop\n      pop\n        /* \"PublicContract.sol\":8212:8330  {... */\n      pop\n        /* \"PublicContract.sol\":8132:8330  function makeARequestToBeAShareHolder(address secretOwner,address holder)public {... */\n      pop\n      pop\n      jump\t// out\n        /* \"PublicContract.sol\":3554:3951  function getSecretOwnerAddressesCountInHolderRequests(address holderAddress)public view returns(uint256) {... */\n    tag_60:\n        /* \"PublicContract.sol\":3650:3657  uint256 */\n      0x00\n        /* \"PublicContract.sol\":3670:3684  uint256  count */\n      dup1\n        /* \"PublicContract.sol\":3687:3688  0 */\n      0x00\n        /* \"PublicContract.sol\":3670:3688  uint256  count = 0 */\n      swap1\n      pop\n        /* \"PublicContract.sol\":3704:3713  uint256 i */\n      0x00\n        /* \"PublicContract.sol\":3699:3921  for (uint256 i=0; i<holderRequests.length; i++){... */\n    tag_177:\n        /* \"PublicContract.sol\":3719:3733  holderRequests */\n      0x02\n        /* \"PublicContract.sol\":3719:3740  holderRequests.length */\n      dup1\n      sload\n      swap1\n      pop\n        /* \"PublicContract.sol\":3717:3718  i */\n      dup2\n        /* \"PublicContract.sol\":3717:3740  i<holderRequests.length */\n      lt\n        /* \"PublicContract.sol\":3699:3921  for (uint256 i=0; i<holderRequests.length; i++){... */\n      iszero\n      tag_178\n      jumpi\n        /* \"PublicContract.sol\":3761:3783  Request memory request */\n      0x00\n        /* \"PublicContract.sol\":3785:3799  holderRequests */\n      0x02\n        /* \"PublicContract.sol\":3800:3801  i */\n      dup3\n        /* \"PublicContract.sol\":3785:3802  holderRequests[i] */\n      dup2\n      sload\n      dup2\n      lt\n      tag_180\n      jumpi\n      tag_181\n      tag_130\n      jump\t// in\n    tag_181:\n    tag_180:\n      swap1\n      0x00\n      mstore\n      keccak256(0x00, 0x20)\n      swap1\n      0x02\n      mul\n      add\n        /* \"PublicContract.sol\":3761:3802  Request memory request= holderRequests[i] */\n      mload(0x40)\n      dup1\n      0x40\n      add\n      0x40\n      mstore\n      swap1\n      dup2\n      0x00\n      dup3\n      add\n      0x00\n      swap1\n      sload\n      swap1\n      0x0100\n      exp\n      swap1\n      div\n      0xffffffffffffffffffffffffffffffffffffffff\n      and\n      0xffffffffffffffffffffffffffffffffffffffff\n      and\n      0xffffffffffffffffffffffffffffffffffffffff\n      and\n      dup2\n      mstore\n      0x20\n      add\n      0x01\n      dup3\n      add\n      0x00\n      swap1\n      sload\n      swap1\n      0x0100\n      exp\n      swap1\n      div\n      0xffffffffffffffffffffffffffffffffffffffff\n      and\n      0xffffffffffffffffffffffffffffffffffffffff\n      and\n      0xffffffffffffffffffffffffffffffffffffffff\n      and\n      dup2\n      mstore\n      pop\n      pop\n      swap1\n      pop\n        /* \"PublicContract.sol\":3842:3855  holderAddress */\n      dup5\n        /* \"PublicContract.sol\":3821:3855  request.shareHolder==holderAddress */\n      0xffffffffffffffffffffffffffffffffffffffff\n      and\n        /* \"PublicContract.sol\":3821:3828  request */\n      dup2\n        /* \"PublicContract.sol\":3821:3840  request.shareHolder */\n      0x20\n      add\n      mload\n        /* \"PublicContract.sol\":3821:3855  request.shareHolder==holderAddress */\n      0xffffffffffffffffffffffffffffffffffffffff\n      and\n      sub\n        /* \"PublicContract.sol\":3817:3908  if (request.shareHolder==holderAddress){... */\n      tag_183\n      jumpi\n        /* \"PublicContract.sol\":3891:3892  1 */\n      0x01\n        /* \"PublicContract.sol\":3883:3888  count */\n      dup4\n        /* \"PublicContract.sol\":3883:3892  count + 1 */\n      tag_184\n      swap2\n      swap1\n      tag_145\n      jump\t// in\n    tag_184:\n        /* \"PublicContract.sol\":3875:3892  count = count + 1 */\n      swap3\n      pop\n        /* \"PublicContract.sol\":3817:3908  if (request.shareHolder==holderAddress){... */\n    tag_183:\n        /* \"PublicContract.sol\":3746:3921  {... */\n      pop\n        /* \"PublicContract.sol\":3742:3745  i++ */\n      dup1\n      dup1\n      tag_185\n      swap1\n      tag_147\n      jump\t// in\n    tag_185:\n      swap2\n      pop\n      pop\n        /* \"PublicContract.sol\":3699:3921  for (uint256 i=0; i<holderRequests.length; i++){... */\n      jump(tag_177)\n    tag_178:\n      pop\n        /* \"PublicContract.sol\":3938:3943  count */\n      dup1\n        /* \"PublicContract.sol\":3931:3943  return count */\n      swap2\n      pop\n      pop\n        /* \"PublicContract.sol\":3554:3951  function getSecretOwnerAddressesCountInHolderRequests(address holderAddress)public view returns(uint256) {... */\n      swap2\n      swap1\n      pop\n      jump\t// out\n        /* \"PublicContract.sol\":10448:11476  function getRequestRejectedHoldersList(address secretOwner)public returns(address[] memory) {... */\n    tag_64:\n        /* \"PublicContract.sol\":10522:10538  address[] memory */\n      0x60\n        /* \"PublicContract.sol\":10551:10562  uint256 tot */\n      0x00\n        /* \"PublicContract.sol\":10565:10628  getSecretHolderAddressesCountInRejectedHoldersList(secretOwner) */\n      tag_187\n        /* \"PublicContract.sol\":10616:10627  secretOwner */\n      dup4\n        /* \"PublicContract.sol\":10565:10615  getSecretHolderAddressesCountInRejectedHoldersList */\n      tag_43\n        /* \"PublicContract.sol\":10565:10628  getSecretHolderAddressesCountInRejectedHoldersList(secretOwner) */\n      jump\t// in\n    tag_187:\n        /* \"PublicContract.sol\":10551:10628  uint256 tot = getSecretHolderAddressesCountInRejectedHoldersList(secretOwner) */\n      swap1\n      pop\n        /* \"PublicContract.sol\":10728:10741  uint256 count */\n      0x00\n        /* \"PublicContract.sol\":10756:10794  address[] memory _shareHolderAddresses */\n      dup1\n        /* \"PublicContract.sol\":10811:10814  tot */\n      dup3\n        /* \"PublicContract.sol\":10797:10815  new address[](tot) */\n      0xffffffffffffffff\n      dup2\n      gt\n      iszero\n      tag_188\n      jumpi\n      tag_189\n      tag_190\n      jump\t// in\n    tag_189:\n    tag_188:\n      mload(0x40)\n      swap1\n      dup1\n      dup3\n      mstore\n      dup1\n      0x20\n      mul\n      0x20\n      add\n      dup3\n      add\n      0x40\n      mstore\n      dup1\n      iszero\n      tag_191\n      jumpi\n      dup2\n      0x20\n      add\n      0x20\n      dup3\n      mul\n      dup1\n      calldatasize\n      dup4\n      calldatacopy\n      dup1\n      dup3\n      add\n      swap2\n      pop\n      pop\n      swap1\n      pop\n    tag_191:\n      pop\n        /* \"PublicContract.sol\":10756:10815  address[] memory _shareHolderAddresses = new address[](tot) */\n      swap1\n      pop\n        /* \"PublicContract.sol\":10843:10852  uint256 i */\n      0x00\n        /* \"PublicContract.sol\":10838:11155  for (uint256 i = 0; i<rejectedShareHolderRequests.length; i++){... */\n    tag_192:\n        /* \"PublicContract.sol\":10860:10887  rejectedShareHolderRequests */\n      0x05\n        /* \"PublicContract.sol\":10860:10894  rejectedShareHolderRequests.length */\n      dup1\n      sload\n      swap1\n      pop\n        /* \"PublicContract.sol\":10858:10859  i */\n      dup2\n        /* \"PublicContract.sol\":10858:10894  i<rejectedShareHolderRequests.length */\n      lt\n        /* \"PublicContract.sol\":10838:11155  for (uint256 i = 0; i<rejectedShareHolderRequests.length; i++){... */\n      iszero\n      tag_193\n      jumpi\n        /* \"PublicContract.sol\":10915:10937  Request memory request */\n      0x00\n        /* \"PublicContract.sol\":10939:10966  rejectedShareHolderRequests */\n      0x05\n        /* \"PublicContract.sol\":10967:10968  i */\n      dup3\n        /* \"PublicContract.sol\":10939:10969  rejectedShareHolderRequests[i] */\n      dup2\n      sload\n      dup2\n      lt\n      tag_195\n      jumpi\n      tag_196\n      tag_130\n      jump\t// in\n    tag_196:\n    tag_195:\n      swap1\n      0x00\n      mstore\n      keccak256(0x00, 0x20)\n      swap1\n      0x02\n      mul\n      add\n        /* \"PublicContract.sol\":10915:10969  Request memory request= rejectedShareHolderRequests[i] */\n      mload(0x40)\n      dup1\n      0x40\n      add\n      0x40\n      mstore\n      swap1\n      dup2\n      0x00\n      dup3\n      add\n      0x00\n      swap1\n      sload\n      swap1\n      0x0100\n      exp\n      swap1\n      div\n      0xffffffffffffffffffffffffffffffffffffffff\n      and\n      0xffffffffffffffffffffffffffffffffffffffff\n      and\n      0xffffffffffffffffffffffffffffffffffffffff\n      and\n      dup2\n      mstore\n      0x20\n      add\n      0x01\n      dup3\n      add\n      0x00\n      swap1\n      sload\n      swap1\n      0x0100\n      exp\n      swap1\n      div\n      0xffffffffffffffffffffffffffffffffffffffff\n      and\n      0xffffffffffffffffffffffffffffffffffffffff\n      and\n      0xffffffffffffffffffffffffffffffffffffffff\n      and\n      dup2\n      mstore\n      pop\n      pop\n      swap1\n      pop\n        /* \"PublicContract.sol\":11009:11020  secretOwner */\n      dup7\n        /* \"PublicContract.sol\":10988:11020  request.secretOwner==secretOwner */\n      0xffffffffffffffffffffffffffffffffffffffff\n      and\n        /* \"PublicContract.sol\":10988:10995  request */\n      dup2\n        /* \"PublicContract.sol\":10988:11007  request.secretOwner */\n      0x00\n      add\n      mload\n        /* \"PublicContract.sol\":10988:11020  request.secretOwner==secretOwner */\n      0xffffffffffffffffffffffffffffffffffffffff\n      and\n      sub\n        /* \"PublicContract.sol\":10984:11142  if (request.secretOwner==secretOwner){... */\n      tag_198\n      jumpi\n        /* \"PublicContract.sol\":11071:11078  request */\n      dup1\n        /* \"PublicContract.sol\":11071:11090  request.shareHolder */\n      0x20\n      add\n      mload\n        /* \"PublicContract.sol\":11040:11061  _shareHolderAddresses */\n      dup4\n        /* \"PublicContract.sol\":11062:11067  count */\n      dup6\n        /* \"PublicContract.sol\":11040:11068  _shareHolderAddresses[count] */\n      dup2\n      mload\n      dup2\n      lt\n      tag_199\n      jumpi\n      tag_200\n      tag_130\n      jump\t// in\n    tag_200:\n    tag_199:\n      0x20\n      mul\n      0x20\n      add\n      add\n        /* \"PublicContract.sol\":11040:11090  _shareHolderAddresses[count] = request.shareHolder */\n      swap1\n      0xffffffffffffffffffffffffffffffffffffffff\n      and\n      swap1\n      dup2\n      0xffffffffffffffffffffffffffffffffffffffff\n      and\n      dup2\n      mstore\n      pop\n      pop\n        /* \"PublicContract.sol\":11125:11126  1 */\n      0x01\n        /* \"PublicContract.sol\":11117:11122  count */\n      dup5\n        /* \"PublicContract.sol\":11117:11126  count + 1 */\n      tag_201\n      swap2\n      swap1\n      tag_145\n      jump\t// in\n    tag_201:\n        /* \"PublicContract.sol\":11109:11126  count = count + 1 */\n      swap4\n      pop\n        /* \"PublicContract.sol\":10984:11142  if (request.secretOwner==secretOwner){... */\n    tag_198:\n        /* \"PublicContract.sol\":10900:11155  {... */\n      pop\n        /* \"PublicContract.sol\":10896:10899  i++ */\n      dup1\n      dup1\n      tag_202\n      swap1\n      tag_147\n      jump\t// in\n    tag_202:\n      swap2\n      pop\n      pop\n        /* \"PublicContract.sol\":10838:11155  for (uint256 i = 0; i<rejectedShareHolderRequests.length; i++){... */\n      jump(tag_192)\n    tag_193:\n      pop\n        /* \"PublicContract.sol\":11170:11179  uint256 i */\n      0x00\n        /* \"PublicContract.sol\":11165:11433  for (uint256 i = 0; i<rejectedShareHolderRequests.length; i++){... */\n    tag_203:\n        /* \"PublicContract.sol\":11187:11214  rejectedShareHolderRequests */\n      0x05\n        /* \"PublicContract.sol\":11187:11221  rejectedShareHolderRequests.length */\n      dup1\n      sload\n      swap1\n      pop\n        /* \"PublicContract.sol\":11185:11186  i */\n      dup2\n        /* \"PublicContract.sol\":11185:11221  i<rejectedShareHolderRequests.length */\n      lt\n        /* \"PublicContract.sol\":11165:11433  for (uint256 i = 0; i<rejectedShareHolderRequests.length; i++){... */\n      iszero\n      tag_204\n      jumpi\n        /* \"PublicContract.sol\":11242:11264  Request memory request */\n      0x00\n        /* \"PublicContract.sol\":11266:11293  rejectedShareHolderRequests */\n      0x05\n        /* \"PublicContract.sol\":11294:11295  i */\n      dup3\n        /* \"PublicContract.sol\":11266:11296  rejectedShareHolderRequests[i] */\n      dup2\n      sload\n      dup2\n      lt\n      tag_206\n      jumpi\n      tag_207\n      tag_130\n      jump\t// in\n    tag_207:\n    tag_206:\n      swap1\n      0x00\n      mstore\n      keccak256(0x00, 0x20)\n      swap1\n      0x02\n      mul\n      add\n        /* \"PublicContract.sol\":11242:11296  Request memory request= rejectedShareHolderRequests[i] */\n      mload(0x40)\n      dup1\n      0x40\n      add\n      0x40\n      mstore\n      swap1\n      dup2\n      0x00\n      dup3\n      add\n      0x00\n      swap1\n      sload\n      swap1\n      0x0100\n      exp\n      swap1\n      div\n      0xffffffffffffffffffffffffffffffffffffffff\n      and\n      0xffffffffffffffffffffffffffffffffffffffff\n      and\n      0xffffffffffffffffffffffffffffffffffffffff\n      and\n      dup2\n      mstore\n      0x20\n      add\n      0x01\n      dup3\n      add\n      0x00\n      swap1\n      sload\n      swap1\n      0x0100\n      exp\n      swap1\n      div\n      0xffffffffffffffffffffffffffffffffffffffff\n      and\n      0xffffffffffffffffffffffffffffffffffffffff\n      and\n      0xffffffffffffffffffffffffffffffffffffffff\n      and\n      dup2\n      mstore\n      pop\n      pop\n      swap1\n      pop\n        /* \"PublicContract.sol\":11336:11347  secretOwner */\n      dup7\n        /* \"PublicContract.sol\":11315:11347  request.secretOwner==secretOwner */\n      0xffffffffffffffffffffffffffffffffffffffff\n      and\n        /* \"PublicContract.sol\":11315:11322  request */\n      dup2\n        /* \"PublicContract.sol\":11315:11334  request.secretOwner */\n      0x00\n      add\n      mload\n        /* \"PublicContract.sol\":11315:11347  request.secretOwner==secretOwner */\n      0xffffffffffffffffffffffffffffffffffffffff\n      and\n      sub\n        /* \"PublicContract.sol\":11311:11420  if (request.secretOwner==secretOwner){... */\n      tag_209\n      jumpi\n        /* \"PublicContract.sol\":11374:11401  rejectedShareHolderRequests */\n      0x05\n        /* \"PublicContract.sol\":11402:11403  i */\n      dup3\n        /* \"PublicContract.sol\":11374:11404  rejectedShareHolderRequests[i] */\n      dup2\n      sload\n      dup2\n      lt\n      tag_210\n      jumpi\n      tag_211\n      tag_130\n      jump\t// in\n    tag_211:\n    tag_210:\n      swap1\n      0x00\n      mstore\n      keccak256(0x00, 0x20)\n      swap1\n      0x02\n      mul\n      add\n      0x00\n        /* \"PublicContract.sol\":11367:11404  delete rejectedShareHolderRequests[i] */\n      dup1\n      dup3\n      add\n      exp(0x0100, 0x00)\n      dup2\n      sload\n      swap1\n      0xffffffffffffffffffffffffffffffffffffffff\n      mul\n      not\n      and\n      swap1\n      sstore\n      0x01\n      dup3\n      add\n      exp(0x0100, 0x00)\n      dup2\n      sload\n      swap1\n      0xffffffffffffffffffffffffffffffffffffffff\n      mul\n      not\n      and\n      swap1\n      sstore\n      pop\n      pop\n        /* \"PublicContract.sol\":11311:11420  if (request.secretOwner==secretOwner){... */\n    tag_209:\n        /* \"PublicContract.sol\":11227:11433  {... */\n      pop\n        /* \"PublicContract.sol\":11223:11226  i++ */\n      dup1\n      dup1\n      tag_213\n      swap1\n      tag_147\n      jump\t// in\n    tag_213:\n      swap2\n      pop\n      pop\n        /* \"PublicContract.sol\":11165:11433  for (uint256 i = 0; i<rejectedShareHolderRequests.length; i++){... */\n      jump(tag_203)\n    tag_204:\n      pop\n        /* \"PublicContract.sol\":11447:11468  _shareHolderAddresses */\n      dup1\n        /* \"PublicContract.sol\":11440:11468  return _shareHolderAddresses */\n      swap4\n      pop\n      pop\n      pop\n      pop\n        /* \"PublicContract.sol\":10448:11476  function getRequestRejectedHoldersList(address secretOwner)public returns(address[] memory) {... */\n      swap2\n      swap1\n      pop\n      jump\t// out\n        /* \"PublicContract.sol\":1800:2217  function register(string memory  name,address publicAddress,address myContractAddress)public {... */\n    tag_70:\n        /* \"PublicContract.sol\":1913:1927  isExists(name) */\n      tag_215\n        /* \"PublicContract.sol\":1922:1926  name */\n      dup4\n        /* \"PublicContract.sol\":1913:1921  isExists */\n      tag_37\n        /* \"PublicContract.sol\":1913:1927  isExists(name) */\n      jump\t// in\n    tag_215:\n        /* \"PublicContract.sol\":1912:1927  !isExists(name) */\n      iszero\n        /* \"PublicContract.sol\":1904:1951  require(!isExists(name), \"Name already exists\") */\n      tag_216\n      jumpi\n      mload(0x40)\n      0x08c379a000000000000000000000000000000000000000000000000000000000\n      dup2\n      mstore\n      0x04\n      add\n      tag_217\n      swap1\n      tag_218\n      jump\t// in\n    tag_217:\n      mload(0x40)\n      dup1\n      swap2\n      sub\n      swap1\n      revert\n    tag_216:\n        /* \"PublicContract.sol\":2039:2056  myContractAddress */\n      dup1\n        /* \"PublicContract.sol\":1994:2023  myAddressToContractAddressMap */\n      0x00\n        /* \"PublicContract.sol\":1994:2038  myAddressToContractAddressMap[publicAddress] */\n      dup1\n        /* \"PublicContract.sol\":2024:2037  publicAddress */\n      dup5\n        /* \"PublicContract.sol\":1994:2038  myAddressToContractAddressMap[publicAddress] */\n      0xffffffffffffffffffffffffffffffffffffffff\n      and\n      0xffffffffffffffffffffffffffffffffffffffff\n      and\n      dup2\n      mstore\n      0x20\n      add\n      swap1\n      dup2\n      mstore\n      0x20\n      add\n      0x00\n      keccak256\n      0x00\n        /* \"PublicContract.sol\":1994:2056  myAddressToContractAddressMap[publicAddress]=myContractAddress */\n      0x0100\n      exp\n      dup2\n      sload\n      dup2\n      0xffffffffffffffffffffffffffffffffffffffff\n      mul\n      not\n      and\n      swap1\n      dup4\n      0xffffffffffffffffffffffffffffffffffffffff\n      and\n      mul\n      or\n      swap1\n      sstore\n      pop\n        /* \"PublicContract.sol\":2067:2100  SampleNode memory registeringNode */\n      0x00\n        /* \"PublicContract.sol\":2102:2145  SampleNode(publicAddress,myContractAddress) */\n      mload(0x40)\n      dup1\n      0x40\n      add\n      0x40\n      mstore\n      dup1\n        /* \"PublicContract.sol\":2113:2126  publicAddress */\n      dup5\n        /* \"PublicContract.sol\":2102:2145  SampleNode(publicAddress,myContractAddress) */\n      0xffffffffffffffffffffffffffffffffffffffff\n      and\n      dup2\n      mstore\n      0x20\n      add\n        /* \"PublicContract.sol\":2127:2144  myContractAddress */\n      dup4\n        /* \"PublicContract.sol\":2102:2145  SampleNode(publicAddress,myContractAddress) */\n      0xffffffffffffffffffffffffffffffffffffffff\n      and\n      dup2\n      mstore\n      pop\n        /* \"PublicContract.sol\":2067:2145  SampleNode memory registeringNode= SampleNode(publicAddress,myContractAddress) */\n      swap1\n      pop\n        /* \"PublicContract.sol\":2177:2192  registeringNode */\n      dup1\n        /* \"PublicContract.sol\":2156:2170  sampleNodesMap */\n      0x01\n        /* \"PublicContract.sol\":2171:2175  name */\n      dup6\n        /* \"PublicContract.sol\":2156:2176  sampleNodesMap[name] */\n      mload(0x40)\n      tag_219\n      swap2\n      swap1\n      tag_151\n      jump\t// in\n    tag_219:\n      swap1\n      dup2\n      mstore\n      0x20\n      add\n      mload(0x40)\n      dup1\n      swap2\n      sub\n      swap1\n      keccak256\n        /* \"PublicContract.sol\":2156:2192  sampleNodesMap[name]=registeringNode */\n      0x00\n      dup3\n      add\n      mload\n      dup2\n      0x00\n      add\n      exp(0x0100, 0x00)\n      dup2\n      sload\n      dup2\n      0xffffffffffffffffffffffffffffffffffffffff\n      mul\n      not\n      and\n      swap1\n      dup4\n      0xffffffffffffffffffffffffffffffffffffffff\n      and\n      mul\n      or\n      swap1\n      sstore\n      pop\n      0x20\n      dup3\n      add\n      mload\n      dup2\n      0x01\n      add\n      exp(0x0100, 0x00)\n      dup2\n      sload\n      dup2\n      0xffffffffffffffffffffffffffffffffffffffff\n      mul\n      not\n      and\n      swap1\n      dup4\n      0xffffffffffffffffffffffffffffffffffffffff\n      and\n      mul\n      or\n      swap1\n      sstore\n      pop\n      swap1\n      pop\n      pop\n        /* \"PublicContract.sol\":2203:2210  return; */\n      pop\n        /* \"PublicContract.sol\":1800:2217  function register(string memory  name,address publicAddress,address myContractAddress)public {... */\n      pop\n      pop\n      pop\n      jump\t// out\n        /* \"PublicContract.sol\":5992:6616  function releaseTheSecret(address secretOwner,string memory sharedString)public {... */\n    tag_74:\n        /* \"PublicContract.sol\":6089:6098  uint256 i */\n      0x00\n        /* \"PublicContract.sol\":6084:6609  for (uint256 i = 0; i<secretRequests.length; i++){... */\n    tag_221:\n        /* \"PublicContract.sol\":6106:6120  secretRequests */\n      0x03\n        /* \"PublicContract.sol\":6106:6127  secretRequests.length */\n      dup1\n      sload\n      swap1\n      pop\n        /* \"PublicContract.sol\":6104:6105  i */\n      dup2\n        /* \"PublicContract.sol\":6104:6127  i<secretRequests.length */\n      lt\n        /* \"PublicContract.sol\":6084:6609  for (uint256 i = 0; i<secretRequests.length; i++){... */\n      iszero\n      tag_222\n      jumpi\n        /* \"PublicContract.sol\":6148:6185  ShareRequest memory tempSecretRequest */\n      0x00\n        /* \"PublicContract.sol\":6186:6200  secretRequests */\n      0x03\n        /* \"PublicContract.sol\":6201:6202  i */\n      dup3\n        /* \"PublicContract.sol\":6186:6203  secretRequests[i] */\n      dup2\n      sload\n      dup2\n      lt\n      tag_224\n      jumpi\n      tag_225\n      tag_130\n      jump\t// in\n    tag_225:\n    tag_224:\n      swap1\n      0x00\n      mstore\n      keccak256(0x00, 0x20)\n      swap1\n      0x03\n      mul\n      add\n        /* \"PublicContract.sol\":6148:6203  ShareRequest memory tempSecretRequest=secretRequests[i] */\n      mload(0x40)\n      dup1\n      0x60\n      add\n      0x40\n      mstore\n      swap1\n      dup2\n      0x00\n      dup3\n      add\n      0x00\n      swap1\n      sload\n      swap1\n      0x0100\n      exp\n      swap1\n      div\n      0xffffffffffffffffffffffffffffffffffffffff\n      and\n      0xffffffffffffffffffffffffffffffffffffffff\n      and\n      0xffffffffffffffffffffffffffffffffffffffff\n      and\n      dup2\n      mstore\n      0x20\n      add\n      0x01\n      dup3\n      add\n      dup1\n      sload\n      tag_227\n      swap1\n      tag_138\n      jump\t// in\n    tag_227:\n      dup1\n      0x1f\n      add\n      0x20\n      dup1\n      swap2\n      div\n      mul\n      0x20\n      add\n      mload(0x40)\n      swap1\n      dup2\n      add\n      0x40\n      mstore\n      dup1\n      swap3\n      swap2\n      swap1\n      dup2\n      dup2\n      mstore\n      0x20\n      add\n      dup3\n      dup1\n      sload\n      tag_228\n      swap1\n      tag_138\n      jump\t// in\n    tag_228:\n      dup1\n      iszero\n      tag_229\n      jumpi\n      dup1\n      0x1f\n      lt\n      tag_230\n      jumpi\n      0x0100\n      dup1\n      dup4\n      sload\n      div\n      mul\n      dup4\n      mstore\n      swap2\n      0x20\n      add\n      swap2\n      jump(tag_229)\n    tag_230:\n      dup3\n      add\n      swap2\n      swap1\n      0x00\n      mstore\n      keccak256(0x00, 0x20)\n      swap1\n    tag_231:\n      dup2\n      sload\n      dup2\n      mstore\n      swap1\n      0x01\n      add\n      swap1\n      0x20\n      add\n      dup1\n      dup4\n      gt\n      tag_231\n      jumpi\n      dup3\n      swap1\n      sub\n      0x1f\n      and\n      dup3\n      add\n      swap2\n    tag_229:\n      pop\n      pop\n      pop\n      pop\n      pop\n      dup2\n      mstore\n      0x20\n      add\n      0x02\n      dup3\n      add\n      0x00\n      swap1\n      sload\n      swap1\n      0x0100\n      exp\n      swap1\n      div\n      0xffffffffffffffffffffffffffffffffffffffff\n      and\n      0xffffffffffffffffffffffffffffffffffffffff\n      and\n      0xffffffffffffffffffffffffffffffffffffffff\n      and\n      dup2\n      mstore\n      pop\n      pop\n      swap1\n      pop\n        /* \"PublicContract.sol\":6253:6264  secretOwner */\n      dup4\n        /* \"PublicContract.sol\":6221:6264  tempSecretRequest.ownerAddress==secretOwner */\n      0xffffffffffffffffffffffffffffffffffffffff\n      and\n        /* \"PublicContract.sol\":6221:6238  tempSecretRequest */\n      dup2\n        /* \"PublicContract.sol\":6221:6251  tempSecretRequest.ownerAddress */\n      0x40\n      add\n      mload\n        /* \"PublicContract.sol\":6221:6264  tempSecretRequest.ownerAddress==secretOwner */\n      0xffffffffffffffffffffffffffffffffffffffff\n      and\n      sub\n        /* \"PublicContract.sol\":6218:6596  if(tempSecretRequest.ownerAddress==secretOwner){... */\n      tag_232\n      jumpi\n        /* \"PublicContract.sol\":6284:6301  address requester */\n      0x00\n        /* \"PublicContract.sol\":6303:6320  tempSecretRequest */\n      dup2\n        /* \"PublicContract.sol\":6303:6337  tempSecretRequest.requesterAddress */\n      0x00\n      add\n      mload\n        /* \"PublicContract.sol\":6284:6337  address requester= tempSecretRequest.requesterAddress */\n      swap1\n      pop\n        /* \"PublicContract.sol\":6356:6388  address requesterContractAddress */\n      0x00\n        /* \"PublicContract.sol\":6389:6418  myAddressToContractAddressMap */\n      dup1\n        /* \"PublicContract.sol\":6389:6429  myAddressToContractAddressMap[requester] */\n      0x00\n        /* \"PublicContract.sol\":6419:6428  requester */\n      dup4\n        /* \"PublicContract.sol\":6389:6429  myAddressToContractAddressMap[requester] */\n      0xffffffffffffffffffffffffffffffffffffffff\n      and\n      0xffffffffffffffffffffffffffffffffffffffff\n      and\n      dup2\n      mstore\n      0x20\n      add\n      swap1\n      dup2\n      mstore\n      0x20\n      add\n      0x00\n      keccak256\n      0x00\n      swap1\n      sload\n      swap1\n      0x0100\n      exp\n      swap1\n      div\n      0xffffffffffffffffffffffffffffffffffffffff\n      and\n        /* \"PublicContract.sol\":6356:6429  address requesterContractAddress=myAddressToContractAddressMap[requester] */\n      swap1\n      pop\n        /* \"PublicContract.sol\":6265:6596  {... */\n      pop\n      pop\n        /* \"PublicContract.sol\":6218:6596  if(tempSecretRequest.ownerAddress==secretOwner){... */\n    tag_232:\n        /* \"PublicContract.sol\":6133:6609  {... */\n      pop\n        /* \"PublicContract.sol\":6129:6132  i++ */\n      dup1\n      dup1\n      tag_233\n      swap1\n      tag_147\n      jump\t// in\n    tag_233:\n      swap2\n      pop\n      pop\n        /* \"PublicContract.sol\":6084:6609  for (uint256 i = 0; i<secretRequests.length; i++){... */\n      jump(tag_221)\n    tag_222:\n      pop\n        /* \"PublicContract.sol\":5992:6616  function releaseTheSecret(address secretOwner,string memory sharedString)public {... */\n      pop\n      pop\n      jump\t// out\n        /* \"PublicContract.sol\":2269:2454  function getContractAddressByName(string memory name) public view returns(SampleNode memory){... */\n    tag_77:\n        /* \"PublicContract.sol\":2343:2360  SampleNode memory */\n      tag_234\n      tag_235\n      jump\t// in\n    tag_234:\n        /* \"PublicContract.sol\":2372:2398  SampleNode memory new_node */\n      0x00\n        /* \"PublicContract.sol\":2400:2414  sampleNodesMap */\n      0x01\n        /* \"PublicContract.sol\":2415:2419  name */\n      dup4\n        /* \"PublicContract.sol\":2400:2420  sampleNodesMap[name] */\n      mload(0x40)\n      tag_237\n      swap2\n      swap1\n      tag_151\n      jump\t// in\n    tag_237:\n      swap1\n      dup2\n      mstore\n      0x20\n      add\n      mload(0x40)\n      dup1\n      swap2\n      sub\n      swap1\n      keccak256\n        /* \"PublicContract.sol\":2372:2420  SampleNode memory new_node= sampleNodesMap[name] */\n      mload(0x40)\n      dup1\n      0x40\n      add\n      0x40\n      mstore\n      swap1\n      dup2\n      0x00\n      dup3\n      add\n      0x00\n      swap1\n      sload\n      swap1\n      0x0100\n      exp\n      swap1\n      div\n      0xffffffffffffffffffffffffffffffffffffffff\n      and\n      0xffffffffffffffffffffffffffffffffffffffff\n      and\n      0xffffffffffffffffffffffffffffffffffffffff\n      and\n      dup2\n      mstore\n      0x20\n      add\n      0x01\n      dup3\n      add\n      0x00\n      swap1\n      sload\n      swap1\n      0x0100\n      exp\n      swap1\n      div\n      0xffffffffffffffffffffffffffffffffffffffff\n      and\n      0xffffffffffffffffffffffffffffffffffffffff\n      and\n      0xffffffffffffffffffffffffffffffffffffffff\n      and\n      dup2\n      mstore\n      pop\n      pop\n      swap1\n      pop\n        /* \"PublicContract.sol\":2438:2446  new_node */\n      dup1\n        /* \"PublicContract.sol\":2431:2446  return new_node */\n      swap2\n      pop\n      pop\n        /* \"PublicContract.sol\":2269:2454  function getContractAddressByName(string memory name) public view returns(SampleNode memory){... */\n      swap2\n      swap1\n      pop\n      jump\t// out\n        /* \"PublicContract.sol\":12465:12945  function makeARequestToGetVaultHash(string memory name,string memory tempOtp)public view returns(string memory) {... */\n    tag_83:\n        /* \"PublicContract.sol\":12562:12575  string memory */\n      0x60\n        /* \"PublicContract.sol\":12465:12945  function makeARequestToGetVaultHash(string memory name,string memory tempOtp)public view returns(string memory) {... */\n      swap3\n      swap2\n      pop\n      pop\n      jump\t// out\n        /* \"PublicContract.sol\":2845:3546  function checkRequestsByShareholder(address holderAddress)public view returns(address[] memory ) {... */\n    tag_87:\n        /* \"PublicContract.sol\":2923:2939  address[] memory */\n      0x60\n        /* \"PublicContract.sol\":2953:2964  uint256 tot */\n      0x00\n        /* \"PublicContract.sol\":2967:3026  getSecretOwnerAddressesCountInHolderRequests(holderAddress) */\n      tag_240\n        /* \"PublicContract.sol\":3012:3025  holderAddress */\n      dup4\n        /* \"PublicContract.sol\":2967:3011  getSecretOwnerAddressesCountInHolderRequests */\n      tag_60\n        /* \"PublicContract.sol\":2967:3026  getSecretOwnerAddressesCountInHolderRequests(holderAddress) */\n      jump\t// in\n    tag_240:\n        /* \"PublicContract.sol\":2953:3026  uint256 tot = getSecretOwnerAddressesCountInHolderRequests(holderAddress) */\n      swap1\n      pop\n        /* \"PublicContract.sol\":3126:3139  uint256 count */\n      0x00\n        /* \"PublicContract.sol\":3154:3191  address[] memory  _secretOwnerAddress */\n      dup1\n        /* \"PublicContract.sol\":3207:3210  tot */\n      dup3\n        /* \"PublicContract.sol\":3193:3211  new address[](tot) */\n      0xffffffffffffffff\n      dup2\n      gt\n      iszero\n      tag_241\n      jumpi\n      tag_242\n      tag_190\n      jump\t// in\n    tag_242:\n    tag_241:\n      mload(0x40)\n      swap1\n      dup1\n      dup3\n      mstore\n      dup1\n      0x20\n      mul\n      0x20\n      add\n      dup3\n      add\n      0x40\n      mstore\n      dup1\n      iszero\n      tag_243\n      jumpi\n      dup2\n      0x20\n      add\n      0x20\n      dup3\n      mul\n      dup1\n      calldatasize\n      dup4\n      calldatacopy\n      dup1\n      dup3\n      add\n      swap2\n      pop\n      pop\n      swap1\n      pop\n    tag_243:\n      pop\n        /* \"PublicContract.sol\":3154:3211  address[] memory  _secretOwnerAddress= new address[](tot) */\n      swap1\n      pop\n        /* \"PublicContract.sol\":3227:3236  uint256 i */\n      0x00\n        /* \"PublicContract.sol\":3222:3505  for (uint256 i = 0; i<holderRequests.length; i++){... */\n    tag_244:\n        /* \"PublicContract.sol\":3244:3258  holderRequests */\n      0x02\n        /* \"PublicContract.sol\":3244:3265  holderRequests.length */\n      dup1\n      sload\n      swap1\n      pop\n        /* \"PublicContract.sol\":3242:3243  i */\n      dup2\n        /* \"PublicContract.sol\":3242:3265  i<holderRequests.length */\n      lt\n        /* \"PublicContract.sol\":3222:3505  for (uint256 i = 0; i<holderRequests.length; i++){... */\n      iszero\n      tag_245\n      jumpi\n        /* \"PublicContract.sol\":3286:3308  Request memory request */\n      0x00\n        /* \"PublicContract.sol\":3310:3324  holderRequests */\n      0x02\n        /* \"PublicContract.sol\":3325:3326  i */\n      dup3\n        /* \"PublicContract.sol\":3310:3327  holderRequests[i] */\n      dup2\n      sload\n      dup2\n      lt\n      tag_247\n      jumpi\n      tag_248\n      tag_130\n      jump\t// in\n    tag_248:\n    tag_247:\n      swap1\n      0x00\n      mstore\n      keccak256(0x00, 0x20)\n      swap1\n      0x02\n      mul\n      add\n        /* \"PublicContract.sol\":3286:3327  Request memory request= holderRequests[i] */\n      mload(0x40)\n      dup1\n      0x40\n      add\n      0x40\n      mstore\n      swap1\n      dup2\n      0x00\n      dup3\n      add\n      0x00\n      swap1\n      sload\n      swap1\n      0x0100\n      exp\n      swap1\n      div\n      0xffffffffffffffffffffffffffffffffffffffff\n      and\n      0xffffffffffffffffffffffffffffffffffffffff\n      and\n      0xffffffffffffffffffffffffffffffffffffffff\n      and\n      dup2\n      mstore\n      0x20\n      add\n      0x01\n      dup3\n      add\n      0x00\n      swap1\n      sload\n      swap1\n      0x0100\n      exp\n      swap1\n      div\n      0xffffffffffffffffffffffffffffffffffffffff\n      and\n      0xffffffffffffffffffffffffffffffffffffffff\n      and\n      0xffffffffffffffffffffffffffffffffffffffff\n      and\n      dup2\n      mstore\n      pop\n      pop\n      swap1\n      pop\n        /* \"PublicContract.sol\":3367:3380  holderAddress */\n      dup7\n        /* \"PublicContract.sol\":3346:3380  request.shareHolder==holderAddress */\n      0xffffffffffffffffffffffffffffffffffffffff\n      and\n        /* \"PublicContract.sol\":3346:3353  request */\n      dup2\n        /* \"PublicContract.sol\":3346:3365  request.shareHolder */\n      0x20\n      add\n      mload\n        /* \"PublicContract.sol\":3346:3380  request.shareHolder==holderAddress */\n      0xffffffffffffffffffffffffffffffffffffffff\n      and\n      sub\n        /* \"PublicContract.sol\":3342:3492  if (request.shareHolder==holderAddress){... */\n      tag_250\n      jumpi\n        /* \"PublicContract.sol\":3425:3432  request */\n      dup1\n        /* \"PublicContract.sol\":3425:3444  request.secretOwner */\n      0x00\n      add\n      mload\n        /* \"PublicContract.sol\":3396:3415  _secretOwnerAddress */\n      dup4\n        /* \"PublicContract.sol\":3416:3421  count */\n      dup6\n        /* \"PublicContract.sol\":3396:3422  _secretOwnerAddress[count] */\n      dup2\n      mload\n      dup2\n      lt\n      tag_251\n      jumpi\n      tag_252\n      tag_130\n      jump\t// in\n    tag_252:\n    tag_251:\n      0x20\n      mul\n      0x20\n      add\n      add\n        /* \"PublicContract.sol\":3396:3444  _secretOwnerAddress[count] = request.secretOwner */\n      swap1\n      0xffffffffffffffffffffffffffffffffffffffff\n      and\n      swap1\n      dup2\n      0xffffffffffffffffffffffffffffffffffffffff\n      and\n      dup2\n      mstore\n      pop\n      pop\n        /* \"PublicContract.sol\":3475:3476  1 */\n      0x01\n        /* \"PublicContract.sol\":3467:3472  count */\n      dup5\n        /* \"PublicContract.sol\":3467:3476  count + 1 */\n      tag_253\n      swap2\n      swap1\n      tag_145\n      jump\t// in\n    tag_253:\n        /* \"PublicContract.sol\":3459:3476  count = count + 1 */\n      swap4\n      pop\n        /* \"PublicContract.sol\":3342:3492  if (request.shareHolder==holderAddress){... */\n    tag_250:\n        /* \"PublicContract.sol\":3271:3505  {... */\n      pop\n        /* \"PublicContract.sol\":3267:3270  i++ */\n      dup1\n      dup1\n      tag_254\n      swap1\n      tag_147\n      jump\t// in\n    tag_254:\n      swap2\n      pop\n      pop\n        /* \"PublicContract.sol\":3222:3505  for (uint256 i = 0; i<holderRequests.length; i++){... */\n      jump(tag_244)\n    tag_245:\n      pop\n        /* \"PublicContract.sol\":3519:3538  _secretOwnerAddress */\n      dup1\n        /* \"PublicContract.sol\":3512:3538  return _secretOwnerAddress */\n      swap4\n      pop\n      pop\n      pop\n      pop\n        /* \"PublicContract.sol\":2845:3546  function checkRequestsByShareholder(address holderAddress)public view returns(address[] memory ) {... */\n      swap2\n      swap1\n      pop\n      jump\t// out\n        /* \"PublicContract.sol\":5528:5950  function deleteShareRequest(address requseterAddress,address secretOwnerAddress)public{... */\n    tag_91:\n        /* \"PublicContract.sol\":5630:5639  uint256 i */\n      0x00\n        /* \"PublicContract.sol\":5625:5943  for (uint256 i = 0; i<secretRequests.length; i++){... */\n    tag_256:\n        /* \"PublicContract.sol\":5647:5661  secretRequests */\n      0x03\n        /* \"PublicContract.sol\":5647:5668  secretRequests.length */\n      dup1\n      sload\n      swap1\n      pop\n        /* \"PublicContract.sol\":5645:5646  i */\n      dup2\n        /* \"PublicContract.sol\":5645:5668  i<secretRequests.length */\n      lt\n        /* \"PublicContract.sol\":5625:5943  for (uint256 i = 0; i<secretRequests.length; i++){... */\n      iszero\n      tag_257\n      jumpi\n        /* \"PublicContract.sol\":5689:5726  ShareRequest memory tempSecretRequest */\n      0x00\n        /* \"PublicContract.sol\":5727:5741  secretRequests */\n      0x03\n        /* \"PublicContract.sol\":5742:5743  i */\n      dup3\n        /* \"PublicContract.sol\":5727:5744  secretRequests[i] */\n      dup2\n      sload\n      dup2\n      lt\n      tag_259\n      jumpi\n      tag_260\n      tag_130\n      jump\t// in\n    tag_260:\n    tag_259:\n      swap1\n      0x00\n      mstore\n      keccak256(0x00, 0x20)\n      swap1\n      0x03\n      mul\n      add\n        /* \"PublicContract.sol\":5689:5744  ShareRequest memory tempSecretRequest=secretRequests[i] */\n      mload(0x40)\n      dup1\n      0x60\n      add\n      0x40\n      mstore\n      swap1\n      dup2\n      0x00\n      dup3\n      add\n      0x00\n      swap1\n      sload\n      swap1\n      0x0100\n      exp\n      swap1\n      div\n      0xffffffffffffffffffffffffffffffffffffffff\n      and\n      0xffffffffffffffffffffffffffffffffffffffff\n      and\n      0xffffffffffffffffffffffffffffffffffffffff\n      and\n      dup2\n      mstore\n      0x20\n      add\n      0x01\n      dup3\n      add\n      dup1\n      sload\n      tag_262\n      swap1\n      tag_138\n      jump\t// in\n    tag_262:\n      dup1\n      0x1f\n      add\n      0x20\n      dup1\n      swap2\n      div\n      mul\n      0x20\n      add\n      mload(0x40)\n      swap1\n      dup2\n      add\n      0x40\n      mstore\n      dup1\n      swap3\n      swap2\n      swap1\n      dup2\n      dup2\n      mstore\n      0x20\n      add\n      dup3\n      dup1\n      sload\n      tag_263\n      swap1\n      tag_138\n      jump\t// in\n    tag_263:\n      dup1\n      iszero\n      tag_264\n      jumpi\n      dup1\n      0x1f\n      lt\n      tag_265\n      jumpi\n      0x0100\n      dup1\n      dup4\n      sload\n      div\n      mul\n      dup4\n      mstore\n      swap2\n      0x20\n      add\n      swap2\n      jump(tag_264)\n    tag_265:\n      dup3\n      add\n      swap2\n      swap1\n      0x00\n      mstore\n      keccak256(0x00, 0x20)\n      swap1\n    tag_266:\n      dup2\n      sload\n      dup2\n      mstore\n      swap1\n      0x01\n      add\n      swap1\n      0x20\n      add\n      dup1\n      dup4\n      gt\n      tag_266\n      jumpi\n      dup3\n      swap1\n      sub\n      0x1f\n      and\n      dup3\n      add\n      swap2\n    tag_264:\n      pop\n      pop\n      pop\n      pop\n      pop\n      dup2\n      mstore\n      0x20\n      add\n      0x02\n      dup3\n      add\n      0x00\n      swap1\n      sload\n      swap1\n      0x0100\n      exp\n      swap1\n      div\n      0xffffffffffffffffffffffffffffffffffffffff\n      and\n      0xffffffffffffffffffffffffffffffffffffffff\n      and\n      0xffffffffffffffffffffffffffffffffffffffff\n      and\n      dup2\n      mstore\n      pop\n      pop\n      swap1\n      pop\n        /* \"PublicContract.sol\":5799:5815  requseterAddress */\n      dup4\n        /* \"PublicContract.sol\":5762:5815  tempSecretRequest.requesterAddress ==requseterAddress */\n      0xffffffffffffffffffffffffffffffffffffffff\n      and\n        /* \"PublicContract.sol\":5762:5779  tempSecretRequest */\n      dup2\n        /* \"PublicContract.sol\":5762:5796  tempSecretRequest.requesterAddress */\n      0x00\n      add\n      mload\n        /* \"PublicContract.sol\":5762:5815  tempSecretRequest.requesterAddress ==requseterAddress */\n      0xffffffffffffffffffffffffffffffffffffffff\n      and\n      eq\n        /* \"PublicContract.sol\":5762:5870  tempSecretRequest.requesterAddress ==requseterAddress && tempSecretRequest.ownerAddress ==secretOwnerAddress */\n      dup1\n      iszero\n      tag_267\n      jumpi\n      pop\n        /* \"PublicContract.sol\":5852:5870  secretOwnerAddress */\n      dup3\n        /* \"PublicContract.sol\":5819:5870  tempSecretRequest.ownerAddress ==secretOwnerAddress */\n      0xffffffffffffffffffffffffffffffffffffffff\n      and\n        /* \"PublicContract.sol\":5819:5836  tempSecretRequest */\n      dup2\n        /* \"PublicContract.sol\":5819:5849  tempSecretRequest.ownerAddress */\n      0x40\n      add\n      mload\n        /* \"PublicContract.sol\":5819:5870  tempSecretRequest.ownerAddress ==secretOwnerAddress */\n      0xffffffffffffffffffffffffffffffffffffffff\n      and\n      eq\n        /* \"PublicContract.sol\":5762:5870  tempSecretRequest.requesterAddress ==requseterAddress && tempSecretRequest.ownerAddress ==secretOwnerAddress */\n    tag_267:\n        /* \"PublicContract.sol\":5759:5930  if(tempSecretRequest.requesterAddress ==requseterAddress && tempSecretRequest.ownerAddress ==secretOwnerAddress){... */\n      iszero\n      tag_268\n      jumpi\n        /* \"PublicContract.sol\":5897:5911  secretRequests */\n      0x03\n        /* \"PublicContract.sol\":5912:5913  i */\n      dup3\n        /* \"PublicContract.sol\":5897:5914  secretRequests[i] */\n      dup2\n      sload\n      dup2\n      lt\n      tag_269\n      jumpi\n      tag_270\n      tag_130\n      jump\t// in\n    tag_270:\n    tag_269:\n      swap1\n      0x00\n      mstore\n      keccak256(0x00, 0x20)\n      swap1\n      0x03\n      mul\n      add\n      0x00\n        /* \"PublicContract.sol\":5890:5914  delete secretRequests[i] */\n      dup1\n      dup3\n      add\n      exp(0x0100, 0x00)\n      dup2\n      sload\n      swap1\n      0xffffffffffffffffffffffffffffffffffffffff\n      mul\n      not\n      and\n      swap1\n      sstore\n      0x01\n      dup3\n      add\n      0x00\n      tag_272\n      swap2\n      swap1\n      tag_273\n      jump\t// in\n    tag_272:\n      0x02\n      dup3\n      add\n      exp(0x0100, 0x00)\n      dup2\n      sload\n      swap1\n      0xffffffffffffffffffffffffffffffffffffffff\n      mul\n      not\n      and\n      swap1\n      sstore\n      pop\n      pop\n        /* \"PublicContract.sol\":5759:5930  if(tempSecretRequest.requesterAddress ==requseterAddress && tempSecretRequest.ownerAddress ==secretOwnerAddress){... */\n    tag_268:\n        /* \"PublicContract.sol\":5674:5943  {... */\n      pop\n        /* \"PublicContract.sol\":5670:5673  i++ */\n      dup1\n      dup1\n      tag_274\n      swap1\n      tag_147\n      jump\t// in\n    tag_274:\n      swap2\n      pop\n      pop\n        /* \"PublicContract.sol\":5625:5943  for (uint256 i = 0; i<secretRequests.length; i++){... */\n      jump(tag_256)\n    tag_257:\n      pop\n        /* \"PublicContract.sol\":5528:5950  function deleteShareRequest(address requseterAddress,address secretOwnerAddress)public{... */\n      pop\n      pop\n      jump\t// out\n        /* \"PublicContract.sol\":2507:2672  function getContractAddressByPublicAddress(address publicAddress) public view returns(address ){... */\n    tag_94:\n        /* \"PublicContract.sol\":2593:2600  address */\n      0x00\n        /* \"PublicContract.sol\":2620:2649  myAddressToContractAddressMap */\n      dup1\n        /* \"PublicContract.sol\":2620:2664  myAddressToContractAddressMap[publicAddress] */\n      0x00\n        /* \"PublicContract.sol\":2650:2663  publicAddress */\n      dup4\n        /* \"PublicContract.sol\":2620:2664  myAddressToContractAddressMap[publicAddress] */\n      0xffffffffffffffffffffffffffffffffffffffff\n      and\n      0xffffffffffffffffffffffffffffffffffffffff\n      and\n      dup2\n      mstore\n      0x20\n      add\n      swap1\n      dup2\n      mstore\n      0x20\n      add\n      0x00\n      keccak256\n      0x00\n      swap1\n      sload\n      swap1\n      0x0100\n      exp\n      swap1\n      div\n      0xffffffffffffffffffffffffffffffffffffffff\n      and\n        /* \"PublicContract.sol\":2613:2664  return myAddressToContractAddressMap[publicAddress] */\n      swap1\n      pop\n        /* \"PublicContract.sol\":2507:2672  function getContractAddressByPublicAddress(address publicAddress) public view returns(address ){... */\n      swap2\n      swap1\n      pop\n      jump\t// out\n        /* \"PublicContract.sol\":7379:7967  function respondToBeShareHolder(address shareHolder,address secretOwner,bool  acceptance)public {... */\n    tag_100:\n        /* \"PublicContract.sol\":7491:7500  uint256 i */\n      0x00\n        /* \"PublicContract.sol\":7486:7960  for (uint256 i = 0; i<holderRequests.length; i++){... */\n    tag_277:\n        /* \"PublicContract.sol\":7508:7522  holderRequests */\n      0x02\n        /* \"PublicContract.sol\":7508:7529  holderRequests.length */\n      dup1\n      sload\n      swap1\n      pop\n        /* \"PublicContract.sol\":7506:7507  i */\n      dup2\n        /* \"PublicContract.sol\":7506:7529  i<holderRequests.length */\n      lt\n        /* \"PublicContract.sol\":7486:7960  for (uint256 i = 0; i<holderRequests.length; i++){... */\n      iszero\n      tag_278\n      jumpi\n        /* \"PublicContract.sol\":7550:7572  Request memory request */\n      0x00\n        /* \"PublicContract.sol\":7574:7588  holderRequests */\n      0x02\n        /* \"PublicContract.sol\":7589:7590  i */\n      dup3\n        /* \"PublicContract.sol\":7574:7591  holderRequests[i] */\n      dup2\n      sload\n      dup2\n      lt\n      tag_280\n      jumpi\n      tag_281\n      tag_130\n      jump\t// in\n    tag_281:\n    tag_280:\n      swap1\n      0x00\n      mstore\n      keccak256(0x00, 0x20)\n      swap1\n      0x02\n      mul\n      add\n        /* \"PublicContract.sol\":7550:7591  Request memory request= holderRequests[i] */\n      mload(0x40)\n      dup1\n      0x40\n      add\n      0x40\n      mstore\n      swap1\n      dup2\n      0x00\n      dup3\n      add\n      0x00\n      swap1\n      sload\n      swap1\n      0x0100\n      exp\n      swap1\n      div\n      0xffffffffffffffffffffffffffffffffffffffff\n      and\n      0xffffffffffffffffffffffffffffffffffffffff\n      and\n      0xffffffffffffffffffffffffffffffffffffffff\n      and\n      dup2\n      mstore\n      0x20\n      add\n      0x01\n      dup3\n      add\n      0x00\n      swap1\n      sload\n      swap1\n      0x0100\n      exp\n      swap1\n      div\n      0xffffffffffffffffffffffffffffffffffffffff\n      and\n      0xffffffffffffffffffffffffffffffffffffffff\n      and\n      0xffffffffffffffffffffffffffffffffffffffff\n      and\n      dup2\n      mstore\n      pop\n      pop\n      swap1\n      pop\n        /* \"PublicContract.sol\":7631:7642  shareHolder */\n      dup5\n        /* \"PublicContract.sol\":7610:7642  request.shareHolder==shareHolder */\n      0xffffffffffffffffffffffffffffffffffffffff\n      and\n        /* \"PublicContract.sol\":7610:7617  request */\n      dup2\n        /* \"PublicContract.sol\":7610:7629  request.shareHolder */\n      0x20\n      add\n      mload\n        /* \"PublicContract.sol\":7610:7642  request.shareHolder==shareHolder */\n      0xffffffffffffffffffffffffffffffffffffffff\n      and\n      eq\n        /* \"PublicContract.sol\":7610:7678  request.shareHolder==shareHolder && request.secretOwner==secretOwner */\n      dup1\n      iszero\n      tag_283\n      jumpi\n      pop\n        /* \"PublicContract.sol\":7667:7678  secretOwner */\n      dup4\n        /* \"PublicContract.sol\":7646:7678  request.secretOwner==secretOwner */\n      0xffffffffffffffffffffffffffffffffffffffff\n      and\n        /* \"PublicContract.sol\":7646:7653  request */\n      dup2\n        /* \"PublicContract.sol\":7646:7665  request.secretOwner */\n      0x00\n      add\n      mload\n        /* \"PublicContract.sol\":7646:7678  request.secretOwner==secretOwner */\n      0xffffffffffffffffffffffffffffffffffffffff\n      and\n      eq\n        /* \"PublicContract.sol\":7610:7678  request.shareHolder==shareHolder && request.secretOwner==secretOwner */\n    tag_283:\n        /* \"PublicContract.sol\":7606:7949  if (request.shareHolder==shareHolder && request.secretOwner==secretOwner){... */\n      iszero\n      tag_284\n      jumpi\n        /* \"PublicContract.sol\":7698:7728  removeFromHolderRequestList(i) */\n      tag_285\n        /* \"PublicContract.sol\":7726:7727  i */\n      dup3\n        /* \"PublicContract.sol\":7698:7725  removeFromHolderRequestList */\n      tag_119\n        /* \"PublicContract.sol\":7698:7728  removeFromHolderRequestList(i) */\n      jump\t// in\n    tag_285:\n        /* \"PublicContract.sol\":7751:7761  acceptance */\n      dup3\n        /* \"PublicContract.sol\":7747:7934  if (acceptance){... */\n      iszero\n      tag_286\n      jumpi\n        /* \"PublicContract.sol\":7785:7812  acceptedShareHolderRequests */\n      0x04\n        /* \"PublicContract.sol\":7818:7825  request */\n      dup2\n        /* \"PublicContract.sol\":7785:7826  acceptedShareHolderRequests.push(request) */\n      swap1\n      dup1\n      0x01\n      dup2\n      sload\n      add\n      dup1\n      dup3\n      sstore\n      dup1\n      swap2\n      pop\n      pop\n      0x01\n      swap1\n      sub\n      swap1\n      0x00\n      mstore\n      keccak256(0x00, 0x20)\n      swap1\n      0x02\n      mul\n      add\n      0x00\n      swap1\n      swap2\n      swap1\n      swap2\n      swap1\n      swap2\n      pop\n      0x00\n      dup3\n      add\n      mload\n      dup2\n      0x00\n      add\n      exp(0x0100, 0x00)\n      dup2\n      sload\n      dup2\n      0xffffffffffffffffffffffffffffffffffffffff\n      mul\n      not\n      and\n      swap1\n      dup4\n      0xffffffffffffffffffffffffffffffffffffffff\n      and\n      mul\n      or\n      swap1\n      sstore\n      pop\n      0x20\n      dup3\n      add\n      mload\n      dup2\n      0x01\n      add\n      exp(0x0100, 0x00)\n      dup2\n      sload\n      dup2\n      0xffffffffffffffffffffffffffffffffffffffff\n      mul\n      not\n      and\n      swap1\n      dup4\n      0xffffffffffffffffffffffffffffffffffffffff\n      and\n      mul\n      or\n      swap1\n      sstore\n      pop\n      pop\n      pop\n        /* \"PublicContract.sol\":7747:7934  if (acceptance){... */\n      jump(tag_288)\n    tag_286:\n        /* \"PublicContract.sol\":7873:7900  rejectedShareHolderRequests */\n      0x05\n        /* \"PublicContract.sol\":7906:7913  request */\n      dup2\n        /* \"PublicContract.sol\":7873:7914  rejectedShareHolderRequests.push(request) */\n      swap1\n      dup1\n      0x01\n      dup2\n      sload\n      add\n      dup1\n      dup3\n      sstore\n      dup1\n      swap2\n      pop\n      pop\n      0x01\n      swap1\n      sub\n      swap1\n      0x00\n      mstore\n      keccak256(0x00, 0x20)\n      swap1\n      0x02\n      mul\n      add\n      0x00\n      swap1\n      swap2\n      swap1\n      swap2\n      swap1\n      swap2\n      pop\n      0x00\n      dup3\n      add\n      mload\n      dup2\n      0x00\n      add\n      exp(0x0100, 0x00)\n      dup2\n      sload\n      dup2\n      0xffffffffffffffffffffffffffffffffffffffff\n      mul\n      not\n      and\n      swap1\n      dup4\n      0xffffffffffffffffffffffffffffffffffffffff\n      and\n      mul\n      or\n      swap1\n      sstore\n      pop\n      0x20\n      dup3\n      add\n      mload\n      dup2\n      0x01\n      add\n      exp(0x0100, 0x00)\n      dup2\n      sload\n      dup2\n      0xffffffffffffffffffffffffffffffffffffffff\n      mul\n      not\n      and\n      swap1\n      dup4\n      0xffffffffffffffffffffffffffffffffffffffff\n      and\n      mul\n      or\n      swap1\n      sstore\n      pop\n      pop\n      pop\n        /* \"PublicContract.sol\":7747:7934  if (acceptance){... */\n    tag_288:\n        /* \"PublicContract.sol\":7606:7949  if (request.shareHolder==shareHolder && request.secretOwner==secretOwner){... */\n    tag_284:\n        /* \"PublicContract.sol\":7535:7960  {... */\n      pop\n        /* \"PublicContract.sol\":7531:7534  i++ */\n      dup1\n      dup1\n      tag_290\n      swap1\n      tag_147\n      jump\t// in\n    tag_290:\n      swap2\n      pop\n      pop\n        /* \"PublicContract.sol\":7486:7960  for (uint256 i = 0; i<holderRequests.length; i++){... */\n      jump(tag_277)\n    tag_278:\n      pop\n        /* \"PublicContract.sol\":7379:7967  function respondToBeShareHolder(address shareHolder,address secretOwner,bool  acceptance)public {... */\n      pop\n      pop\n      pop\n      jump\t// out\n        /* \"PublicContract.sol\":4015:4901  function checkRequestsForTheSeceret(address[]memory secretOwners)public view returns(address[] memory ) {... */\n    tag_103:\n        /* \"PublicContract.sol\":4100:4116  address[] memory */\n      0x60\n        /* \"PublicContract.sol\":4130:4141  uint256 tot */\n      0x00\n        /* \"PublicContract.sol\":4144:4202  getSecretOwnerAddressesCountInSecretRequests(secretOwners) */\n      tag_292\n        /* \"PublicContract.sol\":4189:4201  secretOwners */\n      dup4\n        /* \"PublicContract.sol\":4144:4188  getSecretOwnerAddressesCountInSecretRequests */\n      tag_31\n        /* \"PublicContract.sol\":4144:4202  getSecretOwnerAddressesCountInSecretRequests(secretOwners) */\n      jump\t// in\n    tag_292:\n        /* \"PublicContract.sol\":4130:4202  uint256 tot = getSecretOwnerAddressesCountInSecretRequests(secretOwners) */\n      swap1\n      pop\n        /* \"PublicContract.sol\":4302:4315  uint256 count */\n      0x00\n        /* \"PublicContract.sol\":4330:4368  address[] memory _secretOwnerAddresses */\n      dup1\n        /* \"PublicContract.sol\":4385:4388  tot */\n      dup3\n        /* \"PublicContract.sol\":4371:4389  new address[](tot) */\n      0xffffffffffffffff\n      dup2\n      gt\n      iszero\n      tag_293\n      jumpi\n      tag_294\n      tag_190\n      jump\t// in\n    tag_294:\n    tag_293:\n      mload(0x40)\n      swap1\n      dup1\n      dup3\n      mstore\n      dup1\n      0x20\n      mul\n      0x20\n      add\n      dup3\n      add\n      0x40\n      mstore\n      dup1\n      iszero\n      tag_295\n      jumpi\n      dup2\n      0x20\n      add\n      0x20\n      dup3\n      mul\n      dup1\n      calldatasize\n      dup4\n      calldatacopy\n      dup1\n      dup3\n      add\n      swap2\n      pop\n      pop\n      swap1\n      pop\n    tag_295:\n      pop\n        /* \"PublicContract.sol\":4330:4389  address[] memory _secretOwnerAddresses = new address[](tot) */\n      swap1\n      pop\n        /* \"PublicContract.sol\":4411:4420  uint256 i */\n      0x00\n        /* \"PublicContract.sol\":4406:4858  for (uint256 i = 0; i<secretOwners.length; i++){... */\n    tag_296:\n        /* \"PublicContract.sol\":4428:4440  secretOwners */\n      dup6\n        /* \"PublicContract.sol\":4428:4447  secretOwners.length */\n      mload\n        /* \"PublicContract.sol\":4426:4427  i */\n      dup2\n        /* \"PublicContract.sol\":4426:4447  i<secretOwners.length */\n      lt\n        /* \"PublicContract.sol\":4406:4858  for (uint256 i = 0; i<secretOwners.length; i++){... */\n      iszero\n      tag_297\n      jumpi\n        /* \"PublicContract.sol\":4468:4486  address  tempOwner */\n      0x00\n        /* \"PublicContract.sol\":4487:4499  secretOwners */\n      dup7\n        /* \"PublicContract.sol\":4500:4501  i */\n      dup3\n        /* \"PublicContract.sol\":4487:4502  secretOwners[i] */\n      dup2\n      mload\n      dup2\n      lt\n      tag_299\n      jumpi\n      tag_300\n      tag_130\n      jump\t// in\n    tag_300:\n    tag_299:\n      0x20\n      mul\n      0x20\n      add\n      add\n      mload\n        /* \"PublicContract.sol\":4468:4502  address  tempOwner=secretOwners[i] */\n      swap1\n      pop\n        /* \"PublicContract.sol\":4522:4531  uint256 j */\n      0x00\n        /* \"PublicContract.sol\":4517:4845  for (uint256 j = 0; j<secretRequests.length; j++){... */\n    tag_301:\n        /* \"PublicContract.sol\":4539:4553  secretRequests */\n      0x03\n        /* \"PublicContract.sol\":4539:4560  secretRequests.length */\n      dup1\n      sload\n      swap1\n      pop\n        /* \"PublicContract.sol\":4537:4538  j */\n      dup2\n        /* \"PublicContract.sol\":4537:4560  j<secretRequests.length */\n      lt\n        /* \"PublicContract.sol\":4517:4845  for (uint256 j = 0; j<secretRequests.length; j++){... */\n      iszero\n      tag_302\n      jumpi\n        /* \"PublicContract.sol\":4585:4622  ShareRequest memory tempSecretRequest */\n      0x00\n        /* \"PublicContract.sol\":4623:4637  secretRequests */\n      0x03\n        /* \"PublicContract.sol\":4638:4639  j */\n      dup3\n        /* \"PublicContract.sol\":4623:4640  secretRequests[j] */\n      dup2\n      sload\n      dup2\n      lt\n      tag_304\n      jumpi\n      tag_305\n      tag_130\n      jump\t// in\n    tag_305:\n    tag_304:\n      swap1\n      0x00\n      mstore\n      keccak256(0x00, 0x20)\n      swap1\n      0x03\n      mul\n      add\n        /* \"PublicContract.sol\":4585:4640  ShareRequest memory tempSecretRequest=secretRequests[j] */\n      mload(0x40)\n      dup1\n      0x60\n      add\n      0x40\n      mstore\n      swap1\n      dup2\n      0x00\n      dup3\n      add\n      0x00\n      swap1\n      sload\n      swap1\n      0x0100\n      exp\n      swap1\n      div\n      0xffffffffffffffffffffffffffffffffffffffff\n      and\n      0xffffffffffffffffffffffffffffffffffffffff\n      and\n      0xffffffffffffffffffffffffffffffffffffffff\n      and\n      dup2\n      mstore\n      0x20\n      add\n      0x01\n      dup3\n      add\n      dup1\n      sload\n      tag_307\n      swap1\n      tag_138\n      jump\t// in\n    tag_307:\n      dup1\n      0x1f\n      add\n      0x20\n      dup1\n      swap2\n      div\n      mul\n      0x20\n      add\n      mload(0x40)\n      swap1\n      dup2\n      add\n      0x40\n      mstore\n      dup1\n      swap3\n      swap2\n      swap1\n      dup2\n      dup2\n      mstore\n      0x20\n      add\n      dup3\n      dup1\n      sload\n      tag_308\n      swap1\n      tag_138\n      jump\t// in\n    tag_308:\n      dup1\n      iszero\n      tag_309\n      jumpi\n      dup1\n      0x1f\n      lt\n      tag_310\n      jumpi\n      0x0100\n      dup1\n      dup4\n      sload\n      div\n      mul\n      dup4\n      mstore\n      swap2\n      0x20\n      add\n      swap2\n      jump(tag_309)\n    tag_310:\n      dup3\n      add\n      swap2\n      swap1\n      0x00\n      mstore\n      keccak256(0x00, 0x20)\n      swap1\n    tag_311:\n      dup2\n      sload\n      dup2\n      mstore\n      swap1\n      0x01\n      add\n      swap1\n      0x20\n      add\n      dup1\n      dup4\n      gt\n      tag_311\n      jumpi\n      dup3\n      swap1\n      sub\n      0x1f\n      and\n      dup3\n      add\n      swap2\n    tag_309:\n      pop\n      pop\n      pop\n      pop\n      pop\n      dup2\n      mstore\n      0x20\n      add\n      0x02\n      dup3\n      add\n      0x00\n      swap1\n      sload\n      swap1\n      0x0100\n      exp\n      swap1\n      div\n      0xffffffffffffffffffffffffffffffffffffffff\n      and\n      0xffffffffffffffffffffffffffffffffffffffff\n      and\n      0xffffffffffffffffffffffffffffffffffffffff\n      and\n      dup2\n      mstore\n      pop\n      pop\n      swap1\n      pop\n        /* \"PublicContract.sol\":4695:4704  tempOwner */\n      dup3\n        /* \"PublicContract.sol\":4663:4704  tempSecretRequest.ownerAddress==tempOwner */\n      0xffffffffffffffffffffffffffffffffffffffff\n      and\n        /* \"PublicContract.sol\":4663:4680  tempSecretRequest */\n      dup2\n        /* \"PublicContract.sol\":4663:4693  tempSecretRequest.ownerAddress */\n      0x40\n      add\n      mload\n        /* \"PublicContract.sol\":4663:4704  tempSecretRequest.ownerAddress==tempOwner */\n      0xffffffffffffffffffffffffffffffffffffffff\n      and\n      sub\n        /* \"PublicContract.sol\":4659:4828  if (tempSecretRequest.ownerAddress==tempOwner){... */\n      tag_312\n      jumpi\n        /* \"PublicContract.sol\":4759:4768  tempOwner */\n      dup3\n        /* \"PublicContract.sol\":4728:4749  _secretOwnerAddresses */\n      dup6\n        /* \"PublicContract.sol\":4750:4755  count */\n      dup8\n        /* \"PublicContract.sol\":4728:4756  _secretOwnerAddresses[count] */\n      dup2\n      mload\n      dup2\n      lt\n      tag_313\n      jumpi\n      tag_314\n      tag_130\n      jump\t// in\n    tag_314:\n    tag_313:\n      0x20\n      mul\n      0x20\n      add\n      add\n        /* \"PublicContract.sol\":4728:4768  _secretOwnerAddresses[count] = tempOwner */\n      swap1\n      0xffffffffffffffffffffffffffffffffffffffff\n      and\n      swap1\n      dup2\n      0xffffffffffffffffffffffffffffffffffffffff\n      and\n      dup2\n      mstore\n      pop\n      pop\n        /* \"PublicContract.sol\":4807:4808  1 */\n      0x01\n        /* \"PublicContract.sol\":4799:4804  count */\n      dup7\n        /* \"PublicContract.sol\":4799:4808  count + 1 */\n      tag_315\n      swap2\n      swap1\n      tag_145\n      jump\t// in\n    tag_315:\n        /* \"PublicContract.sol\":4791:4808  count = count + 1 */\n      swap6\n      pop\n        /* \"PublicContract.sol\":4659:4828  if (tempSecretRequest.ownerAddress==tempOwner){... */\n    tag_312:\n        /* \"PublicContract.sol\":4566:4845  {... */\n      pop\n        /* \"PublicContract.sol\":4562:4565  j++ */\n      dup1\n      dup1\n      tag_316\n      swap1\n      tag_147\n      jump\t// in\n    tag_316:\n      swap2\n      pop\n      pop\n        /* \"PublicContract.sol\":4517:4845  for (uint256 j = 0; j<secretRequests.length; j++){... */\n      jump(tag_301)\n    tag_302:\n      pop\n        /* \"PublicContract.sol\":4453:4858  {... */\n      pop\n        /* \"PublicContract.sol\":4449:4452  i++ */\n      dup1\n      dup1\n      tag_317\n      swap1\n      tag_147\n      jump\t// in\n    tag_317:\n      swap2\n      pop\n      pop\n        /* \"PublicContract.sol\":4406:4858  for (uint256 i = 0; i<secretOwners.length; i++){... */\n      jump(tag_296)\n    tag_297:\n      pop\n        /* \"PublicContract.sol\":4872:4893  _secretOwnerAddresses */\n      dup1\n        /* \"PublicContract.sol\":4865:4893  return _secretOwnerAddresses */\n      swap4\n      pop\n      pop\n      pop\n      pop\n        /* \"PublicContract.sol\":4015:4901  function checkRequestsForTheSeceret(address[]memory secretOwners)public view returns(address[] memory ) {... */\n      swap2\n      swap1\n      pop\n      jump\t// out\n        /* \"PublicContract.sol\":6680:7023  function updateOwnersAcceptedToReleaseList(address secretOwner,address shareHolder)public {... */\n    tag_107:\n      pop\n      pop\n      jump\t// out\n        /* \"PublicContract.sol\":11533:11892  function makeSharesAccessibleToTheHolders(address secretOwner,address holder,string memory sharedString) public{... */\n    tag_111:\n      pop\n      pop\n      pop\n      jump\t// out\n        /* \"PublicContract.sol\":8872:9900  function getRequestAcceptedHoldersList(address secretOwner)public returns(address[] memory) {... */\n    tag_114:\n        /* \"PublicContract.sol\":8946:8962  address[] memory */\n      0x60\n        /* \"PublicContract.sol\":8975:8986  uint256 tot */\n      0x00\n        /* \"PublicContract.sol\":8989:9052  getSecretHolderAddressesCountInAcceptedHoldersList(secretOwner) */\n      tag_321\n        /* \"PublicContract.sol\":9040:9051  secretOwner */\n      dup4\n        /* \"PublicContract.sol\":8989:9039  getSecretHolderAddressesCountInAcceptedHoldersList */\n      tag_47\n        /* \"PublicContract.sol\":8989:9052  getSecretHolderAddressesCountInAcceptedHoldersList(secretOwner) */\n      jump\t// in\n    tag_321:\n        /* \"PublicContract.sol\":8975:9052  uint256 tot = getSecretHolderAddressesCountInAcceptedHoldersList(secretOwner) */\n      swap1\n      pop\n        /* \"PublicContract.sol\":9152:9165  uint256 count */\n      0x00\n        /* \"PublicContract.sol\":9180:9218  address[] memory _shareHolderAddresses */\n      dup1\n        /* \"PublicContract.sol\":9235:9238  tot */\n      dup3\n        /* \"PublicContract.sol\":9221:9239  new address[](tot) */\n      0xffffffffffffffff\n      dup2\n      gt\n      iszero\n      tag_322\n      jumpi\n      tag_323\n      tag_190\n      jump\t// in\n    tag_323:\n    tag_322:\n      mload(0x40)\n      swap1\n      dup1\n      dup3\n      mstore\n      dup1\n      0x20\n      mul\n      0x20\n      add\n      dup3\n      add\n      0x40\n      mstore\n      dup1\n      iszero\n      tag_324\n      jumpi\n      dup2\n      0x20\n      add\n      0x20\n      dup3\n      mul\n      dup1\n      calldatasize\n      dup4\n      calldatacopy\n      dup1\n      dup3\n      add\n      swap2\n      pop\n      pop\n      swap1\n      pop\n    tag_324:\n      pop\n        /* \"PublicContract.sol\":9180:9239  address[] memory _shareHolderAddresses = new address[](tot) */\n      swap1\n      pop\n        /* \"PublicContract.sol\":9267:9276  uint256 i */\n      0x00\n        /* \"PublicContract.sol\":9262:9579  for (uint256 i = 0; i<acceptedShareHolderRequests.length; i++){... */\n    tag_325:\n        /* \"PublicContract.sol\":9284:9311  acceptedShareHolderRequests */\n      0x04\n        /* \"PublicContract.sol\":9284:9318  acceptedShareHolderRequests.length */\n      dup1\n      sload\n      swap1\n      pop\n        /* \"PublicContract.sol\":9282:9283  i */\n      dup2\n        /* \"PublicContract.sol\":9282:9318  i<acceptedShareHolderRequests.length */\n      lt\n        /* \"PublicContract.sol\":9262:9579  for (uint256 i = 0; i<acceptedShareHolderRequests.length; i++){... */\n      iszero\n      tag_326\n      jumpi\n        /* \"PublicContract.sol\":9339:9361  Request memory request */\n      0x00\n        /* \"PublicContract.sol\":9363:9390  acceptedShareHolderRequests */\n      0x04\n        /* \"PublicContract.sol\":9391:9392  i */\n      dup3\n        /* \"PublicContract.sol\":9363:9393  acceptedShareHolderRequests[i] */\n      dup2\n      sload\n      dup2\n      lt\n      tag_328\n      jumpi\n      tag_329\n      tag_130\n      jump\t// in\n    tag_329:\n    tag_328:\n      swap1\n      0x00\n      mstore\n      keccak256(0x00, 0x20)\n      swap1\n      0x02\n      mul\n      add\n        /* \"PublicContract.sol\":9339:9393  Request memory request= acceptedShareHolderRequests[i] */\n      mload(0x40)\n      dup1\n      0x40\n      add\n      0x40\n      mstore\n      swap1\n      dup2\n      0x00\n      dup3\n      add\n      0x00\n      swap1\n      sload\n      swap1\n      0x0100\n      exp\n      swap1\n      div\n      0xffffffffffffffffffffffffffffffffffffffff\n      and\n      0xffffffffffffffffffffffffffffffffffffffff\n      and\n      0xffffffffffffffffffffffffffffffffffffffff\n      and\n      dup2\n      mstore\n      0x20\n      add\n      0x01\n      dup3\n      add\n      0x00\n      swap1\n      sload\n      swap1\n      0x0100\n      exp\n      swap1\n      div\n      0xffffffffffffffffffffffffffffffffffffffff\n      and\n      0xffffffffffffffffffffffffffffffffffffffff\n      and\n      0xffffffffffffffffffffffffffffffffffffffff\n      and\n      dup2\n      mstore\n      pop\n      pop\n      swap1\n      pop\n        /* \"PublicContract.sol\":9433:9444  secretOwner */\n      dup7\n        /* \"PublicContract.sol\":9412:9444  request.secretOwner==secretOwner */\n      0xffffffffffffffffffffffffffffffffffffffff\n      and\n        /* \"PublicContract.sol\":9412:9419  request */\n      dup2\n        /* \"PublicContract.sol\":9412:9431  request.secretOwner */\n      0x00\n      add\n      mload\n        /* \"PublicContract.sol\":9412:9444  request.secretOwner==secretOwner */\n      0xffffffffffffffffffffffffffffffffffffffff\n      and\n      sub\n        /* \"PublicContract.sol\":9408:9566  if (request.secretOwner==secretOwner){... */\n      tag_331\n      jumpi\n        /* \"PublicContract.sol\":9495:9502  request */\n      dup1\n        /* \"PublicContract.sol\":9495:9514  request.shareHolder */\n      0x20\n      add\n      mload\n        /* \"PublicContract.sol\":9464:9485  _shareHolderAddresses */\n      dup4\n        /* \"PublicContract.sol\":9486:9491  count */\n      dup6\n        /* \"PublicContract.sol\":9464:9492  _shareHolderAddresses[count] */\n      dup2\n      mload\n      dup2\n      lt\n      tag_332\n      jumpi\n      tag_333\n      tag_130\n      jump\t// in\n    tag_333:\n    tag_332:\n      0x20\n      mul\n      0x20\n      add\n      add\n        /* \"PublicContract.sol\":9464:9514  _shareHolderAddresses[count] = request.shareHolder */\n      swap1\n      0xffffffffffffffffffffffffffffffffffffffff\n      and\n      swap1\n      dup2\n      0xffffffffffffffffffffffffffffffffffffffff\n      and\n      dup2\n      mstore\n      pop\n      pop\n        /* \"PublicContract.sol\":9549:9550  1 */\n      0x01\n        /* \"PublicContract.sol\":9541:9546  count */\n      dup5\n        /* \"PublicContract.sol\":9541:9550  count + 1 */\n      tag_334\n      swap2\n      swap1\n      tag_145\n      jump\t// in\n    tag_334:\n        /* \"PublicContract.sol\":9533:9550  count = count + 1 */\n      swap4\n      pop\n        /* \"PublicContract.sol\":9408:9566  if (request.secretOwner==secretOwner){... */\n    tag_331:\n        /* \"PublicContract.sol\":9324:9579  {... */\n      pop\n        /* \"PublicContract.sol\":9320:9323  i++ */\n      dup1\n      dup1\n      tag_335\n      swap1\n      tag_147\n      jump\t// in\n    tag_335:\n      swap2\n      pop\n      pop\n        /* \"PublicContract.sol\":9262:9579  for (uint256 i = 0; i<acceptedShareHolderRequests.length; i++){... */\n      jump(tag_325)\n    tag_326:\n      pop\n        /* \"PublicContract.sol\":9594:9603  uint256 i */\n      0x00\n        /* \"PublicContract.sol\":9589:9857  for (uint256 i = 0; i<acceptedShareHolderRequests.length; i++){... */\n    tag_336:\n        /* \"PublicContract.sol\":9611:9638  acceptedShareHolderRequests */\n      0x04\n        /* \"PublicContract.sol\":9611:9645  acceptedShareHolderRequests.length */\n      dup1\n      sload\n      swap1\n      pop\n        /* \"PublicContract.sol\":9609:9610  i */\n      dup2\n        /* \"PublicContract.sol\":9609:9645  i<acceptedShareHolderRequests.length */\n      lt\n        /* \"PublicContract.sol\":9589:9857  for (uint256 i = 0; i<acceptedShareHolderRequests.length; i++){... */\n      iszero\n      tag_337\n      jumpi\n        /* \"PublicContract.sol\":9666:9688  Request memory request */\n      0x00\n        /* \"PublicContract.sol\":9690:9717  acceptedShareHolderRequests */\n      0x04\n        /* \"PublicContract.sol\":9718:9719  i */\n      dup3\n        /* \"PublicContract.sol\":9690:9720  acceptedShareHolderRequests[i] */\n      dup2\n      sload\n      dup2\n      lt\n      tag_339\n      jumpi\n      tag_340\n      tag_130\n      jump\t// in\n    tag_340:\n    tag_339:\n      swap1\n      0x00\n      mstore\n      keccak256(0x00, 0x20)\n      swap1\n      0x02\n      mul\n      add\n        /* \"PublicContract.sol\":9666:9720  Request memory request= acceptedShareHolderRequests[i] */\n      mload(0x40)\n      dup1\n      0x40\n      add\n      0x40\n      mstore\n      swap1\n      dup2\n      0x00\n      dup3\n      add\n      0x00\n      swap1\n      sload\n      swap1\n      0x0100\n      exp\n      swap1\n      div\n      0xffffffffffffffffffffffffffffffffffffffff\n      and\n      0xffffffffffffffffffffffffffffffffffffffff\n      and\n      0xffffffffffffffffffffffffffffffffffffffff\n      and\n      dup2\n      mstore\n      0x20\n      add\n      0x01\n      dup3\n      add\n      0x00\n      swap1\n      sload\n      swap1\n      0x0100\n      exp\n      swap1\n      div\n      0xffffffffffffffffffffffffffffffffffffffff\n      and\n      0xffffffffffffffffffffffffffffffffffffffff\n      and\n      0xffffffffffffffffffffffffffffffffffffffff\n      and\n      dup2\n      mstore\n      pop\n      pop\n      swap1\n      pop\n        /* \"PublicContract.sol\":9760:9771  secretOwner */\n      dup7\n        /* \"PublicContract.sol\":9739:9771  request.secretOwner==secretOwner */\n      0xffffffffffffffffffffffffffffffffffffffff\n      and\n        /* \"PublicContract.sol\":9739:9746  request */\n      dup2\n        /* \"PublicContract.sol\":9739:9758  request.secretOwner */\n      0x00\n      add\n      mload\n        /* \"PublicContract.sol\":9739:9771  request.secretOwner==secretOwner */\n      0xffffffffffffffffffffffffffffffffffffffff\n      and\n      sub\n        /* \"PublicContract.sol\":9735:9844  if (request.secretOwner==secretOwner){... */\n      tag_342\n      jumpi\n        /* \"PublicContract.sol\":9798:9825  acceptedShareHolderRequests */\n      0x04\n        /* \"PublicContract.sol\":9826:9827  i */\n      dup3\n        /* \"PublicContract.sol\":9798:9828  acceptedShareHolderRequests[i] */\n      dup2\n      sload\n      dup2\n      lt\n      tag_343\n      jumpi\n      tag_344\n      tag_130\n      jump\t// in\n    tag_344:\n    tag_343:\n      swap1\n      0x00\n      mstore\n      keccak256(0x00, 0x20)\n      swap1\n      0x02\n      mul\n      add\n      0x00\n        /* \"PublicContract.sol\":9791:9828  delete acceptedShareHolderRequests[i] */\n      dup1\n      dup3\n      add\n      exp(0x0100, 0x00)\n      dup2\n      sload\n      swap1\n      0xffffffffffffffffffffffffffffffffffffffff\n      mul\n      not\n      and\n      swap1\n      sstore\n      0x01\n      dup3\n      add\n      exp(0x0100, 0x00)\n      dup2\n      sload\n      swap1\n      0xffffffffffffffffffffffffffffffffffffffff\n      mul\n      not\n      and\n      swap1\n      sstore\n      pop\n      pop\n        /* \"PublicContract.sol\":9735:9844  if (request.secretOwner==secretOwner){... */\n    tag_342:\n        /* \"PublicContract.sol\":9651:9857  {... */\n      pop\n        /* \"PublicContract.sol\":9647:9650  i++ */\n      dup1\n      dup1\n      tag_346\n      swap1\n      tag_147\n      jump\t// in\n    tag_346:\n      swap2\n      pop\n      pop\n        /* \"PublicContract.sol\":9589:9857  for (uint256 i = 0; i<acceptedShareHolderRequests.length; i++){... */\n      jump(tag_336)\n    tag_337:\n      pop\n        /* \"PublicContract.sol\":9871:9892  _shareHolderAddresses */\n      dup1\n        /* \"PublicContract.sol\":9864:9892  return _shareHolderAddresses */\n      swap4\n      pop\n      pop\n      pop\n      pop\n        /* \"PublicContract.sol\":8872:9900  function getRequestAcceptedHoldersList(address secretOwner)public returns(address[] memory) {... */\n      swap2\n      swap1\n      pop\n      jump\t// out\n        /* \"PublicContract.sol\":7067:7336  function removeFromHolderRequestList(uint256 index) public {... */\n    tag_119:\n        /* \"PublicContract.sol\":7220:7234  holderRequests */\n      0x02\n        /* \"PublicContract.sol\":7259:7260  1 */\n      0x01\n        /* \"PublicContract.sol\":7235:7249  holderRequests */\n      0x02\n        /* \"PublicContract.sol\":7235:7256  holderRequests.length */\n      dup1\n      sload\n      swap1\n      pop\n        /* \"PublicContract.sol\":7235:7260  holderRequests.length - 1 */\n      tag_348\n      swap2\n      swap1\n      tag_349\n      jump\t// in\n    tag_348:\n        /* \"PublicContract.sol\":7220:7261  holderRequests[holderRequests.length - 1] */\n      dup2\n      sload\n      dup2\n      lt\n      tag_350\n      jumpi\n      tag_351\n      tag_130\n      jump\t// in\n    tag_351:\n    tag_350:\n      swap1\n      0x00\n      mstore\n      keccak256(0x00, 0x20)\n      swap1\n      0x02\n      mul\n      add\n        /* \"PublicContract.sol\":7196:7210  holderRequests */\n      0x02\n        /* \"PublicContract.sol\":7211:7216  index */\n      dup3\n        /* \"PublicContract.sol\":7196:7217  holderRequests[index] */\n      dup2\n      sload\n      dup2\n      lt\n      tag_353\n      jumpi\n      tag_354\n      tag_130\n      jump\t// in\n    tag_354:\n    tag_353:\n      swap1\n      0x00\n      mstore\n      keccak256(0x00, 0x20)\n      swap1\n      0x02\n      mul\n      add\n        /* \"PublicContract.sol\":7196:7261  holderRequests[index] = holderRequests[holderRequests.length - 1] */\n      0x00\n      dup3\n      add\n      0x00\n      swap1\n      sload\n      swap1\n      0x0100\n      exp\n      swap1\n      div\n      0xffffffffffffffffffffffffffffffffffffffff\n      and\n      dup2\n      0x00\n      add\n      exp(0x0100, 0x00)\n      dup2\n      sload\n      dup2\n      0xffffffffffffffffffffffffffffffffffffffff\n      mul\n      not\n      and\n      swap1\n      dup4\n      0xffffffffffffffffffffffffffffffffffffffff\n      and\n      mul\n      or\n      swap1\n      sstore\n      pop\n      0x01\n      dup3\n      add\n      0x00\n      swap1\n      sload\n      swap1\n      0x0100\n      exp\n      swap1\n      div\n      0xffffffffffffffffffffffffffffffffffffffff\n      and\n      dup2\n      0x01\n      add\n      exp(0x0100, 0x00)\n      dup2\n      sload\n      dup2\n      0xffffffffffffffffffffffffffffffffffffffff\n      mul\n      not\n      and\n      swap1\n      dup4\n      0xffffffffffffffffffffffffffffffffffffffff\n      and\n      mul\n      or\n      swap1\n      sstore\n      pop\n      swap1\n      pop\n      pop\n        /* \"PublicContract.sol\":7308:7322  holderRequests */\n      0x02\n        /* \"PublicContract.sol\":7308:7328  holderRequests.pop() */\n      dup1\n      sload\n      dup1\n      tag_356\n      jumpi\n      tag_357\n      tag_358\n      jump\t// in\n    tag_357:\n    tag_356:\n      0x01\n      swap1\n      sub\n      dup2\n      dup2\n      swap1\n      0x00\n      mstore\n      keccak256(0x00, 0x20)\n      swap1\n      0x02\n      mul\n      add\n      0x00\n      dup1\n      dup3\n      add\n      exp(0x0100, 0x00)\n      dup2\n      sload\n      swap1\n      0xffffffffffffffffffffffffffffffffffffffff\n      mul\n      not\n      and\n      swap1\n      sstore\n      0x01\n      dup3\n      add\n      exp(0x0100, 0x00)\n      dup2\n      sload\n      swap1\n      0xffffffffffffffffffffffffffffffffffffffff\n      mul\n      not\n      and\n      swap1\n      sstore\n      pop\n      pop\n      swap1\n      sstore\n        /* \"PublicContract.sol\":7067:7336  function removeFromHolderRequestList(uint256 index) public {... */\n      pop\n      jump\t// out\n        /* \"PublicContract.sol\":11944:12459  function makeARequestToGetShares(string memory name,address requesterAddress,string memory tempOtp)public {... */\n    tag_123:\n      pop\n      pop\n      pop\n      jump\t// out\n    tag_235:\n      mload(0x40)\n      dup1\n      0x40\n      add\n      0x40\n      mstore\n      dup1\n      and(0xffffffffffffffffffffffffffffffffffffffff, 0x00)\n      dup2\n      mstore\n      0x20\n      add\n      and(0xffffffffffffffffffffffffffffffffffffffff, 0x00)\n      dup2\n      mstore\n      pop\n      swap1\n      jump\t// out\n    tag_273:\n      pop\n      dup1\n      sload\n      tag_361\n      swap1\n      tag_138\n      jump\t// in\n    tag_361:\n      0x00\n      dup3\n      sstore\n      dup1\n      0x1f\n      lt\n      tag_363\n      jumpi\n      pop\n      jump(tag_362)\n    tag_363:\n      0x1f\n      add\n      0x20\n      swap1\n      div\n      swap1\n      0x00\n      mstore\n      keccak256(0x00, 0x20)\n      swap1\n      dup2\n      add\n      swap1\n      tag_364\n      swap2\n      swap1\n      tag_365\n      jump\t// in\n    tag_364:\n    tag_362:\n      pop\n      jump\t// out\n    tag_365:\n    tag_366:\n      dup1\n      dup3\n      gt\n      iszero\n      tag_367\n      jumpi\n      0x00\n      dup2\n      0x00\n      swap1\n      sstore\n      pop\n      0x01\n      add\n      jump(tag_366)\n    tag_367:\n      pop\n      swap1\n      jump\t// out\n        /* \"#utility.yul\":7:82   */\n    tag_368:\n        /* \"#utility.yul\":40:46   */\n      0x00\n        /* \"#utility.yul\":73:75   */\n      0x40\n        /* \"#utility.yul\":67:76   */\n      mload\n        /* \"#utility.yul\":57:76   */\n      swap1\n      pop\n        /* \"#utility.yul\":7:82   */\n      swap1\n      jump\t// out\n        /* \"#utility.yul\":88:205   */\n    tag_369:\n        /* \"#utility.yul\":197:198   */\n      0x00\n        /* \"#utility.yul\":194:195   */\n      dup1\n        /* \"#utility.yul\":187:199   */\n      revert\n        /* \"#utility.yul\":211:328   */\n    tag_370:\n        /* \"#utility.yul\":320:321   */\n      0x00\n        /* \"#utility.yul\":317:318   */\n      dup1\n        /* \"#utility.yul\":310:322   */\n      revert\n        /* \"#utility.yul\":334:451   */\n    tag_371:\n        /* \"#utility.yul\":443:444   */\n      0x00\n        /* \"#utility.yul\":440:441   */\n      dup1\n        /* \"#utility.yul\":433:445   */\n      revert\n        /* \"#utility.yul\":457:559   */\n    tag_372:\n        /* \"#utility.yul\":498:504   */\n      0x00\n        /* \"#utility.yul\":549:551   */\n      0x1f\n        /* \"#utility.yul\":545:552   */\n      not\n        /* \"#utility.yul\":540:542   */\n      0x1f\n        /* \"#utility.yul\":533:538   */\n      dup4\n        /* \"#utility.yul\":529:543   */\n      add\n        /* \"#utility.yul\":525:553   */\n      and\n        /* \"#utility.yul\":515:553   */\n      swap1\n      pop\n        /* \"#utility.yul\":457:559   */\n      swap2\n      swap1\n      pop\n      jump\t// out\n        /* \"#utility.yul\":565:745   */\n    tag_190:\n        /* \"#utility.yul\":613:690   */\n      0x4e487b7100000000000000000000000000000000000000000000000000000000\n        /* \"#utility.yul\":610:611   */\n      0x00\n        /* \"#utility.yul\":603:691   */\n      mstore\n        /* \"#utility.yul\":710:714   */\n      0x41\n        /* \"#utility.yul\":707:708   */\n      0x04\n        /* \"#utility.yul\":700:715   */\n      mstore\n        /* \"#utility.yul\":734:738   */\n      0x24\n        /* \"#utility.yul\":731:732   */\n      0x00\n        /* \"#utility.yul\":724:739   */\n      revert\n        /* \"#utility.yul\":751:1032   */\n    tag_373:\n        /* \"#utility.yul\":834:861   */\n      tag_423\n        /* \"#utility.yul\":856:860   */\n      dup3\n        /* \"#utility.yul\":834:861   */\n      tag_372\n      jump\t// in\n    tag_423:\n        /* \"#utility.yul\":826:832   */\n      dup2\n        /* \"#utility.yul\":822:862   */\n      add\n        /* \"#utility.yul\":964:970   */\n      dup2\n        /* \"#utility.yul\":952:962   */\n      dup2\n        /* \"#utility.yul\":949:971   */\n      lt\n        /* \"#utility.yul\":928:946   */\n      0xffffffffffffffff\n        /* \"#utility.yul\":916:926   */\n      dup3\n        /* \"#utility.yul\":913:947   */\n      gt\n        /* \"#utility.yul\":910:972   */\n      or\n        /* \"#utility.yul\":907:995   */\n      iszero\n      tag_424\n      jumpi\n        /* \"#utility.yul\":975:993   */\n      tag_425\n      tag_190\n      jump\t// in\n    tag_425:\n        /* \"#utility.yul\":907:995   */\n    tag_424:\n        /* \"#utility.yul\":1015:1025   */\n      dup1\n        /* \"#utility.yul\":1011:1013   */\n      0x40\n        /* \"#utility.yul\":1004:1026   */\n      mstore\n        /* \"#utility.yul\":794:1032   */\n      pop\n        /* \"#utility.yul\":751:1032   */\n      pop\n      pop\n      jump\t// out\n        /* \"#utility.yul\":1038:1167   */\n    tag_374:\n        /* \"#utility.yul\":1072:1078   */\n      0x00\n        /* \"#utility.yul\":1099:1119   */\n      tag_427\n      tag_368\n      jump\t// in\n    tag_427:\n        /* \"#utility.yul\":1089:1119   */\n      swap1\n      pop\n        /* \"#utility.yul\":1128:1161   */\n      tag_428\n        /* \"#utility.yul\":1156:1160   */\n      dup3\n        /* \"#utility.yul\":1148:1154   */\n      dup3\n        /* \"#utility.yul\":1128:1161   */\n      tag_373\n      jump\t// in\n    tag_428:\n        /* \"#utility.yul\":1038:1167   */\n      swap2\n      swap1\n      pop\n      jump\t// out\n        /* \"#utility.yul\":1173:1484   */\n    tag_375:\n        /* \"#utility.yul\":1250:1254   */\n      0x00\n        /* \"#utility.yul\":1340:1358   */\n      0xffffffffffffffff\n        /* \"#utility.yul\":1332:1338   */\n      dup3\n        /* \"#utility.yul\":1329:1359   */\n      gt\n        /* \"#utility.yul\":1326:1382   */\n      iszero\n      tag_430\n      jumpi\n        /* \"#utility.yul\":1362:1380   */\n      tag_431\n      tag_190\n      jump\t// in\n    tag_431:\n        /* \"#utility.yul\":1326:1382   */\n    tag_430:\n        /* \"#utility.yul\":1412:1416   */\n      0x20\n        /* \"#utility.yul\":1404:1410   */\n      dup3\n        /* \"#utility.yul\":1400:1417   */\n      mul\n        /* \"#utility.yul\":1392:1417   */\n      swap1\n      pop\n        /* \"#utility.yul\":1472:1476   */\n      0x20\n        /* \"#utility.yul\":1466:1470   */\n      dup2\n        /* \"#utility.yul\":1462:1477   */\n      add\n        /* \"#utility.yul\":1454:1477   */\n      swap1\n      pop\n        /* \"#utility.yul\":1173:1484   */\n      swap2\n      swap1\n      pop\n      jump\t// out\n        /* \"#utility.yul\":1490:1607   */\n    tag_376:\n        /* \"#utility.yul\":1599:1600   */\n      0x00\n        /* \"#utility.yul\":1596:1597   */\n      dup1\n        /* \"#utility.yul\":1589:1601   */\n      revert\n        /* \"#utility.yul\":1613:1739   */\n    tag_377:\n        /* \"#utility.yul\":1650:1657   */\n      0x00\n        /* \"#utility.yul\":1690:1732   */\n      0xffffffffffffffffffffffffffffffffffffffff\n        /* \"#utility.yul\":1683:1688   */\n      dup3\n        /* \"#utility.yul\":1679:1733   */\n      and\n        /* \"#utility.yul\":1668:1733   */\n      swap1\n      pop\n        /* \"#utility.yul\":1613:1739   */\n      swap2\n      swap1\n      pop\n      jump\t// out\n        /* \"#utility.yul\":1745:1841   */\n    tag_378:\n        /* \"#utility.yul\":1782:1789   */\n      0x00\n        /* \"#utility.yul\":1811:1835   */\n      tag_435\n        /* \"#utility.yul\":1829:1834   */\n      dup3\n        /* \"#utility.yul\":1811:1835   */\n      tag_377\n      jump\t// in\n    tag_435:\n        /* \"#utility.yul\":1800:1835   */\n      swap1\n      pop\n        /* \"#utility.yul\":1745:1841   */\n      swap2\n      swap1\n      pop\n      jump\t// out\n        /* \"#utility.yul\":1847:1969   */\n    tag_379:\n        /* \"#utility.yul\":1920:1944   */\n      tag_437\n        /* \"#utility.yul\":1938:1943   */\n      dup2\n        /* \"#utility.yul\":1920:1944   */\n      tag_378\n      jump\t// in\n    tag_437:\n        /* \"#utility.yul\":1913:1918   */\n      dup2\n        /* \"#utility.yul\":1910:1945   */\n      eq\n        /* \"#utility.yul\":1900:1963   */\n      tag_438\n      jumpi\n        /* \"#utility.yul\":1959:1960   */\n      0x00\n        /* \"#utility.yul\":1956:1957   */\n      dup1\n        /* \"#utility.yul\":1949:1961   */\n      revert\n        /* \"#utility.yul\":1900:1963   */\n    tag_438:\n        /* \"#utility.yul\":1847:1969   */\n      pop\n      jump\t// out\n        /* \"#utility.yul\":1975:2114   */\n    tag_380:\n        /* \"#utility.yul\":2021:2026   */\n      0x00\n        /* \"#utility.yul\":2059:2065   */\n      dup2\n        /* \"#utility.yul\":2046:2066   */\n      calldataload\n        /* \"#utility.yul\":2037:2066   */\n      swap1\n      pop\n        /* \"#utility.yul\":2075:2108   */\n      tag_440\n        /* \"#utility.yul\":2102:2107   */\n      dup2\n        /* \"#utility.yul\":2075:2108   */\n      tag_379\n      jump\t// in\n    tag_440:\n        /* \"#utility.yul\":1975:2114   */\n      swap3\n      swap2\n      pop\n      pop\n      jump\t// out\n        /* \"#utility.yul\":2137:2847   */\n    tag_381:\n        /* \"#utility.yul\":2233:2238   */\n      0x00\n        /* \"#utility.yul\":2258:2339   */\n      tag_442\n        /* \"#utility.yul\":2274:2338   */\n      tag_443\n        /* \"#utility.yul\":2331:2337   */\n      dup5\n        /* \"#utility.yul\":2274:2338   */\n      tag_375\n      jump\t// in\n    tag_443:\n        /* \"#utility.yul\":2258:2339   */\n      tag_374\n      jump\t// in\n    tag_442:\n        /* \"#utility.yul\":2249:2339   */\n      swap1\n      pop\n        /* \"#utility.yul\":2359:2364   */\n      dup1\n        /* \"#utility.yul\":2388:2394   */\n      dup4\n        /* \"#utility.yul\":2381:2386   */\n      dup3\n        /* \"#utility.yul\":2374:2395   */\n      mstore\n        /* \"#utility.yul\":2422:2426   */\n      0x20\n        /* \"#utility.yul\":2415:2420   */\n      dup3\n        /* \"#utility.yul\":2411:2427   */\n      add\n        /* \"#utility.yul\":2404:2427   */\n      swap1\n      pop\n        /* \"#utility.yul\":2475:2479   */\n      0x20\n        /* \"#utility.yul\":2467:2473   */\n      dup5\n        /* \"#utility.yul\":2463:2480   */\n      mul\n        /* \"#utility.yul\":2455:2461   */\n      dup4\n        /* \"#utility.yul\":2451:2481   */\n      add\n        /* \"#utility.yul\":2504:2507   */\n      dup6\n        /* \"#utility.yul\":2496:2502   */\n      dup2\n        /* \"#utility.yul\":2493:2508   */\n      gt\n        /* \"#utility.yul\":2490:2612   */\n      iszero\n      tag_444\n      jumpi\n        /* \"#utility.yul\":2523:2602   */\n      tag_445\n      tag_376\n      jump\t// in\n    tag_445:\n        /* \"#utility.yul\":2490:2612   */\n    tag_444:\n        /* \"#utility.yul\":2638:2644   */\n      dup4\n        /* \"#utility.yul\":2621:2841   */\n    tag_446:\n        /* \"#utility.yul\":2655:2661   */\n      dup2\n        /* \"#utility.yul\":2650:2653   */\n      dup2\n        /* \"#utility.yul\":2647:2662   */\n      lt\n        /* \"#utility.yul\":2621:2841   */\n      iszero\n      tag_448\n      jumpi\n        /* \"#utility.yul\":2730:2733   */\n      dup1\n        /* \"#utility.yul\":2759:2796   */\n      tag_449\n        /* \"#utility.yul\":2792:2795   */\n      dup9\n        /* \"#utility.yul\":2780:2790   */\n      dup3\n        /* \"#utility.yul\":2759:2796   */\n      tag_380\n      jump\t// in\n    tag_449:\n        /* \"#utility.yul\":2754:2757   */\n      dup5\n        /* \"#utility.yul\":2747:2797   */\n      mstore\n        /* \"#utility.yul\":2826:2830   */\n      0x20\n        /* \"#utility.yul\":2821:2824   */\n      dup5\n        /* \"#utility.yul\":2817:2831   */\n      add\n        /* \"#utility.yul\":2810:2831   */\n      swap4\n      pop\n        /* \"#utility.yul\":2697:2841   */\n      pop\n        /* \"#utility.yul\":2681:2685   */\n      0x20\n        /* \"#utility.yul\":2676:2679   */\n      dup2\n        /* \"#utility.yul\":2672:2686   */\n      add\n        /* \"#utility.yul\":2665:2686   */\n      swap1\n      pop\n        /* \"#utility.yul\":2621:2841   */\n      jump(tag_446)\n    tag_448:\n        /* \"#utility.yul\":2625:2646   */\n      pop\n        /* \"#utility.yul\":2239:2847   */\n      pop\n      pop\n        /* \"#utility.yul\":2137:2847   */\n      swap4\n      swap3\n      pop\n      pop\n      pop\n      jump\t// out\n        /* \"#utility.yul\":2870:3240   */\n    tag_382:\n        /* \"#utility.yul\":2941:2946   */\n      0x00\n        /* \"#utility.yul\":2990:2993   */\n      dup3\n        /* \"#utility.yul\":2983:2987   */\n      0x1f\n        /* \"#utility.yul\":2975:2981   */\n      dup4\n        /* \"#utility.yul\":2971:2988   */\n      add\n        /* \"#utility.yul\":2967:2994   */\n      slt\n        /* \"#utility.yul\":2957:3079   */\n      tag_451\n      jumpi\n        /* \"#utility.yul\":2998:3077   */\n      tag_452\n      tag_371\n      jump\t// in\n    tag_452:\n        /* \"#utility.yul\":2957:3079   */\n    tag_451:\n        /* \"#utility.yul\":3115:3121   */\n      dup2\n        /* \"#utility.yul\":3102:3122   */\n      calldataload\n        /* \"#utility.yul\":3140:3234   */\n      tag_453\n        /* \"#utility.yul\":3230:3233   */\n      dup5\n        /* \"#utility.yul\":3222:3228   */\n      dup3\n        /* \"#utility.yul\":3215:3219   */\n      0x20\n        /* \"#utility.yul\":3207:3213   */\n      dup7\n        /* \"#utility.yul\":3203:3220   */\n      add\n        /* \"#utility.yul\":3140:3234   */\n      tag_381\n      jump\t// in\n    tag_453:\n        /* \"#utility.yul\":3131:3234   */\n      swap2\n      pop\n        /* \"#utility.yul\":2947:3240   */\n      pop\n        /* \"#utility.yul\":2870:3240   */\n      swap3\n      swap2\n      pop\n      pop\n      jump\t// out\n        /* \"#utility.yul\":3246:3785   */\n    tag_30:\n        /* \"#utility.yul\":3330:3336   */\n      0x00\n        /* \"#utility.yul\":3379:3381   */\n      0x20\n        /* \"#utility.yul\":3367:3376   */\n      dup3\n        /* \"#utility.yul\":3358:3365   */\n      dup5\n        /* \"#utility.yul\":3354:3377   */\n      sub\n        /* \"#utility.yul\":3350:3382   */\n      slt\n        /* \"#utility.yul\":3347:3466   */\n      iszero\n      tag_455\n      jumpi\n        /* \"#utility.yul\":3385:3464   */\n      tag_456\n      tag_369\n      jump\t// in\n    tag_456:\n        /* \"#utility.yul\":3347:3466   */\n    tag_455:\n        /* \"#utility.yul\":3533:3534   */\n      0x00\n        /* \"#utility.yul\":3522:3531   */\n      dup3\n        /* \"#utility.yul\":3518:3535   */\n      add\n        /* \"#utility.yul\":3505:3536   */\n      calldataload\n        /* \"#utility.yul\":3563:3581   */\n      0xffffffffffffffff\n        /* \"#utility.yul\":3555:3561   */\n      dup2\n        /* \"#utility.yul\":3552:3582   */\n      gt\n        /* \"#utility.yul\":3549:3666   */\n      iszero\n      tag_457\n      jumpi\n        /* \"#utility.yul\":3585:3664   */\n      tag_458\n      tag_370\n      jump\t// in\n    tag_458:\n        /* \"#utility.yul\":3549:3666   */\n    tag_457:\n        /* \"#utility.yul\":3690:3768   */\n      tag_459\n        /* \"#utility.yul\":3760:3767   */\n      dup5\n        /* \"#utility.yul\":3751:3757   */\n      dup3\n        /* \"#utility.yul\":3740:3749   */\n      dup6\n        /* \"#utility.yul\":3736:3758   */\n      add\n        /* \"#utility.yul\":3690:3768   */\n      tag_382\n      jump\t// in\n    tag_459:\n        /* \"#utility.yul\":3680:3768   */\n      swap2\n      pop\n        /* \"#utility.yul\":3476:3778   */\n      pop\n        /* \"#utility.yul\":3246:3785   */\n      swap3\n      swap2\n      pop\n      pop\n      jump\t// out\n        /* \"#utility.yul\":3791:3868   */\n    tag_383:\n        /* \"#utility.yul\":3828:3835   */\n      0x00\n        /* \"#utility.yul\":3857:3862   */\n      dup2\n        /* \"#utility.yul\":3846:3862   */\n      swap1\n      pop\n        /* \"#utility.yul\":3791:3868   */\n      swap2\n      swap1\n      pop\n      jump\t// out\n        /* \"#utility.yul\":3874:3992   */\n    tag_384:\n        /* \"#utility.yul\":3961:3985   */\n      tag_462\n        /* \"#utility.yul\":3979:3984   */\n      dup2\n        /* \"#utility.yul\":3961:3985   */\n      tag_383\n      jump\t// in\n    tag_462:\n        /* \"#utility.yul\":3956:3959   */\n      dup3\n        /* \"#utility.yul\":3949:3986   */\n      mstore\n        /* \"#utility.yul\":3874:3992   */\n      pop\n      pop\n      jump\t// out\n        /* \"#utility.yul\":3998:4220   */\n    tag_33:\n        /* \"#utility.yul\":4091:4095   */\n      0x00\n        /* \"#utility.yul\":4129:4131   */\n      0x20\n        /* \"#utility.yul\":4118:4127   */\n      dup3\n        /* \"#utility.yul\":4114:4132   */\n      add\n        /* \"#utility.yul\":4106:4132   */\n      swap1\n      pop\n        /* \"#utility.yul\":4142:4213   */\n      tag_464\n        /* \"#utility.yul\":4210:4211   */\n      0x00\n        /* \"#utility.yul\":4199:4208   */\n      dup4\n        /* \"#utility.yul\":4195:4212   */\n      add\n        /* \"#utility.yul\":4186:4192   */\n      dup5\n        /* \"#utility.yul\":4142:4213   */\n      tag_384\n      jump\t// in\n    tag_464:\n        /* \"#utility.yul\":3998:4220   */\n      swap3\n      swap2\n      pop\n      pop\n      jump\t// out\n        /* \"#utility.yul\":4226:4343   */\n    tag_385:\n        /* \"#utility.yul\":4335:4336   */\n      0x00\n        /* \"#utility.yul\":4332:4333   */\n      dup1\n        /* \"#utility.yul\":4325:4337   */\n      revert\n        /* \"#utility.yul\":4349:4657   */\n    tag_386:\n        /* \"#utility.yul\":4411:4415   */\n      0x00\n        /* \"#utility.yul\":4501:4519   */\n      0xffffffffffffffff\n        /* \"#utility.yul\":4493:4499   */\n      dup3\n        /* \"#utility.yul\":4490:4520   */\n      gt\n        /* \"#utility.yul\":4487:4543   */\n      iszero\n      tag_467\n      jumpi\n        /* \"#utility.yul\":4523:4541   */\n      tag_468\n      tag_190\n      jump\t// in\n    tag_468:\n        /* \"#utility.yul\":4487:4543   */\n    tag_467:\n        /* \"#utility.yul\":4561:4590   */\n      tag_469\n        /* \"#utility.yul\":4583:4589   */\n      dup3\n        /* \"#utility.yul\":4561:4590   */\n      tag_372\n      jump\t// in\n    tag_469:\n        /* \"#utility.yul\":4553:4590   */\n      swap1\n      pop\n        /* \"#utility.yul\":4645:4649   */\n      0x20\n        /* \"#utility.yul\":4639:4643   */\n      dup2\n        /* \"#utility.yul\":4635:4650   */\n      add\n        /* \"#utility.yul\":4627:4650   */\n      swap1\n      pop\n        /* \"#utility.yul\":4349:4657   */\n      swap2\n      swap1\n      pop\n      jump\t// out\n        /* \"#utility.yul\":4663:4809   */\n    tag_387:\n        /* \"#utility.yul\":4760:4766   */\n      dup3\n        /* \"#utility.yul\":4755:4758   */\n      dup2\n        /* \"#utility.yul\":4750:4753   */\n      dup4\n        /* \"#utility.yul\":4737:4767   */\n      calldatacopy\n        /* \"#utility.yul\":4801:4802   */\n      0x00\n        /* \"#utility.yul\":4792:4798   */\n      dup4\n        /* \"#utility.yul\":4787:4790   */\n      dup4\n        /* \"#utility.yul\":4783:4799   */\n      add\n        /* \"#utility.yul\":4776:4803   */\n      mstore\n        /* \"#utility.yul\":4663:4809   */\n      pop\n      pop\n      pop\n      jump\t// out\n        /* \"#utility.yul\":4815:5240   */\n    tag_388:\n        /* \"#utility.yul\":4893:4898   */\n      0x00\n        /* \"#utility.yul\":4918:4984   */\n      tag_472\n        /* \"#utility.yul\":4934:4983   */\n      tag_473\n        /* \"#utility.yul\":4976:4982   */\n      dup5\n        /* \"#utility.yul\":4934:4983   */\n      tag_386\n      jump\t// in\n    tag_473:\n        /* \"#utility.yul\":4918:4984   */\n      tag_374\n      jump\t// in\n    tag_472:\n        /* \"#utility.yul\":4909:4984   */\n      swap1\n      pop\n        /* \"#utility.yul\":5007:5013   */\n      dup3\n        /* \"#utility.yul\":5000:5005   */\n      dup2\n        /* \"#utility.yul\":4993:5014   */\n      mstore\n        /* \"#utility.yul\":5045:5049   */\n      0x20\n        /* \"#utility.yul\":5038:5043   */\n      dup2\n        /* \"#utility.yul\":5034:5050   */\n      add\n        /* \"#utility.yul\":5083:5086   */\n      dup5\n        /* \"#utility.yul\":5074:5080   */\n      dup5\n        /* \"#utility.yul\":5069:5072   */\n      dup5\n        /* \"#utility.yul\":5065:5081   */\n      add\n        /* \"#utility.yul\":5062:5087   */\n      gt\n        /* \"#utility.yul\":5059:5171   */\n      iszero\n      tag_474\n      jumpi\n        /* \"#utility.yul\":5090:5169   */\n      tag_475\n      tag_385\n      jump\t// in\n    tag_475:\n        /* \"#utility.yul\":5059:5171   */\n    tag_474:\n        /* \"#utility.yul\":5180:5234   */\n      tag_476\n        /* \"#utility.yul\":5227:5233   */\n      dup5\n        /* \"#utility.yul\":5222:5225   */\n      dup3\n        /* \"#utility.yul\":5217:5220   */\n      dup6\n        /* \"#utility.yul\":5180:5234   */\n      tag_387\n      jump\t// in\n    tag_476:\n        /* \"#utility.yul\":4899:5240   */\n      pop\n        /* \"#utility.yul\":4815:5240   */\n      swap4\n      swap3\n      pop\n      pop\n      pop\n      jump\t// out\n        /* \"#utility.yul\":5260:5600   */\n    tag_389:\n        /* \"#utility.yul\":5316:5321   */\n      0x00\n        /* \"#utility.yul\":5365:5368   */\n      dup3\n        /* \"#utility.yul\":5358:5362   */\n      0x1f\n        /* \"#utility.yul\":5350:5356   */\n      dup4\n        /* \"#utility.yul\":5346:5363   */\n      add\n        /* \"#utility.yul\":5342:5369   */\n      slt\n        /* \"#utility.yul\":5332:5454   */\n      tag_478\n      jumpi\n        /* \"#utility.yul\":5373:5452   */\n      tag_479\n      tag_371\n      jump\t// in\n    tag_479:\n        /* \"#utility.yul\":5332:5454   */\n    tag_478:\n        /* \"#utility.yul\":5490:5496   */\n      dup2\n        /* \"#utility.yul\":5477:5497   */\n      calldataload\n        /* \"#utility.yul\":5515:5594   */\n      tag_480\n        /* \"#utility.yul\":5590:5593   */\n      dup5\n        /* \"#utility.yul\":5582:5588   */\n      dup3\n        /* \"#utility.yul\":5575:5579   */\n      0x20\n        /* \"#utility.yul\":5567:5573   */\n      dup7\n        /* \"#utility.yul\":5563:5580   */\n      add\n        /* \"#utility.yul\":5515:5594   */\n      tag_388\n      jump\t// in\n    tag_480:\n        /* \"#utility.yul\":5506:5594   */\n      swap2\n      pop\n        /* \"#utility.yul\":5322:5600   */\n      pop\n        /* \"#utility.yul\":5260:5600   */\n      swap3\n      swap2\n      pop\n      pop\n      jump\t// out\n        /* \"#utility.yul\":5606:6115   */\n    tag_36:\n        /* \"#utility.yul\":5675:5681   */\n      0x00\n        /* \"#utility.yul\":5724:5726   */\n      0x20\n        /* \"#utility.yul\":5712:5721   */\n      dup3\n        /* \"#utility.yul\":5703:5710   */\n      dup5\n        /* \"#utility.yul\":5699:5722   */\n      sub\n        /* \"#utility.yul\":5695:5727   */\n      slt\n        /* \"#utility.yul\":5692:5811   */\n      iszero\n      tag_482\n      jumpi\n        /* \"#utility.yul\":5730:5809   */\n      tag_483\n      tag_369\n      jump\t// in\n    tag_483:\n        /* \"#utility.yul\":5692:5811   */\n    tag_482:\n        /* \"#utility.yul\":5878:5879   */\n      0x00\n        /* \"#utility.yul\":5867:5876   */\n      dup3\n        /* \"#utility.yul\":5863:5880   */\n      add\n        /* \"#utility.yul\":5850:5881   */\n      calldataload\n        /* \"#utility.yul\":5908:5926   */\n      0xffffffffffffffff\n        /* \"#utility.yul\":5900:5906   */\n      dup2\n        /* \"#utility.yul\":5897:5927   */\n      gt\n        /* \"#utility.yul\":5894:6011   */\n      iszero\n      tag_484\n      jumpi\n        /* \"#utility.yul\":5930:6009   */\n      tag_485\n      tag_370\n      jump\t// in\n    tag_485:\n        /* \"#utility.yul\":5894:6011   */\n    tag_484:\n        /* \"#utility.yul\":6035:6098   */\n      tag_486\n        /* \"#utility.yul\":6090:6097   */\n      dup5\n        /* \"#utility.yul\":6081:6087   */\n      dup3\n        /* \"#utility.yul\":6070:6079   */\n      dup6\n        /* \"#utility.yul\":6066:6088   */\n      add\n        /* \"#utility.yul\":6035:6098   */\n      tag_389\n      jump\t// in\n    tag_486:\n        /* \"#utility.yul\":6025:6098   */\n      swap2\n      pop\n        /* \"#utility.yul\":5821:6108   */\n      pop\n        /* \"#utility.yul\":5606:6115   */\n      swap3\n      swap2\n      pop\n      pop\n      jump\t// out\n        /* \"#utility.yul\":6121:6211   */\n    tag_390:\n        /* \"#utility.yul\":6155:6162   */\n      0x00\n        /* \"#utility.yul\":6198:6203   */\n      dup2\n        /* \"#utility.yul\":6191:6204   */\n      iszero\n        /* \"#utility.yul\":6184:6205   */\n      iszero\n        /* \"#utility.yul\":6173:6205   */\n      swap1\n      pop\n        /* \"#utility.yul\":6121:6211   */\n      swap2\n      swap1\n      pop\n      jump\t// out\n        /* \"#utility.yul\":6217:6326   */\n    tag_391:\n        /* \"#utility.yul\":6298:6319   */\n      tag_489\n        /* \"#utility.yul\":6313:6318   */\n      dup2\n        /* \"#utility.yul\":6298:6319   */\n      tag_390\n      jump\t// in\n    tag_489:\n        /* \"#utility.yul\":6293:6296   */\n      dup3\n        /* \"#utility.yul\":6286:6320   */\n      mstore\n        /* \"#utility.yul\":6217:6326   */\n      pop\n      pop\n      jump\t// out\n        /* \"#utility.yul\":6332:6542   */\n    tag_39:\n        /* \"#utility.yul\":6419:6423   */\n      0x00\n        /* \"#utility.yul\":6457:6459   */\n      0x20\n        /* \"#utility.yul\":6446:6455   */\n      dup3\n        /* \"#utility.yul\":6442:6460   */\n      add\n        /* \"#utility.yul\":6434:6460   */\n      swap1\n      pop\n        /* \"#utility.yul\":6470:6535   */\n      tag_491\n        /* \"#utility.yul\":6532:6533   */\n      0x00\n        /* \"#utility.yul\":6521:6530   */\n      dup4\n        /* \"#utility.yul\":6517:6534   */\n      add\n        /* \"#utility.yul\":6508:6514   */\n      dup5\n        /* \"#utility.yul\":6470:6535   */\n      tag_391\n      jump\t// in\n    tag_491:\n        /* \"#utility.yul\":6332:6542   */\n      swap3\n      swap2\n      pop\n      pop\n      jump\t// out\n        /* \"#utility.yul\":6548:6877   */\n    tag_42:\n        /* \"#utility.yul\":6607:6613   */\n      0x00\n        /* \"#utility.yul\":6656:6658   */\n      0x20\n        /* \"#utility.yul\":6644:6653   */\n      dup3\n        /* \"#utility.yul\":6635:6642   */\n      dup5\n        /* \"#utility.yul\":6631:6654   */\n      sub\n        /* \"#utility.yul\":6627:6659   */\n      slt\n        /* \"#utility.yul\":6624:6743   */\n      iszero\n      tag_493\n      jumpi\n        /* \"#utility.yul\":6662:6741   */\n      tag_494\n      tag_369\n      jump\t// in\n    tag_494:\n        /* \"#utility.yul\":6624:6743   */\n    tag_493:\n        /* \"#utility.yul\":6782:6783   */\n      0x00\n        /* \"#utility.yul\":6807:6860   */\n      tag_495\n        /* \"#utility.yul\":6852:6859   */\n      dup5\n        /* \"#utility.yul\":6843:6849   */\n      dup3\n        /* \"#utility.yul\":6832:6841   */\n      dup6\n        /* \"#utility.yul\":6828:6850   */\n      add\n        /* \"#utility.yul\":6807:6860   */\n      tag_380\n      jump\t// in\n    tag_495:\n        /* \"#utility.yul\":6797:6860   */\n      swap2\n      pop\n        /* \"#utility.yul\":6753:6870   */\n      pop\n        /* \"#utility.yul\":6548:6877   */\n      swap3\n      swap2\n      pop\n      pop\n      jump\t// out\n        /* \"#utility.yul\":6883:6982   */\n    tag_392:\n        /* \"#utility.yul\":6935:6941   */\n      0x00\n        /* \"#utility.yul\":6969:6974   */\n      dup2\n        /* \"#utility.yul\":6963:6975   */\n      mload\n        /* \"#utility.yul\":6953:6975   */\n      swap1\n      pop\n        /* \"#utility.yul\":6883:6982   */\n      swap2\n      swap1\n      pop\n      jump\t// out\n        /* \"#utility.yul\":6988:7157   */\n    tag_393:\n        /* \"#utility.yul\":7072:7083   */\n      0x00\n        /* \"#utility.yul\":7106:7112   */\n      dup3\n        /* \"#utility.yul\":7101:7104   */\n      dup3\n        /* \"#utility.yul\":7094:7113   */\n      mstore\n        /* \"#utility.yul\":7146:7150   */\n      0x20\n        /* \"#utility.yul\":7141:7144   */\n      dup3\n        /* \"#utility.yul\":7137:7151   */\n      add\n        /* \"#utility.yul\":7122:7151   */\n      swap1\n      pop\n        /* \"#utility.yul\":6988:7157   */\n      swap3\n      swap2\n      pop\n      pop\n      jump\t// out\n        /* \"#utility.yul\":7163:7409   */\n    tag_394:\n        /* \"#utility.yul\":7244:7245   */\n      0x00\n        /* \"#utility.yul\":7254:7367   */\n    tag_499:\n        /* \"#utility.yul\":7268:7274   */\n      dup4\n        /* \"#utility.yul\":7265:7266   */\n      dup2\n        /* \"#utility.yul\":7262:7275   */\n      lt\n        /* \"#utility.yul\":7254:7367   */\n      iszero\n      tag_501\n      jumpi\n        /* \"#utility.yul\":7353:7354   */\n      dup1\n        /* \"#utility.yul\":7348:7351   */\n      dup3\n        /* \"#utility.yul\":7344:7355   */\n      add\n        /* \"#utility.yul\":7338:7356   */\n      mload\n        /* \"#utility.yul\":7334:7335   */\n      dup2\n        /* \"#utility.yul\":7329:7332   */\n      dup5\n        /* \"#utility.yul\":7325:7336   */\n      add\n        /* \"#utility.yul\":7318:7357   */\n      mstore\n        /* \"#utility.yul\":7290:7292   */\n      0x20\n        /* \"#utility.yul\":7287:7288   */\n      dup2\n        /* \"#utility.yul\":7283:7293   */\n      add\n        /* \"#utility.yul\":7278:7293   */\n      swap1\n      pop\n        /* \"#utility.yul\":7254:7367   */\n      jump(tag_499)\n    tag_501:\n        /* \"#utility.yul\":7401:7402   */\n      0x00\n        /* \"#utility.yul\":7392:7398   */\n      dup5\n        /* \"#utility.yul\":7387:7390   */\n      dup5\n        /* \"#utility.yul\":7383:7399   */\n      add\n        /* \"#utility.yul\":7376:7403   */\n      mstore\n        /* \"#utility.yul\":7225:7409   */\n      pop\n        /* \"#utility.yul\":7163:7409   */\n      pop\n      pop\n      pop\n      jump\t// out\n        /* \"#utility.yul\":7415:7792   */\n    tag_395:\n        /* \"#utility.yul\":7503:7506   */\n      0x00\n        /* \"#utility.yul\":7531:7570   */\n      tag_503\n        /* \"#utility.yul\":7564:7569   */\n      dup3\n        /* \"#utility.yul\":7531:7570   */\n      tag_392\n      jump\t// in\n    tag_503:\n        /* \"#utility.yul\":7586:7657   */\n      tag_504\n        /* \"#utility.yul\":7650:7656   */\n      dup2\n        /* \"#utility.yul\":7645:7648   */\n      dup6\n        /* \"#utility.yul\":7586:7657   */\n      tag_393\n      jump\t// in\n    tag_504:\n        /* \"#utility.yul\":7579:7657   */\n      swap4\n      pop\n        /* \"#utility.yul\":7666:7731   */\n      tag_505\n        /* \"#utility.yul\":7724:7730   */\n      dup2\n        /* \"#utility.yul\":7719:7722   */\n      dup6\n        /* \"#utility.yul\":7712:7716   */\n      0x20\n        /* \"#utility.yul\":7705:7710   */\n      dup7\n        /* \"#utility.yul\":7701:7717   */\n      add\n        /* \"#utility.yul\":7666:7731   */\n      tag_394\n      jump\t// in\n    tag_505:\n        /* \"#utility.yul\":7756:7785   */\n      tag_506\n        /* \"#utility.yul\":7778:7784   */\n      dup2\n        /* \"#utility.yul\":7756:7785   */\n      tag_372\n      jump\t// in\n    tag_506:\n        /* \"#utility.yul\":7751:7754   */\n      dup5\n        /* \"#utility.yul\":7747:7786   */\n      add\n        /* \"#utility.yul\":7740:7786   */\n      swap2\n      pop\n        /* \"#utility.yul\":7507:7792   */\n      pop\n        /* \"#utility.yul\":7415:7792   */\n      swap3\n      swap2\n      pop\n      pop\n      jump\t// out\n        /* \"#utility.yul\":7798:8111   */\n    tag_53:\n        /* \"#utility.yul\":7911:7915   */\n      0x00\n        /* \"#utility.yul\":7949:7951   */\n      0x20\n        /* \"#utility.yul\":7938:7947   */\n      dup3\n        /* \"#utility.yul\":7934:7952   */\n      add\n        /* \"#utility.yul\":7926:7952   */\n      swap1\n      pop\n        /* \"#utility.yul\":7998:8007   */\n      dup2\n        /* \"#utility.yul\":7992:7996   */\n      dup2\n        /* \"#utility.yul\":7988:8008   */\n      sub\n        /* \"#utility.yul\":7984:7985   */\n      0x00\n        /* \"#utility.yul\":7973:7982   */\n      dup4\n        /* \"#utility.yul\":7969:7986   */\n      add\n        /* \"#utility.yul\":7962:8009   */\n      mstore\n        /* \"#utility.yul\":8026:8104   */\n      tag_508\n        /* \"#utility.yul\":8099:8103   */\n      dup2\n        /* \"#utility.yul\":8090:8096   */\n      dup5\n        /* \"#utility.yul\":8026:8104   */\n      tag_395\n      jump\t// in\n    tag_508:\n        /* \"#utility.yul\":8018:8104   */\n      swap1\n      pop\n        /* \"#utility.yul\":7798:8111   */\n      swap3\n      swap2\n      pop\n      pop\n      jump\t// out\n        /* \"#utility.yul\":8117:8591   */\n    tag_56:\n        /* \"#utility.yul\":8185:8191   */\n      0x00\n        /* \"#utility.yul\":8193:8199   */\n      dup1\n        /* \"#utility.yul\":8242:8244   */\n      0x40\n        /* \"#utility.yul\":8230:8239   */\n      dup4\n        /* \"#utility.yul\":8221:8228   */\n      dup6\n        /* \"#utility.yul\":8217:8240   */\n      sub\n        /* \"#utility.yul\":8213:8245   */\n      slt\n        /* \"#utility.yul\":8210:8329   */\n      iszero\n      tag_510\n      jumpi\n        /* \"#utility.yul\":8248:8327   */\n      tag_511\n      tag_369\n      jump\t// in\n    tag_511:\n        /* \"#utility.yul\":8210:8329   */\n    tag_510:\n        /* \"#utility.yul\":8368:8369   */\n      0x00\n        /* \"#utility.yul\":8393:8446   */\n      tag_512\n        /* \"#utility.yul\":8438:8445   */\n      dup6\n        /* \"#utility.yul\":8429:8435   */\n      dup3\n        /* \"#utility.yul\":8418:8427   */\n      dup7\n        /* \"#utility.yul\":8414:8436   */\n      add\n        /* \"#utility.yul\":8393:8446   */\n      tag_380\n      jump\t// in\n    tag_512:\n        /* \"#utility.yul\":8383:8446   */\n      swap3\n      pop\n        /* \"#utility.yul\":8339:8456   */\n      pop\n        /* \"#utility.yul\":8495:8497   */\n      0x20\n        /* \"#utility.yul\":8521:8574   */\n      tag_513\n        /* \"#utility.yul\":8566:8573   */\n      dup6\n        /* \"#utility.yul\":8557:8563   */\n      dup3\n        /* \"#utility.yul\":8546:8555   */\n      dup7\n        /* \"#utility.yul\":8542:8564   */\n      add\n        /* \"#utility.yul\":8521:8574   */\n      tag_380\n      jump\t// in\n    tag_513:\n        /* \"#utility.yul\":8511:8574   */\n      swap2\n      pop\n        /* \"#utility.yul\":8466:8584   */\n      pop\n        /* \"#utility.yul\":8117:8591   */\n      swap3\n      pop\n      swap3\n      swap1\n      pop\n      jump\t// out\n        /* \"#utility.yul\":8597:8711   */\n    tag_396:\n        /* \"#utility.yul\":8664:8670   */\n      0x00\n        /* \"#utility.yul\":8698:8703   */\n      dup2\n        /* \"#utility.yul\":8692:8704   */\n      mload\n        /* \"#utility.yul\":8682:8704   */\n      swap1\n      pop\n        /* \"#utility.yul\":8597:8711   */\n      swap2\n      swap1\n      pop\n      jump\t// out\n        /* \"#utility.yul\":8717:8901   */\n    tag_397:\n        /* \"#utility.yul\":8816:8827   */\n      0x00\n        /* \"#utility.yul\":8850:8856   */\n      dup3\n        /* \"#utility.yul\":8845:8848   */\n      dup3\n        /* \"#utility.yul\":8838:8857   */\n      mstore\n        /* \"#utility.yul\":8890:8894   */\n      0x20\n        /* \"#utility.yul\":8885:8888   */\n      dup3\n        /* \"#utility.yul\":8881:8895   */\n      add\n        /* \"#utility.yul\":8866:8895   */\n      swap1\n      pop\n        /* \"#utility.yul\":8717:8901   */\n      swap3\n      swap2\n      pop\n      pop\n      jump\t// out\n        /* \"#utility.yul\":8907:9039   */\n    tag_398:\n        /* \"#utility.yul\":8974:8978   */\n      0x00\n        /* \"#utility.yul\":8997:9000   */\n      dup2\n        /* \"#utility.yul\":8989:9000   */\n      swap1\n      pop\n        /* \"#utility.yul\":9027:9031   */\n      0x20\n        /* \"#utility.yul\":9022:9025   */\n      dup3\n        /* \"#utility.yul\":9018:9032   */\n      add\n        /* \"#utility.yul\":9010:9032   */\n      swap1\n      pop\n        /* \"#utility.yul\":8907:9039   */\n      swap2\n      swap1\n      pop\n      jump\t// out\n        /* \"#utility.yul\":9045:9153   */\n    tag_399:\n        /* \"#utility.yul\":9122:9146   */\n      tag_518\n        /* \"#utility.yul\":9140:9145   */\n      dup2\n        /* \"#utility.yul\":9122:9146   */\n      tag_378\n      jump\t// in\n    tag_518:\n        /* \"#utility.yul\":9117:9120   */\n      dup3\n        /* \"#utility.yul\":9110:9147   */\n      mstore\n        /* \"#utility.yul\":9045:9153   */\n      pop\n      pop\n      jump\t// out\n        /* \"#utility.yul\":9159:9338   */\n    tag_400:\n        /* \"#utility.yul\":9228:9238   */\n      0x00\n        /* \"#utility.yul\":9249:9295   */\n      tag_520\n        /* \"#utility.yul\":9291:9294   */\n      dup4\n        /* \"#utility.yul\":9283:9289   */\n      dup4\n        /* \"#utility.yul\":9249:9295   */\n      tag_399\n      jump\t// in\n    tag_520:\n        /* \"#utility.yul\":9327:9331   */\n      0x20\n        /* \"#utility.yul\":9322:9325   */\n      dup4\n        /* \"#utility.yul\":9318:9332   */\n      add\n        /* \"#utility.yul\":9304:9332   */\n      swap1\n      pop\n        /* \"#utility.yul\":9159:9338   */\n      swap3\n      swap2\n      pop\n      pop\n      jump\t// out\n        /* \"#utility.yul\":9344:9457   */\n    tag_401:\n        /* \"#utility.yul\":9414:9418   */\n      0x00\n        /* \"#utility.yul\":9446:9450   */\n      0x20\n        /* \"#utility.yul\":9441:9444   */\n      dup3\n        /* \"#utility.yul\":9437:9451   */\n      add\n        /* \"#utility.yul\":9429:9451   */\n      swap1\n      pop\n        /* \"#utility.yul\":9344:9457   */\n      swap2\n      swap1\n      pop\n      jump\t// out\n        /* \"#utility.yul\":9493:10225   */\n    tag_402:\n        /* \"#utility.yul\":9612:9615   */\n      0x00\n        /* \"#utility.yul\":9641:9695   */\n      tag_523\n        /* \"#utility.yul\":9689:9694   */\n      dup3\n        /* \"#utility.yul\":9641:9695   */\n      tag_396\n      jump\t// in\n    tag_523:\n        /* \"#utility.yul\":9711:9797   */\n      tag_524\n        /* \"#utility.yul\":9790:9796   */\n      dup2\n        /* \"#utility.yul\":9785:9788   */\n      dup6\n        /* \"#utility.yul\":9711:9797   */\n      tag_397\n      jump\t// in\n    tag_524:\n        /* \"#utility.yul\":9704:9797   */\n      swap4\n      pop\n        /* \"#utility.yul\":9821:9877   */\n      tag_525\n        /* \"#utility.yul\":9871:9876   */\n      dup4\n        /* \"#utility.yul\":9821:9877   */\n      tag_398\n      jump\t// in\n    tag_525:\n        /* \"#utility.yul\":9900:9907   */\n      dup1\n        /* \"#utility.yul\":9931:9932   */\n      0x00\n        /* \"#utility.yul\":9916:10200   */\n    tag_526:\n        /* \"#utility.yul\":9941:9947   */\n      dup4\n        /* \"#utility.yul\":9938:9939   */\n      dup2\n        /* \"#utility.yul\":9935:9948   */\n      lt\n        /* \"#utility.yul\":9916:10200   */\n      iszero\n      tag_528\n      jumpi\n        /* \"#utility.yul\":10017:10023   */\n      dup2\n        /* \"#utility.yul\":10011:10024   */\n      mload\n        /* \"#utility.yul\":10044:10107   */\n      tag_529\n        /* \"#utility.yul\":10103:10106   */\n      dup9\n        /* \"#utility.yul\":10088:10101   */\n      dup3\n        /* \"#utility.yul\":10044:10107   */\n      tag_400\n      jump\t// in\n    tag_529:\n        /* \"#utility.yul\":10037:10107   */\n      swap8\n      pop\n        /* \"#utility.yul\":10130:10190   */\n      tag_530\n        /* \"#utility.yul\":10183:10189   */\n      dup4\n        /* \"#utility.yul\":10130:10190   */\n      tag_401\n      jump\t// in\n    tag_530:\n        /* \"#utility.yul\":10120:10190   */\n      swap3\n      pop\n        /* \"#utility.yul\":9976:10200   */\n      pop\n        /* \"#utility.yul\":9963:9964   */\n      0x01\n        /* \"#utility.yul\":9960:9961   */\n      dup2\n        /* \"#utility.yul\":9956:9965   */\n      add\n        /* \"#utility.yul\":9951:9965   */\n      swap1\n      pop\n        /* \"#utility.yul\":9916:10200   */\n      jump(tag_526)\n    tag_528:\n        /* \"#utility.yul\":9920:9934   */\n      pop\n        /* \"#utility.yul\":10216:10219   */\n      dup6\n        /* \"#utility.yul\":10209:10219   */\n      swap4\n      pop\n        /* \"#utility.yul\":9617:10225   */\n      pop\n      pop\n      pop\n        /* \"#utility.yul\":9493:10225   */\n      swap3\n      swap2\n      pop\n      pop\n      jump\t// out\n        /* \"#utility.yul\":10231:10604   */\n    tag_66:\n        /* \"#utility.yul\":10374:10378   */\n      0x00\n        /* \"#utility.yul\":10412:10414   */\n      0x20\n        /* \"#utility.yul\":10401:10410   */\n      dup3\n        /* \"#utility.yul\":10397:10415   */\n      add\n        /* \"#utility.yul\":10389:10415   */\n      swap1\n      pop\n        /* \"#utility.yul\":10461:10470   */\n      dup2\n        /* \"#utility.yul\":10455:10459   */\n      dup2\n        /* \"#utility.yul\":10451:10471   */\n      sub\n        /* \"#utility.yul\":10447:10448   */\n      0x00\n        /* \"#utility.yul\":10436:10445   */\n      dup4\n        /* \"#utility.yul\":10432:10449   */\n      add\n        /* \"#utility.yul\":10425:10472   */\n      mstore\n        /* \"#utility.yul\":10489:10597   */\n      tag_532\n        /* \"#utility.yul\":10592:10596   */\n      dup2\n        /* \"#utility.yul\":10583:10589   */\n      dup5\n        /* \"#utility.yul\":10489:10597   */\n      tag_402\n      jump\t// in\n    tag_532:\n        /* \"#utility.yul\":10481:10597   */\n      swap1\n      pop\n        /* \"#utility.yul\":10231:10604   */\n      swap3\n      swap2\n      pop\n      pop\n      jump\t// out\n        /* \"#utility.yul\":10610:11409   */\n    tag_69:\n        /* \"#utility.yul\":10697:10703   */\n      0x00\n        /* \"#utility.yul\":10705:10711   */\n      dup1\n        /* \"#utility.yul\":10713:10719   */\n      0x00\n        /* \"#utility.yul\":10762:10764   */\n      0x60\n        /* \"#utility.yul\":10750:10759   */\n      dup5\n        /* \"#utility.yul\":10741:10748   */\n      dup7\n        /* \"#utility.yul\":10737:10760   */\n      sub\n        /* \"#utility.yul\":10733:10765   */\n      slt\n        /* \"#utility.yul\":10730:10849   */\n      iszero\n      tag_534\n      jumpi\n        /* \"#utility.yul\":10768:10847   */\n      tag_535\n      tag_369\n      jump\t// in\n    tag_535:\n        /* \"#utility.yul\":10730:10849   */\n    tag_534:\n        /* \"#utility.yul\":10916:10917   */\n      0x00\n        /* \"#utility.yul\":10905:10914   */\n      dup5\n        /* \"#utility.yul\":10901:10918   */\n      add\n        /* \"#utility.yul\":10888:10919   */\n      calldataload\n        /* \"#utility.yul\":10946:10964   */\n      0xffffffffffffffff\n        /* \"#utility.yul\":10938:10944   */\n      dup2\n        /* \"#utility.yul\":10935:10965   */\n      gt\n        /* \"#utility.yul\":10932:11049   */\n      iszero\n      tag_536\n      jumpi\n        /* \"#utility.yul\":10968:11047   */\n      tag_537\n      tag_370\n      jump\t// in\n    tag_537:\n        /* \"#utility.yul\":10932:11049   */\n    tag_536:\n        /* \"#utility.yul\":11073:11136   */\n      tag_538\n        /* \"#utility.yul\":11128:11135   */\n      dup7\n        /* \"#utility.yul\":11119:11125   */\n      dup3\n        /* \"#utility.yul\":11108:11117   */\n      dup8\n        /* \"#utility.yul\":11104:11126   */\n      add\n        /* \"#utility.yul\":11073:11136   */\n      tag_389\n      jump\t// in\n    tag_538:\n        /* \"#utility.yul\":11063:11136   */\n      swap4\n      pop\n        /* \"#utility.yul\":10859:11146   */\n      pop\n        /* \"#utility.yul\":11185:11187   */\n      0x20\n        /* \"#utility.yul\":11211:11264   */\n      tag_539\n        /* \"#utility.yul\":11256:11263   */\n      dup7\n        /* \"#utility.yul\":11247:11253   */\n      dup3\n        /* \"#utility.yul\":11236:11245   */\n      dup8\n        /* \"#utility.yul\":11232:11254   */\n      add\n        /* \"#utility.yul\":11211:11264   */\n      tag_380\n      jump\t// in\n    tag_539:\n        /* \"#utility.yul\":11201:11264   */\n      swap3\n      pop\n        /* \"#utility.yul\":11156:11274   */\n      pop\n        /* \"#utility.yul\":11313:11315   */\n      0x40\n        /* \"#utility.yul\":11339:11392   */\n      tag_540\n        /* \"#utility.yul\":11384:11391   */\n      dup7\n        /* \"#utility.yul\":11375:11381   */\n      dup3\n        /* \"#utility.yul\":11364:11373   */\n      dup8\n        /* \"#utility.yul\":11360:11382   */\n      add\n        /* \"#utility.yul\":11339:11392   */\n      tag_380\n      jump\t// in\n    tag_540:\n        /* \"#utility.yul\":11329:11392   */\n      swap2\n      pop\n        /* \"#utility.yul\":11284:11402   */\n      pop\n        /* \"#utility.yul\":10610:11409   */\n      swap3\n      pop\n      swap3\n      pop\n      swap3\n      jump\t// out\n        /* \"#utility.yul\":11415:12069   */\n    tag_73:\n        /* \"#utility.yul\":11493:11499   */\n      0x00\n        /* \"#utility.yul\":11501:11507   */\n      dup1\n        /* \"#utility.yul\":11550:11552   */\n      0x40\n        /* \"#utility.yul\":11538:11547   */\n      dup4\n        /* \"#utility.yul\":11529:11536   */\n      dup6\n        /* \"#utility.yul\":11525:11548   */\n      sub\n        /* \"#utility.yul\":11521:11553   */\n      slt\n        /* \"#utility.yul\":11518:11637   */\n      iszero\n      tag_542\n      jumpi\n        /* \"#utility.yul\":11556:11635   */\n      tag_543\n      tag_369\n      jump\t// in\n    tag_543:\n        /* \"#utility.yul\":11518:11637   */\n    tag_542:\n        /* \"#utility.yul\":11676:11677   */\n      0x00\n        /* \"#utility.yul\":11701:11754   */\n      tag_544\n        /* \"#utility.yul\":11746:11753   */\n      dup6\n        /* \"#utility.yul\":11737:11743   */\n      dup3\n        /* \"#utility.yul\":11726:11735   */\n      dup7\n        /* \"#utility.yul\":11722:11744   */\n      add\n        /* \"#utility.yul\":11701:11754   */\n      tag_380\n      jump\t// in\n    tag_544:\n        /* \"#utility.yul\":11691:11754   */\n      swap3\n      pop\n        /* \"#utility.yul\":11647:11764   */\n      pop\n        /* \"#utility.yul\":11831:11833   */\n      0x20\n        /* \"#utility.yul\":11820:11829   */\n      dup4\n        /* \"#utility.yul\":11816:11834   */\n      add\n        /* \"#utility.yul\":11803:11835   */\n      calldataload\n        /* \"#utility.yul\":11862:11880   */\n      0xffffffffffffffff\n        /* \"#utility.yul\":11854:11860   */\n      dup2\n        /* \"#utility.yul\":11851:11881   */\n      gt\n        /* \"#utility.yul\":11848:11965   */\n      iszero\n      tag_545\n      jumpi\n        /* \"#utility.yul\":11884:11963   */\n      tag_546\n      tag_370\n      jump\t// in\n    tag_546:\n        /* \"#utility.yul\":11848:11965   */\n    tag_545:\n        /* \"#utility.yul\":11989:12052   */\n      tag_547\n        /* \"#utility.yul\":12044:12051   */\n      dup6\n        /* \"#utility.yul\":12035:12041   */\n      dup3\n        /* \"#utility.yul\":12024:12033   */\n      dup7\n        /* \"#utility.yul\":12020:12042   */\n      add\n        /* \"#utility.yul\":11989:12052   */\n      tag_389\n      jump\t// in\n    tag_547:\n        /* \"#utility.yul\":11979:12052   */\n      swap2\n      pop\n        /* \"#utility.yul\":11774:12062   */\n      pop\n        /* \"#utility.yul\":11415:12069   */\n      swap3\n      pop\n      swap3\n      swap1\n      pop\n      jump\t// out\n        /* \"#utility.yul\":12151:12678   */\n    tag_403:\n        /* \"#utility.yul\":12298:12302   */\n      0x40\n        /* \"#utility.yul\":12293:12296   */\n      dup3\n        /* \"#utility.yul\":12289:12303   */\n      add\n        /* \"#utility.yul\":12394:12398   */\n      0x00\n        /* \"#utility.yul\":12387:12392   */\n      dup3\n        /* \"#utility.yul\":12383:12399   */\n      add\n        /* \"#utility.yul\":12377:12400   */\n      mload\n        /* \"#utility.yul\":12413:12476   */\n      tag_549\n        /* \"#utility.yul\":12470:12474   */\n      0x00\n        /* \"#utility.yul\":12465:12468   */\n      dup6\n        /* \"#utility.yul\":12461:12475   */\n      add\n        /* \"#utility.yul\":12447:12459   */\n      dup3\n        /* \"#utility.yul\":12413:12476   */\n      tag_399\n      jump\t// in\n    tag_549:\n        /* \"#utility.yul\":12313:12486   */\n      pop\n        /* \"#utility.yul\":12579:12583   */\n      0x20\n        /* \"#utility.yul\":12572:12577   */\n      dup3\n        /* \"#utility.yul\":12568:12584   */\n      add\n        /* \"#utility.yul\":12562:12585   */\n      mload\n        /* \"#utility.yul\":12598:12661   */\n      tag_550\n        /* \"#utility.yul\":12655:12659   */\n      0x20\n        /* \"#utility.yul\":12650:12653   */\n      dup6\n        /* \"#utility.yul\":12646:12660   */\n      add\n        /* \"#utility.yul\":12632:12644   */\n      dup3\n        /* \"#utility.yul\":12598:12661   */\n      tag_399\n      jump\t// in\n    tag_550:\n        /* \"#utility.yul\":12496:12671   */\n      pop\n        /* \"#utility.yul\":12267:12678   */\n      pop\n        /* \"#utility.yul\":12151:12678   */\n      pop\n      pop\n      jump\t// out\n        /* \"#utility.yul\":12684:13006   */\n    tag_79:\n        /* \"#utility.yul\":12827:12831   */\n      0x00\n        /* \"#utility.yul\":12865:12867   */\n      0x40\n        /* \"#utility.yul\":12854:12863   */\n      dup3\n        /* \"#utility.yul\":12850:12868   */\n      add\n        /* \"#utility.yul\":12842:12868   */\n      swap1\n      pop\n        /* \"#utility.yul\":12878:12999   */\n      tag_552\n        /* \"#utility.yul\":12996:12997   */\n      0x00\n        /* \"#utility.yul\":12985:12994   */\n      dup4\n        /* \"#utility.yul\":12981:12998   */\n      add\n        /* \"#utility.yul\":12972:12978   */\n      dup5\n        /* \"#utility.yul\":12878:12999   */\n      tag_403\n      jump\t// in\n    tag_552:\n        /* \"#utility.yul\":12684:13006   */\n      swap3\n      swap2\n      pop\n      pop\n      jump\t// out\n        /* \"#utility.yul\":13012:13846   */\n    tag_82:\n        /* \"#utility.yul\":13100:13106   */\n      0x00\n        /* \"#utility.yul\":13108:13114   */\n      dup1\n        /* \"#utility.yul\":13157:13159   */\n      0x40\n        /* \"#utility.yul\":13145:13154   */\n      dup4\n        /* \"#utility.yul\":13136:13143   */\n      dup6\n        /* \"#utility.yul\":13132:13155   */\n      sub\n        /* \"#utility.yul\":13128:13160   */\n      slt\n        /* \"#utility.yul\":13125:13244   */\n      iszero\n      tag_554\n      jumpi\n        /* \"#utility.yul\":13163:13242   */\n      tag_555\n      tag_369\n      jump\t// in\n    tag_555:\n        /* \"#utility.yul\":13125:13244   */\n    tag_554:\n        /* \"#utility.yul\":13311:13312   */\n      0x00\n        /* \"#utility.yul\":13300:13309   */\n      dup4\n        /* \"#utility.yul\":13296:13313   */\n      add\n        /* \"#utility.yul\":13283:13314   */\n      calldataload\n        /* \"#utility.yul\":13341:13359   */\n      0xffffffffffffffff\n        /* \"#utility.yul\":13333:13339   */\n      dup2\n        /* \"#utility.yul\":13330:13360   */\n      gt\n        /* \"#utility.yul\":13327:13444   */\n      iszero\n      tag_556\n      jumpi\n        /* \"#utility.yul\":13363:13442   */\n      tag_557\n      tag_370\n      jump\t// in\n    tag_557:\n        /* \"#utility.yul\":13327:13444   */\n    tag_556:\n        /* \"#utility.yul\":13468:13531   */\n      tag_558\n        /* \"#utility.yul\":13523:13530   */\n      dup6\n        /* \"#utility.yul\":13514:13520   */\n      dup3\n        /* \"#utility.yul\":13503:13512   */\n      dup7\n        /* \"#utility.yul\":13499:13521   */\n      add\n        /* \"#utility.yul\":13468:13531   */\n      tag_389\n      jump\t// in\n    tag_558:\n        /* \"#utility.yul\":13458:13531   */\n      swap3\n      pop\n        /* \"#utility.yul\":13254:13541   */\n      pop\n        /* \"#utility.yul\":13608:13610   */\n      0x20\n        /* \"#utility.yul\":13597:13606   */\n      dup4\n        /* \"#utility.yul\":13593:13611   */\n      add\n        /* \"#utility.yul\":13580:13612   */\n      calldataload\n        /* \"#utility.yul\":13639:13657   */\n      0xffffffffffffffff\n        /* \"#utility.yul\":13631:13637   */\n      dup2\n        /* \"#utility.yul\":13628:13658   */\n      gt\n        /* \"#utility.yul\":13625:13742   */\n      iszero\n      tag_559\n      jumpi\n        /* \"#utility.yul\":13661:13740   */\n      tag_560\n      tag_370\n      jump\t// in\n    tag_560:\n        /* \"#utility.yul\":13625:13742   */\n    tag_559:\n        /* \"#utility.yul\":13766:13829   */\n      tag_561\n        /* \"#utility.yul\":13821:13828   */\n      dup6\n        /* \"#utility.yul\":13812:13818   */\n      dup3\n        /* \"#utility.yul\":13801:13810   */\n      dup7\n        /* \"#utility.yul\":13797:13819   */\n      add\n        /* \"#utility.yul\":13766:13829   */\n      tag_389\n      jump\t// in\n    tag_561:\n        /* \"#utility.yul\":13756:13829   */\n      swap2\n      pop\n        /* \"#utility.yul\":13551:13839   */\n      pop\n        /* \"#utility.yul\":13012:13846   */\n      swap3\n      pop\n      swap3\n      swap1\n      pop\n      jump\t// out\n        /* \"#utility.yul\":13852:13970   */\n    tag_404:\n        /* \"#utility.yul\":13939:13963   */\n      tag_563\n        /* \"#utility.yul\":13957:13962   */\n      dup2\n        /* \"#utility.yul\":13939:13963   */\n      tag_378\n      jump\t// in\n    tag_563:\n        /* \"#utility.yul\":13934:13937   */\n      dup3\n        /* \"#utility.yul\":13927:13964   */\n      mstore\n        /* \"#utility.yul\":13852:13970   */\n      pop\n      pop\n      jump\t// out\n        /* \"#utility.yul\":13976:14198   */\n    tag_96:\n        /* \"#utility.yul\":14069:14073   */\n      0x00\n        /* \"#utility.yul\":14107:14109   */\n      0x20\n        /* \"#utility.yul\":14096:14105   */\n      dup3\n        /* \"#utility.yul\":14092:14110   */\n      add\n        /* \"#utility.yul\":14084:14110   */\n      swap1\n      pop\n        /* \"#utility.yul\":14120:14191   */\n      tag_565\n        /* \"#utility.yul\":14188:14189   */\n      0x00\n        /* \"#utility.yul\":14177:14186   */\n      dup4\n        /* \"#utility.yul\":14173:14190   */\n      add\n        /* \"#utility.yul\":14164:14170   */\n      dup5\n        /* \"#utility.yul\":14120:14191   */\n      tag_404\n      jump\t// in\n    tag_565:\n        /* \"#utility.yul\":13976:14198   */\n      swap3\n      swap2\n      pop\n      pop\n      jump\t// out\n        /* \"#utility.yul\":14204:14320   */\n    tag_405:\n        /* \"#utility.yul\":14274:14295   */\n      tag_567\n        /* \"#utility.yul\":14289:14294   */\n      dup2\n        /* \"#utility.yul\":14274:14295   */\n      tag_390\n      jump\t// in\n    tag_567:\n        /* \"#utility.yul\":14267:14272   */\n      dup2\n        /* \"#utility.yul\":14264:14296   */\n      eq\n        /* \"#utility.yul\":14254:14314   */\n      tag_568\n      jumpi\n        /* \"#utility.yul\":14310:14311   */\n      0x00\n        /* \"#utility.yul\":14307:14308   */\n      dup1\n        /* \"#utility.yul\":14300:14312   */\n      revert\n        /* \"#utility.yul\":14254:14314   */\n    tag_568:\n        /* \"#utility.yul\":14204:14320   */\n      pop\n      jump\t// out\n        /* \"#utility.yul\":14326:14459   */\n    tag_406:\n        /* \"#utility.yul\":14369:14374   */\n      0x00\n        /* \"#utility.yul\":14407:14413   */\n      dup2\n        /* \"#utility.yul\":14394:14414   */\n      calldataload\n        /* \"#utility.yul\":14385:14414   */\n      swap1\n      pop\n        /* \"#utility.yul\":14423:14453   */\n      tag_570\n        /* \"#utility.yul\":14447:14452   */\n      dup2\n        /* \"#utility.yul\":14423:14453   */\n      tag_405\n      jump\t// in\n    tag_570:\n        /* \"#utility.yul\":14326:14459   */\n      swap3\n      swap2\n      pop\n      pop\n      jump\t// out\n        /* \"#utility.yul\":14465:15078   */\n    tag_99:\n        /* \"#utility.yul\":14539:14545   */\n      0x00\n        /* \"#utility.yul\":14547:14553   */\n      dup1\n        /* \"#utility.yul\":14555:14561   */\n      0x00\n        /* \"#utility.yul\":14604:14606   */\n      0x60\n        /* \"#utility.yul\":14592:14601   */\n      dup5\n        /* \"#utility.yul\":14583:14590   */\n      dup7\n        /* \"#utility.yul\":14579:14602   */\n      sub\n        /* \"#utility.yul\":14575:14607   */\n      slt\n        /* \"#utility.yul\":14572:14691   */\n      iszero\n      tag_572\n      jumpi\n        /* \"#utility.yul\":14610:14689   */\n      tag_573\n      tag_369\n      jump\t// in\n    tag_573:\n        /* \"#utility.yul\":14572:14691   */\n    tag_572:\n        /* \"#utility.yul\":14730:14731   */\n      0x00\n        /* \"#utility.yul\":14755:14808   */\n      tag_574\n        /* \"#utility.yul\":14800:14807   */\n      dup7\n        /* \"#utility.yul\":14791:14797   */\n      dup3\n        /* \"#utility.yul\":14780:14789   */\n      dup8\n        /* \"#utility.yul\":14776:14798   */\n      add\n        /* \"#utility.yul\":14755:14808   */\n      tag_380\n      jump\t// in\n    tag_574:\n        /* \"#utility.yul\":14745:14808   */\n      swap4\n      pop\n        /* \"#utility.yul\":14701:14818   */\n      pop\n        /* \"#utility.yul\":14857:14859   */\n      0x20\n        /* \"#utility.yul\":14883:14936   */\n      tag_575\n        /* \"#utility.yul\":14928:14935   */\n      dup7\n        /* \"#utility.yul\":14919:14925   */\n      dup3\n        /* \"#utility.yul\":14908:14917   */\n      dup8\n        /* \"#utility.yul\":14904:14926   */\n      add\n        /* \"#utility.yul\":14883:14936   */\n      tag_380\n      jump\t// in\n    tag_575:\n        /* \"#utility.yul\":14873:14936   */\n      swap3\n      pop\n        /* \"#utility.yul\":14828:14946   */\n      pop\n        /* \"#utility.yul\":14985:14987   */\n      0x40\n        /* \"#utility.yul\":15011:15061   */\n      tag_576\n        /* \"#utility.yul\":15053:15060   */\n      dup7\n        /* \"#utility.yul\":15044:15050   */\n      dup3\n        /* \"#utility.yul\":15033:15042   */\n      dup8\n        /* \"#utility.yul\":15029:15051   */\n      add\n        /* \"#utility.yul\":15011:15061   */\n      tag_406\n      jump\t// in\n    tag_576:\n        /* \"#utility.yul\":15001:15061   */\n      swap2\n      pop\n        /* \"#utility.yul\":14956:15071   */\n      pop\n        /* \"#utility.yul\":14465:15078   */\n      swap3\n      pop\n      swap3\n      pop\n      swap3\n      jump\t// out\n        /* \"#utility.yul\":15084:15883   */\n    tag_110:\n        /* \"#utility.yul\":15171:15177   */\n      0x00\n        /* \"#utility.yul\":15179:15185   */\n      dup1\n        /* \"#utility.yul\":15187:15193   */\n      0x00\n        /* \"#utility.yul\":15236:15238   */\n      0x60\n        /* \"#utility.yul\":15224:15233   */\n      dup5\n        /* \"#utility.yul\":15215:15222   */\n      dup7\n        /* \"#utility.yul\":15211:15234   */\n      sub\n        /* \"#utility.yul\":15207:15239   */\n      slt\n        /* \"#utility.yul\":15204:15323   */\n      iszero\n      tag_578\n      jumpi\n        /* \"#utility.yul\":15242:15321   */\n      tag_579\n      tag_369\n      jump\t// in\n    tag_579:\n        /* \"#utility.yul\":15204:15323   */\n    tag_578:\n        /* \"#utility.yul\":15362:15363   */\n      0x00\n        /* \"#utility.yul\":15387:15440   */\n      tag_580\n        /* \"#utility.yul\":15432:15439   */\n      dup7\n        /* \"#utility.yul\":15423:15429   */\n      dup3\n        /* \"#utility.yul\":15412:15421   */\n      dup8\n        /* \"#utility.yul\":15408:15430   */\n      add\n        /* \"#utility.yul\":15387:15440   */\n      tag_380\n      jump\t// in\n    tag_580:\n        /* \"#utility.yul\":15377:15440   */\n      swap4\n      pop\n        /* \"#utility.yul\":15333:15450   */\n      pop\n        /* \"#utility.yul\":15489:15491   */\n      0x20\n        /* \"#utility.yul\":15515:15568   */\n      tag_581\n        /* \"#utility.yul\":15560:15567   */\n      dup7\n        /* \"#utility.yul\":15551:15557   */\n      dup3\n        /* \"#utility.yul\":15540:15549   */\n      dup8\n        /* \"#utility.yul\":15536:15558   */\n      add\n        /* \"#utility.yul\":15515:15568   */\n      tag_380\n      jump\t// in\n    tag_581:\n        /* \"#utility.yul\":15505:15568   */\n      swap3\n      pop\n        /* \"#utility.yul\":15460:15578   */\n      pop\n        /* \"#utility.yul\":15645:15647   */\n      0x40\n        /* \"#utility.yul\":15634:15643   */\n      dup5\n        /* \"#utility.yul\":15630:15648   */\n      add\n        /* \"#utility.yul\":15617:15649   */\n      calldataload\n        /* \"#utility.yul\":15676:15694   */\n      0xffffffffffffffff\n        /* \"#utility.yul\":15668:15674   */\n      dup2\n        /* \"#utility.yul\":15665:15695   */\n      gt\n        /* \"#utility.yul\":15662:15779   */\n      iszero\n      tag_582\n      jumpi\n        /* \"#utility.yul\":15698:15777   */\n      tag_583\n      tag_370\n      jump\t// in\n    tag_583:\n        /* \"#utility.yul\":15662:15779   */\n    tag_582:\n        /* \"#utility.yul\":15803:15866   */\n      tag_584\n        /* \"#utility.yul\":15858:15865   */\n      dup7\n        /* \"#utility.yul\":15849:15855   */\n      dup3\n        /* \"#utility.yul\":15838:15847   */\n      dup8\n        /* \"#utility.yul\":15834:15856   */\n      add\n        /* \"#utility.yul\":15803:15866   */\n      tag_389\n      jump\t// in\n    tag_584:\n        /* \"#utility.yul\":15793:15866   */\n      swap2\n      pop\n        /* \"#utility.yul\":15588:15876   */\n      pop\n        /* \"#utility.yul\":15084:15883   */\n      swap3\n      pop\n      swap3\n      pop\n      swap3\n      jump\t// out\n        /* \"#utility.yul\":15889:16011   */\n    tag_407:\n        /* \"#utility.yul\":15962:15986   */\n      tag_586\n        /* \"#utility.yul\":15980:15985   */\n      dup2\n        /* \"#utility.yul\":15962:15986   */\n      tag_383\n      jump\t// in\n    tag_586:\n        /* \"#utility.yul\":15955:15960   */\n      dup2\n        /* \"#utility.yul\":15952:15987   */\n      eq\n        /* \"#utility.yul\":15942:16005   */\n      tag_587\n      jumpi\n        /* \"#utility.yul\":16001:16002   */\n      0x00\n        /* \"#utility.yul\":15998:15999   */\n      dup1\n        /* \"#utility.yul\":15991:16003   */\n      revert\n        /* \"#utility.yul\":15942:16005   */\n    tag_587:\n        /* \"#utility.yul\":15889:16011   */\n      pop\n      jump\t// out\n        /* \"#utility.yul\":16017:16156   */\n    tag_408:\n        /* \"#utility.yul\":16063:16068   */\n      0x00\n        /* \"#utility.yul\":16101:16107   */\n      dup2\n        /* \"#utility.yul\":16088:16108   */\n      calldataload\n        /* \"#utility.yul\":16079:16108   */\n      swap1\n      pop\n        /* \"#utility.yul\":16117:16150   */\n      tag_589\n        /* \"#utility.yul\":16144:16149   */\n      dup2\n        /* \"#utility.yul\":16117:16150   */\n      tag_407\n      jump\t// in\n    tag_589:\n        /* \"#utility.yul\":16017:16156   */\n      swap3\n      swap2\n      pop\n      pop\n      jump\t// out\n        /* \"#utility.yul\":16162:16491   */\n    tag_118:\n        /* \"#utility.yul\":16221:16227   */\n      0x00\n        /* \"#utility.yul\":16270:16272   */\n      0x20\n        /* \"#utility.yul\":16258:16267   */\n      dup3\n        /* \"#utility.yul\":16249:16256   */\n      dup5\n        /* \"#utility.yul\":16245:16268   */\n      sub\n        /* \"#utility.yul\":16241:16273   */\n      slt\n        /* \"#utility.yul\":16238:16357   */\n      iszero\n      tag_591\n      jumpi\n        /* \"#utility.yul\":16276:16355   */\n      tag_592\n      tag_369\n      jump\t// in\n    tag_592:\n        /* \"#utility.yul\":16238:16357   */\n    tag_591:\n        /* \"#utility.yul\":16396:16397   */\n      0x00\n        /* \"#utility.yul\":16421:16474   */\n      tag_593\n        /* \"#utility.yul\":16466:16473   */\n      dup5\n        /* \"#utility.yul\":16457:16463   */\n      dup3\n        /* \"#utility.yul\":16446:16455   */\n      dup6\n        /* \"#utility.yul\":16442:16464   */\n      add\n        /* \"#utility.yul\":16421:16474   */\n      tag_408\n      jump\t// in\n    tag_593:\n        /* \"#utility.yul\":16411:16474   */\n      swap2\n      pop\n        /* \"#utility.yul\":16367:16484   */\n      pop\n        /* \"#utility.yul\":16162:16491   */\n      swap3\n      swap2\n      pop\n      pop\n      jump\t// out\n        /* \"#utility.yul\":16497:17476   */\n    tag_122:\n        /* \"#utility.yul\":16594:16600   */\n      0x00\n        /* \"#utility.yul\":16602:16608   */\n      dup1\n        /* \"#utility.yul\":16610:16616   */\n      0x00\n        /* \"#utility.yul\":16659:16661   */\n      0x60\n        /* \"#utility.yul\":16647:16656   */\n      dup5\n        /* \"#utility.yul\":16638:16645   */\n      dup7\n        /* \"#utility.yul\":16634:16657   */\n      sub\n        /* \"#utility.yul\":16630:16662   */\n      slt\n        /* \"#utility.yul\":16627:16746   */\n      iszero\n      tag_595\n      jumpi\n        /* \"#utility.yul\":16665:16744   */\n      tag_596\n      tag_369\n      jump\t// in\n    tag_596:\n        /* \"#utility.yul\":16627:16746   */\n    tag_595:\n        /* \"#utility.yul\":16813:16814   */\n      0x00\n        /* \"#utility.yul\":16802:16811   */\n      dup5\n        /* \"#utility.yul\":16798:16815   */\n      add\n        /* \"#utility.yul\":16785:16816   */\n      calldataload\n        /* \"#utility.yul\":16843:16861   */\n      0xffffffffffffffff\n        /* \"#utility.yul\":16835:16841   */\n      dup2\n        /* \"#utility.yul\":16832:16862   */\n      gt\n        /* \"#utility.yul\":16829:16946   */\n      iszero\n      tag_597\n      jumpi\n        /* \"#utility.yul\":16865:16944   */\n      tag_598\n      tag_370\n      jump\t// in\n    tag_598:\n        /* \"#utility.yul\":16829:16946   */\n    tag_597:\n        /* \"#utility.yul\":16970:17033   */\n      tag_599\n        /* \"#utility.yul\":17025:17032   */\n      dup7\n        /* \"#utility.yul\":17016:17022   */\n      dup3\n        /* \"#utility.yul\":17005:17014   */\n      dup8\n        /* \"#utility.yul\":17001:17023   */\n      add\n        /* \"#utility.yul\":16970:17033   */\n      tag_389\n      jump\t// in\n    tag_599:\n        /* \"#utility.yul\":16960:17033   */\n      swap4\n      pop\n        /* \"#utility.yul\":16756:17043   */\n      pop\n        /* \"#utility.yul\":17082:17084   */\n      0x20\n        /* \"#utility.yul\":17108:17161   */\n      tag_600\n        /* \"#utility.yul\":17153:17160   */\n      dup7\n        /* \"#utility.yul\":17144:17150   */\n      dup3\n        /* \"#utility.yul\":17133:17142   */\n      dup8\n        /* \"#utility.yul\":17129:17151   */\n      add\n        /* \"#utility.yul\":17108:17161   */\n      tag_380\n      jump\t// in\n    tag_600:\n        /* \"#utility.yul\":17098:17161   */\n      swap3\n      pop\n        /* \"#utility.yul\":17053:17171   */\n      pop\n        /* \"#utility.yul\":17238:17240   */\n      0x40\n        /* \"#utility.yul\":17227:17236   */\n      dup5\n        /* \"#utility.yul\":17223:17241   */\n      add\n        /* \"#utility.yul\":17210:17242   */\n      calldataload\n        /* \"#utility.yul\":17269:17287   */\n      0xffffffffffffffff\n        /* \"#utility.yul\":17261:17267   */\n      dup2\n        /* \"#utility.yul\":17258:17288   */\n      gt\n        /* \"#utility.yul\":17255:17372   */\n      iszero\n      tag_601\n      jumpi\n        /* \"#utility.yul\":17291:17370   */\n      tag_602\n      tag_370\n      jump\t// in\n    tag_602:\n        /* \"#utility.yul\":17255:17372   */\n    tag_601:\n        /* \"#utility.yul\":17396:17459   */\n      tag_603\n        /* \"#utility.yul\":17451:17458   */\n      dup7\n        /* \"#utility.yul\":17442:17448   */\n      dup3\n        /* \"#utility.yul\":17431:17440   */\n      dup8\n        /* \"#utility.yul\":17427:17449   */\n      add\n        /* \"#utility.yul\":17396:17459   */\n      tag_389\n      jump\t// in\n    tag_603:\n        /* \"#utility.yul\":17386:17459   */\n      swap2\n      pop\n        /* \"#utility.yul\":17181:17469   */\n      pop\n        /* \"#utility.yul\":16497:17476   */\n      swap3\n      pop\n      swap3\n      pop\n      swap3\n      jump\t// out\n        /* \"#utility.yul\":17482:17662   */\n    tag_130:\n        /* \"#utility.yul\":17530:17607   */\n      0x4e487b7100000000000000000000000000000000000000000000000000000000\n        /* \"#utility.yul\":17527:17528   */\n      0x00\n        /* \"#utility.yul\":17520:17608   */\n      mstore\n        /* \"#utility.yul\":17627:17631   */\n      0x32\n        /* \"#utility.yul\":17624:17625   */\n      0x04\n        /* \"#utility.yul\":17617:17632   */\n      mstore\n        /* \"#utility.yul\":17651:17655   */\n      0x24\n        /* \"#utility.yul\":17648:17649   */\n      0x00\n        /* \"#utility.yul\":17641:17656   */\n      revert\n        /* \"#utility.yul\":17668:17848   */\n    tag_409:\n        /* \"#utility.yul\":17716:17793   */\n      0x4e487b7100000000000000000000000000000000000000000000000000000000\n        /* \"#utility.yul\":17713:17714   */\n      0x00\n        /* \"#utility.yul\":17706:17794   */\n      mstore\n        /* \"#utility.yul\":17813:17817   */\n      0x22\n        /* \"#utility.yul\":17810:17811   */\n      0x04\n        /* \"#utility.yul\":17803:17818   */\n      mstore\n        /* \"#utility.yul\":17837:17841   */\n      0x24\n        /* \"#utility.yul\":17834:17835   */\n      0x00\n        /* \"#utility.yul\":17827:17842   */\n      revert\n        /* \"#utility.yul\":17854:18174   */\n    tag_138:\n        /* \"#utility.yul\":17898:17904   */\n      0x00\n        /* \"#utility.yul\":17935:17936   */\n      0x02\n        /* \"#utility.yul\":17929:17933   */\n      dup3\n        /* \"#utility.yul\":17925:17937   */\n      div\n        /* \"#utility.yul\":17915:17937   */\n      swap1\n      pop\n        /* \"#utility.yul\":17982:17983   */\n      0x01\n        /* \"#utility.yul\":17976:17980   */\n      dup3\n        /* \"#utility.yul\":17972:17984   */\n      and\n        /* \"#utility.yul\":18003:18021   */\n      dup1\n        /* \"#utility.yul\":17993:18074   */\n      tag_607\n      jumpi\n        /* \"#utility.yul\":18059:18063   */\n      0x7f\n        /* \"#utility.yul\":18051:18057   */\n      dup3\n        /* \"#utility.yul\":18047:18064   */\n      and\n        /* \"#utility.yul\":18037:18064   */\n      swap2\n      pop\n        /* \"#utility.yul\":17993:18074   */\n    tag_607:\n        /* \"#utility.yul\":18121:18123   */\n      0x20\n        /* \"#utility.yul\":18113:18119   */\n      dup3\n        /* \"#utility.yul\":18110:18124   */\n      lt\n        /* \"#utility.yul\":18090:18108   */\n      dup2\n        /* \"#utility.yul\":18087:18125   */\n      sub\n        /* \"#utility.yul\":18084:18168   */\n      tag_608\n      jumpi\n        /* \"#utility.yul\":18140:18158   */\n      tag_609\n      tag_409\n      jump\t// in\n    tag_609:\n        /* \"#utility.yul\":18084:18168   */\n    tag_608:\n        /* \"#utility.yul\":17905:18174   */\n      pop\n        /* \"#utility.yul\":17854:18174   */\n      swap2\n      swap1\n      pop\n      jump\t// out\n        /* \"#utility.yul\":18180:18360   */\n    tag_410:\n        /* \"#utility.yul\":18228:18305   */\n      0x4e487b7100000000000000000000000000000000000000000000000000000000\n        /* \"#utility.yul\":18225:18226   */\n      0x00\n        /* \"#utility.yul\":18218:18306   */\n      mstore\n        /* \"#utility.yul\":18325:18329   */\n      0x11\n        /* \"#utility.yul\":18322:18323   */\n      0x04\n        /* \"#utility.yul\":18315:18330   */\n      mstore\n        /* \"#utility.yul\":18349:18353   */\n      0x24\n        /* \"#utility.yul\":18346:18347   */\n      0x00\n        /* \"#utility.yul\":18339:18354   */\n      revert\n        /* \"#utility.yul\":18366:18557   */\n    tag_145:\n        /* \"#utility.yul\":18406:18409   */\n      0x00\n        /* \"#utility.yul\":18425:18445   */\n      tag_612\n        /* \"#utility.yul\":18443:18444   */\n      dup3\n        /* \"#utility.yul\":18425:18445   */\n      tag_383\n      jump\t// in\n    tag_612:\n        /* \"#utility.yul\":18420:18445   */\n      swap2\n      pop\n        /* \"#utility.yul\":18459:18479   */\n      tag_613\n        /* \"#utility.yul\":18477:18478   */\n      dup4\n        /* \"#utility.yul\":18459:18479   */\n      tag_383\n      jump\t// in\n    tag_613:\n        /* \"#utility.yul\":18454:18479   */\n      swap3\n      pop\n        /* \"#utility.yul\":18502:18503   */\n      dup3\n        /* \"#utility.yul\":18499:18500   */\n      dup3\n        /* \"#utility.yul\":18495:18504   */\n      add\n        /* \"#utility.yul\":18488:18504   */\n      swap1\n      pop\n        /* \"#utility.yul\":18523:18526   */\n      dup1\n        /* \"#utility.yul\":18520:18521   */\n      dup3\n        /* \"#utility.yul\":18517:18527   */\n      gt\n        /* \"#utility.yul\":18514:18550   */\n      iszero\n      tag_614\n      jumpi\n        /* \"#utility.yul\":18530:18548   */\n      tag_615\n      tag_410\n      jump\t// in\n    tag_615:\n        /* \"#utility.yul\":18514:18550   */\n    tag_614:\n        /* \"#utility.yul\":18366:18557   */\n      swap3\n      swap2\n      pop\n      pop\n      jump\t// out\n        /* \"#utility.yul\":18563:18796   */\n    tag_147:\n        /* \"#utility.yul\":18602:18605   */\n      0x00\n        /* \"#utility.yul\":18625:18649   */\n      tag_617\n        /* \"#utility.yul\":18643:18648   */\n      dup3\n        /* \"#utility.yul\":18625:18649   */\n      tag_383\n      jump\t// in\n    tag_617:\n        /* \"#utility.yul\":18616:18649   */\n      swap2\n      pop\n        /* \"#utility.yul\":18671:18737   */\n      0xffffffffffffffffffffffffffffffffffffffffffffffffffffffffffffffff\n        /* \"#utility.yul\":18664:18669   */\n      dup3\n        /* \"#utility.yul\":18661:18738   */\n      sub\n        /* \"#utility.yul\":18658:18761   */\n      tag_618\n      jumpi\n        /* \"#utility.yul\":18741:18759   */\n      tag_619\n      tag_410\n      jump\t// in\n    tag_619:\n        /* \"#utility.yul\":18658:18761   */\n    tag_618:\n        /* \"#utility.yul\":18788:18789   */\n      0x01\n        /* \"#utility.yul\":18781:18786   */\n      dup3\n        /* \"#utility.yul\":18777:18790   */\n      add\n        /* \"#utility.yul\":18770:18790   */\n      swap1\n      pop\n        /* \"#utility.yul\":18563:18796   */\n      swap2\n      swap1\n      pop\n      jump\t// out\n        /* \"#utility.yul\":18802:18950   */\n    tag_411:\n        /* \"#utility.yul\":18904:18915   */\n      0x00\n        /* \"#utility.yul\":18941:18944   */\n      dup2\n        /* \"#utility.yul\":18926:18944   */\n      swap1\n      pop\n        /* \"#utility.yul\":18802:18950   */\n      swap3\n      swap2\n      pop\n      pop\n      jump\t// out\n        /* \"#utility.yul\":18956:19346   */\n    tag_412:\n        /* \"#utility.yul\":19062:19065   */\n      0x00\n        /* \"#utility.yul\":19090:19129   */\n      tag_622\n        /* \"#utility.yul\":19123:19128   */\n      dup3\n        /* \"#utility.yul\":19090:19129   */\n      tag_392\n      jump\t// in\n    tag_622:\n        /* \"#utility.yul\":19145:19234   */\n      tag_623\n        /* \"#utility.yul\":19227:19233   */\n      dup2\n        /* \"#utility.yul\":19222:19225   */\n      dup6\n        /* \"#utility.yul\":19145:19234   */\n      tag_411\n      jump\t// in\n    tag_623:\n        /* \"#utility.yul\":19138:19234   */\n      swap4\n      pop\n        /* \"#utility.yul\":19243:19308   */\n      tag_624\n        /* \"#utility.yul\":19301:19307   */\n      dup2\n        /* \"#utility.yul\":19296:19299   */\n      dup6\n        /* \"#utility.yul\":19289:19293   */\n      0x20\n        /* \"#utility.yul\":19282:19287   */\n      dup7\n        /* \"#utility.yul\":19278:19294   */\n      add\n        /* \"#utility.yul\":19243:19308   */\n      tag_394\n      jump\t// in\n    tag_624:\n        /* \"#utility.yul\":19333:19339   */\n      dup1\n        /* \"#utility.yul\":19328:19331   */\n      dup5\n        /* \"#utility.yul\":19324:19340   */\n      add\n        /* \"#utility.yul\":19317:19340   */\n      swap2\n      pop\n        /* \"#utility.yul\":19066:19346   */\n      pop\n        /* \"#utility.yul\":18956:19346   */\n      swap3\n      swap2\n      pop\n      pop\n      jump\t// out\n        /* \"#utility.yul\":19352:19627   */\n    tag_151:\n        /* \"#utility.yul\":19484:19487   */\n      0x00\n        /* \"#utility.yul\":19506:19601   */\n      tag_626\n        /* \"#utility.yul\":19597:19600   */\n      dup3\n        /* \"#utility.yul\":19588:19594   */\n      dup5\n        /* \"#utility.yul\":19506:19601   */\n      tag_412\n      jump\t// in\n    tag_626:\n        /* \"#utility.yul\":19499:19601   */\n      swap2\n      pop\n        /* \"#utility.yul\":19618:19621   */\n      dup2\n        /* \"#utility.yul\":19611:19621   */\n      swap1\n      pop\n        /* \"#utility.yul\":19352:19627   */\n      swap3\n      swap2\n      pop\n      pop\n      jump\t// out\n        /* \"#utility.yul\":19633:19802   */\n    tag_413:\n        /* \"#utility.yul\":19773:19794   */\n      0x4e616d6520616c72656164792065786973747300000000000000000000000000\n        /* \"#utility.yul\":19769:19770   */\n      0x00\n        /* \"#utility.yul\":19761:19767   */\n      dup3\n        /* \"#utility.yul\":19757:19771   */\n      add\n        /* \"#utility.yul\":19750:19795   */\n      mstore\n        /* \"#utility.yul\":19633:19802   */\n      pop\n      jump\t// out\n        /* \"#utility.yul\":19808:20174   */\n    tag_414:\n        /* \"#utility.yul\":19950:19953   */\n      0x00\n        /* \"#utility.yul\":19971:20038   */\n      tag_629\n        /* \"#utility.yul\":20035:20037   */\n      0x13\n        /* \"#utility.yul\":20030:20033   */\n      dup4\n        /* \"#utility.yul\":19971:20038   */\n      tag_393\n      jump\t// in\n    tag_629:\n        /* \"#utility.yul\":19964:20038   */\n      swap2\n      pop\n        /* \"#utility.yul\":20047:20140   */\n      tag_630\n        /* \"#utility.yul\":20136:20139   */\n      dup3\n        /* \"#utility.yul\":20047:20140   */\n      tag_413\n      jump\t// in\n    tag_630:\n        /* \"#utility.yul\":20165:20167   */\n      0x20\n        /* \"#utility.yul\":20160:20163   */\n      dup3\n        /* \"#utility.yul\":20156:20168   */\n      add\n        /* \"#utility.yul\":20149:20168   */\n      swap1\n      pop\n        /* \"#utility.yul\":19808:20174   */\n      swap2\n      swap1\n      pop\n      jump\t// out\n        /* \"#utility.yul\":20180:20599   */\n    tag_218:\n        /* \"#utility.yul\":20346:20350   */\n      0x00\n        /* \"#utility.yul\":20384:20386   */\n      0x20\n        /* \"#utility.yul\":20373:20382   */\n      dup3\n        /* \"#utility.yul\":20369:20387   */\n      add\n        /* \"#utility.yul\":20361:20387   */\n      swap1\n      pop\n        /* \"#utility.yul\":20433:20442   */\n      dup2\n        /* \"#utility.yul\":20427:20431   */\n      dup2\n        /* \"#utility.yul\":20423:20443   */\n      sub\n        /* \"#utility.yul\":20419:20420   */\n      0x00\n        /* \"#utility.yul\":20408:20417   */\n      dup4\n        /* \"#utility.yul\":20404:20421   */\n      add\n        /* \"#utility.yul\":20397:20444   */\n      mstore\n        /* \"#utility.yul\":20461:20592   */\n      tag_632\n        /* \"#utility.yul\":20587:20591   */\n      dup2\n        /* \"#utility.yul\":20461:20592   */\n      tag_414\n      jump\t// in\n    tag_632:\n        /* \"#utility.yul\":20453:20592   */\n      swap1\n      pop\n        /* \"#utility.yul\":20180:20599   */\n      swap2\n      swap1\n      pop\n      jump\t// out\n        /* \"#utility.yul\":20605:20799   */\n    tag_349:\n        /* \"#utility.yul\":20645:20649   */\n      0x00\n        /* \"#utility.yul\":20665:20685   */\n      tag_634\n        /* \"#utility.yul\":20683:20684   */\n      dup3\n        /* \"#utility.yul\":20665:20685   */\n      tag_383\n      jump\t// in\n    tag_634:\n        /* \"#utility.yul\":20660:20685   */\n      swap2\n      pop\n        /* \"#utility.yul\":20699:20719   */\n      tag_635\n        /* \"#utility.yul\":20717:20718   */\n      dup4\n        /* \"#utility.yul\":20699:20719   */\n      tag_383\n      jump\t// in\n    tag_635:\n        /* \"#utility.yul\":20694:20719   */\n      swap3\n      pop\n        /* \"#utility.yul\":20743:20744   */\n      dup3\n        /* \"#utility.yul\":20740:20741   */\n      dup3\n        /* \"#utility.yul\":20736:20745   */\n      sub\n        /* \"#utility.yul\":20728:20745   */\n      swap1\n      pop\n        /* \"#utility.yul\":20767:20768   */\n      dup2\n        /* \"#utility.yul\":20761:20765   */\n      dup2\n        /* \"#utility.yul\":20758:20769   */\n      gt\n        /* \"#utility.yul\":20755:20792   */\n      iszero\n      tag_636\n      jumpi\n        /* \"#utility.yul\":20772:20790   */\n      tag_637\n      tag_410\n      jump\t// in\n    tag_637:\n        /* \"#utility.yul\":20755:20792   */\n    tag_636:\n        /* \"#utility.yul\":20605:20799   */\n      swap3\n      swap2\n      pop\n      pop\n      jump\t// out\n        /* \"#utility.yul\":20805:20985   */\n    tag_358:\n        /* \"#utility.yul\":20853:20930   */\n      0x4e487b7100000000000000000000000000000000000000000000000000000000\n        /* \"#utility.yul\":20850:20851   */\n      0x00\n        /* \"#utility.yul\":20843:20931   */\n      mstore\n        /* \"#utility.yul\":20950:20954   */\n      0x31\n        /* \"#utility.yul\":20947:20948   */\n      0x04\n        /* \"#utility.yul\":20940:20955   */\n      mstore\n        /* \"#utility.yul\":20974:20978   */\n      0x24\n        /* \"#utility.yul\":20971:20972   */\n      0x00\n        /* \"#utility.yul\":20964:20979   */\n      revert\n\n    auxdata: 0xa26469706673582212203ac88e0723fbd794b43ca2b338edd0ed0cd094db0d44547fe91c5cc8af1b4a5264736f6c63430008130033\n}\n",
				"bytecode": {
					"linkReferences": {},
					"object": "608060405234801561001057600080fd5b5061317b806100206000396000f3fe608060405234801561001057600080fd5b50600436106101425760003560e01c80638292cae3116100b8578063c58823441161007c578063c5882344146103e3578063c6244a2714610413578063cc2f22f11461042f578063d71e80e31461044b578063ec6ea3aa1461047b578063fe5686df1461049757610142565b80638292cae31461031b57806399f8b09f1461034b5780639c1115591461037b578063a5311bcf14610397578063bc9d6271146103c757610142565b80636e8548bb1161010a5780636e8548bb1461023757806374cf3e51146102535780637568708f146102835780637915c069146102b35780637cbfc58f146102cf57806382760fca146102eb57610142565b806309da40ae146101475780630d85d8391461017757806314338f9d146101a757806354f5fcba146101d757806367e37f7014610207575b600080fd5b610161600480360381019061015c91906127c1565b6104b3565b60405161016e9190612823565b60405180910390f35b610191600480360381019061018c91906128f3565b6106de565b60405161019e9190612957565b60405180910390f35b6101c160048036038101906101bc9190612972565b610767565b6040516101ce9190612823565b60405180910390f35b6101f160048036038101906101ec9190612972565b6108c0565b6040516101fe9190612823565b60405180910390f35b610221600480360381019061021c91906128f3565b610a19565b60405161022e9190612a1e565b60405180910390f35b610251600480360381019061024c9190612a40565b610a20565b005b61026d60048036038101906102689190612972565b610b26565b60405161027a9190612823565b60405180910390f35b61029d60048036038101906102989190612972565b610c7f565b6040516102aa9190612b3e565b60405180910390f35b6102cd60048036038101906102c89190612b60565b61102f565b005b6102e960048036038101906102e49190612bcf565b6111f0565b005b610305600480360381019061030091906128f3565b61142e565b6040516103129190612c5a565b60405180910390f35b61033560048036038101906103309190612c75565b611518565b6040516103429190612a1e565b60405180910390f35b61036560048036038101906103609190612972565b611520565b6040516103729190612b3e565b60405180910390f35b61039560048036038101906103909190612a40565b611723565b005b6103b160048036038101906103ac9190612972565b6119b2565b6040516103be9190612cfc565b60405180910390f35b6103e160048036038101906103dc9190612d43565b611a1a565b005b6103fd60048036038101906103f891906127c1565b611d22565b60405161040a9190612b3e565b60405180910390f35b61042d60048036038101906104289190612a40565b611ff3565b005b61044960048036038101906104449190612d96565b611ff7565b005b61046560048036038101906104609190612972565b611ffc565b6040516104729190612b3e565b60405180910390f35b61049560048036038101906104909190612e31565b6123ac565b005b6104b160048036038101906104ac9190612e5e565b61254e565b005b6000806000905060005b83518110156106d45760008482815181106104db576104da612ee9565b5b6020026020010151905060005b6003805490508110156106bf5760006003828154811061050b5761050a612ee9565b5b90600052602060002090600302016040518060600160405290816000820160009054906101000a900473ffffffffffffffffffffffffffffffffffffffff1673ffffffffffffffffffffffffffffffffffffffff1673ffffffffffffffffffffffffffffffffffffffff16815260200160018201805461058a90612f47565b80601f01602080910402602001604051908101604052809291908181526020018280546105b690612f47565b80156106035780601f106105d857610100808354040283529160200191610603565b820191906000526020600020905b8154815290600101906020018083116105e657829003601f168201915b505050505081526020016002820160009054906101000a900473ffffffffffffffffffffffffffffffffffffffff1673ffffffffffffffffffffffffffffffffffffffff1673ffffffffffffffffffffffffffffffffffffffff168152505090508273ffffffffffffffffffffffffffffffffffffffff16816040015173ffffffffffffffffffffffffffffffffffffffff16036106ab576001856106a89190612fa7565b94505b5080806106b790612fdb565b9150506104e8565b505080806106cc90612fdb565b9150506104bd565b5080915050919050565b60008073ffffffffffffffffffffffffffffffffffffffff16600183604051610707919061305f565b908152602001604051809103902060000160009054906101000a900473ffffffffffffffffffffffffffffffffffffffff1673ffffffffffffffffffffffffffffffffffffffff160361075d5760009050610762565b600190505b919050565b6000806000905060005b6005805490508110156108b65760006005828154811061079457610793612ee9565b5b90600052602060002090600202016040518060400160405290816000820160009054906101000a900473ffffffffffffffffffffffffffffffffffffffff1673ffffffffffffffffffffffffffffffffffffffff1673ffffffffffffffffffffffffffffffffffffffff1681526020016001820160009054906101000a900473ffffffffffffffffffffffffffffffffffffffff1673ffffffffffffffffffffffffffffffffffffffff1673ffffffffffffffffffffffffffffffffffffffff168152505090508473ffffffffffffffffffffffffffffffffffffffff16816000015173ffffffffffffffffffffffffffffffffffffffff16036108a25760018361089f9190612fa7565b92505b5080806108ae90612fdb565b915050610771565b5080915050919050565b6000806000905060005b600480549050811015610a0f576000600482815481106108ed576108ec612ee9565b5b90600052602060002090600202016040518060400160405290816000820160009054906101000a900473ffffffffffffffffffffffffffffffffffffffff1673ffffffffffffffffffffffffffffffffffffffff1673ffffffffffffffffffffffffffffffffffffffff1681526020016001820160009054906101000a900473ffffffffffffffffffffffffffffffffffffffff1673ffffffffffffffffffffffffffffffffffffffff1673ffffffffffffffffffffffffffffffffffffffff168152505090508473ffffffffffffffffffffffffffffffffffffffff16816000015173ffffffffffffffffffffffffffffffffffffffff16036109fb576001836109f89190612fa7565b92505b508080610a0790612fdb565b9150506108ca565b5080915050919050565b6060919050565b600060405180604001604052808473ffffffffffffffffffffffffffffffffffffffff1681526020018373ffffffffffffffffffffffffffffffffffffffff168152509050600281908060018154018082558091505060019003906000526020600020906002020160009091909190915060008201518160000160006101000a81548173ffffffffffffffffffffffffffffffffffffffff021916908373ffffffffffffffffffffffffffffffffffffffff16021790555060208201518160010160006101000a81548173ffffffffffffffffffffffffffffffffffffffff021916908373ffffffffffffffffffffffffffffffffffffffff1602179055505050505050565b6000806000905060005b600280549050811015610c7557600060028281548110610b5357610b52612ee9565b5b90600052602060002090600202016040518060400160405290816000820160009054906101000a900473ffffffffffffffffffffffffffffffffffffffff1673ffffffffffffffffffffffffffffffffffffffff1673ffffffffffffffffffffffffffffffffffffffff1681526020016001820160009054906101000a900473ffffffffffffffffffffffffffffffffffffffff1673ffffffffffffffffffffffffffffffffffffffff1673ffffffffffffffffffffffffffffffffffffffff168152505090508473ffffffffffffffffffffffffffffffffffffffff16816020015173ffffffffffffffffffffffffffffffffffffffff1603610c6157600183610c5e9190612fa7565b92505b508080610c6d90612fdb565b915050610b30565b5080915050919050565b60606000610c8c83610767565b90506000808267ffffffffffffffff811115610cab57610caa612620565b5b604051908082528060200260200182016040528015610cd95781602001602082028036833780820191505090505b50905060005b600580549050811015610e7657600060058281548110610d0257610d01612ee9565b5b90600052602060002090600202016040518060400160405290816000820160009054906101000a900473ffffffffffffffffffffffffffffffffffffffff1673ffffffffffffffffffffffffffffffffffffffff1673ffffffffffffffffffffffffffffffffffffffff1681526020016001820160009054906101000a900473ffffffffffffffffffffffffffffffffffffffff1673ffffffffffffffffffffffffffffffffffffffff1673ffffffffffffffffffffffffffffffffffffffff168152505090508673ffffffffffffffffffffffffffffffffffffffff16816000015173ffffffffffffffffffffffffffffffffffffffff1603610e62578060200151838581518110610e1857610e17612ee9565b5b602002602001019073ffffffffffffffffffffffffffffffffffffffff16908173ffffffffffffffffffffffffffffffffffffffff1681525050600184610e5f9190612fa7565b93505b508080610e6e90612fdb565b915050610cdf565b5060005b60058054905081101561102357600060058281548110610e9d57610e9c612ee9565b5b90600052602060002090600202016040518060400160405290816000820160009054906101000a900473ffffffffffffffffffffffffffffffffffffffff1673ffffffffffffffffffffffffffffffffffffffff1673ffffffffffffffffffffffffffffffffffffffff1681526020016001820160009054906101000a900473ffffffffffffffffffffffffffffffffffffffff1673ffffffffffffffffffffffffffffffffffffffff1673ffffffffffffffffffffffffffffffffffffffff168152505090508673ffffffffffffffffffffffffffffffffffffffff16816000015173ffffffffffffffffffffffffffffffffffffffff160361100f5760058281548110610faf57610fae612ee9565b5b9060005260206000209060020201600080820160006101000a81549073ffffffffffffffffffffffffffffffffffffffff02191690556001820160006101000a81549073ffffffffffffffffffffffffffffffffffffffff021916905550505b50808061101b90612fdb565b915050610e7a565b50809350505050919050565b611038836106de565b15611078576040517f08c379a000000000000000000000000000000000000000000000000000000000815260040161106f906130c2565b60405180910390fd5b806000808473ffffffffffffffffffffffffffffffffffffffff1673ffffffffffffffffffffffffffffffffffffffff16815260200190815260200160002060006101000a81548173ffffffffffffffffffffffffffffffffffffffff021916908373ffffffffffffffffffffffffffffffffffffffff160217905550600060405180604001604052808473ffffffffffffffffffffffffffffffffffffffff1681526020018373ffffffffffffffffffffffffffffffffffffffff1681525090508060018560405161114b919061305f565b908152602001604051809103902060008201518160000160006101000a81548173ffffffffffffffffffffffffffffffffffffffff021916908373ffffffffffffffffffffffffffffffffffffffff16021790555060208201518160010160006101000a81548173ffffffffffffffffffffffffffffffffffffffff021916908373ffffffffffffffffffffffffffffffffffffffff16021790555090505050505050565b60005b6003805490508110156114295760006003828154811061121657611215612ee9565b5b90600052602060002090600302016040518060600160405290816000820160009054906101000a900473ffffffffffffffffffffffffffffffffffffffff1673ffffffffffffffffffffffffffffffffffffffff1673ffffffffffffffffffffffffffffffffffffffff16815260200160018201805461129590612f47565b80601f01602080910402602001604051908101604052809291908181526020018280546112c190612f47565b801561130e5780601f106112e35761010080835404028352916020019161130e565b820191906000526020600020905b8154815290600101906020018083116112f157829003601f168201915b505050505081526020016002820160009054906101000a900473ffffffffffffffffffffffffffffffffffffffff1673ffffffffffffffffffffffffffffffffffffffff1673ffffffffffffffffffffffffffffffffffffffff168152505090508373ffffffffffffffffffffffffffffffffffffffff16816040015173ffffffffffffffffffffffffffffffffffffffff16036114155760008160000151905060008060008373ffffffffffffffffffffffffffffffffffffffff1673ffffffffffffffffffffffffffffffffffffffff16815260200190815260200160002060009054906101000a900473ffffffffffffffffffffffffffffffffffffffff16905050505b50808061142190612fdb565b9150506111f3565b505050565b611436612553565b6000600183604051611448919061305f565b90815260200160405180910390206040518060400160405290816000820160009054906101000a900473ffffffffffffffffffffffffffffffffffffffff1673ffffffffffffffffffffffffffffffffffffffff1673ffffffffffffffffffffffffffffffffffffffff1681526020016001820160009054906101000a900473ffffffffffffffffffffffffffffffffffffffff1673ffffffffffffffffffffffffffffffffffffffff1673ffffffffffffffffffffffffffffffffffffffff1681525050905080915050919050565b606092915050565b6060600061152d83610b26565b90506000808267ffffffffffffffff81111561154c5761154b612620565b5b60405190808252806020026020018201604052801561157a5781602001602082028036833780820191505090505b50905060005b600280549050811015611717576000600282815481106115a3576115a2612ee9565b5b90600052602060002090600202016040518060400160405290816000820160009054906101000a900473ffffffffffffffffffffffffffffffffffffffff1673ffffffffffffffffffffffffffffffffffffffff1673ffffffffffffffffffffffffffffffffffffffff1681526020016001820160009054906101000a900473ffffffffffffffffffffffffffffffffffffffff1673ffffffffffffffffffffffffffffffffffffffff1673ffffffffffffffffffffffffffffffffffffffff168152505090508673ffffffffffffffffffffffffffffffffffffffff16816020015173ffffffffffffffffffffffffffffffffffffffff16036117035780600001518385815181106116b9576116b8612ee9565b5b602002602001019073ffffffffffffffffffffffffffffffffffffffff16908173ffffffffffffffffffffffffffffffffffffffff16815250506001846117009190612fa7565b93505b50808061170f90612fdb565b915050611580565b50809350505050919050565b60005b6003805490508110156119ad5760006003828154811061174957611748612ee9565b5b90600052602060002090600302016040518060600160405290816000820160009054906101000a900473ffffffffffffffffffffffffffffffffffffffff1673ffffffffffffffffffffffffffffffffffffffff1673ffffffffffffffffffffffffffffffffffffffff1681526020016001820180546117c890612f47565b80601f01602080910402602001604051908101604052809291908181526020018280546117f490612f47565b80156118415780601f1061181657610100808354040283529160200191611841565b820191906000526020600020905b81548152906001019060200180831161182457829003601f168201915b505050505081526020016002820160009054906101000a900473ffffffffffffffffffffffffffffffffffffffff1673ffffffffffffffffffffffffffffffffffffffff1673ffffffffffffffffffffffffffffffffffffffff168152505090508373ffffffffffffffffffffffffffffffffffffffff16816000015173ffffffffffffffffffffffffffffffffffffffff1614801561191057508273ffffffffffffffffffffffffffffffffffffffff16816040015173ffffffffffffffffffffffffffffffffffffffff16145b15611999576003828154811061192957611928612ee9565b5b9060005260206000209060030201600080820160006101000a81549073ffffffffffffffffffffffffffffffffffffffff021916905560018201600061196f9190612599565b6002820160006101000a81549073ffffffffffffffffffffffffffffffffffffffff021916905550505b5080806119a590612fdb565b915050611726565b505050565b60008060008373ffffffffffffffffffffffffffffffffffffffff1673ffffffffffffffffffffffffffffffffffffffff16815260200190815260200160002060009054906101000a900473ffffffffffffffffffffffffffffffffffffffff169050919050565b60005b600280549050811015611d1c57600060028281548110611a4057611a3f612ee9565b5b90600052602060002090600202016040518060400160405290816000820160009054906101000a900473ffffffffffffffffffffffffffffffffffffffff1673ffffffffffffffffffffffffffffffffffffffff1673ffffffffffffffffffffffffffffffffffffffff1681526020016001820160009054906101000a900473ffffffffffffffffffffffffffffffffffffffff1673ffffffffffffffffffffffffffffffffffffffff1673ffffffffffffffffffffffffffffffffffffffff168152505090508473ffffffffffffffffffffffffffffffffffffffff16816020015173ffffffffffffffffffffffffffffffffffffffff16148015611b7557508373ffffffffffffffffffffffffffffffffffffffff16816000015173ffffffffffffffffffffffffffffffffffffffff16145b15611d0857611b83826123ac565b8215611c4a57600481908060018154018082558091505060019003906000526020600020906002020160009091909190915060008201518160000160006101000a81548173ffffffffffffffffffffffffffffffffffffffff021916908373ffffffffffffffffffffffffffffffffffffffff16021790555060208201518160010160006101000a81548173ffffffffffffffffffffffffffffffffffffffff021916908373ffffffffffffffffffffffffffffffffffffffff1602179055505050611d07565b600581908060018154018082558091505060019003906000526020600020906002020160009091909190915060008201518160000160006101000a81548173ffffffffffffffffffffffffffffffffffffffff021916908373ffffffffffffffffffffffffffffffffffffffff16021790555060208201518160010160006101000a81548173ffffffffffffffffffffffffffffffffffffffff021916908373ffffffffffffffffffffffffffffffffffffffff16021790555050505b5b508080611d1490612fdb565b915050611a1d565b50505050565b60606000611d2f836104b3565b90506000808267ffffffffffffffff811115611d4e57611d4d612620565b5b604051908082528060200260200182016040528015611d7c5781602001602082028036833780820191505090505b50905060005b8551811015611fe7576000868281518110611da057611d9f612ee9565b5b6020026020010151905060005b600380549050811015611fd257600060038281548110611dd057611dcf612ee9565b5b90600052602060002090600302016040518060600160405290816000820160009054906101000a900473ffffffffffffffffffffffffffffffffffffffff1673ffffffffffffffffffffffffffffffffffffffff1673ffffffffffffffffffffffffffffffffffffffff168152602001600182018054611e4f90612f47565b80601f0160208091040260200160405190810160405280929190818152602001828054611e7b90612f47565b8015611ec85780601f10611e9d57610100808354040283529160200191611ec8565b820191906000526020600020905b815481529060010190602001808311611eab57829003601f168201915b505050505081526020016002820160009054906101000a900473ffffffffffffffffffffffffffffffffffffffff1673ffffffffffffffffffffffffffffffffffffffff1673ffffffffffffffffffffffffffffffffffffffff168152505090508273ffffffffffffffffffffffffffffffffffffffff16816040015173ffffffffffffffffffffffffffffffffffffffff1603611fbe5782858781518110611f7457611f73612ee9565b5b602002602001019073ffffffffffffffffffffffffffffffffffffffff16908173ffffffffffffffffffffffffffffffffffffffff1681525050600186611fbb9190612fa7565b95505b508080611fca90612fdb565b915050611dad565b50508080611fdf90612fdb565b915050611d82565b50809350505050919050565b5050565b505050565b60606000612009836108c0565b90506000808267ffffffffffffffff81111561202857612027612620565b5b6040519080825280602002602001820160405280156120565781602001602082028036833780820191505090505b50905060005b6004805490508110156121f35760006004828154811061207f5761207e612ee9565b5b90600052602060002090600202016040518060400160405290816000820160009054906101000a900473ffffffffffffffffffffffffffffffffffffffff1673ffffffffffffffffffffffffffffffffffffffff1673ffffffffffffffffffffffffffffffffffffffff1681526020016001820160009054906101000a900473ffffffffffffffffffffffffffffffffffffffff1673ffffffffffffffffffffffffffffffffffffffff1673ffffffffffffffffffffffffffffffffffffffff168152505090508673ffffffffffffffffffffffffffffffffffffffff16816000015173ffffffffffffffffffffffffffffffffffffffff16036121df57806020015183858151811061219557612194612ee9565b5b602002602001019073ffffffffffffffffffffffffffffffffffffffff16908173ffffffffffffffffffffffffffffffffffffffff16815250506001846121dc9190612fa7565b93505b5080806121eb90612fdb565b91505061205c565b5060005b6004805490508110156123a05760006004828154811061221a57612219612ee9565b5b90600052602060002090600202016040518060400160405290816000820160009054906101000a900473ffffffffffffffffffffffffffffffffffffffff1673ffffffffffffffffffffffffffffffffffffffff1673ffffffffffffffffffffffffffffffffffffffff1681526020016001820160009054906101000a900473ffffffffffffffffffffffffffffffffffffffff1673ffffffffffffffffffffffffffffffffffffffff1673ffffffffffffffffffffffffffffffffffffffff168152505090508673ffffffffffffffffffffffffffffffffffffffff16816000015173ffffffffffffffffffffffffffffffffffffffff160361238c576004828154811061232c5761232b612ee9565b5b9060005260206000209060020201600080820160006101000a81549073ffffffffffffffffffffffffffffffffffffffff02191690556001820160006101000a81549073ffffffffffffffffffffffffffffffffffffffff021916905550505b50808061239890612fdb565b9150506121f7565b50809350505050919050565b600260016002805490506123c091906130e2565b815481106123d1576123d0612ee9565b5b9060005260206000209060020201600282815481106123f3576123f2612ee9565b5b90600052602060002090600202016000820160009054906101000a900473ffffffffffffffffffffffffffffffffffffffff168160000160006101000a81548173ffffffffffffffffffffffffffffffffffffffff021916908373ffffffffffffffffffffffffffffffffffffffff1602179055506001820160009054906101000a900473ffffffffffffffffffffffffffffffffffffffff168160010160006101000a81548173ffffffffffffffffffffffffffffffffffffffff021916908373ffffffffffffffffffffffffffffffffffffffff16021790555090505060028054806124e4576124e3613116565b5b6001900381819060005260206000209060020201600080820160006101000a81549073ffffffffffffffffffffffffffffffffffffffff02191690556001820160006101000a81549073ffffffffffffffffffffffffffffffffffffffff02191690555050905550565b505050565b6040518060400160405280600073ffffffffffffffffffffffffffffffffffffffff168152602001600073ffffffffffffffffffffffffffffffffffffffff1681525090565b5080546125a590612f47565b6000825580601f106125b757506125d6565b601f0160209004906000526020600020908101906125d591906125d9565b5b50565b5b808211156125f25760008160009055506001016125da565b5090565b6000604051905090565b600080fd5b600080fd5b600080fd5b6000601f19601f8301169050919050565b7f4e487b7100000000000000000000000000000000000000000000000000000000600052604160045260246000fd5b6126588261260f565b810181811067ffffffffffffffff8211171561267757612676612620565b5b80604052505050565b600061268a6125f6565b9050612696828261264f565b919050565b600067ffffffffffffffff8211156126b6576126b5612620565b5b602082029050602081019050919050565b600080fd5b600073ffffffffffffffffffffffffffffffffffffffff82169050919050565b60006126f7826126cc565b9050919050565b612707816126ec565b811461271257600080fd5b50565b600081359050612724816126fe565b92915050565b600061273d6127388461269b565b612680565b905080838252602082019050602084028301858111156127605761275f6126c7565b5b835b8181101561278957806127758882612715565b845260208401935050602081019050612762565b5050509392505050565b600082601f8301126127a8576127a761260a565b5b81356127b884826020860161272a565b91505092915050565b6000602082840312156127d7576127d6612600565b5b600082013567ffffffffffffffff8111156127f5576127f4612605565b5b61280184828501612793565b91505092915050565b6000819050919050565b61281d8161280a565b82525050565b60006020820190506128386000830184612814565b92915050565b600080fd5b600067ffffffffffffffff82111561285e5761285d612620565b5b6128678261260f565b9050602081019050919050565b82818337600083830152505050565b600061289661289184612843565b612680565b9050828152602081018484840111156128b2576128b161283e565b5b6128bd848285612874565b509392505050565b600082601f8301126128da576128d961260a565b5b81356128ea848260208601612883565b91505092915050565b60006020828403121561290957612908612600565b5b600082013567ffffffffffffffff81111561292757612926612605565b5b612933848285016128c5565b91505092915050565b60008115159050919050565b6129518161293c565b82525050565b600060208201905061296c6000830184612948565b92915050565b60006020828403121561298857612987612600565b5b600061299684828501612715565b91505092915050565b600081519050919050565b600082825260208201905092915050565b60005b838110156129d95780820151818401526020810190506129be565b60008484015250505050565b60006129f08261299f565b6129fa81856129aa565b9350612a0a8185602086016129bb565b612a138161260f565b840191505092915050565b60006020820190508181036000830152612a3881846129e5565b905092915050565b60008060408385031215612a5757612a56612600565b5b6000612a6585828601612715565b9250506020612a7685828601612715565b9150509250929050565b600081519050919050565b600082825260208201905092915050565b6000819050602082019050919050565b612ab5816126ec565b82525050565b6000612ac78383612aac565b60208301905092915050565b6000602082019050919050565b6000612aeb82612a80565b612af58185612a8b565b9350612b0083612a9c565b8060005b83811015612b31578151612b188882612abb565b9750612b2383612ad3565b925050600181019050612b04565b5085935050505092915050565b60006020820190508181036000830152612b588184612ae0565b905092915050565b600080600060608486031215612b7957612b78612600565b5b600084013567ffffffffffffffff811115612b9757612b96612605565b5b612ba3868287016128c5565b9350506020612bb486828701612715565b9250506040612bc586828701612715565b9150509250925092565b60008060408385031215612be657612be5612600565b5b6000612bf485828601612715565b925050602083013567ffffffffffffffff811115612c1557612c14612605565b5b612c21858286016128c5565b9150509250929050565b604082016000820151612c416000850182612aac565b506020820151612c546020850182612aac565b50505050565b6000604082019050612c6f6000830184612c2b565b92915050565b60008060408385031215612c8c57612c8b612600565b5b600083013567ffffffffffffffff811115612caa57612ca9612605565b5b612cb6858286016128c5565b925050602083013567ffffffffffffffff811115612cd757612cd6612605565b5b612ce3858286016128c5565b9150509250929050565b612cf6816126ec565b82525050565b6000602082019050612d116000830184612ced565b92915050565b612d208161293c565b8114612d2b57600080fd5b50565b600081359050612d3d81612d17565b92915050565b600080600060608486031215612d5c57612d5b612600565b5b6000612d6a86828701612715565b9350506020612d7b86828701612715565b9250506040612d8c86828701612d2e565b9150509250925092565b600080600060608486031215612daf57612dae612600565b5b6000612dbd86828701612715565b9350506020612dce86828701612715565b925050604084013567ffffffffffffffff811115612def57612dee612605565b5b612dfb868287016128c5565b9150509250925092565b612e0e8161280a565b8114612e1957600080fd5b50565b600081359050612e2b81612e05565b92915050565b600060208284031215612e4757612e46612600565b5b6000612e5584828501612e1c565b91505092915050565b600080600060608486031215612e7757612e76612600565b5b600084013567ffffffffffffffff811115612e9557612e94612605565b5b612ea1868287016128c5565b9350506020612eb286828701612715565b925050604084013567ffffffffffffffff811115612ed357612ed2612605565b5b612edf868287016128c5565b9150509250925092565b7f4e487b7100000000000000000000000000000000000000000000000000000000600052603260045260246000fd5b7f4e487b7100000000000000000000000000000000000000000000000000000000600052602260045260246000fd5b60006002820490506001821680612f5f57607f821691505b602082108103612f7257612f71612f18565b5b50919050565b7f4e487b7100000000000000000000000000000000000000000000000000000000600052601160045260246000fd5b6000612fb28261280a565b9150612fbd8361280a565b9250828201905080821115612fd557612fd4612f78565b5b92915050565b6000612fe68261280a565b91507fffffffffffffffffffffffffffffffffffffffffffffffffffffffffffffffff820361301857613017612f78565b5b600182019050919050565b600081905092915050565b60006130398261299f565b6130438185613023565b93506130538185602086016129bb565b80840191505092915050565b600061306b828461302e565b915081905092915050565b7f4e616d6520616c72656164792065786973747300000000000000000000000000600082015250565b60006130ac6013836129aa565b91506130b782613076565b602082019050919050565b600060208201905081810360008301526130db8161309f565b9050919050565b60006130ed8261280a565b91506130f88361280a565b92508282039050818111156131105761310f612f78565b5b92915050565b7f4e487b7100000000000000000000000000000000000000000000000000000000600052603160045260246000fdfea26469706673582212203ac88e0723fbd794b43ca2b338edd0ed0cd094db0d44547fe91c5cc8af1b4a5264736f6c63430008130033",
					"opcodes": "PUSH1 0x80 PUSH1 0x40 MSTORE CALLVALUE DUP1 ISZERO PUSH2 0x10 JUMPI PUSH1 0x0 DUP1 REVERT JUMPDEST POP PUSH2 0x317B DUP1 PUSH2 0x20 PUSH1 0x0 CODECOPY PUSH1 0x0 RETURN INVALID PUSH1 0x80 PUSH1 0x40 MSTORE CALLVALUE DUP1 ISZERO PUSH2 0x10 JUMPI PUSH1 0x0 DUP1 REVERT JUMPDEST POP PUSH1 0x4 CALLDATASIZE LT PUSH2 0x142 JUMPI PUSH1 0x0 CALLDATALOAD PUSH1 0xE0 SHR DUP1 PUSH4 0x8292CAE3 GT PUSH2 0xB8 JUMPI DUP1 PUSH4 0xC5882344 GT PUSH2 0x7C JUMPI DUP1 PUSH4 0xC5882344 EQ PUSH2 0x3E3 JUMPI DUP1 PUSH4 0xC6244A27 EQ PUSH2 0x413 JUMPI DUP1 PUSH4 0xCC2F22F1 EQ PUSH2 0x42F JUMPI DUP1 PUSH4 0xD71E80E3 EQ PUSH2 0x44B JUMPI DUP1 PUSH4 0xEC6EA3AA EQ PUSH2 0x47B JUMPI DUP1 PUSH4 0xFE5686DF EQ PUSH2 0x497 JUMPI PUSH2 0x142 JUMP JUMPDEST DUP1 PUSH4 0x8292CAE3 EQ PUSH2 0x31B JUMPI DUP1 PUSH4 0x99F8B09F EQ PUSH2 0x34B JUMPI DUP1 PUSH4 0x9C111559 EQ PUSH2 0x37B JUMPI DUP1 PUSH4 0xA5311BCF EQ PUSH2 0x397 JUMPI DUP1 PUSH4 0xBC9D6271 EQ PUSH2 0x3C7 JUMPI PUSH2 0x142 JUMP JUMPDEST DUP1 PUSH4 0x6E8548BB GT PUSH2 0x10A JUMPI DUP1 PUSH4 0x6E8548BB EQ PUSH2 0x237 JUMPI DUP1 PUSH4 0x74CF3E51 EQ PUSH2 0x253 JUMPI DUP1 PUSH4 0x7568708F EQ PUSH2 0x283 JUMPI DUP1 PUSH4 0x7915C069 EQ PUSH2 0x2B3 JUMPI DUP1 PUSH4 0x7CBFC58F EQ PUSH2 0x2CF JUMPI DUP1 PUSH4 0x82760FCA EQ PUSH2 0x2EB JUMPI PUSH2 0x142 JUMP JUMPDEST DUP1 PUSH4 0x9DA40AE EQ PUSH2 0x147 JUMPI DUP1 PUSH4 0xD85D839 EQ PUSH2 0x177 JUMPI DUP1 PUSH4 0x14338F9D EQ PUSH2 0x1A7 JUMPI DUP1 PUSH4 0x54F5FCBA EQ PUSH2 0x1D7 JUMPI DUP1 PUSH4 0x67E37F70 EQ PUSH2 0x207 JUMPI JUMPDEST PUSH1 0x0 DUP1 REVERT JUMPDEST PUSH2 0x161 PUSH1 0x4 DUP1 CALLDATASIZE SUB DUP2 ADD SWAP1 PUSH2 0x15C SWAP2 SWAP1 PUSH2 0x27C1 JUMP JUMPDEST PUSH2 0x4B3 JUMP JUMPDEST PUSH1 0x40 MLOAD PUSH2 0x16E SWAP2 SWAP1 PUSH2 0x2823 JUMP JUMPDEST PUSH1 0x40 MLOAD DUP1 SWAP2 SUB SWAP1 RETURN JUMPDEST PUSH2 0x191 PUSH1 0x4 DUP1 CALLDATASIZE SUB DUP2 ADD SWAP1 PUSH2 0x18C SWAP2 SWAP1 PUSH2 0x28F3 JUMP JUMPDEST PUSH2 0x6DE JUMP JUMPDEST PUSH1 0x40 MLOAD PUSH2 0x19E SWAP2 SWAP1 PUSH2 0x2957 JUMP JUMPDEST PUSH1 0x40 MLOAD DUP1 SWAP2 SUB SWAP1 RETURN JUMPDEST PUSH2 0x1C1 PUSH1 0x4 DUP1 CALLDATASIZE SUB DUP2 ADD SWAP1 PUSH2 0x1BC SWAP2 SWAP1 PUSH2 0x2972 JUMP JUMPDEST PUSH2 0x767 JUMP JUMPDEST PUSH1 0x40 MLOAD PUSH2 0x1CE SWAP2 SWAP1 PUSH2 0x2823 JUMP JUMPDEST PUSH1 0x40 MLOAD DUP1 SWAP2 SUB SWAP1 RETURN JUMPDEST PUSH2 0x1F1 PUSH1 0x4 DUP1 CALLDATASIZE SUB DUP2 ADD SWAP1 PUSH2 0x1EC SWAP2 SWAP1 PUSH2 0x2972 JUMP JUMPDEST PUSH2 0x8C0 JUMP JUMPDEST PUSH1 0x40 MLOAD PUSH2 0x1FE SWAP2 SWAP1 PUSH2 0x2823 JUMP JUMPDEST PUSH1 0x40 MLOAD DUP1 SWAP2 SUB SWAP1 RETURN JUMPDEST PUSH2 0x221 PUSH1 0x4 DUP1 CALLDATASIZE SUB DUP2 ADD SWAP1 PUSH2 0x21C SWAP2 SWAP1 PUSH2 0x28F3 JUMP JUMPDEST PUSH2 0xA19 JUMP JUMPDEST PUSH1 0x40 MLOAD PUSH2 0x22E SWAP2 SWAP1 PUSH2 0x2A1E JUMP JUMPDEST PUSH1 0x40 MLOAD DUP1 SWAP2 SUB SWAP1 RETURN JUMPDEST PUSH2 0x251 PUSH1 0x4 DUP1 CALLDATASIZE SUB DUP2 ADD SWAP1 PUSH2 0x24C SWAP2 SWAP1 PUSH2 0x2A40 JUMP JUMPDEST PUSH2 0xA20 JUMP JUMPDEST STOP JUMPDEST PUSH2 0x26D PUSH1 0x4 DUP1 CALLDATASIZE SUB DUP2 ADD SWAP1 PUSH2 0x268 SWAP2 SWAP1 PUSH2 0x2972 JUMP JUMPDEST PUSH2 0xB26 JUMP JUMPDEST PUSH1 0x40 MLOAD PUSH2 0x27A SWAP2 SWAP1 PUSH2 0x2823 JUMP JUMPDEST PUSH1 0x40 MLOAD DUP1 SWAP2 SUB SWAP1 RETURN JUMPDEST PUSH2 0x29D PUSH1 0x4 DUP1 CALLDATASIZE SUB DUP2 ADD SWAP1 PUSH2 0x298 SWAP2 SWAP1 PUSH2 0x2972 JUMP JUMPDEST PUSH2 0xC7F JUMP JUMPDEST PUSH1 0x40 MLOAD PUSH2 0x2AA SWAP2 SWAP1 PUSH2 0x2B3E JUMP JUMPDEST PUSH1 0x40 MLOAD DUP1 SWAP2 SUB SWAP1 RETURN JUMPDEST PUSH2 0x2CD PUSH1 0x4 DUP1 CALLDATASIZE SUB DUP2 ADD SWAP1 PUSH2 0x2C8 SWAP2 SWAP1 PUSH2 0x2B60 JUMP JUMPDEST PUSH2 0x102F JUMP JUMPDEST STOP JUMPDEST PUSH2 0x2E9 PUSH1 0x4 DUP1 CALLDATASIZE SUB DUP2 ADD SWAP1 PUSH2 0x2E4 SWAP2 SWAP1 PUSH2 0x2BCF JUMP JUMPDEST PUSH2 0x11F0 JUMP JUMPDEST STOP JUMPDEST PUSH2 0x305 PUSH1 0x4 DUP1 CALLDATASIZE SUB DUP2 ADD SWAP1 PUSH2 0x300 SWAP2 SWAP1 PUSH2 0x28F3 JUMP JUMPDEST PUSH2 0x142E JUMP JUMPDEST PUSH1 0x40 MLOAD PUSH2 0x312 SWAP2 SWAP1 PUSH2 0x2C5A JUMP JUMPDEST PUSH1 0x40 MLOAD DUP1 SWAP2 SUB SWAP1 RETURN JUMPDEST PUSH2 0x335 PUSH1 0x4 DUP1 CALLDATASIZE SUB DUP2 ADD SWAP1 PUSH2 0x330 SWAP2 SWAP1 PUSH2 0x2C75 JUMP JUMPDEST PUSH2 0x1518 JUMP JUMPDEST PUSH1 0x40 MLOAD PUSH2 0x342 SWAP2 SWAP1 PUSH2 0x2A1E JUMP JUMPDEST PUSH1 0x40 MLOAD DUP1 SWAP2 SUB SWAP1 RETURN JUMPDEST PUSH2 0x365 PUSH1 0x4 DUP1 CALLDATASIZE SUB DUP2 ADD SWAP1 PUSH2 0x360 SWAP2 SWAP1 PUSH2 0x2972 JUMP JUMPDEST PUSH2 0x1520 JUMP JUMPDEST PUSH1 0x40 MLOAD PUSH2 0x372 SWAP2 SWAP1 PUSH2 0x2B3E JUMP JUMPDEST PUSH1 0x40 MLOAD DUP1 SWAP2 SUB SWAP1 RETURN JUMPDEST PUSH2 0x395 PUSH1 0x4 DUP1 CALLDATASIZE SUB DUP2 ADD SWAP1 PUSH2 0x390 SWAP2 SWAP1 PUSH2 0x2A40 JUMP JUMPDEST PUSH2 0x1723 JUMP JUMPDEST STOP JUMPDEST PUSH2 0x3B1 PUSH1 0x4 DUP1 CALLDATASIZE SUB DUP2 ADD SWAP1 PUSH2 0x3AC SWAP2 SWAP1 PUSH2 0x2972 JUMP JUMPDEST PUSH2 0x19B2 JUMP JUMPDEST PUSH1 0x40 MLOAD PUSH2 0x3BE SWAP2 SWAP1 PUSH2 0x2CFC JUMP JUMPDEST PUSH1 0x40 MLOAD DUP1 SWAP2 SUB SWAP1 RETURN JUMPDEST PUSH2 0x3E1 PUSH1 0x4 DUP1 CALLDATASIZE SUB DUP2 ADD SWAP1 PUSH2 0x3DC SWAP2 SWAP1 PUSH2 0x2D43 JUMP JUMPDEST PUSH2 0x1A1A JUMP JUMPDEST STOP JUMPDEST PUSH2 0x3FD PUSH1 0x4 DUP1 CALLDATASIZE SUB DUP2 ADD SWAP1 PUSH2 0x3F8 SWAP2 SWAP1 PUSH2 0x27C1 JUMP JUMPDEST PUSH2 0x1D22 JUMP JUMPDEST PUSH1 0x40 MLOAD PUSH2 0x40A SWAP2 SWAP1 PUSH2 0x2B3E JUMP JUMPDEST PUSH1 0x40 MLOAD DUP1 SWAP2 SUB SWAP1 RETURN JUMPDEST PUSH2 0x42D PUSH1 0x4 DUP1 CALLDATASIZE SUB DUP2 ADD SWAP1 PUSH2 0x428 SWAP2 SWAP1 PUSH2 0x2A40 JUMP JUMPDEST PUSH2 0x1FF3 JUMP JUMPDEST STOP JUMPDEST PUSH2 0x449 PUSH1 0x4 DUP1 CALLDATASIZE SUB DUP2 ADD SWAP1 PUSH2 0x444 SWAP2 SWAP1 PUSH2 0x2D96 JUMP JUMPDEST PUSH2 0x1FF7 JUMP JUMPDEST STOP JUMPDEST PUSH2 0x465 PUSH1 0x4 DUP1 CALLDATASIZE SUB DUP2 ADD SWAP1 PUSH2 0x460 SWAP2 SWAP1 PUSH2 0x2972 JUMP JUMPDEST PUSH2 0x1FFC JUMP JUMPDEST PUSH1 0x40 MLOAD PUSH2 0x472 SWAP2 SWAP1 PUSH2 0x2B3E JUMP JUMPDEST PUSH1 0x40 MLOAD DUP1 SWAP2 SUB SWAP1 RETURN JUMPDEST PUSH2 0x495 PUSH1 0x4 DUP1 CALLDATASIZE SUB DUP2 ADD SWAP1 PUSH2 0x490 SWAP2 SWAP1 PUSH2 0x2E31 JUMP JUMPDEST PUSH2 0x23AC JUMP JUMPDEST STOP JUMPDEST PUSH2 0x4B1 PUSH1 0x4 DUP1 CALLDATASIZE SUB DUP2 ADD SWAP1 PUSH2 0x4AC SWAP2 SWAP1 PUSH2 0x2E5E JUMP JUMPDEST PUSH2 0x254E JUMP JUMPDEST STOP JUMPDEST PUSH1 0x0 DUP1 PUSH1 0x0 SWAP1 POP PUSH1 0x0 JUMPDEST DUP4 MLOAD DUP2 LT ISZERO PUSH2 0x6D4 JUMPI PUSH1 0x0 DUP5 DUP3 DUP2 MLOAD DUP2 LT PUSH2 0x4DB JUMPI PUSH2 0x4DA PUSH2 0x2EE9 JUMP JUMPDEST JUMPDEST PUSH1 0x20 MUL PUSH1 0x20 ADD ADD MLOAD SWAP1 POP PUSH1 0x0 JUMPDEST PUSH1 0x3 DUP1 SLOAD SWAP1 POP DUP2 LT ISZERO PUSH2 0x6BF JUMPI PUSH1 0x0 PUSH1 0x3 DUP3 DUP2 SLOAD DUP2 LT PUSH2 0x50B JUMPI PUSH2 0x50A PUSH2 0x2EE9 JUMP JUMPDEST JUMPDEST SWAP1 PUSH1 0x0 MSTORE PUSH1 0x20 PUSH1 0x0 KECCAK256 SWAP1 PUSH1 0x3 MUL ADD PUSH1 0x40 MLOAD DUP1 PUSH1 0x60 ADD PUSH1 0x40 MSTORE SWAP1 DUP2 PUSH1 0x0 DUP3 ADD PUSH1 0x0 SWAP1 SLOAD SWAP1 PUSH2 0x100 EXP SWAP1 DIV PUSH20 0xFFFFFFFFFFFFFFFFFFFFFFFFFFFFFFFFFFFFFFFF AND PUSH20 0xFFFFFFFFFFFFFFFFFFFFFFFFFFFFFFFFFFFFFFFF AND PUSH20 0xFFFFFFFFFFFFFFFFFFFFFFFFFFFFFFFFFFFFFFFF AND DUP2 MSTORE PUSH1 0x20 ADD PUSH1 0x1 DUP3 ADD DUP1 SLOAD PUSH2 0x58A SWAP1 PUSH2 0x2F47 JUMP JUMPDEST DUP1 PUSH1 0x1F ADD PUSH1 0x20 DUP1 SWAP2 DIV MUL PUSH1 0x20 ADD PUSH1 0x40 MLOAD SWAP1 DUP2 ADD PUSH1 0x40 MSTORE DUP1 SWAP3 SWAP2 SWAP1 DUP2 DUP2 MSTORE PUSH1 0x20 ADD DUP3 DUP1 SLOAD PUSH2 0x5B6 SWAP1 PUSH2 0x2F47 JUMP JUMPDEST DUP1 ISZERO PUSH2 0x603 JUMPI DUP1 PUSH1 0x1F LT PUSH2 0x5D8 JUMPI PUSH2 0x100 DUP1 DUP4 SLOAD DIV MUL DUP4 MSTORE SWAP2 PUSH1 0x20 ADD SWAP2 PUSH2 0x603 JUMP JUMPDEST DUP3 ADD SWAP2 SWAP1 PUSH1 0x0 MSTORE PUSH1 0x20 PUSH1 0x0 KECCAK256 SWAP1 JUMPDEST DUP2 SLOAD DUP2 MSTORE SWAP1 PUSH1 0x1 ADD SWAP1 PUSH1 0x20 ADD DUP1 DUP4 GT PUSH2 0x5E6 JUMPI DUP3 SWAP1 SUB PUSH1 0x1F AND DUP3 ADD SWAP2 JUMPDEST POP POP POP POP POP DUP2 MSTORE PUSH1 0x20 ADD PUSH1 0x2 DUP3 ADD PUSH1 0x0 SWAP1 SLOAD SWAP1 PUSH2 0x100 EXP SWAP1 DIV PUSH20 0xFFFFFFFFFFFFFFFFFFFFFFFFFFFFFFFFFFFFFFFF AND PUSH20 0xFFFFFFFFFFFFFFFFFFFFFFFFFFFFFFFFFFFFFFFF AND PUSH20 0xFFFFFFFFFFFFFFFFFFFFFFFFFFFFFFFFFFFFFFFF AND DUP2 MSTORE POP POP SWAP1 POP DUP3 PUSH20 0xFFFFFFFFFFFFFFFFFFFFFFFFFFFFFFFFFFFFFFFF AND DUP2 PUSH1 0x40 ADD MLOAD PUSH20 0xFFFFFFFFFFFFFFFFFFFFFFFFFFFFFFFFFFFFFFFF AND SUB PUSH2 0x6AB JUMPI PUSH1 0x1 DUP6 PUSH2 0x6A8 SWAP2 SWAP1 PUSH2 0x2FA7 JUMP JUMPDEST SWAP5 POP JUMPDEST POP DUP1 DUP1 PUSH2 0x6B7 SWAP1 PUSH2 0x2FDB JUMP JUMPDEST SWAP2 POP POP PUSH2 0x4E8 JUMP JUMPDEST POP POP DUP1 DUP1 PUSH2 0x6CC SWAP1 PUSH2 0x2FDB JUMP JUMPDEST SWAP2 POP POP PUSH2 0x4BD JUMP JUMPDEST POP DUP1 SWAP2 POP POP SWAP2 SWAP1 POP JUMP JUMPDEST PUSH1 0x0 DUP1 PUSH20 0xFFFFFFFFFFFFFFFFFFFFFFFFFFFFFFFFFFFFFFFF AND PUSH1 0x1 DUP4 PUSH1 0x40 MLOAD PUSH2 0x707 SWAP2 SWAP1 PUSH2 0x305F JUMP JUMPDEST SWAP1 DUP2 MSTORE PUSH1 0x20 ADD PUSH1 0x40 MLOAD DUP1 SWAP2 SUB SWAP1 KECCAK256 PUSH1 0x0 ADD PUSH1 0x0 SWAP1 SLOAD SWAP1 PUSH2 0x100 EXP SWAP1 DIV PUSH20 0xFFFFFFFFFFFFFFFFFFFFFFFFFFFFFFFFFFFFFFFF AND PUSH20 0xFFFFFFFFFFFFFFFFFFFFFFFFFFFFFFFFFFFFFFFF AND SUB PUSH2 0x75D JUMPI PUSH1 0x0 SWAP1 POP PUSH2 0x762 JUMP JUMPDEST PUSH1 0x1 SWAP1 POP JUMPDEST SWAP2 SWAP1 POP JUMP JUMPDEST PUSH1 0x0 DUP1 PUSH1 0x0 SWAP1 POP PUSH1 0x0 JUMPDEST PUSH1 0x5 DUP1 SLOAD SWAP1 POP DUP2 LT ISZERO PUSH2 0x8B6 JUMPI PUSH1 0x0 PUSH1 0x5 DUP3 DUP2 SLOAD DUP2 LT PUSH2 0x794 JUMPI PUSH2 0x793 PUSH2 0x2EE9 JUMP JUMPDEST JUMPDEST SWAP1 PUSH1 0x0 MSTORE PUSH1 0x20 PUSH1 0x0 KECCAK256 SWAP1 PUSH1 0x2 MUL ADD PUSH1 0x40 MLOAD DUP1 PUSH1 0x40 ADD PUSH1 0x40 MSTORE SWAP1 DUP2 PUSH1 0x0 DUP3 ADD PUSH1 0x0 SWAP1 SLOAD SWAP1 PUSH2 0x100 EXP SWAP1 DIV PUSH20 0xFFFFFFFFFFFFFFFFFFFFFFFFFFFFFFFFFFFFFFFF AND PUSH20 0xFFFFFFFFFFFFFFFFFFFFFFFFFFFFFFFFFFFFFFFF AND PUSH20 0xFFFFFFFFFFFFFFFFFFFFFFFFFFFFFFFFFFFFFFFF AND DUP2 MSTORE PUSH1 0x20 ADD PUSH1 0x1 DUP3 ADD PUSH1 0x0 SWAP1 SLOAD SWAP1 PUSH2 0x100 EXP SWAP1 DIV PUSH20 0xFFFFFFFFFFFFFFFFFFFFFFFFFFFFFFFFFFFFFFFF AND PUSH20 0xFFFFFFFFFFFFFFFFFFFFFFFFFFFFFFFFFFFFFFFF AND PUSH20 0xFFFFFFFFFFFFFFFFFFFFFFFFFFFFFFFFFFFFFFFF AND DUP2 MSTORE POP POP SWAP1 POP DUP5 PUSH20 0xFFFFFFFFFFFFFFFFFFFFFFFFFFFFFFFFFFFFFFFF AND DUP2 PUSH1 0x0 ADD MLOAD PUSH20 0xFFFFFFFFFFFFFFFFFFFFFFFFFFFFFFFFFFFFFFFF AND SUB PUSH2 0x8A2 JUMPI PUSH1 0x1 DUP4 PUSH2 0x89F SWAP2 SWAP1 PUSH2 0x2FA7 JUMP JUMPDEST SWAP3 POP JUMPDEST POP DUP1 DUP1 PUSH2 0x8AE SWAP1 PUSH2 0x2FDB JUMP JUMPDEST SWAP2 POP POP PUSH2 0x771 JUMP JUMPDEST POP DUP1 SWAP2 POP POP SWAP2 SWAP1 POP JUMP JUMPDEST PUSH1 0x0 DUP1 PUSH1 0x0 SWAP1 POP PUSH1 0x0 JUMPDEST PUSH1 0x4 DUP1 SLOAD SWAP1 POP DUP2 LT ISZERO PUSH2 0xA0F JUMPI PUSH1 0x0 PUSH1 0x4 DUP3 DUP2 SLOAD DUP2 LT PUSH2 0x8ED JUMPI PUSH2 0x8EC PUSH2 0x2EE9 JUMP JUMPDEST JUMPDEST SWAP1 PUSH1 0x0 MSTORE PUSH1 0x20 PUSH1 0x0 KECCAK256 SWAP1 PUSH1 0x2 MUL ADD PUSH1 0x40 MLOAD DUP1 PUSH1 0x40 ADD PUSH1 0x40 MSTORE SWAP1 DUP2 PUSH1 0x0 DUP3 ADD PUSH1 0x0 SWAP1 SLOAD SWAP1 PUSH2 0x100 EXP SWAP1 DIV PUSH20 0xFFFFFFFFFFFFFFFFFFFFFFFFFFFFFFFFFFFFFFFF AND PUSH20 0xFFFFFFFFFFFFFFFFFFFFFFFFFFFFFFFFFFFFFFFF AND PUSH20 0xFFFFFFFFFFFFFFFFFFFFFFFFFFFFFFFFFFFFFFFF AND DUP2 MSTORE PUSH1 0x20 ADD PUSH1 0x1 DUP3 ADD PUSH1 0x0 SWAP1 SLOAD SWAP1 PUSH2 0x100 EXP SWAP1 DIV PUSH20 0xFFFFFFFFFFFFFFFFFFFFFFFFFFFFFFFFFFFFFFFF AND PUSH20 0xFFFFFFFFFFFFFFFFFFFFFFFFFFFFFFFFFFFFFFFF AND PUSH20 0xFFFFFFFFFFFFFFFFFFFFFFFFFFFFFFFFFFFFFFFF AND DUP2 MSTORE POP POP SWAP1 POP DUP5 PUSH20 0xFFFFFFFFFFFFFFFFFFFFFFFFFFFFFFFFFFFFFFFF AND DUP2 PUSH1 0x0 ADD MLOAD PUSH20 0xFFFFFFFFFFFFFFFFFFFFFFFFFFFFFFFFFFFFFFFF AND SUB PUSH2 0x9FB JUMPI PUSH1 0x1 DUP4 PUSH2 0x9F8 SWAP2 SWAP1 PUSH2 0x2FA7 JUMP JUMPDEST SWAP3 POP JUMPDEST POP DUP1 DUP1 PUSH2 0xA07 SWAP1 PUSH2 0x2FDB JUMP JUMPDEST SWAP2 POP POP PUSH2 0x8CA JUMP JUMPDEST POP DUP1 SWAP2 POP POP SWAP2 SWAP1 POP JUMP JUMPDEST PUSH1 0x60 SWAP2 SWAP1 POP JUMP JUMPDEST PUSH1 0x0 PUSH1 0x40 MLOAD DUP1 PUSH1 0x40 ADD PUSH1 0x40 MSTORE DUP1 DUP5 PUSH20 0xFFFFFFFFFFFFFFFFFFFFFFFFFFFFFFFFFFFFFFFF AND DUP2 MSTORE PUSH1 0x20 ADD DUP4 PUSH20 0xFFFFFFFFFFFFFFFFFFFFFFFFFFFFFFFFFFFFFFFF AND DUP2 MSTORE POP SWAP1 POP PUSH1 0x2 DUP2 SWAP1 DUP1 PUSH1 0x1 DUP2 SLOAD ADD DUP1 DUP3 SSTORE DUP1 SWAP2 POP POP PUSH1 0x1 SWAP1 SUB SWAP1 PUSH1 0x0 MSTORE PUSH1 0x20 PUSH1 0x0 KECCAK256 SWAP1 PUSH1 0x2 MUL ADD PUSH1 0x0 SWAP1 SWAP2 SWAP1 SWAP2 SWAP1 SWAP2 POP PUSH1 0x0 DUP3 ADD MLOAD DUP2 PUSH1 0x0 ADD PUSH1 0x0 PUSH2 0x100 EXP DUP2 SLOAD DUP2 PUSH20 0xFFFFFFFFFFFFFFFFFFFFFFFFFFFFFFFFFFFFFFFF MUL NOT AND SWAP1 DUP4 PUSH20 0xFFFFFFFFFFFFFFFFFFFFFFFFFFFFFFFFFFFFFFFF AND MUL OR SWAP1 SSTORE POP PUSH1 0x20 DUP3 ADD MLOAD DUP2 PUSH1 0x1 ADD PUSH1 0x0 PUSH2 0x100 EXP DUP2 SLOAD DUP2 PUSH20 0xFFFFFFFFFFFFFFFFFFFFFFFFFFFFFFFFFFFFFFFF MUL NOT AND SWAP1 DUP4 PUSH20 0xFFFFFFFFFFFFFFFFFFFFFFFFFFFFFFFFFFFFFFFF AND MUL OR SWAP1 SSTORE POP POP POP POP POP POP JUMP JUMPDEST PUSH1 0x0 DUP1 PUSH1 0x0 SWAP1 POP PUSH1 0x0 JUMPDEST PUSH1 0x2 DUP1 SLOAD SWAP1 POP DUP2 LT ISZERO PUSH2 0xC75 JUMPI PUSH1 0x0 PUSH1 0x2 DUP3 DUP2 SLOAD DUP2 LT PUSH2 0xB53 JUMPI PUSH2 0xB52 PUSH2 0x2EE9 JUMP JUMPDEST JUMPDEST SWAP1 PUSH1 0x0 MSTORE PUSH1 0x20 PUSH1 0x0 KECCAK256 SWAP1 PUSH1 0x2 MUL ADD PUSH1 0x40 MLOAD DUP1 PUSH1 0x40 ADD PUSH1 0x40 MSTORE SWAP1 DUP2 PUSH1 0x0 DUP3 ADD PUSH1 0x0 SWAP1 SLOAD SWAP1 PUSH2 0x100 EXP SWAP1 DIV PUSH20 0xFFFFFFFFFFFFFFFFFFFFFFFFFFFFFFFFFFFFFFFF AND PUSH20 0xFFFFFFFFFFFFFFFFFFFFFFFFFFFFFFFFFFFFFFFF AND PUSH20 0xFFFFFFFFFFFFFFFFFFFFFFFFFFFFFFFFFFFFFFFF AND DUP2 MSTORE PUSH1 0x20 ADD PUSH1 0x1 DUP3 ADD PUSH1 0x0 SWAP1 SLOAD SWAP1 PUSH2 0x100 EXP SWAP1 DIV PUSH20 0xFFFFFFFFFFFFFFFFFFFFFFFFFFFFFFFFFFFFFFFF AND PUSH20 0xFFFFFFFFFFFFFFFFFFFFFFFFFFFFFFFFFFFFFFFF AND PUSH20 0xFFFFFFFFFFFFFFFFFFFFFFFFFFFFFFFFFFFFFFFF AND DUP2 MSTORE POP POP SWAP1 POP DUP5 PUSH20 0xFFFFFFFFFFFFFFFFFFFFFFFFFFFFFFFFFFFFFFFF AND DUP2 PUSH1 0x20 ADD MLOAD PUSH20 0xFFFFFFFFFFFFFFFFFFFFFFFFFFFFFFFFFFFFFFFF AND SUB PUSH2 0xC61 JUMPI PUSH1 0x1 DUP4 PUSH2 0xC5E SWAP2 SWAP1 PUSH2 0x2FA7 JUMP JUMPDEST SWAP3 POP JUMPDEST POP DUP1 DUP1 PUSH2 0xC6D SWAP1 PUSH2 0x2FDB JUMP JUMPDEST SWAP2 POP POP PUSH2 0xB30 JUMP JUMPDEST POP DUP1 SWAP2 POP POP SWAP2 SWAP1 POP JUMP JUMPDEST PUSH1 0x60 PUSH1 0x0 PUSH2 0xC8C DUP4 PUSH2 0x767 JUMP JUMPDEST SWAP1 POP PUSH1 0x0 DUP1 DUP3 PUSH8 0xFFFFFFFFFFFFFFFF DUP2 GT ISZERO PUSH2 0xCAB JUMPI PUSH2 0xCAA PUSH2 0x2620 JUMP JUMPDEST JUMPDEST PUSH1 0x40 MLOAD SWAP1 DUP1 DUP3 MSTORE DUP1 PUSH1 0x20 MUL PUSH1 0x20 ADD DUP3 ADD PUSH1 0x40 MSTORE DUP1 ISZERO PUSH2 0xCD9 JUMPI DUP2 PUSH1 0x20 ADD PUSH1 0x20 DUP3 MUL DUP1 CALLDATASIZE DUP4 CALLDATACOPY DUP1 DUP3 ADD SWAP2 POP POP SWAP1 POP JUMPDEST POP SWAP1 POP PUSH1 0x0 JUMPDEST PUSH1 0x5 DUP1 SLOAD SWAP1 POP DUP2 LT ISZERO PUSH2 0xE76 JUMPI PUSH1 0x0 PUSH1 0x5 DUP3 DUP2 SLOAD DUP2 LT PUSH2 0xD02 JUMPI PUSH2 0xD01 PUSH2 0x2EE9 JUMP JUMPDEST JUMPDEST SWAP1 PUSH1 0x0 MSTORE PUSH1 0x20 PUSH1 0x0 KECCAK256 SWAP1 PUSH1 0x2 MUL ADD PUSH1 0x40 MLOAD DUP1 PUSH1 0x40 ADD PUSH1 0x40 MSTORE SWAP1 DUP2 PUSH1 0x0 DUP3 ADD PUSH1 0x0 SWAP1 SLOAD SWAP1 PUSH2 0x100 EXP SWAP1 DIV PUSH20 0xFFFFFFFFFFFFFFFFFFFFFFFFFFFFFFFFFFFFFFFF AND PUSH20 0xFFFFFFFFFFFFFFFFFFFFFFFFFFFFFFFFFFFFFFFF AND PUSH20 0xFFFFFFFFFFFFFFFFFFFFFFFFFFFFFFFFFFFFFFFF AND DUP2 MSTORE PUSH1 0x20 ADD PUSH1 0x1 DUP3 ADD PUSH1 0x0 SWAP1 SLOAD SWAP1 PUSH2 0x100 EXP SWAP1 DIV PUSH20 0xFFFFFFFFFFFFFFFFFFFFFFFFFFFFFFFFFFFFFFFF AND PUSH20 0xFFFFFFFFFFFFFFFFFFFFFFFFFFFFFFFFFFFFFFFF AND PUSH20 0xFFFFFFFFFFFFFFFFFFFFFFFFFFFFFFFFFFFFFFFF AND DUP2 MSTORE POP POP SWAP1 POP DUP7 PUSH20 0xFFFFFFFFFFFFFFFFFFFFFFFFFFFFFFFFFFFFFFFF AND DUP2 PUSH1 0x0 ADD MLOAD PUSH20 0xFFFFFFFFFFFFFFFFFFFFFFFFFFFFFFFFFFFFFFFF AND SUB PUSH2 0xE62 JUMPI DUP1 PUSH1 0x20 ADD MLOAD DUP4 DUP6 DUP2 MLOAD DUP2 LT PUSH2 0xE18 JUMPI PUSH2 0xE17 PUSH2 0x2EE9 JUMP JUMPDEST JUMPDEST PUSH1 0x20 MUL PUSH1 0x20 ADD ADD SWAP1 PUSH20 0xFFFFFFFFFFFFFFFFFFFFFFFFFFFFFFFFFFFFFFFF AND SWAP1 DUP2 PUSH20 0xFFFFFFFFFFFFFFFFFFFFFFFFFFFFFFFFFFFFFFFF AND DUP2 MSTORE POP POP PUSH1 0x1 DUP5 PUSH2 0xE5F SWAP2 SWAP1 PUSH2 0x2FA7 JUMP JUMPDEST SWAP4 POP JUMPDEST POP DUP1 DUP1 PUSH2 0xE6E SWAP1 PUSH2 0x2FDB JUMP JUMPDEST SWAP2 POP POP PUSH2 0xCDF JUMP JUMPDEST POP PUSH1 0x0 JUMPDEST PUSH1 0x5 DUP1 SLOAD SWAP1 POP DUP2 LT ISZERO PUSH2 0x1023 JUMPI PUSH1 0x0 PUSH1 0x5 DUP3 DUP2 SLOAD DUP2 LT PUSH2 0xE9D JUMPI PUSH2 0xE9C PUSH2 0x2EE9 JUMP JUMPDEST JUMPDEST SWAP1 PUSH1 0x0 MSTORE PUSH1 0x20 PUSH1 0x0 KECCAK256 SWAP1 PUSH1 0x2 MUL ADD PUSH1 0x40 MLOAD DUP1 PUSH1 0x40 ADD PUSH1 0x40 MSTORE SWAP1 DUP2 PUSH1 0x0 DUP3 ADD PUSH1 0x0 SWAP1 SLOAD SWAP1 PUSH2 0x100 EXP SWAP1 DIV PUSH20 0xFFFFFFFFFFFFFFFFFFFFFFFFFFFFFFFFFFFFFFFF AND PUSH20 0xFFFFFFFFFFFFFFFFFFFFFFFFFFFFFFFFFFFFFFFF AND PUSH20 0xFFFFFFFFFFFFFFFFFFFFFFFFFFFFFFFFFFFFFFFF AND DUP2 MSTORE PUSH1 0x20 ADD PUSH1 0x1 DUP3 ADD PUSH1 0x0 SWAP1 SLOAD SWAP1 PUSH2 0x100 EXP SWAP1 DIV PUSH20 0xFFFFFFFFFFFFFFFFFFFFFFFFFFFFFFFFFFFFFFFF AND PUSH20 0xFFFFFFFFFFFFFFFFFFFFFFFFFFFFFFFFFFFFFFFF AND PUSH20 0xFFFFFFFFFFFFFFFFFFFFFFFFFFFFFFFFFFFFFFFF AND DUP2 MSTORE POP POP SWAP1 POP DUP7 PUSH20 0xFFFFFFFFFFFFFFFFFFFFFFFFFFFFFFFFFFFFFFFF AND DUP2 PUSH1 0x0 ADD MLOAD PUSH20 0xFFFFFFFFFFFFFFFFFFFFFFFFFFFFFFFFFFFFFFFF AND SUB PUSH2 0x100F JUMPI PUSH1 0x5 DUP3 DUP2 SLOAD DUP2 LT PUSH2 0xFAF JUMPI PUSH2 0xFAE PUSH2 0x2EE9 JUMP JUMPDEST JUMPDEST SWAP1 PUSH1 0x0 MSTORE PUSH1 0x20 PUSH1 0x0 KECCAK256 SWAP1 PUSH1 0x2 MUL ADD PUSH1 0x0 DUP1 DUP3 ADD PUSH1 0x0 PUSH2 0x100 EXP DUP2 SLOAD SWAP1 PUSH20 0xFFFFFFFFFFFFFFFFFFFFFFFFFFFFFFFFFFFFFFFF MUL NOT AND SWAP1 SSTORE PUSH1 0x1 DUP3 ADD PUSH1 0x0 PUSH2 0x100 EXP DUP2 SLOAD SWAP1 PUSH20 0xFFFFFFFFFFFFFFFFFFFFFFFFFFFFFFFFFFFFFFFF MUL NOT AND SWAP1 SSTORE POP POP JUMPDEST POP DUP1 DUP1 PUSH2 0x101B SWAP1 PUSH2 0x2FDB JUMP JUMPDEST SWAP2 POP POP PUSH2 0xE7A JUMP JUMPDEST POP DUP1 SWAP4 POP POP POP POP SWAP2 SWAP1 POP JUMP JUMPDEST PUSH2 0x1038 DUP4 PUSH2 0x6DE JUMP JUMPDEST ISZERO PUSH2 0x1078 JUMPI PUSH1 0x40 MLOAD PUSH32 0x8C379A000000000000000000000000000000000000000000000000000000000 DUP2 MSTORE PUSH1 0x4 ADD PUSH2 0x106F SWAP1 PUSH2 0x30C2 JUMP JUMPDEST PUSH1 0x40 MLOAD DUP1 SWAP2 SUB SWAP1 REVERT JUMPDEST DUP1 PUSH1 0x0 DUP1 DUP5 PUSH20 0xFFFFFFFFFFFFFFFFFFFFFFFFFFFFFFFFFFFFFFFF AND PUSH20 0xFFFFFFFFFFFFFFFFFFFFFFFFFFFFFFFFFFFFFFFF AND DUP2 MSTORE PUSH1 0x20 ADD SWAP1 DUP2 MSTORE PUSH1 0x20 ADD PUSH1 0x0 KECCAK256 PUSH1 0x0 PUSH2 0x100 EXP DUP2 SLOAD DUP2 PUSH20 0xFFFFFFFFFFFFFFFFFFFFFFFFFFFFFFFFFFFFFFFF MUL NOT AND SWAP1 DUP4 PUSH20 0xFFFFFFFFFFFFFFFFFFFFFFFFFFFFFFFFFFFFFFFF AND MUL OR SWAP1 SSTORE POP PUSH1 0x0 PUSH1 0x40 MLOAD DUP1 PUSH1 0x40 ADD PUSH1 0x40 MSTORE DUP1 DUP5 PUSH20 0xFFFFFFFFFFFFFFFFFFFFFFFFFFFFFFFFFFFFFFFF AND DUP2 MSTORE PUSH1 0x20 ADD DUP4 PUSH20 0xFFFFFFFFFFFFFFFFFFFFFFFFFFFFFFFFFFFFFFFF AND DUP2 MSTORE POP SWAP1 POP DUP1 PUSH1 0x1 DUP6 PUSH1 0x40 MLOAD PUSH2 0x114B SWAP2 SWAP1 PUSH2 0x305F JUMP JUMPDEST SWAP1 DUP2 MSTORE PUSH1 0x20 ADD PUSH1 0x40 MLOAD DUP1 SWAP2 SUB SWAP1 KECCAK256 PUSH1 0x0 DUP3 ADD MLOAD DUP2 PUSH1 0x0 ADD PUSH1 0x0 PUSH2 0x100 EXP DUP2 SLOAD DUP2 PUSH20 0xFFFFFFFFFFFFFFFFFFFFFFFFFFFFFFFFFFFFFFFF MUL NOT AND SWAP1 DUP4 PUSH20 0xFFFFFFFFFFFFFFFFFFFFFFFFFFFFFFFFFFFFFFFF AND MUL OR SWAP1 SSTORE POP PUSH1 0x20 DUP3 ADD MLOAD DUP2 PUSH1 0x1 ADD PUSH1 0x0 PUSH2 0x100 EXP DUP2 SLOAD DUP2 PUSH20 0xFFFFFFFFFFFFFFFFFFFFFFFFFFFFFFFFFFFFFFFF MUL NOT AND SWAP1 DUP4 PUSH20 0xFFFFFFFFFFFFFFFFFFFFFFFFFFFFFFFFFFFFFFFF AND MUL OR SWAP1 SSTORE POP SWAP1 POP POP POP POP POP POP JUMP JUMPDEST PUSH1 0x0 JUMPDEST PUSH1 0x3 DUP1 SLOAD SWAP1 POP DUP2 LT ISZERO PUSH2 0x1429 JUMPI PUSH1 0x0 PUSH1 0x3 DUP3 DUP2 SLOAD DUP2 LT PUSH2 0x1216 JUMPI PUSH2 0x1215 PUSH2 0x2EE9 JUMP JUMPDEST JUMPDEST SWAP1 PUSH1 0x0 MSTORE PUSH1 0x20 PUSH1 0x0 KECCAK256 SWAP1 PUSH1 0x3 MUL ADD PUSH1 0x40 MLOAD DUP1 PUSH1 0x60 ADD PUSH1 0x40 MSTORE SWAP1 DUP2 PUSH1 0x0 DUP3 ADD PUSH1 0x0 SWAP1 SLOAD SWAP1 PUSH2 0x100 EXP SWAP1 DIV PUSH20 0xFFFFFFFFFFFFFFFFFFFFFFFFFFFFFFFFFFFFFFFF AND PUSH20 0xFFFFFFFFFFFFFFFFFFFFFFFFFFFFFFFFFFFFFFFF AND PUSH20 0xFFFFFFFFFFFFFFFFFFFFFFFFFFFFFFFFFFFFFFFF AND DUP2 MSTORE PUSH1 0x20 ADD PUSH1 0x1 DUP3 ADD DUP1 SLOAD PUSH2 0x1295 SWAP1 PUSH2 0x2F47 JUMP JUMPDEST DUP1 PUSH1 0x1F ADD PUSH1 0x20 DUP1 SWAP2 DIV MUL PUSH1 0x20 ADD PUSH1 0x40 MLOAD SWAP1 DUP2 ADD PUSH1 0x40 MSTORE DUP1 SWAP3 SWAP2 SWAP1 DUP2 DUP2 MSTORE PUSH1 0x20 ADD DUP3 DUP1 SLOAD PUSH2 0x12C1 SWAP1 PUSH2 0x2F47 JUMP JUMPDEST DUP1 ISZERO PUSH2 0x130E JUMPI DUP1 PUSH1 0x1F LT PUSH2 0x12E3 JUMPI PUSH2 0x100 DUP1 DUP4 SLOAD DIV MUL DUP4 MSTORE SWAP2 PUSH1 0x20 ADD SWAP2 PUSH2 0x130E JUMP JUMPDEST DUP3 ADD SWAP2 SWAP1 PUSH1 0x0 MSTORE PUSH1 0x20 PUSH1 0x0 KECCAK256 SWAP1 JUMPDEST DUP2 SLOAD DUP2 MSTORE SWAP1 PUSH1 0x1 ADD SWAP1 PUSH1 0x20 ADD DUP1 DUP4 GT PUSH2 0x12F1 JUMPI DUP3 SWAP1 SUB PUSH1 0x1F AND DUP3 ADD SWAP2 JUMPDEST POP POP POP POP POP DUP2 MSTORE PUSH1 0x20 ADD PUSH1 0x2 DUP3 ADD PUSH1 0x0 SWAP1 SLOAD SWAP1 PUSH2 0x100 EXP SWAP1 DIV PUSH20 0xFFFFFFFFFFFFFFFFFFFFFFFFFFFFFFFFFFFFFFFF AND PUSH20 0xFFFFFFFFFFFFFFFFFFFFFFFFFFFFFFFFFFFFFFFF AND PUSH20 0xFFFFFFFFFFFFFFFFFFFFFFFFFFFFFFFFFFFFFFFF AND DUP2 MSTORE POP POP SWAP1 POP DUP4 PUSH20 0xFFFFFFFFFFFFFFFFFFFFFFFFFFFFFFFFFFFFFFFF AND DUP2 PUSH1 0x40 ADD MLOAD PUSH20 0xFFFFFFFFFFFFFFFFFFFFFFFFFFFFFFFFFFFFFFFF AND SUB PUSH2 0x1415 JUMPI PUSH1 0x0 DUP2 PUSH1 0x0 ADD MLOAD SWAP1 POP PUSH1 0x0 DUP1 PUSH1 0x0 DUP4 PUSH20 0xFFFFFFFFFFFFFFFFFFFFFFFFFFFFFFFFFFFFFFFF AND PUSH20 0xFFFFFFFFFFFFFFFFFFFFFFFFFFFFFFFFFFFFFFFF AND DUP2 MSTORE PUSH1 0x20 ADD SWAP1 DUP2 MSTORE PUSH1 0x20 ADD PUSH1 0x0 KECCAK256 PUSH1 0x0 SWAP1 SLOAD SWAP1 PUSH2 0x100 EXP SWAP1 DIV PUSH20 0xFFFFFFFFFFFFFFFFFFFFFFFFFFFFFFFFFFFFFFFF AND SWAP1 POP POP POP JUMPDEST POP DUP1 DUP1 PUSH2 0x1421 SWAP1 PUSH2 0x2FDB JUMP JUMPDEST SWAP2 POP POP PUSH2 0x11F3 JUMP JUMPDEST POP POP POP JUMP JUMPDEST PUSH2 0x1436 PUSH2 0x2553 JUMP JUMPDEST PUSH1 0x0 PUSH1 0x1 DUP4 PUSH1 0x40 MLOAD PUSH2 0x1448 SWAP2 SWAP1 PUSH2 0x305F JUMP JUMPDEST SWAP1 DUP2 MSTORE PUSH1 0x20 ADD PUSH1 0x40 MLOAD DUP1 SWAP2 SUB SWAP1 KECCAK256 PUSH1 0x40 MLOAD DUP1 PUSH1 0x40 ADD PUSH1 0x40 MSTORE SWAP1 DUP2 PUSH1 0x0 DUP3 ADD PUSH1 0x0 SWAP1 SLOAD SWAP1 PUSH2 0x100 EXP SWAP1 DIV PUSH20 0xFFFFFFFFFFFFFFFFFFFFFFFFFFFFFFFFFFFFFFFF AND PUSH20 0xFFFFFFFFFFFFFFFFFFFFFFFFFFFFFFFFFFFFFFFF AND PUSH20 0xFFFFFFFFFFFFFFFFFFFFFFFFFFFFFFFFFFFFFFFF AND DUP2 MSTORE PUSH1 0x20 ADD PUSH1 0x1 DUP3 ADD PUSH1 0x0 SWAP1 SLOAD SWAP1 PUSH2 0x100 EXP SWAP1 DIV PUSH20 0xFFFFFFFFFFFFFFFFFFFFFFFFFFFFFFFFFFFFFFFF AND PUSH20 0xFFFFFFFFFFFFFFFFFFFFFFFFFFFFFFFFFFFFFFFF AND PUSH20 0xFFFFFFFFFFFFFFFFFFFFFFFFFFFFFFFFFFFFFFFF AND DUP2 MSTORE POP POP SWAP1 POP DUP1 SWAP2 POP POP SWAP2 SWAP1 POP JUMP JUMPDEST PUSH1 0x60 SWAP3 SWAP2 POP POP JUMP JUMPDEST PUSH1 0x60 PUSH1 0x0 PUSH2 0x152D DUP4 PUSH2 0xB26 JUMP JUMPDEST SWAP1 POP PUSH1 0x0 DUP1 DUP3 PUSH8 0xFFFFFFFFFFFFFFFF DUP2 GT ISZERO PUSH2 0x154C JUMPI PUSH2 0x154B PUSH2 0x2620 JUMP JUMPDEST JUMPDEST PUSH1 0x40 MLOAD SWAP1 DUP1 DUP3 MSTORE DUP1 PUSH1 0x20 MUL PUSH1 0x20 ADD DUP3 ADD PUSH1 0x40 MSTORE DUP1 ISZERO PUSH2 0x157A JUMPI DUP2 PUSH1 0x20 ADD PUSH1 0x20 DUP3 MUL DUP1 CALLDATASIZE DUP4 CALLDATACOPY DUP1 DUP3 ADD SWAP2 POP POP SWAP1 POP JUMPDEST POP SWAP1 POP PUSH1 0x0 JUMPDEST PUSH1 0x2 DUP1 SLOAD SWAP1 POP DUP2 LT ISZERO PUSH2 0x1717 JUMPI PUSH1 0x0 PUSH1 0x2 DUP3 DUP2 SLOAD DUP2 LT PUSH2 0x15A3 JUMPI PUSH2 0x15A2 PUSH2 0x2EE9 JUMP JUMPDEST JUMPDEST SWAP1 PUSH1 0x0 MSTORE PUSH1 0x20 PUSH1 0x0 KECCAK256 SWAP1 PUSH1 0x2 MUL ADD PUSH1 0x40 MLOAD DUP1 PUSH1 0x40 ADD PUSH1 0x40 MSTORE SWAP1 DUP2 PUSH1 0x0 DUP3 ADD PUSH1 0x0 SWAP1 SLOAD SWAP1 PUSH2 0x100 EXP SWAP1 DIV PUSH20 0xFFFFFFFFFFFFFFFFFFFFFFFFFFFFFFFFFFFFFFFF AND PUSH20 0xFFFFFFFFFFFFFFFFFFFFFFFFFFFFFFFFFFFFFFFF AND PUSH20 0xFFFFFFFFFFFFFFFFFFFFFFFFFFFFFFFFFFFFFFFF AND DUP2 MSTORE PUSH1 0x20 ADD PUSH1 0x1 DUP3 ADD PUSH1 0x0 SWAP1 SLOAD SWAP1 PUSH2 0x100 EXP SWAP1 DIV PUSH20 0xFFFFFFFFFFFFFFFFFFFFFFFFFFFFFFFFFFFFFFFF AND PUSH20 0xFFFFFFFFFFFFFFFFFFFFFFFFFFFFFFFFFFFFFFFF AND PUSH20 0xFFFFFFFFFFFFFFFFFFFFFFFFFFFFFFFFFFFFFFFF AND DUP2 MSTORE POP POP SWAP1 POP DUP7 PUSH20 0xFFFFFFFFFFFFFFFFFFFFFFFFFFFFFFFFFFFFFFFF AND DUP2 PUSH1 0x20 ADD MLOAD PUSH20 0xFFFFFFFFFFFFFFFFFFFFFFFFFFFFFFFFFFFFFFFF AND SUB PUSH2 0x1703 JUMPI DUP1 PUSH1 0x0 ADD MLOAD DUP4 DUP6 DUP2 MLOAD DUP2 LT PUSH2 0x16B9 JUMPI PUSH2 0x16B8 PUSH2 0x2EE9 JUMP JUMPDEST JUMPDEST PUSH1 0x20 MUL PUSH1 0x20 ADD ADD SWAP1 PUSH20 0xFFFFFFFFFFFFFFFFFFFFFFFFFFFFFFFFFFFFFFFF AND SWAP1 DUP2 PUSH20 0xFFFFFFFFFFFFFFFFFFFFFFFFFFFFFFFFFFFFFFFF AND DUP2 MSTORE POP POP PUSH1 0x1 DUP5 PUSH2 0x1700 SWAP2 SWAP1 PUSH2 0x2FA7 JUMP JUMPDEST SWAP4 POP JUMPDEST POP DUP1 DUP1 PUSH2 0x170F SWAP1 PUSH2 0x2FDB JUMP JUMPDEST SWAP2 POP POP PUSH2 0x1580 JUMP JUMPDEST POP DUP1 SWAP4 POP POP POP POP SWAP2 SWAP1 POP JUMP JUMPDEST PUSH1 0x0 JUMPDEST PUSH1 0x3 DUP1 SLOAD SWAP1 POP DUP2 LT ISZERO PUSH2 0x19AD JUMPI PUSH1 0x0 PUSH1 0x3 DUP3 DUP2 SLOAD DUP2 LT PUSH2 0x1749 JUMPI PUSH2 0x1748 PUSH2 0x2EE9 JUMP JUMPDEST JUMPDEST SWAP1 PUSH1 0x0 MSTORE PUSH1 0x20 PUSH1 0x0 KECCAK256 SWAP1 PUSH1 0x3 MUL ADD PUSH1 0x40 MLOAD DUP1 PUSH1 0x60 ADD PUSH1 0x40 MSTORE SWAP1 DUP2 PUSH1 0x0 DUP3 ADD PUSH1 0x0 SWAP1 SLOAD SWAP1 PUSH2 0x100 EXP SWAP1 DIV PUSH20 0xFFFFFFFFFFFFFFFFFFFFFFFFFFFFFFFFFFFFFFFF AND PUSH20 0xFFFFFFFFFFFFFFFFFFFFFFFFFFFFFFFFFFFFFFFF AND PUSH20 0xFFFFFFFFFFFFFFFFFFFFFFFFFFFFFFFFFFFFFFFF AND DUP2 MSTORE PUSH1 0x20 ADD PUSH1 0x1 DUP3 ADD DUP1 SLOAD PUSH2 0x17C8 SWAP1 PUSH2 0x2F47 JUMP JUMPDEST DUP1 PUSH1 0x1F ADD PUSH1 0x20 DUP1 SWAP2 DIV MUL PUSH1 0x20 ADD PUSH1 0x40 MLOAD SWAP1 DUP2 ADD PUSH1 0x40 MSTORE DUP1 SWAP3 SWAP2 SWAP1 DUP2 DUP2 MSTORE PUSH1 0x20 ADD DUP3 DUP1 SLOAD PUSH2 0x17F4 SWAP1 PUSH2 0x2F47 JUMP JUMPDEST DUP1 ISZERO PUSH2 0x1841 JUMPI DUP1 PUSH1 0x1F LT PUSH2 0x1816 JUMPI PUSH2 0x100 DUP1 DUP4 SLOAD DIV MUL DUP4 MSTORE SWAP2 PUSH1 0x20 ADD SWAP2 PUSH2 0x1841 JUMP JUMPDEST DUP3 ADD SWAP2 SWAP1 PUSH1 0x0 MSTORE PUSH1 0x20 PUSH1 0x0 KECCAK256 SWAP1 JUMPDEST DUP2 SLOAD DUP2 MSTORE SWAP1 PUSH1 0x1 ADD SWAP1 PUSH1 0x20 ADD DUP1 DUP4 GT PUSH2 0x1824 JUMPI DUP3 SWAP1 SUB PUSH1 0x1F AND DUP3 ADD SWAP2 JUMPDEST POP POP POP POP POP DUP2 MSTORE PUSH1 0x20 ADD PUSH1 0x2 DUP3 ADD PUSH1 0x0 SWAP1 SLOAD SWAP1 PUSH2 0x100 EXP SWAP1 DIV PUSH20 0xFFFFFFFFFFFFFFFFFFFFFFFFFFFFFFFFFFFFFFFF AND PUSH20 0xFFFFFFFFFFFFFFFFFFFFFFFFFFFFFFFFFFFFFFFF AND PUSH20 0xFFFFFFFFFFFFFFFFFFFFFFFFFFFFFFFFFFFFFFFF AND DUP2 MSTORE POP POP SWAP1 POP DUP4 PUSH20 0xFFFFFFFFFFFFFFFFFFFFFFFFFFFFFFFFFFFFFFFF AND DUP2 PUSH1 0x0 ADD MLOAD PUSH20 0xFFFFFFFFFFFFFFFFFFFFFFFFFFFFFFFFFFFFFFFF AND EQ DUP1 ISZERO PUSH2 0x1910 JUMPI POP DUP3 PUSH20 0xFFFFFFFFFFFFFFFFFFFFFFFFFFFFFFFFFFFFFFFF AND DUP2 PUSH1 0x40 ADD MLOAD PUSH20 0xFFFFFFFFFFFFFFFFFFFFFFFFFFFFFFFFFFFFFFFF AND EQ JUMPDEST ISZERO PUSH2 0x1999 JUMPI PUSH1 0x3 DUP3 DUP2 SLOAD DUP2 LT PUSH2 0x1929 JUMPI PUSH2 0x1928 PUSH2 0x2EE9 JUMP JUMPDEST JUMPDEST SWAP1 PUSH1 0x0 MSTORE PUSH1 0x20 PUSH1 0x0 KECCAK256 SWAP1 PUSH1 0x3 MUL ADD PUSH1 0x0 DUP1 DUP3 ADD PUSH1 0x0 PUSH2 0x100 EXP DUP2 SLOAD SWAP1 PUSH20 0xFFFFFFFFFFFFFFFFFFFFFFFFFFFFFFFFFFFFFFFF MUL NOT AND SWAP1 SSTORE PUSH1 0x1 DUP3 ADD PUSH1 0x0 PUSH2 0x196F SWAP2 SWAP1 PUSH2 0x2599 JUMP JUMPDEST PUSH1 0x2 DUP3 ADD PUSH1 0x0 PUSH2 0x100 EXP DUP2 SLOAD SWAP1 PUSH20 0xFFFFFFFFFFFFFFFFFFFFFFFFFFFFFFFFFFFFFFFF MUL NOT AND SWAP1 SSTORE POP POP JUMPDEST POP DUP1 DUP1 PUSH2 0x19A5 SWAP1 PUSH2 0x2FDB JUMP JUMPDEST SWAP2 POP POP PUSH2 0x1726 JUMP JUMPDEST POP POP POP JUMP JUMPDEST PUSH1 0x0 DUP1 PUSH1 0x0 DUP4 PUSH20 0xFFFFFFFFFFFFFFFFFFFFFFFFFFFFFFFFFFFFFFFF AND PUSH20 0xFFFFFFFFFFFFFFFFFFFFFFFFFFFFFFFFFFFFFFFF AND DUP2 MSTORE PUSH1 0x20 ADD SWAP1 DUP2 MSTORE PUSH1 0x20 ADD PUSH1 0x0 KECCAK256 PUSH1 0x0 SWAP1 SLOAD SWAP1 PUSH2 0x100 EXP SWAP1 DIV PUSH20 0xFFFFFFFFFFFFFFFFFFFFFFFFFFFFFFFFFFFFFFFF AND SWAP1 POP SWAP2 SWAP1 POP JUMP JUMPDEST PUSH1 0x0 JUMPDEST PUSH1 0x2 DUP1 SLOAD SWAP1 POP DUP2 LT ISZERO PUSH2 0x1D1C JUMPI PUSH1 0x0 PUSH1 0x2 DUP3 DUP2 SLOAD DUP2 LT PUSH2 0x1A40 JUMPI PUSH2 0x1A3F PUSH2 0x2EE9 JUMP JUMPDEST JUMPDEST SWAP1 PUSH1 0x0 MSTORE PUSH1 0x20 PUSH1 0x0 KECCAK256 SWAP1 PUSH1 0x2 MUL ADD PUSH1 0x40 MLOAD DUP1 PUSH1 0x40 ADD PUSH1 0x40 MSTORE SWAP1 DUP2 PUSH1 0x0 DUP3 ADD PUSH1 0x0 SWAP1 SLOAD SWAP1 PUSH2 0x100 EXP SWAP1 DIV PUSH20 0xFFFFFFFFFFFFFFFFFFFFFFFFFFFFFFFFFFFFFFFF AND PUSH20 0xFFFFFFFFFFFFFFFFFFFFFFFFFFFFFFFFFFFFFFFF AND PUSH20 0xFFFFFFFFFFFFFFFFFFFFFFFFFFFFFFFFFFFFFFFF AND DUP2 MSTORE PUSH1 0x20 ADD PUSH1 0x1 DUP3 ADD PUSH1 0x0 SWAP1 SLOAD SWAP1 PUSH2 0x100 EXP SWAP1 DIV PUSH20 0xFFFFFFFFFFFFFFFFFFFFFFFFFFFFFFFFFFFFFFFF AND PUSH20 0xFFFFFFFFFFFFFFFFFFFFFFFFFFFFFFFFFFFFFFFF AND PUSH20 0xFFFFFFFFFFFFFFFFFFFFFFFFFFFFFFFFFFFFFFFF AND DUP2 MSTORE POP POP SWAP1 POP DUP5 PUSH20 0xFFFFFFFFFFFFFFFFFFFFFFFFFFFFFFFFFFFFFFFF AND DUP2 PUSH1 0x20 ADD MLOAD PUSH20 0xFFFFFFFFFFFFFFFFFFFFFFFFFFFFFFFFFFFFFFFF AND EQ DUP1 ISZERO PUSH2 0x1B75 JUMPI POP DUP4 PUSH20 0xFFFFFFFFFFFFFFFFFFFFFFFFFFFFFFFFFFFFFFFF AND DUP2 PUSH1 0x0 ADD MLOAD PUSH20 0xFFFFFFFFFFFFFFFFFFFFFFFFFFFFFFFFFFFFFFFF AND EQ JUMPDEST ISZERO PUSH2 0x1D08 JUMPI PUSH2 0x1B83 DUP3 PUSH2 0x23AC JUMP JUMPDEST DUP3 ISZERO PUSH2 0x1C4A JUMPI PUSH1 0x4 DUP2 SWAP1 DUP1 PUSH1 0x1 DUP2 SLOAD ADD DUP1 DUP3 SSTORE DUP1 SWAP2 POP POP PUSH1 0x1 SWAP1 SUB SWAP1 PUSH1 0x0 MSTORE PUSH1 0x20 PUSH1 0x0 KECCAK256 SWAP1 PUSH1 0x2 MUL ADD PUSH1 0x0 SWAP1 SWAP2 SWAP1 SWAP2 SWAP1 SWAP2 POP PUSH1 0x0 DUP3 ADD MLOAD DUP2 PUSH1 0x0 ADD PUSH1 0x0 PUSH2 0x100 EXP DUP2 SLOAD DUP2 PUSH20 0xFFFFFFFFFFFFFFFFFFFFFFFFFFFFFFFFFFFFFFFF MUL NOT AND SWAP1 DUP4 PUSH20 0xFFFFFFFFFFFFFFFFFFFFFFFFFFFFFFFFFFFFFFFF AND MUL OR SWAP1 SSTORE POP PUSH1 0x20 DUP3 ADD MLOAD DUP2 PUSH1 0x1 ADD PUSH1 0x0 PUSH2 0x100 EXP DUP2 SLOAD DUP2 PUSH20 0xFFFFFFFFFFFFFFFFFFFFFFFFFFFFFFFFFFFFFFFF MUL NOT AND SWAP1 DUP4 PUSH20 0xFFFFFFFFFFFFFFFFFFFFFFFFFFFFFFFFFFFFFFFF AND MUL OR SWAP1 SSTORE POP POP POP PUSH2 0x1D07 JUMP JUMPDEST PUSH1 0x5 DUP2 SWAP1 DUP1 PUSH1 0x1 DUP2 SLOAD ADD DUP1 DUP3 SSTORE DUP1 SWAP2 POP POP PUSH1 0x1 SWAP1 SUB SWAP1 PUSH1 0x0 MSTORE PUSH1 0x20 PUSH1 0x0 KECCAK256 SWAP1 PUSH1 0x2 MUL ADD PUSH1 0x0 SWAP1 SWAP2 SWAP1 SWAP2 SWAP1 SWAP2 POP PUSH1 0x0 DUP3 ADD MLOAD DUP2 PUSH1 0x0 ADD PUSH1 0x0 PUSH2 0x100 EXP DUP2 SLOAD DUP2 PUSH20 0xFFFFFFFFFFFFFFFFFFFFFFFFFFFFFFFFFFFFFFFF MUL NOT AND SWAP1 DUP4 PUSH20 0xFFFFFFFFFFFFFFFFFFFFFFFFFFFFFFFFFFFFFFFF AND MUL OR SWAP1 SSTORE POP PUSH1 0x20 DUP3 ADD MLOAD DUP2 PUSH1 0x1 ADD PUSH1 0x0 PUSH2 0x100 EXP DUP2 SLOAD DUP2 PUSH20 0xFFFFFFFFFFFFFFFFFFFFFFFFFFFFFFFFFFFFFFFF MUL NOT AND SWAP1 DUP4 PUSH20 0xFFFFFFFFFFFFFFFFFFFFFFFFFFFFFFFFFFFFFFFF AND MUL OR SWAP1 SSTORE POP POP POP JUMPDEST JUMPDEST POP DUP1 DUP1 PUSH2 0x1D14 SWAP1 PUSH2 0x2FDB JUMP JUMPDEST SWAP2 POP POP PUSH2 0x1A1D JUMP JUMPDEST POP POP POP POP JUMP JUMPDEST PUSH1 0x60 PUSH1 0x0 PUSH2 0x1D2F DUP4 PUSH2 0x4B3 JUMP JUMPDEST SWAP1 POP PUSH1 0x0 DUP1 DUP3 PUSH8 0xFFFFFFFFFFFFFFFF DUP2 GT ISZERO PUSH2 0x1D4E JUMPI PUSH2 0x1D4D PUSH2 0x2620 JUMP JUMPDEST JUMPDEST PUSH1 0x40 MLOAD SWAP1 DUP1 DUP3 MSTORE DUP1 PUSH1 0x20 MUL PUSH1 0x20 ADD DUP3 ADD PUSH1 0x40 MSTORE DUP1 ISZERO PUSH2 0x1D7C JUMPI DUP2 PUSH1 0x20 ADD PUSH1 0x20 DUP3 MUL DUP1 CALLDATASIZE DUP4 CALLDATACOPY DUP1 DUP3 ADD SWAP2 POP POP SWAP1 POP JUMPDEST POP SWAP1 POP PUSH1 0x0 JUMPDEST DUP6 MLOAD DUP2 LT ISZERO PUSH2 0x1FE7 JUMPI PUSH1 0x0 DUP7 DUP3 DUP2 MLOAD DUP2 LT PUSH2 0x1DA0 JUMPI PUSH2 0x1D9F PUSH2 0x2EE9 JUMP JUMPDEST JUMPDEST PUSH1 0x20 MUL PUSH1 0x20 ADD ADD MLOAD SWAP1 POP PUSH1 0x0 JUMPDEST PUSH1 0x3 DUP1 SLOAD SWAP1 POP DUP2 LT ISZERO PUSH2 0x1FD2 JUMPI PUSH1 0x0 PUSH1 0x3 DUP3 DUP2 SLOAD DUP2 LT PUSH2 0x1DD0 JUMPI PUSH2 0x1DCF PUSH2 0x2EE9 JUMP JUMPDEST JUMPDEST SWAP1 PUSH1 0x0 MSTORE PUSH1 0x20 PUSH1 0x0 KECCAK256 SWAP1 PUSH1 0x3 MUL ADD PUSH1 0x40 MLOAD DUP1 PUSH1 0x60 ADD PUSH1 0x40 MSTORE SWAP1 DUP2 PUSH1 0x0 DUP3 ADD PUSH1 0x0 SWAP1 SLOAD SWAP1 PUSH2 0x100 EXP SWAP1 DIV PUSH20 0xFFFFFFFFFFFFFFFFFFFFFFFFFFFFFFFFFFFFFFFF AND PUSH20 0xFFFFFFFFFFFFFFFFFFFFFFFFFFFFFFFFFFFFFFFF AND PUSH20 0xFFFFFFFFFFFFFFFFFFFFFFFFFFFFFFFFFFFFFFFF AND DUP2 MSTORE PUSH1 0x20 ADD PUSH1 0x1 DUP3 ADD DUP1 SLOAD PUSH2 0x1E4F SWAP1 PUSH2 0x2F47 JUMP JUMPDEST DUP1 PUSH1 0x1F ADD PUSH1 0x20 DUP1 SWAP2 DIV MUL PUSH1 0x20 ADD PUSH1 0x40 MLOAD SWAP1 DUP2 ADD PUSH1 0x40 MSTORE DUP1 SWAP3 SWAP2 SWAP1 DUP2 DUP2 MSTORE PUSH1 0x20 ADD DUP3 DUP1 SLOAD PUSH2 0x1E7B SWAP1 PUSH2 0x2F47 JUMP JUMPDEST DUP1 ISZERO PUSH2 0x1EC8 JUMPI DUP1 PUSH1 0x1F LT PUSH2 0x1E9D JUMPI PUSH2 0x100 DUP1 DUP4 SLOAD DIV MUL DUP4 MSTORE SWAP2 PUSH1 0x20 ADD SWAP2 PUSH2 0x1EC8 JUMP JUMPDEST DUP3 ADD SWAP2 SWAP1 PUSH1 0x0 MSTORE PUSH1 0x20 PUSH1 0x0 KECCAK256 SWAP1 JUMPDEST DUP2 SLOAD DUP2 MSTORE SWAP1 PUSH1 0x1 ADD SWAP1 PUSH1 0x20 ADD DUP1 DUP4 GT PUSH2 0x1EAB JUMPI DUP3 SWAP1 SUB PUSH1 0x1F AND DUP3 ADD SWAP2 JUMPDEST POP POP POP POP POP DUP2 MSTORE PUSH1 0x20 ADD PUSH1 0x2 DUP3 ADD PUSH1 0x0 SWAP1 SLOAD SWAP1 PUSH2 0x100 EXP SWAP1 DIV PUSH20 0xFFFFFFFFFFFFFFFFFFFFFFFFFFFFFFFFFFFFFFFF AND PUSH20 0xFFFFFFFFFFFFFFFFFFFFFFFFFFFFFFFFFFFFFFFF AND PUSH20 0xFFFFFFFFFFFFFFFFFFFFFFFFFFFFFFFFFFFFFFFF AND DUP2 MSTORE POP POP SWAP1 POP DUP3 PUSH20 0xFFFFFFFFFFFFFFFFFFFFFFFFFFFFFFFFFFFFFFFF AND DUP2 PUSH1 0x40 ADD MLOAD PUSH20 0xFFFFFFFFFFFFFFFFFFFFFFFFFFFFFFFFFFFFFFFF AND SUB PUSH2 0x1FBE JUMPI DUP3 DUP6 DUP8 DUP2 MLOAD DUP2 LT PUSH2 0x1F74 JUMPI PUSH2 0x1F73 PUSH2 0x2EE9 JUMP JUMPDEST JUMPDEST PUSH1 0x20 MUL PUSH1 0x20 ADD ADD SWAP1 PUSH20 0xFFFFFFFFFFFFFFFFFFFFFFFFFFFFFFFFFFFFFFFF AND SWAP1 DUP2 PUSH20 0xFFFFFFFFFFFFFFFFFFFFFFFFFFFFFFFFFFFFFFFF AND DUP2 MSTORE POP POP PUSH1 0x1 DUP7 PUSH2 0x1FBB SWAP2 SWAP1 PUSH2 0x2FA7 JUMP JUMPDEST SWAP6 POP JUMPDEST POP DUP1 DUP1 PUSH2 0x1FCA SWAP1 PUSH2 0x2FDB JUMP JUMPDEST SWAP2 POP POP PUSH2 0x1DAD JUMP JUMPDEST POP POP DUP1 DUP1 PUSH2 0x1FDF SWAP1 PUSH2 0x2FDB JUMP JUMPDEST SWAP2 POP POP PUSH2 0x1D82 JUMP JUMPDEST POP DUP1 SWAP4 POP POP POP POP SWAP2 SWAP1 POP JUMP JUMPDEST POP POP JUMP JUMPDEST POP POP POP JUMP JUMPDEST PUSH1 0x60 PUSH1 0x0 PUSH2 0x2009 DUP4 PUSH2 0x8C0 JUMP JUMPDEST SWAP1 POP PUSH1 0x0 DUP1 DUP3 PUSH8 0xFFFFFFFFFFFFFFFF DUP2 GT ISZERO PUSH2 0x2028 JUMPI PUSH2 0x2027 PUSH2 0x2620 JUMP JUMPDEST JUMPDEST PUSH1 0x40 MLOAD SWAP1 DUP1 DUP3 MSTORE DUP1 PUSH1 0x20 MUL PUSH1 0x20 ADD DUP3 ADD PUSH1 0x40 MSTORE DUP1 ISZERO PUSH2 0x2056 JUMPI DUP2 PUSH1 0x20 ADD PUSH1 0x20 DUP3 MUL DUP1 CALLDATASIZE DUP4 CALLDATACOPY DUP1 DUP3 ADD SWAP2 POP POP SWAP1 POP JUMPDEST POP SWAP1 POP PUSH1 0x0 JUMPDEST PUSH1 0x4 DUP1 SLOAD SWAP1 POP DUP2 LT ISZERO PUSH2 0x21F3 JUMPI PUSH1 0x0 PUSH1 0x4 DUP3 DUP2 SLOAD DUP2 LT PUSH2 0x207F JUMPI PUSH2 0x207E PUSH2 0x2EE9 JUMP JUMPDEST JUMPDEST SWAP1 PUSH1 0x0 MSTORE PUSH1 0x20 PUSH1 0x0 KECCAK256 SWAP1 PUSH1 0x2 MUL ADD PUSH1 0x40 MLOAD DUP1 PUSH1 0x40 ADD PUSH1 0x40 MSTORE SWAP1 DUP2 PUSH1 0x0 DUP3 ADD PUSH1 0x0 SWAP1 SLOAD SWAP1 PUSH2 0x100 EXP SWAP1 DIV PUSH20 0xFFFFFFFFFFFFFFFFFFFFFFFFFFFFFFFFFFFFFFFF AND PUSH20 0xFFFFFFFFFFFFFFFFFFFFFFFFFFFFFFFFFFFFFFFF AND PUSH20 0xFFFFFFFFFFFFFFFFFFFFFFFFFFFFFFFFFFFFFFFF AND DUP2 MSTORE PUSH1 0x20 ADD PUSH1 0x1 DUP3 ADD PUSH1 0x0 SWAP1 SLOAD SWAP1 PUSH2 0x100 EXP SWAP1 DIV PUSH20 0xFFFFFFFFFFFFFFFFFFFFFFFFFFFFFFFFFFFFFFFF AND PUSH20 0xFFFFFFFFFFFFFFFFFFFFFFFFFFFFFFFFFFFFFFFF AND PUSH20 0xFFFFFFFFFFFFFFFFFFFFFFFFFFFFFFFFFFFFFFFF AND DUP2 MSTORE POP POP SWAP1 POP DUP7 PUSH20 0xFFFFFFFFFFFFFFFFFFFFFFFFFFFFFFFFFFFFFFFF AND DUP2 PUSH1 0x0 ADD MLOAD PUSH20 0xFFFFFFFFFFFFFFFFFFFFFFFFFFFFFFFFFFFFFFFF AND SUB PUSH2 0x21DF JUMPI DUP1 PUSH1 0x20 ADD MLOAD DUP4 DUP6 DUP2 MLOAD DUP2 LT PUSH2 0x2195 JUMPI PUSH2 0x2194 PUSH2 0x2EE9 JUMP JUMPDEST JUMPDEST PUSH1 0x20 MUL PUSH1 0x20 ADD ADD SWAP1 PUSH20 0xFFFFFFFFFFFFFFFFFFFFFFFFFFFFFFFFFFFFFFFF AND SWAP1 DUP2 PUSH20 0xFFFFFFFFFFFFFFFFFFFFFFFFFFFFFFFFFFFFFFFF AND DUP2 MSTORE POP POP PUSH1 0x1 DUP5 PUSH2 0x21DC SWAP2 SWAP1 PUSH2 0x2FA7 JUMP JUMPDEST SWAP4 POP JUMPDEST POP DUP1 DUP1 PUSH2 0x21EB SWAP1 PUSH2 0x2FDB JUMP JUMPDEST SWAP2 POP POP PUSH2 0x205C JUMP JUMPDEST POP PUSH1 0x0 JUMPDEST PUSH1 0x4 DUP1 SLOAD SWAP1 POP DUP2 LT ISZERO PUSH2 0x23A0 JUMPI PUSH1 0x0 PUSH1 0x4 DUP3 DUP2 SLOAD DUP2 LT PUSH2 0x221A JUMPI PUSH2 0x2219 PUSH2 0x2EE9 JUMP JUMPDEST JUMPDEST SWAP1 PUSH1 0x0 MSTORE PUSH1 0x20 PUSH1 0x0 KECCAK256 SWAP1 PUSH1 0x2 MUL ADD PUSH1 0x40 MLOAD DUP1 PUSH1 0x40 ADD PUSH1 0x40 MSTORE SWAP1 DUP2 PUSH1 0x0 DUP3 ADD PUSH1 0x0 SWAP1 SLOAD SWAP1 PUSH2 0x100 EXP SWAP1 DIV PUSH20 0xFFFFFFFFFFFFFFFFFFFFFFFFFFFFFFFFFFFFFFFF AND PUSH20 0xFFFFFFFFFFFFFFFFFFFFFFFFFFFFFFFFFFFFFFFF AND PUSH20 0xFFFFFFFFFFFFFFFFFFFFFFFFFFFFFFFFFFFFFFFF AND DUP2 MSTORE PUSH1 0x20 ADD PUSH1 0x1 DUP3 ADD PUSH1 0x0 SWAP1 SLOAD SWAP1 PUSH2 0x100 EXP SWAP1 DIV PUSH20 0xFFFFFFFFFFFFFFFFFFFFFFFFFFFFFFFFFFFFFFFF AND PUSH20 0xFFFFFFFFFFFFFFFFFFFFFFFFFFFFFFFFFFFFFFFF AND PUSH20 0xFFFFFFFFFFFFFFFFFFFFFFFFFFFFFFFFFFFFFFFF AND DUP2 MSTORE POP POP SWAP1 POP DUP7 PUSH20 0xFFFFFFFFFFFFFFFFFFFFFFFFFFFFFFFFFFFFFFFF AND DUP2 PUSH1 0x0 ADD MLOAD PUSH20 0xFFFFFFFFFFFFFFFFFFFFFFFFFFFFFFFFFFFFFFFF AND SUB PUSH2 0x238C JUMPI PUSH1 0x4 DUP3 DUP2 SLOAD DUP2 LT PUSH2 0x232C JUMPI PUSH2 0x232B PUSH2 0x2EE9 JUMP JUMPDEST JUMPDEST SWAP1 PUSH1 0x0 MSTORE PUSH1 0x20 PUSH1 0x0 KECCAK256 SWAP1 PUSH1 0x2 MUL ADD PUSH1 0x0 DUP1 DUP3 ADD PUSH1 0x0 PUSH2 0x100 EXP DUP2 SLOAD SWAP1 PUSH20 0xFFFFFFFFFFFFFFFFFFFFFFFFFFFFFFFFFFFFFFFF MUL NOT AND SWAP1 SSTORE PUSH1 0x1 DUP3 ADD PUSH1 0x0 PUSH2 0x100 EXP DUP2 SLOAD SWAP1 PUSH20 0xFFFFFFFFFFFFFFFFFFFFFFFFFFFFFFFFFFFFFFFF MUL NOT AND SWAP1 SSTORE POP POP JUMPDEST POP DUP1 DUP1 PUSH2 0x2398 SWAP1 PUSH2 0x2FDB JUMP JUMPDEST SWAP2 POP POP PUSH2 0x21F7 JUMP JUMPDEST POP DUP1 SWAP4 POP POP POP POP SWAP2 SWAP1 POP JUMP JUMPDEST PUSH1 0x2 PUSH1 0x1 PUSH1 0x2 DUP1 SLOAD SWAP1 POP PUSH2 0x23C0 SWAP2 SWAP1 PUSH2 0x30E2 JUMP JUMPDEST DUP2 SLOAD DUP2 LT PUSH2 0x23D1 JUMPI PUSH2 0x23D0 PUSH2 0x2EE9 JUMP JUMPDEST JUMPDEST SWAP1 PUSH1 0x0 MSTORE PUSH1 0x20 PUSH1 0x0 KECCAK256 SWAP1 PUSH1 0x2 MUL ADD PUSH1 0x2 DUP3 DUP2 SLOAD DUP2 LT PUSH2 0x23F3 JUMPI PUSH2 0x23F2 PUSH2 0x2EE9 JUMP JUMPDEST JUMPDEST SWAP1 PUSH1 0x0 MSTORE PUSH1 0x20 PUSH1 0x0 KECCAK256 SWAP1 PUSH1 0x2 MUL ADD PUSH1 0x0 DUP3 ADD PUSH1 0x0 SWAP1 SLOAD SWAP1 PUSH2 0x100 EXP SWAP1 DIV PUSH20 0xFFFFFFFFFFFFFFFFFFFFFFFFFFFFFFFFFFFFFFFF AND DUP2 PUSH1 0x0 ADD PUSH1 0x0 PUSH2 0x100 EXP DUP2 SLOAD DUP2 PUSH20 0xFFFFFFFFFFFFFFFFFFFFFFFFFFFFFFFFFFFFFFFF MUL NOT AND SWAP1 DUP4 PUSH20 0xFFFFFFFFFFFFFFFFFFFFFFFFFFFFFFFFFFFFFFFF AND MUL OR SWAP1 SSTORE POP PUSH1 0x1 DUP3 ADD PUSH1 0x0 SWAP1 SLOAD SWAP1 PUSH2 0x100 EXP SWAP1 DIV PUSH20 0xFFFFFFFFFFFFFFFFFFFFFFFFFFFFFFFFFFFFFFFF AND DUP2 PUSH1 0x1 ADD PUSH1 0x0 PUSH2 0x100 EXP DUP2 SLOAD DUP2 PUSH20 0xFFFFFFFFFFFFFFFFFFFFFFFFFFFFFFFFFFFFFFFF MUL NOT AND SWAP1 DUP4 PUSH20 0xFFFFFFFFFFFFFFFFFFFFFFFFFFFFFFFFFFFFFFFF AND MUL OR SWAP1 SSTORE POP SWAP1 POP POP PUSH1 0x2 DUP1 SLOAD DUP1 PUSH2 0x24E4 JUMPI PUSH2 0x24E3 PUSH2 0x3116 JUMP JUMPDEST JUMPDEST PUSH1 0x1 SWAP1 SUB DUP2 DUP2 SWAP1 PUSH1 0x0 MSTORE PUSH1 0x20 PUSH1 0x0 KECCAK256 SWAP1 PUSH1 0x2 MUL ADD PUSH1 0x0 DUP1 DUP3 ADD PUSH1 0x0 PUSH2 0x100 EXP DUP2 SLOAD SWAP1 PUSH20 0xFFFFFFFFFFFFFFFFFFFFFFFFFFFFFFFFFFFFFFFF MUL NOT AND SWAP1 SSTORE PUSH1 0x1 DUP3 ADD PUSH1 0x0 PUSH2 0x100 EXP DUP2 SLOAD SWAP1 PUSH20 0xFFFFFFFFFFFFFFFFFFFFFFFFFFFFFFFFFFFFFFFF MUL NOT AND SWAP1 SSTORE POP POP SWAP1 SSTORE POP JUMP JUMPDEST POP POP POP JUMP JUMPDEST PUSH1 0x40 MLOAD DUP1 PUSH1 0x40 ADD PUSH1 0x40 MSTORE DUP1 PUSH1 0x0 PUSH20 0xFFFFFFFFFFFFFFFFFFFFFFFFFFFFFFFFFFFFFFFF AND DUP2 MSTORE PUSH1 0x20 ADD PUSH1 0x0 PUSH20 0xFFFFFFFFFFFFFFFFFFFFFFFFFFFFFFFFFFFFFFFF AND DUP2 MSTORE POP SWAP1 JUMP JUMPDEST POP DUP1 SLOAD PUSH2 0x25A5 SWAP1 PUSH2 0x2F47 JUMP JUMPDEST PUSH1 0x0 DUP3 SSTORE DUP1 PUSH1 0x1F LT PUSH2 0x25B7 JUMPI POP PUSH2 0x25D6 JUMP JUMPDEST PUSH1 0x1F ADD PUSH1 0x20 SWAP1 DIV SWAP1 PUSH1 0x0 MSTORE PUSH1 0x20 PUSH1 0x0 KECCAK256 SWAP1 DUP2 ADD SWAP1 PUSH2 0x25D5 SWAP2 SWAP1 PUSH2 0x25D9 JUMP JUMPDEST JUMPDEST POP JUMP JUMPDEST JUMPDEST DUP1 DUP3 GT ISZERO PUSH2 0x25F2 JUMPI PUSH1 0x0 DUP2 PUSH1 0x0 SWAP1 SSTORE POP PUSH1 0x1 ADD PUSH2 0x25DA JUMP JUMPDEST POP SWAP1 JUMP JUMPDEST PUSH1 0x0 PUSH1 0x40 MLOAD SWAP1 POP SWAP1 JUMP JUMPDEST PUSH1 0x0 DUP1 REVERT JUMPDEST PUSH1 0x0 DUP1 REVERT JUMPDEST PUSH1 0x0 DUP1 REVERT JUMPDEST PUSH1 0x0 PUSH1 0x1F NOT PUSH1 0x1F DUP4 ADD AND SWAP1 POP SWAP2 SWAP1 POP JUMP JUMPDEST PUSH32 0x4E487B7100000000000000000000000000000000000000000000000000000000 PUSH1 0x0 MSTORE PUSH1 0x41 PUSH1 0x4 MSTORE PUSH1 0x24 PUSH1 0x0 REVERT JUMPDEST PUSH2 0x2658 DUP3 PUSH2 0x260F JUMP JUMPDEST DUP2 ADD DUP2 DUP2 LT PUSH8 0xFFFFFFFFFFFFFFFF DUP3 GT OR ISZERO PUSH2 0x2677 JUMPI PUSH2 0x2676 PUSH2 0x2620 JUMP JUMPDEST JUMPDEST DUP1 PUSH1 0x40 MSTORE POP POP POP JUMP JUMPDEST PUSH1 0x0 PUSH2 0x268A PUSH2 0x25F6 JUMP JUMPDEST SWAP1 POP PUSH2 0x2696 DUP3 DUP3 PUSH2 0x264F JUMP JUMPDEST SWAP2 SWAP1 POP JUMP JUMPDEST PUSH1 0x0 PUSH8 0xFFFFFFFFFFFFFFFF DUP3 GT ISZERO PUSH2 0x26B6 JUMPI PUSH2 0x26B5 PUSH2 0x2620 JUMP JUMPDEST JUMPDEST PUSH1 0x20 DUP3 MUL SWAP1 POP PUSH1 0x20 DUP2 ADD SWAP1 POP SWAP2 SWAP1 POP JUMP JUMPDEST PUSH1 0x0 DUP1 REVERT JUMPDEST PUSH1 0x0 PUSH20 0xFFFFFFFFFFFFFFFFFFFFFFFFFFFFFFFFFFFFFFFF DUP3 AND SWAP1 POP SWAP2 SWAP1 POP JUMP JUMPDEST PUSH1 0x0 PUSH2 0x26F7 DUP3 PUSH2 0x26CC JUMP JUMPDEST SWAP1 POP SWAP2 SWAP1 POP JUMP JUMPDEST PUSH2 0x2707 DUP2 PUSH2 0x26EC JUMP JUMPDEST DUP2 EQ PUSH2 0x2712 JUMPI PUSH1 0x0 DUP1 REVERT JUMPDEST POP JUMP JUMPDEST PUSH1 0x0 DUP2 CALLDATALOAD SWAP1 POP PUSH2 0x2724 DUP2 PUSH2 0x26FE JUMP JUMPDEST SWAP3 SWAP2 POP POP JUMP JUMPDEST PUSH1 0x0 PUSH2 0x273D PUSH2 0x2738 DUP5 PUSH2 0x269B JUMP JUMPDEST PUSH2 0x2680 JUMP JUMPDEST SWAP1 POP DUP1 DUP4 DUP3 MSTORE PUSH1 0x20 DUP3 ADD SWAP1 POP PUSH1 0x20 DUP5 MUL DUP4 ADD DUP6 DUP2 GT ISZERO PUSH2 0x2760 JUMPI PUSH2 0x275F PUSH2 0x26C7 JUMP JUMPDEST JUMPDEST DUP4 JUMPDEST DUP2 DUP2 LT ISZERO PUSH2 0x2789 JUMPI DUP1 PUSH2 0x2775 DUP9 DUP3 PUSH2 0x2715 JUMP JUMPDEST DUP5 MSTORE PUSH1 0x20 DUP5 ADD SWAP4 POP POP PUSH1 0x20 DUP2 ADD SWAP1 POP PUSH2 0x2762 JUMP JUMPDEST POP POP POP SWAP4 SWAP3 POP POP POP JUMP JUMPDEST PUSH1 0x0 DUP3 PUSH1 0x1F DUP4 ADD SLT PUSH2 0x27A8 JUMPI PUSH2 0x27A7 PUSH2 0x260A JUMP JUMPDEST JUMPDEST DUP2 CALLDATALOAD PUSH2 0x27B8 DUP5 DUP3 PUSH1 0x20 DUP7 ADD PUSH2 0x272A JUMP JUMPDEST SWAP2 POP POP SWAP3 SWAP2 POP POP JUMP JUMPDEST PUSH1 0x0 PUSH1 0x20 DUP3 DUP5 SUB SLT ISZERO PUSH2 0x27D7 JUMPI PUSH2 0x27D6 PUSH2 0x2600 JUMP JUMPDEST JUMPDEST PUSH1 0x0 DUP3 ADD CALLDATALOAD PUSH8 0xFFFFFFFFFFFFFFFF DUP2 GT ISZERO PUSH2 0x27F5 JUMPI PUSH2 0x27F4 PUSH2 0x2605 JUMP JUMPDEST JUMPDEST PUSH2 0x2801 DUP5 DUP3 DUP6 ADD PUSH2 0x2793 JUMP JUMPDEST SWAP2 POP POP SWAP3 SWAP2 POP POP JUMP JUMPDEST PUSH1 0x0 DUP2 SWAP1 POP SWAP2 SWAP1 POP JUMP JUMPDEST PUSH2 0x281D DUP2 PUSH2 0x280A JUMP JUMPDEST DUP3 MSTORE POP POP JUMP JUMPDEST PUSH1 0x0 PUSH1 0x20 DUP3 ADD SWAP1 POP PUSH2 0x2838 PUSH1 0x0 DUP4 ADD DUP5 PUSH2 0x2814 JUMP JUMPDEST SWAP3 SWAP2 POP POP JUMP JUMPDEST PUSH1 0x0 DUP1 REVERT JUMPDEST PUSH1 0x0 PUSH8 0xFFFFFFFFFFFFFFFF DUP3 GT ISZERO PUSH2 0x285E JUMPI PUSH2 0x285D PUSH2 0x2620 JUMP JUMPDEST JUMPDEST PUSH2 0x2867 DUP3 PUSH2 0x260F JUMP JUMPDEST SWAP1 POP PUSH1 0x20 DUP2 ADD SWAP1 POP SWAP2 SWAP1 POP JUMP JUMPDEST DUP3 DUP2 DUP4 CALLDATACOPY PUSH1 0x0 DUP4 DUP4 ADD MSTORE POP POP POP JUMP JUMPDEST PUSH1 0x0 PUSH2 0x2896 PUSH2 0x2891 DUP5 PUSH2 0x2843 JUMP JUMPDEST PUSH2 0x2680 JUMP JUMPDEST SWAP1 POP DUP3 DUP2 MSTORE PUSH1 0x20 DUP2 ADD DUP5 DUP5 DUP5 ADD GT ISZERO PUSH2 0x28B2 JUMPI PUSH2 0x28B1 PUSH2 0x283E JUMP JUMPDEST JUMPDEST PUSH2 0x28BD DUP5 DUP3 DUP6 PUSH2 0x2874 JUMP JUMPDEST POP SWAP4 SWAP3 POP POP POP JUMP JUMPDEST PUSH1 0x0 DUP3 PUSH1 0x1F DUP4 ADD SLT PUSH2 0x28DA JUMPI PUSH2 0x28D9 PUSH2 0x260A JUMP JUMPDEST JUMPDEST DUP2 CALLDATALOAD PUSH2 0x28EA DUP5 DUP3 PUSH1 0x20 DUP7 ADD PUSH2 0x2883 JUMP JUMPDEST SWAP2 POP POP SWAP3 SWAP2 POP POP JUMP JUMPDEST PUSH1 0x0 PUSH1 0x20 DUP3 DUP5 SUB SLT ISZERO PUSH2 0x2909 JUMPI PUSH2 0x2908 PUSH2 0x2600 JUMP JUMPDEST JUMPDEST PUSH1 0x0 DUP3 ADD CALLDATALOAD PUSH8 0xFFFFFFFFFFFFFFFF DUP2 GT ISZERO PUSH2 0x2927 JUMPI PUSH2 0x2926 PUSH2 0x2605 JUMP JUMPDEST JUMPDEST PUSH2 0x2933 DUP5 DUP3 DUP6 ADD PUSH2 0x28C5 JUMP JUMPDEST SWAP2 POP POP SWAP3 SWAP2 POP POP JUMP JUMPDEST PUSH1 0x0 DUP2 ISZERO ISZERO SWAP1 POP SWAP2 SWAP1 POP JUMP JUMPDEST PUSH2 0x2951 DUP2 PUSH2 0x293C JUMP JUMPDEST DUP3 MSTORE POP POP JUMP JUMPDEST PUSH1 0x0 PUSH1 0x20 DUP3 ADD SWAP1 POP PUSH2 0x296C PUSH1 0x0 DUP4 ADD DUP5 PUSH2 0x2948 JUMP JUMPDEST SWAP3 SWAP2 POP POP JUMP JUMPDEST PUSH1 0x0 PUSH1 0x20 DUP3 DUP5 SUB SLT ISZERO PUSH2 0x2988 JUMPI PUSH2 0x2987 PUSH2 0x2600 JUMP JUMPDEST JUMPDEST PUSH1 0x0 PUSH2 0x2996 DUP5 DUP3 DUP6 ADD PUSH2 0x2715 JUMP JUMPDEST SWAP2 POP POP SWAP3 SWAP2 POP POP JUMP JUMPDEST PUSH1 0x0 DUP2 MLOAD SWAP1 POP SWAP2 SWAP1 POP JUMP JUMPDEST PUSH1 0x0 DUP3 DUP3 MSTORE PUSH1 0x20 DUP3 ADD SWAP1 POP SWAP3 SWAP2 POP POP JUMP JUMPDEST PUSH1 0x0 JUMPDEST DUP4 DUP2 LT ISZERO PUSH2 0x29D9 JUMPI DUP1 DUP3 ADD MLOAD DUP2 DUP5 ADD MSTORE PUSH1 0x20 DUP2 ADD SWAP1 POP PUSH2 0x29BE JUMP JUMPDEST PUSH1 0x0 DUP5 DUP5 ADD MSTORE POP POP POP POP JUMP JUMPDEST PUSH1 0x0 PUSH2 0x29F0 DUP3 PUSH2 0x299F JUMP JUMPDEST PUSH2 0x29FA DUP2 DUP6 PUSH2 0x29AA JUMP JUMPDEST SWAP4 POP PUSH2 0x2A0A DUP2 DUP6 PUSH1 0x20 DUP7 ADD PUSH2 0x29BB JUMP JUMPDEST PUSH2 0x2A13 DUP2 PUSH2 0x260F JUMP JUMPDEST DUP5 ADD SWAP2 POP POP SWAP3 SWAP2 POP POP JUMP JUMPDEST PUSH1 0x0 PUSH1 0x20 DUP3 ADD SWAP1 POP DUP2 DUP2 SUB PUSH1 0x0 DUP4 ADD MSTORE PUSH2 0x2A38 DUP2 DUP5 PUSH2 0x29E5 JUMP JUMPDEST SWAP1 POP SWAP3 SWAP2 POP POP JUMP JUMPDEST PUSH1 0x0 DUP1 PUSH1 0x40 DUP4 DUP6 SUB SLT ISZERO PUSH2 0x2A57 JUMPI PUSH2 0x2A56 PUSH2 0x2600 JUMP JUMPDEST JUMPDEST PUSH1 0x0 PUSH2 0x2A65 DUP6 DUP3 DUP7 ADD PUSH2 0x2715 JUMP JUMPDEST SWAP3 POP POP PUSH1 0x20 PUSH2 0x2A76 DUP6 DUP3 DUP7 ADD PUSH2 0x2715 JUMP JUMPDEST SWAP2 POP POP SWAP3 POP SWAP3 SWAP1 POP JUMP JUMPDEST PUSH1 0x0 DUP2 MLOAD SWAP1 POP SWAP2 SWAP1 POP JUMP JUMPDEST PUSH1 0x0 DUP3 DUP3 MSTORE PUSH1 0x20 DUP3 ADD SWAP1 POP SWAP3 SWAP2 POP POP JUMP JUMPDEST PUSH1 0x0 DUP2 SWAP1 POP PUSH1 0x20 DUP3 ADD SWAP1 POP SWAP2 SWAP1 POP JUMP JUMPDEST PUSH2 0x2AB5 DUP2 PUSH2 0x26EC JUMP JUMPDEST DUP3 MSTORE POP POP JUMP JUMPDEST PUSH1 0x0 PUSH2 0x2AC7 DUP4 DUP4 PUSH2 0x2AAC JUMP JUMPDEST PUSH1 0x20 DUP4 ADD SWAP1 POP SWAP3 SWAP2 POP POP JUMP JUMPDEST PUSH1 0x0 PUSH1 0x20 DUP3 ADD SWAP1 POP SWAP2 SWAP1 POP JUMP JUMPDEST PUSH1 0x0 PUSH2 0x2AEB DUP3 PUSH2 0x2A80 JUMP JUMPDEST PUSH2 0x2AF5 DUP2 DUP6 PUSH2 0x2A8B JUMP JUMPDEST SWAP4 POP PUSH2 0x2B00 DUP4 PUSH2 0x2A9C JUMP JUMPDEST DUP1 PUSH1 0x0 JUMPDEST DUP4 DUP2 LT ISZERO PUSH2 0x2B31 JUMPI DUP2 MLOAD PUSH2 0x2B18 DUP9 DUP3 PUSH2 0x2ABB JUMP JUMPDEST SWAP8 POP PUSH2 0x2B23 DUP4 PUSH2 0x2AD3 JUMP JUMPDEST SWAP3 POP POP PUSH1 0x1 DUP2 ADD SWAP1 POP PUSH2 0x2B04 JUMP JUMPDEST POP DUP6 SWAP4 POP POP POP POP SWAP3 SWAP2 POP POP JUMP JUMPDEST PUSH1 0x0 PUSH1 0x20 DUP3 ADD SWAP1 POP DUP2 DUP2 SUB PUSH1 0x0 DUP4 ADD MSTORE PUSH2 0x2B58 DUP2 DUP5 PUSH2 0x2AE0 JUMP JUMPDEST SWAP1 POP SWAP3 SWAP2 POP POP JUMP JUMPDEST PUSH1 0x0 DUP1 PUSH1 0x0 PUSH1 0x60 DUP5 DUP7 SUB SLT ISZERO PUSH2 0x2B79 JUMPI PUSH2 0x2B78 PUSH2 0x2600 JUMP JUMPDEST JUMPDEST PUSH1 0x0 DUP5 ADD CALLDATALOAD PUSH8 0xFFFFFFFFFFFFFFFF DUP2 GT ISZERO PUSH2 0x2B97 JUMPI PUSH2 0x2B96 PUSH2 0x2605 JUMP JUMPDEST JUMPDEST PUSH2 0x2BA3 DUP7 DUP3 DUP8 ADD PUSH2 0x28C5 JUMP JUMPDEST SWAP4 POP POP PUSH1 0x20 PUSH2 0x2BB4 DUP7 DUP3 DUP8 ADD PUSH2 0x2715 JUMP JUMPDEST SWAP3 POP POP PUSH1 0x40 PUSH2 0x2BC5 DUP7 DUP3 DUP8 ADD PUSH2 0x2715 JUMP JUMPDEST SWAP2 POP POP SWAP3 POP SWAP3 POP SWAP3 JUMP JUMPDEST PUSH1 0x0 DUP1 PUSH1 0x40 DUP4 DUP6 SUB SLT ISZERO PUSH2 0x2BE6 JUMPI PUSH2 0x2BE5 PUSH2 0x2600 JUMP JUMPDEST JUMPDEST PUSH1 0x0 PUSH2 0x2BF4 DUP6 DUP3 DUP7 ADD PUSH2 0x2715 JUMP JUMPDEST SWAP3 POP POP PUSH1 0x20 DUP4 ADD CALLDATALOAD PUSH8 0xFFFFFFFFFFFFFFFF DUP2 GT ISZERO PUSH2 0x2C15 JUMPI PUSH2 0x2C14 PUSH2 0x2605 JUMP JUMPDEST JUMPDEST PUSH2 0x2C21 DUP6 DUP3 DUP7 ADD PUSH2 0x28C5 JUMP JUMPDEST SWAP2 POP POP SWAP3 POP SWAP3 SWAP1 POP JUMP JUMPDEST PUSH1 0x40 DUP3 ADD PUSH1 0x0 DUP3 ADD MLOAD PUSH2 0x2C41 PUSH1 0x0 DUP6 ADD DUP3 PUSH2 0x2AAC JUMP JUMPDEST POP PUSH1 0x20 DUP3 ADD MLOAD PUSH2 0x2C54 PUSH1 0x20 DUP6 ADD DUP3 PUSH2 0x2AAC JUMP JUMPDEST POP POP POP POP JUMP JUMPDEST PUSH1 0x0 PUSH1 0x40 DUP3 ADD SWAP1 POP PUSH2 0x2C6F PUSH1 0x0 DUP4 ADD DUP5 PUSH2 0x2C2B JUMP JUMPDEST SWAP3 SWAP2 POP POP JUMP JUMPDEST PUSH1 0x0 DUP1 PUSH1 0x40 DUP4 DUP6 SUB SLT ISZERO PUSH2 0x2C8C JUMPI PUSH2 0x2C8B PUSH2 0x2600 JUMP JUMPDEST JUMPDEST PUSH1 0x0 DUP4 ADD CALLDATALOAD PUSH8 0xFFFFFFFFFFFFFFFF DUP2 GT ISZERO PUSH2 0x2CAA JUMPI PUSH2 0x2CA9 PUSH2 0x2605 JUMP JUMPDEST JUMPDEST PUSH2 0x2CB6 DUP6 DUP3 DUP7 ADD PUSH2 0x28C5 JUMP JUMPDEST SWAP3 POP POP PUSH1 0x20 DUP4 ADD CALLDATALOAD PUSH8 0xFFFFFFFFFFFFFFFF DUP2 GT ISZERO PUSH2 0x2CD7 JUMPI PUSH2 0x2CD6 PUSH2 0x2605 JUMP JUMPDEST JUMPDEST PUSH2 0x2CE3 DUP6 DUP3 DUP7 ADD PUSH2 0x28C5 JUMP JUMPDEST SWAP2 POP POP SWAP3 POP SWAP3 SWAP1 POP JUMP JUMPDEST PUSH2 0x2CF6 DUP2 PUSH2 0x26EC JUMP JUMPDEST DUP3 MSTORE POP POP JUMP JUMPDEST PUSH1 0x0 PUSH1 0x20 DUP3 ADD SWAP1 POP PUSH2 0x2D11 PUSH1 0x0 DUP4 ADD DUP5 PUSH2 0x2CED JUMP JUMPDEST SWAP3 SWAP2 POP POP JUMP JUMPDEST PUSH2 0x2D20 DUP2 PUSH2 0x293C JUMP JUMPDEST DUP2 EQ PUSH2 0x2D2B JUMPI PUSH1 0x0 DUP1 REVERT JUMPDEST POP JUMP JUMPDEST PUSH1 0x0 DUP2 CALLDATALOAD SWAP1 POP PUSH2 0x2D3D DUP2 PUSH2 0x2D17 JUMP JUMPDEST SWAP3 SWAP2 POP POP JUMP JUMPDEST PUSH1 0x0 DUP1 PUSH1 0x0 PUSH1 0x60 DUP5 DUP7 SUB SLT ISZERO PUSH2 0x2D5C JUMPI PUSH2 0x2D5B PUSH2 0x2600 JUMP JUMPDEST JUMPDEST PUSH1 0x0 PUSH2 0x2D6A DUP7 DUP3 DUP8 ADD PUSH2 0x2715 JUMP JUMPDEST SWAP4 POP POP PUSH1 0x20 PUSH2 0x2D7B DUP7 DUP3 DUP8 ADD PUSH2 0x2715 JUMP JUMPDEST SWAP3 POP POP PUSH1 0x40 PUSH2 0x2D8C DUP7 DUP3 DUP8 ADD PUSH2 0x2D2E JUMP JUMPDEST SWAP2 POP POP SWAP3 POP SWAP3 POP SWAP3 JUMP JUMPDEST PUSH1 0x0 DUP1 PUSH1 0x0 PUSH1 0x60 DUP5 DUP7 SUB SLT ISZERO PUSH2 0x2DAF JUMPI PUSH2 0x2DAE PUSH2 0x2600 JUMP JUMPDEST JUMPDEST PUSH1 0x0 PUSH2 0x2DBD DUP7 DUP3 DUP8 ADD PUSH2 0x2715 JUMP JUMPDEST SWAP4 POP POP PUSH1 0x20 PUSH2 0x2DCE DUP7 DUP3 DUP8 ADD PUSH2 0x2715 JUMP JUMPDEST SWAP3 POP POP PUSH1 0x40 DUP5 ADD CALLDATALOAD PUSH8 0xFFFFFFFFFFFFFFFF DUP2 GT ISZERO PUSH2 0x2DEF JUMPI PUSH2 0x2DEE PUSH2 0x2605 JUMP JUMPDEST JUMPDEST PUSH2 0x2DFB DUP7 DUP3 DUP8 ADD PUSH2 0x28C5 JUMP JUMPDEST SWAP2 POP POP SWAP3 POP SWAP3 POP SWAP3 JUMP JUMPDEST PUSH2 0x2E0E DUP2 PUSH2 0x280A JUMP JUMPDEST DUP2 EQ PUSH2 0x2E19 JUMPI PUSH1 0x0 DUP1 REVERT JUMPDEST POP JUMP JUMPDEST PUSH1 0x0 DUP2 CALLDATALOAD SWAP1 POP PUSH2 0x2E2B DUP2 PUSH2 0x2E05 JUMP JUMPDEST SWAP3 SWAP2 POP POP JUMP JUMPDEST PUSH1 0x0 PUSH1 0x20 DUP3 DUP5 SUB SLT ISZERO PUSH2 0x2E47 JUMPI PUSH2 0x2E46 PUSH2 0x2600 JUMP JUMPDEST JUMPDEST PUSH1 0x0 PUSH2 0x2E55 DUP5 DUP3 DUP6 ADD PUSH2 0x2E1C JUMP JUMPDEST SWAP2 POP POP SWAP3 SWAP2 POP POP JUMP JUMPDEST PUSH1 0x0 DUP1 PUSH1 0x0 PUSH1 0x60 DUP5 DUP7 SUB SLT ISZERO PUSH2 0x2E77 JUMPI PUSH2 0x2E76 PUSH2 0x2600 JUMP JUMPDEST JUMPDEST PUSH1 0x0 DUP5 ADD CALLDATALOAD PUSH8 0xFFFFFFFFFFFFFFFF DUP2 GT ISZERO PUSH2 0x2E95 JUMPI PUSH2 0x2E94 PUSH2 0x2605 JUMP JUMPDEST JUMPDEST PUSH2 0x2EA1 DUP7 DUP3 DUP8 ADD PUSH2 0x28C5 JUMP JUMPDEST SWAP4 POP POP PUSH1 0x20 PUSH2 0x2EB2 DUP7 DUP3 DUP8 ADD PUSH2 0x2715 JUMP JUMPDEST SWAP3 POP POP PUSH1 0x40 DUP5 ADD CALLDATALOAD PUSH8 0xFFFFFFFFFFFFFFFF DUP2 GT ISZERO PUSH2 0x2ED3 JUMPI PUSH2 0x2ED2 PUSH2 0x2605 JUMP JUMPDEST JUMPDEST PUSH2 0x2EDF DUP7 DUP3 DUP8 ADD PUSH2 0x28C5 JUMP JUMPDEST SWAP2 POP POP SWAP3 POP SWAP3 POP SWAP3 JUMP JUMPDEST PUSH32 0x4E487B7100000000000000000000000000000000000000000000000000000000 PUSH1 0x0 MSTORE PUSH1 0x32 PUSH1 0x4 MSTORE PUSH1 0x24 PUSH1 0x0 REVERT JUMPDEST PUSH32 0x4E487B7100000000000000000000000000000000000000000000000000000000 PUSH1 0x0 MSTORE PUSH1 0x22 PUSH1 0x4 MSTORE PUSH1 0x24 PUSH1 0x0 REVERT JUMPDEST PUSH1 0x0 PUSH1 0x2 DUP3 DIV SWAP1 POP PUSH1 0x1 DUP3 AND DUP1 PUSH2 0x2F5F JUMPI PUSH1 0x7F DUP3 AND SWAP2 POP JUMPDEST PUSH1 0x20 DUP3 LT DUP2 SUB PUSH2 0x2F72 JUMPI PUSH2 0x2F71 PUSH2 0x2F18 JUMP JUMPDEST JUMPDEST POP SWAP2 SWAP1 POP JUMP JUMPDEST PUSH32 0x4E487B7100000000000000000000000000000000000000000000000000000000 PUSH1 0x0 MSTORE PUSH1 0x11 PUSH1 0x4 MSTORE PUSH1 0x24 PUSH1 0x0 REVERT JUMPDEST PUSH1 0x0 PUSH2 0x2FB2 DUP3 PUSH2 0x280A JUMP JUMPDEST SWAP2 POP PUSH2 0x2FBD DUP4 PUSH2 0x280A JUMP JUMPDEST SWAP3 POP DUP3 DUP3 ADD SWAP1 POP DUP1 DUP3 GT ISZERO PUSH2 0x2FD5 JUMPI PUSH2 0x2FD4 PUSH2 0x2F78 JUMP JUMPDEST JUMPDEST SWAP3 SWAP2 POP POP JUMP JUMPDEST PUSH1 0x0 PUSH2 0x2FE6 DUP3 PUSH2 0x280A JUMP JUMPDEST SWAP2 POP PUSH32 0xFFFFFFFFFFFFFFFFFFFFFFFFFFFFFFFFFFFFFFFFFFFFFFFFFFFFFFFFFFFFFFFF DUP3 SUB PUSH2 0x3018 JUMPI PUSH2 0x3017 PUSH2 0x2F78 JUMP JUMPDEST JUMPDEST PUSH1 0x1 DUP3 ADD SWAP1 POP SWAP2 SWAP1 POP JUMP JUMPDEST PUSH1 0x0 DUP2 SWAP1 POP SWAP3 SWAP2 POP POP JUMP JUMPDEST PUSH1 0x0 PUSH2 0x3039 DUP3 PUSH2 0x299F JUMP JUMPDEST PUSH2 0x3043 DUP2 DUP6 PUSH2 0x3023 JUMP JUMPDEST SWAP4 POP PUSH2 0x3053 DUP2 DUP6 PUSH1 0x20 DUP7 ADD PUSH2 0x29BB JUMP JUMPDEST DUP1 DUP5 ADD SWAP2 POP POP SWAP3 SWAP2 POP POP JUMP JUMPDEST PUSH1 0x0 PUSH2 0x306B DUP3 DUP5 PUSH2 0x302E JUMP JUMPDEST SWAP2 POP DUP2 SWAP1 POP SWAP3 SWAP2 POP POP JUMP JUMPDEST PUSH32 0x4E616D6520616C72656164792065786973747300000000000000000000000000 PUSH1 0x0 DUP3 ADD MSTORE POP JUMP JUMPDEST PUSH1 0x0 PUSH2 0x30AC PUSH1 0x13 DUP4 PUSH2 0x29AA JUMP JUMPDEST SWAP2 POP PUSH2 0x30B7 DUP3 PUSH2 0x3076 JUMP JUMPDEST PUSH1 0x20 DUP3 ADD SWAP1 POP SWAP2 SWAP1 POP JUMP JUMPDEST PUSH1 0x0 PUSH1 0x20 DUP3 ADD SWAP1 POP DUP2 DUP2 SUB PUSH1 0x0 DUP4 ADD MSTORE PUSH2 0x30DB DUP2 PUSH2 0x309F JUMP JUMPDEST SWAP1 POP SWAP2 SWAP1 POP JUMP JUMPDEST PUSH1 0x0 PUSH2 0x30ED DUP3 PUSH2 0x280A JUMP JUMPDEST SWAP2 POP PUSH2 0x30F8 DUP4 PUSH2 0x280A JUMP JUMPDEST SWAP3 POP DUP3 DUP3 SUB SWAP1 POP DUP2 DUP2 GT ISZERO PUSH2 0x3110 JUMPI PUSH2 0x310F PUSH2 0x2F78 JUMP JUMPDEST JUMPDEST SWAP3 SWAP2 POP POP JUMP JUMPDEST PUSH32 0x4E487B7100000000000000000000000000000000000000000000000000000000 PUSH1 0x0 MSTORE PUSH1 0x31 PUSH1 0x4 MSTORE PUSH1 0x24 PUSH1 0x0 REVERT INVALID LOG2 PUSH5 0x6970667358 0x22 SLT KECCAK256 GASPRICE 0xC8 DUP15 SMOD 0x23 0xFB 0xD7 SWAP5 0xB4 EXTCODECOPY LOG2 0xB3 CODESIZE 0xED 0xD0 0xED 0xC 0xD0 SWAP5 0xDB 0xD PREVRANDAO SLOAD PUSH32 0xE91C5CC8AF1B4A5264736F6C6343000813003300000000000000000000000000 "
				},
				"gasEstimates": {
					"creation": {
						"codeDepositCost": "2533400",
						"executionCost": "2733",
						"totalCost": "2536133"
					},
					"external": {
						"checkRequestsByShareholder(address)": "infinite",
						"checkRequestsForTheSeceret(address[])": "infinite",
						"deleteShareRequest(address,address)": "infinite",
						"getContractAddressByName(string)": "infinite",
						"getContractAddressByPublicAddress(address)": "infinite",
						"getEmailAddressByUserName(string)": "infinite",
						"getRequestAcceptedHoldersList(address)": "infinite",
						"getRequestRejectedHoldersList(address)": "infinite",
						"getSecretHolderAddressesCountInAcceptedHoldersList(address)": "infinite",
						"getSecretHolderAddressesCountInRejectedHoldersList(address)": "infinite",
						"getSecretOwnerAddressesCountInHolderRequests(address)": "infinite",
						"getSecretOwnerAddressesCountInSecretRequests(address[])": "infinite",
						"isExists(string)": "infinite",
						"makeARequestToBeAShareHolder(address,address)": "infinite",
						"makeARequestToGetShares(string,address,string)": "infinite",
						"makeARequestToGetVaultHash(string,string)": "infinite",
						"makeSharesAccessibleToTheHolders(address,address,string)": "infinite",
						"register(string,address,address)": "infinite",
						"releaseTheSecret(address,string)": "infinite",
						"removeFromHolderRequestList(uint256)": "infinite",
						"respondToBeShareHolder(address,address,bool)": "infinite",
						"updateOwnersAcceptedToReleaseList(address,address)": "infinite"
					}
				},
				"methodIdentifiers": {
					"checkRequestsByShareholder(address)": "99f8b09f",
					"checkRequestsForTheSeceret(address[])": "c5882344",
					"deleteShareRequest(address,address)": "9c111559",
					"getContractAddressByName(string)": "82760fca",
					"getContractAddressByPublicAddress(address)": "a5311bcf",
					"getEmailAddressByUserName(string)": "67e37f70",
					"getRequestAcceptedHoldersList(address)": "d71e80e3",
					"getRequestRejectedHoldersList(address)": "7568708f",
					"getSecretHolderAddressesCountInAcceptedHoldersList(address)": "54f5fcba",
					"getSecretHolderAddressesCountInRejectedHoldersList(address)": "14338f9d",
					"getSecretOwnerAddressesCountInHolderRequests(address)": "74cf3e51",
					"getSecretOwnerAddressesCountInSecretRequests(address[])": "09da40ae",
					"isExists(string)": "0d85d839",
					"makeARequestToBeAShareHolder(address,address)": "6e8548bb",
					"makeARequestToGetShares(string,address,string)": "fe5686df",
					"makeARequestToGetVaultHash(string,string)": "8292cae3",
					"makeSharesAccessibleToTheHolders(address,address,string)": "cc2f22f1",
					"register(string,address,address)": "7915c069",
					"releaseTheSecret(address,string)": "7cbfc58f",
					"removeFromHolderRequestList(uint256)": "ec6ea3aa",
					"respondToBeShareHolder(address,address,bool)": "bc9d6271",
					"updateOwnersAcceptedToReleaseList(address,address)": "c6244a27"
				}
			},
			"storageLayout": {
				"storage": [
					{
						"astId": 29,
						"contract": "PublicContract.sol:PublicContract",
						"label": "myAddressToContractAddressMap",
						"offset": 0,
						"slot": "0",
						"type": "t_mapping(t_address,t_address)"
					},
					{
						"astId": 34,
						"contract": "PublicContract.sol:PublicContract",
						"label": "sampleNodesMap",
						"offset": 0,
						"slot": "1",
						"type": "t_mapping(t_string_memory_ptr,t_struct(SampleNode)6_storage)"
					},
					{
						"astId": 38,
						"contract": "PublicContract.sol:PublicContract",
						"label": "holderRequests",
						"offset": 0,
						"slot": "2",
						"type": "t_array(t_struct(Request)11_storage)dyn_storage"
					},
					{
						"astId": 42,
						"contract": "PublicContract.sol:PublicContract",
						"label": "secretRequests",
						"offset": 0,
						"slot": "3",
						"type": "t_array(t_struct(ShareRequest)25_storage)dyn_storage"
					},
					{
						"astId": 46,
						"contract": "PublicContract.sol:PublicContract",
						"label": "acceptedShareHolderRequests",
						"offset": 0,
						"slot": "4",
						"type": "t_array(t_struct(Request)11_storage)dyn_storage"
					},
					{
						"astId": 50,
						"contract": "PublicContract.sol:PublicContract",
						"label": "rejectedShareHolderRequests",
						"offset": 0,
						"slot": "5",
						"type": "t_array(t_struct(Request)11_storage)dyn_storage"
					}
				],
				"types": {
					"t_address": {
						"encoding": "inplace",
						"label": "address",
						"numberOfBytes": "20"
					},
					"t_array(t_struct(Request)11_storage)dyn_storage": {
						"base": "t_struct(Request)11_storage",
						"encoding": "dynamic_array",
						"label": "struct PublicContract.Request[]",
						"numberOfBytes": "32"
					},
					"t_array(t_struct(ShareRequest)25_storage)dyn_storage": {
						"base": "t_struct(ShareRequest)25_storage",
						"encoding": "dynamic_array",
						"label": "struct PublicContract.ShareRequest[]",
						"numberOfBytes": "32"
					},
					"t_mapping(t_address,t_address)": {
						"encoding": "mapping",
						"key": "t_address",
						"label": "mapping(address => address)",
						"numberOfBytes": "32",
						"value": "t_address"
					},
					"t_mapping(t_string_memory_ptr,t_struct(SampleNode)6_storage)": {
						"encoding": "mapping",
						"key": "t_string_memory_ptr",
						"label": "mapping(string => struct PublicContract.SampleNode)",
						"numberOfBytes": "32",
						"value": "t_struct(SampleNode)6_storage"
					},
					"t_string_memory_ptr": {
						"encoding": "bytes",
						"label": "string",
						"numberOfBytes": "32"
					},
					"t_string_storage": {
						"encoding": "bytes",
						"label": "string",
						"numberOfBytes": "32"
					},
					"t_struct(Request)11_storage": {
						"encoding": "inplace",
						"label": "struct PublicContract.Request",
						"members": [
							{
								"astId": 8,
								"contract": "PublicContract.sol:PublicContract",
								"label": "secretOwner",
								"offset": 0,
								"slot": "0",
								"type": "t_address"
							},
							{
								"astId": 10,
								"contract": "PublicContract.sol:PublicContract",
								"label": "shareHolder",
								"offset": 0,
								"slot": "1",
								"type": "t_address"
							}
						],
						"numberOfBytes": "64"
					},
					"t_struct(SampleNode)6_storage": {
						"encoding": "inplace",
						"label": "struct PublicContract.SampleNode",
						"members": [
							{
								"astId": 3,
								"contract": "PublicContract.sol:PublicContract",
								"label": "publicAddress",
								"offset": 0,
								"slot": "0",
								"type": "t_address"
							},
							{
								"astId": 5,
								"contract": "PublicContract.sol:PublicContract",
								"label": "contractAddress",
								"offset": 0,
								"slot": "1",
								"type": "t_address"
							}
						],
						"numberOfBytes": "64"
					},
					"t_struct(ShareRequest)25_storage": {
						"encoding": "inplace",
						"label": "struct PublicContract.ShareRequest",
						"members": [
							{
								"astId": 20,
								"contract": "PublicContract.sol:PublicContract",
								"label": "requesterAddress",
								"offset": 0,
								"slot": "0",
								"type": "t_address"
							},
							{
								"astId": 22,
								"contract": "PublicContract.sol:PublicContract",
								"label": "name",
								"offset": 0,
								"slot": "1",
								"type": "t_string_storage"
							},
							{
								"astId": 24,
								"contract": "PublicContract.sol:PublicContract",
								"label": "ownerAddress",
								"offset": 0,
								"slot": "2",
								"type": "t_address"
							}
						],
						"numberOfBytes": "96"
					}
				}
			},
			"userdoc": {
				"kind": "user",
				"methods": {},
				"version": 1
			}
		}
	}
}