{
	"WalletContract.sol": {
		"WalletContract": {
			"abi": [
				{
					"inputs": [
						{
							"internalType": "address",
							"name": "addr",
							"type": "address"
						}
					],
					"name": "isUserRegistered",
					"outputs": [
						{
							"internalType": "bool",
							"name": "",
							"type": "bool"
						}
					],
					"stateMutability": "view",
					"type": "function"
				},
				{
					"inputs": [
						{
							"internalType": "string",
							"name": "name",
							"type": "string"
						}
					],
					"name": "registerToWalletContract",
					"outputs": [],
					"stateMutability": "nonpayable",
					"type": "function"
				}
			],
			"devdoc": {
				"kind": "dev",
				"methods": {},
				"version": 1
			},
			"evm": {
				"assembly": "    /* \"WalletContract.sol\":79:3287  contract WalletContract {... */\n  mstore(0x40, 0x80)\n  callvalue\n  dup1\n  iszero\n  tag_1\n  jumpi\n  0x00\n  dup1\n  revert\ntag_1:\n  pop\n  dataSize(sub_0)\n  dup1\n  dataOffset(sub_0)\n  0x00\n  codecopy\n  0x00\n  return\nstop\n\nsub_0: assembly {\n        /* \"WalletContract.sol\":79:3287  contract WalletContract {... */\n      mstore(0x40, 0x80)\n      callvalue\n      dup1\n      iszero\n      tag_1\n      jumpi\n      0x00\n      dup1\n      revert\n    tag_1:\n      pop\n      jumpi(tag_2, lt(calldatasize, 0x04))\n      shr(0xe0, calldataload(0x00))\n      dup1\n      0x163f7522\n      eq\n      tag_3\n      jumpi\n      dup1\n      0xbfc92b3e\n      eq\n      tag_4\n      jumpi\n    tag_2:\n      0x00\n      dup1\n      revert\n        /* \"WalletContract.sol\":1815:2057  function isUserRegistered(address addr) public view returns (bool) {... */\n    tag_3:\n      tag_5\n      0x04\n      dup1\n      calldatasize\n      sub\n      dup2\n      add\n      swap1\n      tag_6\n      swap2\n      swap1\n      tag_7\n      jump\t// in\n    tag_6:\n      tag_8\n      jump\t// in\n    tag_5:\n      mload(0x40)\n      tag_9\n      swap2\n      swap1\n      tag_10\n      jump\t// in\n    tag_9:\n      mload(0x40)\n      dup1\n      swap2\n      sub\n      swap1\n      return\n        /* \"WalletContract.sol\":2104:3284  function registerToWalletContract(string memory name) public {... */\n    tag_4:\n      tag_11\n      0x04\n      dup1\n      calldatasize\n      sub\n      dup2\n      add\n      swap1\n      tag_12\n      swap2\n      swap1\n      tag_13\n      jump\t// in\n    tag_12:\n      tag_14\n      jump\t// in\n    tag_11:\n      stop\n        /* \"WalletContract.sol\":1815:2057  function isUserRegistered(address addr) public view returns (bool) {... */\n    tag_8:\n        /* \"WalletContract.sol\":1876:1880  bool */\n      0x00\n        /* \"WalletContract.sol\":1898:1904  uint i */\n      dup1\n        /* \"WalletContract.sol\":1907:1908  0 */\n      0x00\n        /* \"WalletContract.sol\":1898:1908  uint i = 0 */\n      swap1\n      pop\n        /* \"WalletContract.sol\":1893:2027  for (uint i = 0; i < users.length; i++) {... */\n    tag_16:\n        /* \"WalletContract.sol\":1914:1919  users */\n      0x03\n        /* \"WalletContract.sol\":1914:1926  users.length */\n      dup1\n      sload\n      swap1\n      pop\n        /* \"WalletContract.sol\":1910:1911  i */\n      dup2\n        /* \"WalletContract.sol\":1910:1926  i < users.length */\n      lt\n        /* \"WalletContract.sol\":1893:2027  for (uint i = 0; i < users.length; i++) {... */\n      iszero\n      tag_17\n      jumpi\n        /* \"WalletContract.sol\":1964:1968  addr */\n      dup3\n        /* \"WalletContract.sol\":1952:1968  users[i] == addr */\n      0xffffffffffffffffffffffffffffffffffffffff\n      and\n        /* \"WalletContract.sol\":1952:1957  users */\n      0x03\n        /* \"WalletContract.sol\":1958:1959  i */\n      dup3\n        /* \"WalletContract.sol\":1952:1960  users[i] */\n      dup2\n      sload\n      dup2\n      lt\n      tag_19\n      jumpi\n      tag_20\n      tag_21\n      jump\t// in\n    tag_20:\n    tag_19:\n      swap1\n      0x00\n      mstore\n      keccak256(0x00, 0x20)\n      add\n      0x00\n      swap1\n      sload\n      swap1\n      0x0100\n      exp\n      swap1\n      div\n      0xffffffffffffffffffffffffffffffffffffffff\n      and\n        /* \"WalletContract.sol\":1952:1968  users[i] == addr */\n      0xffffffffffffffffffffffffffffffffffffffff\n      and\n      sub\n        /* \"WalletContract.sol\":1948:2016  if (users[i] == addr) {... */\n      tag_23\n      jumpi\n        /* \"WalletContract.sol\":1996:2000  true */\n      0x01\n        /* \"WalletContract.sol\":1989:2000  return true */\n      swap2\n      pop\n      pop\n      jump(tag_15)\n        /* \"WalletContract.sol\":1948:2016  if (users[i] == addr) {... */\n    tag_23:\n        /* \"WalletContract.sol\":1928:1931  i++ */\n      dup1\n      dup1\n      tag_24\n      swap1\n      tag_25\n      jump\t// in\n    tag_24:\n      swap2\n      pop\n      pop\n        /* \"WalletContract.sol\":1893:2027  for (uint i = 0; i < users.length; i++) {... */\n      jump(tag_16)\n    tag_17:\n      pop\n        /* \"WalletContract.sol\":2044:2049  false */\n      0x00\n        /* \"WalletContract.sol\":2037:2049  return false */\n      swap1\n      pop\n        /* \"WalletContract.sol\":1815:2057  function isUserRegistered(address addr) public view returns (bool) {... */\n    tag_15:\n      swap2\n      swap1\n      pop\n      jump\t// out\n        /* \"WalletContract.sol\":2104:3284  function registerToWalletContract(string memory name) public {... */\n    tag_14:\n        /* \"WalletContract.sol\":2186:2214  isUserRegistered(msg.sender) */\n      tag_27\n        /* \"WalletContract.sol\":2203:2213  msg.sender */\n      caller\n        /* \"WalletContract.sol\":2186:2202  isUserRegistered */\n      tag_8\n        /* \"WalletContract.sol\":2186:2214  isUserRegistered(msg.sender) */\n      jump\t// in\n    tag_27:\n        /* \"WalletContract.sol\":2185:2214  !isUserRegistered(msg.sender) */\n      iszero\n        /* \"WalletContract.sol\":2176:2247  require((!isUserRegistered(msg.sender)), \"User has already registered\") */\n      tag_28\n      jumpi\n      mload(0x40)\n      0x08c379a000000000000000000000000000000000000000000000000000000000\n      dup2\n      mstore\n      0x04\n      add\n      tag_29\n      swap1\n      tag_30\n      jump\t// in\n    tag_29:\n      mload(0x40)\n      dup1\n      swap2\n      sub\n      swap1\n      revert\n    tag_28:\n        /* \"WalletContract.sol\":2434:2453  Node memory newNode */\n      0x00\n        /* \"WalletContract.sol\":2456:3084  Node({... */\n      mload(0x40)\n      dup1\n      0x0180\n      add\n      0x40\n      mstore\n      dup1\n        /* \"WalletContract.sol\":2490:2500  msg.sender */\n      caller\n        /* \"WalletContract.sol\":2456:3084  Node({... */\n      0xffffffffffffffffffffffffffffffffffffffff\n      and\n      dup2\n      mstore\n      0x20\n      add\n        /* \"WalletContract.sol\":2525:2529  name */\n      dup4\n        /* \"WalletContract.sol\":2456:3084  Node({... */\n      dup2\n      mstore\n      0x20\n      add\n        /* \"WalletContract.sol\":2572:2573  0 */\n      0x00\n        /* \"WalletContract.sol\":2558:2574  new address[](0) */\n      0xffffffffffffffff\n      dup2\n      gt\n      iszero\n      tag_31\n      jumpi\n      tag_32\n      tag_33\n      jump\t// in\n    tag_32:\n    tag_31:\n      mload(0x40)\n      swap1\n      dup1\n      dup3\n      mstore\n      dup1\n      0x20\n      mul\n      0x20\n      add\n      dup3\n      add\n      0x40\n      mstore\n      dup1\n      iszero\n      tag_34\n      jumpi\n      dup2\n      0x20\n      add\n      0x20\n      dup3\n      mul\n      dup1\n      calldatasize\n      dup4\n      calldatacopy\n      dup1\n      dup3\n      add\n      swap2\n      pop\n      pop\n      swap1\n      pop\n    tag_34:\n      pop\n        /* \"WalletContract.sol\":2456:3084  Node({... */\n      dup2\n      mstore\n      0x20\n      add\n        /* \"WalletContract.sol\":2626:2627  0 */\n      0x00\n        /* \"WalletContract.sol\":2612:2628  new address[](0) */\n      0xffffffffffffffff\n      dup2\n      gt\n      iszero\n      tag_35\n      jumpi\n      tag_36\n      tag_33\n      jump\t// in\n    tag_36:\n    tag_35:\n      mload(0x40)\n      swap1\n      dup1\n      dup3\n      mstore\n      dup1\n      0x20\n      mul\n      0x20\n      add\n      dup3\n      add\n      0x40\n      mstore\n      dup1\n      iszero\n      tag_37\n      jumpi\n      dup2\n      0x20\n      add\n      0x20\n      dup3\n      mul\n      dup1\n      calldatasize\n      dup4\n      calldatacopy\n      dup1\n      dup3\n      add\n      swap2\n      pop\n      pop\n      swap1\n      pop\n    tag_37:\n      pop\n        /* \"WalletContract.sol\":2456:3084  Node({... */\n      dup2\n      mstore\n      0x20\n      add\n        /* \"WalletContract.sol\":2687:2688  0 */\n      0x00\n        /* \"WalletContract.sol\":2673:2689  new address[](0) */\n      0xffffffffffffffff\n      dup2\n      gt\n      iszero\n      tag_38\n      jumpi\n      tag_39\n      tag_33\n      jump\t// in\n    tag_39:\n    tag_38:\n      mload(0x40)\n      swap1\n      dup1\n      dup3\n      mstore\n      dup1\n      0x20\n      mul\n      0x20\n      add\n      dup3\n      add\n      0x40\n      mstore\n      dup1\n      iszero\n      tag_40\n      jumpi\n      dup2\n      0x20\n      add\n      0x20\n      dup3\n      mul\n      dup1\n      calldatasize\n      dup4\n      calldatacopy\n      dup1\n      dup3\n      add\n      swap2\n      pop\n      pop\n      swap1\n      pop\n    tag_40:\n      pop\n        /* \"WalletContract.sol\":2456:3084  Node({... */\n      dup2\n      mstore\n      0x20\n      add\n        /* \"WalletContract.sol\":2748:2749  0 */\n      0x00\n        /* \"WalletContract.sol\":2734:2750  new address[](0) */\n      0xffffffffffffffff\n      dup2\n      gt\n      iszero\n      tag_41\n      jumpi\n      tag_42\n      tag_33\n      jump\t// in\n    tag_42:\n    tag_41:\n      mload(0x40)\n      swap1\n      dup1\n      dup3\n      mstore\n      dup1\n      0x20\n      mul\n      0x20\n      add\n      dup3\n      add\n      0x40\n      mstore\n      dup1\n      iszero\n      tag_43\n      jumpi\n      dup2\n      0x20\n      add\n      0x20\n      dup3\n      mul\n      dup1\n      calldatasize\n      dup4\n      calldatacopy\n      dup1\n      dup3\n      add\n      swap2\n      pop\n      pop\n      swap1\n      pop\n    tag_43:\n      pop\n        /* \"WalletContract.sol\":2456:3084  Node({... */\n      dup2\n      mstore\n      0x20\n      add\n        /* \"WalletContract.sol\":2788:2789  0 */\n      0x00\n        /* \"WalletContract.sol\":2775:2790  new string[](0) */\n      0xffffffffffffffff\n      dup2\n      gt\n      iszero\n      tag_44\n      jumpi\n      tag_45\n      tag_33\n      jump\t// in\n    tag_45:\n    tag_44:\n      mload(0x40)\n      swap1\n      dup1\n      dup3\n      mstore\n      dup1\n      0x20\n      mul\n      0x20\n      add\n      dup3\n      add\n      0x40\n      mstore\n      dup1\n      iszero\n      tag_46\n      jumpi\n      dup2\n      0x20\n      add\n    tag_47:\n      0x60\n      dup2\n      mstore\n      0x20\n      add\n      swap1\n      0x01\n      swap1\n      sub\n      swap1\n      dup2\n      tag_47\n      jumpi\n      swap1\n      pop\n    tag_46:\n      pop\n        /* \"WalletContract.sol\":2456:3084  Node({... */\n      dup2\n      mstore\n      0x20\n      add\n        /* \"WalletContract.sol\":2834:2835  0 */\n      0x00\n        /* \"WalletContract.sol\":2821:2836  new string[](0) */\n      0xffffffffffffffff\n      dup2\n      gt\n      iszero\n      tag_48\n      jumpi\n      tag_49\n      tag_33\n      jump\t// in\n    tag_49:\n    tag_48:\n      mload(0x40)\n      swap1\n      dup1\n      dup3\n      mstore\n      dup1\n      0x20\n      mul\n      0x20\n      add\n      dup3\n      add\n      0x40\n      mstore\n      dup1\n      iszero\n      tag_50\n      jumpi\n      dup2\n      0x20\n      add\n    tag_51:\n      0x60\n      dup2\n      mstore\n      0x20\n      add\n      swap1\n      0x01\n      swap1\n      sub\n      swap1\n      dup2\n      tag_51\n      jumpi\n      swap1\n      pop\n    tag_50:\n      pop\n        /* \"WalletContract.sol\":2456:3084  Node({... */\n      dup2\n      mstore\n      0x20\n      add\n        /* \"WalletContract.sol\":2879:2880  0 */\n      0x00\n        /* \"WalletContract.sol\":2865:2881  new address[](0) */\n      0xffffffffffffffff\n      dup2\n      gt\n      iszero\n      tag_52\n      jumpi\n      tag_53\n      tag_33\n      jump\t// in\n    tag_53:\n    tag_52:\n      mload(0x40)\n      swap1\n      dup1\n      dup3\n      mstore\n      dup1\n      0x20\n      mul\n      0x20\n      add\n      dup3\n      add\n      0x40\n      mstore\n      dup1\n      iszero\n      tag_54\n      jumpi\n      dup2\n      0x20\n      add\n      0x20\n      dup3\n      mul\n      dup1\n      calldatasize\n      dup4\n      calldatacopy\n      dup1\n      dup3\n      add\n      swap2\n      pop\n      pop\n      swap1\n      pop\n    tag_54:\n      pop\n        /* \"WalletContract.sol\":2456:3084  Node({... */\n      dup2\n      mstore\n      0x20\n      add\n      mload(0x40)\n      dup1\n      0x20\n      add\n      0x40\n      mstore\n      dup1\n      0x00\n      dup2\n      mstore\n      pop\n      dup2\n      mstore\n      0x20\n      add\n      mload(0x40)\n      dup1\n      0x20\n      add\n      0x40\n      mstore\n      dup1\n      0x00\n      dup2\n      mstore\n      pop\n      dup2\n      mstore\n      0x20\n      add\n        /* \"WalletContract.sol\":3056:3072  State.REGISTERED */\n      0x00\n        /* \"WalletContract.sol\":2456:3084  Node({... */\n      0x05\n      dup2\n      gt\n      iszero\n      tag_55\n      jumpi\n      tag_56\n      tag_57\n      jump\t// in\n    tag_56:\n    tag_55:\n      dup2\n      mstore\n      pop\n        /* \"WalletContract.sol\":2434:3084  Node memory newNode = Node({... */\n      swap1\n      pop\n        /* \"WalletContract.sol\":3132:3139  newNode */\n      dup1\n        /* \"WalletContract.sol\":3095:3117  publicAddressToNodeMap */\n      0x00\n        /* \"WalletContract.sol\":3095:3129  publicAddressToNodeMap[msg.sender] */\n      dup1\n        /* \"WalletContract.sol\":3118:3128  msg.sender */\n      caller\n        /* \"WalletContract.sol\":3095:3129  publicAddressToNodeMap[msg.sender] */\n      0xffffffffffffffffffffffffffffffffffffffff\n      and\n      0xffffffffffffffffffffffffffffffffffffffff\n      and\n      dup2\n      mstore\n      0x20\n      add\n      swap1\n      dup2\n      mstore\n      0x20\n      add\n      0x00\n      keccak256\n        /* \"WalletContract.sol\":3095:3139  publicAddressToNodeMap[msg.sender] = newNode */\n      0x00\n      dup3\n      add\n      mload\n      dup2\n      0x00\n      add\n      exp(0x0100, 0x00)\n      dup2\n      sload\n      dup2\n      0xffffffffffffffffffffffffffffffffffffffff\n      mul\n      not\n      and\n      swap1\n      dup4\n      0xffffffffffffffffffffffffffffffffffffffff\n      and\n      mul\n      or\n      swap1\n      sstore\n      pop\n      0x20\n      dup3\n      add\n      mload\n      dup2\n      0x01\n      add\n      swap1\n      dup2\n      tag_58\n      swap2\n      swap1\n      tag_59\n      jump\t// in\n    tag_58:\n      pop\n      0x40\n      dup3\n      add\n      mload\n      dup2\n      0x02\n      add\n      swap1\n      dup1\n      mload\n      swap1\n      0x20\n      add\n      swap1\n      tag_60\n      swap3\n      swap2\n      swap1\n      tag_61\n      jump\t// in\n    tag_60:\n      pop\n      0x60\n      dup3\n      add\n      mload\n      dup2\n      0x03\n      add\n      swap1\n      dup1\n      mload\n      swap1\n      0x20\n      add\n      swap1\n      tag_62\n      swap3\n      swap2\n      swap1\n      tag_61\n      jump\t// in\n    tag_62:\n      pop\n      0x80\n      dup3\n      add\n      mload\n      dup2\n      0x04\n      add\n      swap1\n      dup1\n      mload\n      swap1\n      0x20\n      add\n      swap1\n      tag_63\n      swap3\n      swap2\n      swap1\n      tag_61\n      jump\t// in\n    tag_63:\n      pop\n      0xa0\n      dup3\n      add\n      mload\n      dup2\n      0x05\n      add\n      swap1\n      dup1\n      mload\n      swap1\n      0x20\n      add\n      swap1\n      tag_64\n      swap3\n      swap2\n      swap1\n      tag_61\n      jump\t// in\n    tag_64:\n      pop\n      0xc0\n      dup3\n      add\n      mload\n      dup2\n      0x06\n      add\n      swap1\n      dup1\n      mload\n      swap1\n      0x20\n      add\n      swap1\n      tag_65\n      swap3\n      swap2\n      swap1\n      tag_66\n      jump\t// in\n    tag_65:\n      pop\n      0xe0\n      dup3\n      add\n      mload\n      dup2\n      0x07\n      add\n      swap1\n      dup1\n      mload\n      swap1\n      0x20\n      add\n      swap1\n      tag_67\n      swap3\n      swap2\n      swap1\n      tag_66\n      jump\t// in\n    tag_67:\n      pop\n      0x0100\n      dup3\n      add\n      mload\n      dup2\n      0x08\n      add\n      swap1\n      dup1\n      mload\n      swap1\n      0x20\n      add\n      swap1\n      tag_68\n      swap3\n      swap2\n      swap1\n      tag_61\n      jump\t// in\n    tag_68:\n      pop\n      0x0120\n      dup3\n      add\n      mload\n      dup2\n      0x09\n      add\n      swap1\n      dup2\n      tag_69\n      swap2\n      swap1\n      tag_59\n      jump\t// in\n    tag_69:\n      pop\n      0x0140\n      dup3\n      add\n      mload\n      dup2\n      0x0a\n      add\n      swap1\n      dup2\n      tag_70\n      swap2\n      swap1\n      tag_59\n      jump\t// in\n    tag_70:\n      pop\n      0x0160\n      dup3\n      add\n      mload\n      dup2\n      0x0b\n      add\n      exp(0x0100, 0x00)\n      dup2\n      sload\n      dup2\n      0xff\n      mul\n      not\n      and\n      swap1\n      dup4\n      0x05\n      dup2\n      gt\n      iszero\n      tag_71\n      jumpi\n      tag_72\n      tag_57\n      jump\t// in\n    tag_72:\n    tag_71:\n      mul\n      or\n      swap1\n      sstore\n      pop\n      swap1\n      pop\n      pop\n        /* \"WalletContract.sol\":3185:3195  msg.sender */\n      caller\n        /* \"WalletContract.sol\":3150:3176  userNameToPublicAddressMap */\n      0x01\n        /* \"WalletContract.sol\":3177:3181  name */\n      dup4\n        /* \"WalletContract.sol\":3150:3182  userNameToPublicAddressMap[name] */\n      mload(0x40)\n      tag_73\n      swap2\n      swap1\n      tag_74\n      jump\t// in\n    tag_73:\n      swap1\n      dup2\n      mstore\n      0x20\n      add\n      mload(0x40)\n      dup1\n      swap2\n      sub\n      swap1\n      keccak256\n      0x00\n        /* \"WalletContract.sol\":3150:3195  userNameToPublicAddressMap[name] = msg.sender */\n      0x0100\n      exp\n      dup2\n      sload\n      dup2\n      0xffffffffffffffffffffffffffffffffffffffff\n      mul\n      not\n      and\n      swap1\n      dup4\n      0xffffffffffffffffffffffffffffffffffffffff\n      and\n      mul\n      or\n      swap1\n      sstore\n      pop\n        /* \"WalletContract.sol\":3206:3215  userNames */\n      0x02\n        /* \"WalletContract.sol\":3221:3225  name */\n      dup3\n        /* \"WalletContract.sol\":3206:3226  userNames.push(name) */\n      swap1\n      dup1\n      0x01\n      dup2\n      sload\n      add\n      dup1\n      dup3\n      sstore\n      dup1\n      swap2\n      pop\n      pop\n      0x01\n      swap1\n      sub\n      swap1\n      0x00\n      mstore\n      keccak256(0x00, 0x20)\n      add\n      0x00\n      swap1\n      swap2\n      swap1\n      swap2\n      swap1\n      swap2\n      pop\n      swap1\n      dup2\n      tag_76\n      swap2\n      swap1\n      tag_59\n      jump\t// in\n    tag_76:\n      pop\n        /* \"WalletContract.sol\":3237:3242  users */\n      0x03\n        /* \"WalletContract.sol\":3248:3258  msg.sender */\n      caller\n        /* \"WalletContract.sol\":3237:3259  users.push(msg.sender) */\n      swap1\n      dup1\n      0x01\n      dup2\n      sload\n      add\n      dup1\n      dup3\n      sstore\n      dup1\n      swap2\n      pop\n      pop\n      0x01\n      swap1\n      sub\n      swap1\n      0x00\n      mstore\n      keccak256(0x00, 0x20)\n      add\n      0x00\n      swap1\n      swap2\n      swap1\n      swap2\n      swap1\n      swap2\n      0x0100\n      exp\n      dup2\n      sload\n      dup2\n      0xffffffffffffffffffffffffffffffffffffffff\n      mul\n      not\n      and\n      swap1\n      dup4\n      0xffffffffffffffffffffffffffffffffffffffff\n      and\n      mul\n      or\n      swap1\n      sstore\n      pop\n        /* \"WalletContract.sol\":3270:3277  return; */\n      pop\n        /* \"WalletContract.sol\":2104:3284  function registerToWalletContract(string memory name) public {... */\n      pop\n      jump\t// out\n    tag_61:\n      dup3\n      dup1\n      sload\n      dup3\n      dup3\n      sstore\n      swap1\n      0x00\n      mstore\n      keccak256(0x00, 0x20)\n      swap1\n      dup2\n      add\n      swap3\n      dup3\n      iszero\n      tag_78\n      jumpi\n      swap2\n      0x20\n      mul\n      dup3\n      add\n    tag_79:\n      dup3\n      dup2\n      gt\n      iszero\n      tag_80\n      jumpi\n      dup3\n      mload\n      dup3\n      exp(0x0100, 0x00)\n      dup2\n      sload\n      dup2\n      0xffffffffffffffffffffffffffffffffffffffff\n      mul\n      not\n      and\n      swap1\n      dup4\n      0xffffffffffffffffffffffffffffffffffffffff\n      and\n      mul\n      or\n      swap1\n      sstore\n      pop\n      swap2\n      0x20\n      add\n      swap2\n      swap1\n      0x01\n      add\n      swap1\n      jump(tag_79)\n    tag_80:\n    tag_78:\n      pop\n      swap1\n      pop\n      tag_81\n      swap2\n      swap1\n      tag_82\n      jump\t// in\n    tag_81:\n      pop\n      swap1\n      jump\t// out\n    tag_66:\n      dup3\n      dup1\n      sload\n      dup3\n      dup3\n      sstore\n      swap1\n      0x00\n      mstore\n      keccak256(0x00, 0x20)\n      swap1\n      dup2\n      add\n      swap3\n      dup3\n      iszero\n      tag_83\n      jumpi\n      swap2\n      0x20\n      mul\n      dup3\n      add\n    tag_84:\n      dup3\n      dup2\n      gt\n      iszero\n      tag_85\n      jumpi\n      dup3\n      mload\n      dup3\n      swap1\n      dup2\n      tag_86\n      swap2\n      swap1\n      tag_59\n      jump\t// in\n    tag_86:\n      pop\n      swap2\n      0x20\n      add\n      swap2\n      swap1\n      0x01\n      add\n      swap1\n      jump(tag_84)\n    tag_85:\n    tag_83:\n      pop\n      swap1\n      pop\n      tag_87\n      swap2\n      swap1\n      tag_88\n      jump\t// in\n    tag_87:\n      pop\n      swap1\n      jump\t// out\n    tag_82:\n    tag_89:\n      dup1\n      dup3\n      gt\n      iszero\n      tag_90\n      jumpi\n      0x00\n      dup2\n      0x00\n      swap1\n      sstore\n      pop\n      0x01\n      add\n      jump(tag_89)\n    tag_90:\n      pop\n      swap1\n      jump\t// out\n    tag_88:\n    tag_91:\n      dup1\n      dup3\n      gt\n      iszero\n      tag_92\n      jumpi\n      0x00\n      dup2\n      dup2\n      tag_93\n      swap2\n      swap1\n      tag_94\n      jump\t// in\n    tag_93:\n      pop\n      0x01\n      add\n      jump(tag_91)\n    tag_92:\n      pop\n      swap1\n      jump\t// out\n    tag_94:\n      pop\n      dup1\n      sload\n      tag_95\n      swap1\n      tag_96\n      jump\t// in\n    tag_95:\n      0x00\n      dup3\n      sstore\n      dup1\n      0x1f\n      lt\n      tag_98\n      jumpi\n      pop\n      jump(tag_97)\n    tag_98:\n      0x1f\n      add\n      0x20\n      swap1\n      div\n      swap1\n      0x00\n      mstore\n      keccak256(0x00, 0x20)\n      swap1\n      dup2\n      add\n      swap1\n      tag_99\n      swap2\n      swap1\n      tag_82\n      jump\t// in\n    tag_99:\n    tag_97:\n      pop\n      jump\t// out\n        /* \"#utility.yul\":7:82   */\n    tag_100:\n        /* \"#utility.yul\":40:46   */\n      0x00\n        /* \"#utility.yul\":73:75   */\n      0x40\n        /* \"#utility.yul\":67:76   */\n      mload\n        /* \"#utility.yul\":57:76   */\n      swap1\n      pop\n        /* \"#utility.yul\":7:82   */\n      swap1\n      jump\t// out\n        /* \"#utility.yul\":88:205   */\n    tag_101:\n        /* \"#utility.yul\":197:198   */\n      0x00\n        /* \"#utility.yul\":194:195   */\n      dup1\n        /* \"#utility.yul\":187:199   */\n      revert\n        /* \"#utility.yul\":211:328   */\n    tag_102:\n        /* \"#utility.yul\":320:321   */\n      0x00\n        /* \"#utility.yul\":317:318   */\n      dup1\n        /* \"#utility.yul\":310:322   */\n      revert\n        /* \"#utility.yul\":334:460   */\n    tag_103:\n        /* \"#utility.yul\":371:378   */\n      0x00\n        /* \"#utility.yul\":411:453   */\n      0xffffffffffffffffffffffffffffffffffffffff\n        /* \"#utility.yul\":404:409   */\n      dup3\n        /* \"#utility.yul\":400:454   */\n      and\n        /* \"#utility.yul\":389:454   */\n      swap1\n      pop\n        /* \"#utility.yul\":334:460   */\n      swap2\n      swap1\n      pop\n      jump\t// out\n        /* \"#utility.yul\":466:562   */\n    tag_104:\n        /* \"#utility.yul\":503:510   */\n      0x00\n        /* \"#utility.yul\":532:556   */\n      tag_149\n        /* \"#utility.yul\":550:555   */\n      dup3\n        /* \"#utility.yul\":532:556   */\n      tag_103\n      jump\t// in\n    tag_149:\n        /* \"#utility.yul\":521:556   */\n      swap1\n      pop\n        /* \"#utility.yul\":466:562   */\n      swap2\n      swap1\n      pop\n      jump\t// out\n        /* \"#utility.yul\":568:690   */\n    tag_105:\n        /* \"#utility.yul\":641:665   */\n      tag_151\n        /* \"#utility.yul\":659:664   */\n      dup2\n        /* \"#utility.yul\":641:665   */\n      tag_104\n      jump\t// in\n    tag_151:\n        /* \"#utility.yul\":634:639   */\n      dup2\n        /* \"#utility.yul\":631:666   */\n      eq\n        /* \"#utility.yul\":621:684   */\n      tag_152\n      jumpi\n        /* \"#utility.yul\":680:681   */\n      0x00\n        /* \"#utility.yul\":677:678   */\n      dup1\n        /* \"#utility.yul\":670:682   */\n      revert\n        /* \"#utility.yul\":621:684   */\n    tag_152:\n        /* \"#utility.yul\":568:690   */\n      pop\n      jump\t// out\n        /* \"#utility.yul\":696:835   */\n    tag_106:\n        /* \"#utility.yul\":742:747   */\n      0x00\n        /* \"#utility.yul\":780:786   */\n      dup2\n        /* \"#utility.yul\":767:787   */\n      calldataload\n        /* \"#utility.yul\":758:787   */\n      swap1\n      pop\n        /* \"#utility.yul\":796:829   */\n      tag_154\n        /* \"#utility.yul\":823:828   */\n      dup2\n        /* \"#utility.yul\":796:829   */\n      tag_105\n      jump\t// in\n    tag_154:\n        /* \"#utility.yul\":696:835   */\n      swap3\n      swap2\n      pop\n      pop\n      jump\t// out\n        /* \"#utility.yul\":841:1170   */\n    tag_7:\n        /* \"#utility.yul\":900:906   */\n      0x00\n        /* \"#utility.yul\":949:951   */\n      0x20\n        /* \"#utility.yul\":937:946   */\n      dup3\n        /* \"#utility.yul\":928:935   */\n      dup5\n        /* \"#utility.yul\":924:947   */\n      sub\n        /* \"#utility.yul\":920:952   */\n      slt\n        /* \"#utility.yul\":917:1036   */\n      iszero\n      tag_156\n      jumpi\n        /* \"#utility.yul\":955:1034   */\n      tag_157\n      tag_101\n      jump\t// in\n    tag_157:\n        /* \"#utility.yul\":917:1036   */\n    tag_156:\n        /* \"#utility.yul\":1075:1076   */\n      0x00\n        /* \"#utility.yul\":1100:1153   */\n      tag_158\n        /* \"#utility.yul\":1145:1152   */\n      dup5\n        /* \"#utility.yul\":1136:1142   */\n      dup3\n        /* \"#utility.yul\":1125:1134   */\n      dup6\n        /* \"#utility.yul\":1121:1143   */\n      add\n        /* \"#utility.yul\":1100:1153   */\n      tag_106\n      jump\t// in\n    tag_158:\n        /* \"#utility.yul\":1090:1153   */\n      swap2\n      pop\n        /* \"#utility.yul\":1046:1163   */\n      pop\n        /* \"#utility.yul\":841:1170   */\n      swap3\n      swap2\n      pop\n      pop\n      jump\t// out\n        /* \"#utility.yul\":1176:1266   */\n    tag_107:\n        /* \"#utility.yul\":1210:1217   */\n      0x00\n        /* \"#utility.yul\":1253:1258   */\n      dup2\n        /* \"#utility.yul\":1246:1259   */\n      iszero\n        /* \"#utility.yul\":1239:1260   */\n      iszero\n        /* \"#utility.yul\":1228:1260   */\n      swap1\n      pop\n        /* \"#utility.yul\":1176:1266   */\n      swap2\n      swap1\n      pop\n      jump\t// out\n        /* \"#utility.yul\":1272:1381   */\n    tag_108:\n        /* \"#utility.yul\":1353:1374   */\n      tag_161\n        /* \"#utility.yul\":1368:1373   */\n      dup2\n        /* \"#utility.yul\":1353:1374   */\n      tag_107\n      jump\t// in\n    tag_161:\n        /* \"#utility.yul\":1348:1351   */\n      dup3\n        /* \"#utility.yul\":1341:1375   */\n      mstore\n        /* \"#utility.yul\":1272:1381   */\n      pop\n      pop\n      jump\t// out\n        /* \"#utility.yul\":1387:1597   */\n    tag_10:\n        /* \"#utility.yul\":1474:1478   */\n      0x00\n        /* \"#utility.yul\":1512:1514   */\n      0x20\n        /* \"#utility.yul\":1501:1510   */\n      dup3\n        /* \"#utility.yul\":1497:1515   */\n      add\n        /* \"#utility.yul\":1489:1515   */\n      swap1\n      pop\n        /* \"#utility.yul\":1525:1590   */\n      tag_163\n        /* \"#utility.yul\":1587:1588   */\n      0x00\n        /* \"#utility.yul\":1576:1585   */\n      dup4\n        /* \"#utility.yul\":1572:1589   */\n      add\n        /* \"#utility.yul\":1563:1569   */\n      dup5\n        /* \"#utility.yul\":1525:1590   */\n      tag_108\n      jump\t// in\n    tag_163:\n        /* \"#utility.yul\":1387:1597   */\n      swap3\n      swap2\n      pop\n      pop\n      jump\t// out\n        /* \"#utility.yul\":1603:1720   */\n    tag_109:\n        /* \"#utility.yul\":1712:1713   */\n      0x00\n        /* \"#utility.yul\":1709:1710   */\n      dup1\n        /* \"#utility.yul\":1702:1714   */\n      revert\n        /* \"#utility.yul\":1726:1843   */\n    tag_110:\n        /* \"#utility.yul\":1835:1836   */\n      0x00\n        /* \"#utility.yul\":1832:1833   */\n      dup1\n        /* \"#utility.yul\":1825:1837   */\n      revert\n        /* \"#utility.yul\":1849:1951   */\n    tag_111:\n        /* \"#utility.yul\":1890:1896   */\n      0x00\n        /* \"#utility.yul\":1941:1943   */\n      0x1f\n        /* \"#utility.yul\":1937:1944   */\n      not\n        /* \"#utility.yul\":1932:1934   */\n      0x1f\n        /* \"#utility.yul\":1925:1930   */\n      dup4\n        /* \"#utility.yul\":1921:1935   */\n      add\n        /* \"#utility.yul\":1917:1945   */\n      and\n        /* \"#utility.yul\":1907:1945   */\n      swap1\n      pop\n        /* \"#utility.yul\":1849:1951   */\n      swap2\n      swap1\n      pop\n      jump\t// out\n        /* \"#utility.yul\":1957:2137   */\n    tag_33:\n        /* \"#utility.yul\":2005:2082   */\n      0x4e487b7100000000000000000000000000000000000000000000000000000000\n        /* \"#utility.yul\":2002:2003   */\n      0x00\n        /* \"#utility.yul\":1995:2083   */\n      mstore\n        /* \"#utility.yul\":2102:2106   */\n      0x41\n        /* \"#utility.yul\":2099:2100   */\n      0x04\n        /* \"#utility.yul\":2092:2107   */\n      mstore\n        /* \"#utility.yul\":2126:2130   */\n      0x24\n        /* \"#utility.yul\":2123:2124   */\n      0x00\n        /* \"#utility.yul\":2116:2131   */\n      revert\n        /* \"#utility.yul\":2143:2424   */\n    tag_112:\n        /* \"#utility.yul\":2226:2253   */\n      tag_169\n        /* \"#utility.yul\":2248:2252   */\n      dup3\n        /* \"#utility.yul\":2226:2253   */\n      tag_111\n      jump\t// in\n    tag_169:\n        /* \"#utility.yul\":2218:2224   */\n      dup2\n        /* \"#utility.yul\":2214:2254   */\n      add\n        /* \"#utility.yul\":2356:2362   */\n      dup2\n        /* \"#utility.yul\":2344:2354   */\n      dup2\n        /* \"#utility.yul\":2341:2363   */\n      lt\n        /* \"#utility.yul\":2320:2338   */\n      0xffffffffffffffff\n        /* \"#utility.yul\":2308:2318   */\n      dup3\n        /* \"#utility.yul\":2305:2339   */\n      gt\n        /* \"#utility.yul\":2302:2364   */\n      or\n        /* \"#utility.yul\":2299:2387   */\n      iszero\n      tag_170\n      jumpi\n        /* \"#utility.yul\":2367:2385   */\n      tag_171\n      tag_33\n      jump\t// in\n    tag_171:\n        /* \"#utility.yul\":2299:2387   */\n    tag_170:\n        /* \"#utility.yul\":2407:2417   */\n      dup1\n        /* \"#utility.yul\":2403:2405   */\n      0x40\n        /* \"#utility.yul\":2396:2418   */\n      mstore\n        /* \"#utility.yul\":2186:2424   */\n      pop\n        /* \"#utility.yul\":2143:2424   */\n      pop\n      pop\n      jump\t// out\n        /* \"#utility.yul\":2430:2559   */\n    tag_113:\n        /* \"#utility.yul\":2464:2470   */\n      0x00\n        /* \"#utility.yul\":2491:2511   */\n      tag_173\n      tag_100\n      jump\t// in\n    tag_173:\n        /* \"#utility.yul\":2481:2511   */\n      swap1\n      pop\n        /* \"#utility.yul\":2520:2553   */\n      tag_174\n        /* \"#utility.yul\":2548:2552   */\n      dup3\n        /* \"#utility.yul\":2540:2546   */\n      dup3\n        /* \"#utility.yul\":2520:2553   */\n      tag_112\n      jump\t// in\n    tag_174:\n        /* \"#utility.yul\":2430:2559   */\n      swap2\n      swap1\n      pop\n      jump\t// out\n        /* \"#utility.yul\":2565:2873   */\n    tag_114:\n        /* \"#utility.yul\":2627:2631   */\n      0x00\n        /* \"#utility.yul\":2717:2735   */\n      0xffffffffffffffff\n        /* \"#utility.yul\":2709:2715   */\n      dup3\n        /* \"#utility.yul\":2706:2736   */\n      gt\n        /* \"#utility.yul\":2703:2759   */\n      iszero\n      tag_176\n      jumpi\n        /* \"#utility.yul\":2739:2757   */\n      tag_177\n      tag_33\n      jump\t// in\n    tag_177:\n        /* \"#utility.yul\":2703:2759   */\n    tag_176:\n        /* \"#utility.yul\":2777:2806   */\n      tag_178\n        /* \"#utility.yul\":2799:2805   */\n      dup3\n        /* \"#utility.yul\":2777:2806   */\n      tag_111\n      jump\t// in\n    tag_178:\n        /* \"#utility.yul\":2769:2806   */\n      swap1\n      pop\n        /* \"#utility.yul\":2861:2865   */\n      0x20\n        /* \"#utility.yul\":2855:2859   */\n      dup2\n        /* \"#utility.yul\":2851:2866   */\n      add\n        /* \"#utility.yul\":2843:2866   */\n      swap1\n      pop\n        /* \"#utility.yul\":2565:2873   */\n      swap2\n      swap1\n      pop\n      jump\t// out\n        /* \"#utility.yul\":2879:3025   */\n    tag_115:\n        /* \"#utility.yul\":2976:2982   */\n      dup3\n        /* \"#utility.yul\":2971:2974   */\n      dup2\n        /* \"#utility.yul\":2966:2969   */\n      dup4\n        /* \"#utility.yul\":2953:2983   */\n      calldatacopy\n        /* \"#utility.yul\":3017:3018   */\n      0x00\n        /* \"#utility.yul\":3008:3014   */\n      dup4\n        /* \"#utility.yul\":3003:3006   */\n      dup4\n        /* \"#utility.yul\":2999:3015   */\n      add\n        /* \"#utility.yul\":2992:3019   */\n      mstore\n        /* \"#utility.yul\":2879:3025   */\n      pop\n      pop\n      pop\n      jump\t// out\n        /* \"#utility.yul\":3031:3456   */\n    tag_116:\n        /* \"#utility.yul\":3109:3114   */\n      0x00\n        /* \"#utility.yul\":3134:3200   */\n      tag_181\n        /* \"#utility.yul\":3150:3199   */\n      tag_182\n        /* \"#utility.yul\":3192:3198   */\n      dup5\n        /* \"#utility.yul\":3150:3199   */\n      tag_114\n      jump\t// in\n    tag_182:\n        /* \"#utility.yul\":3134:3200   */\n      tag_113\n      jump\t// in\n    tag_181:\n        /* \"#utility.yul\":3125:3200   */\n      swap1\n      pop\n        /* \"#utility.yul\":3223:3229   */\n      dup3\n        /* \"#utility.yul\":3216:3221   */\n      dup2\n        /* \"#utility.yul\":3209:3230   */\n      mstore\n        /* \"#utility.yul\":3261:3265   */\n      0x20\n        /* \"#utility.yul\":3254:3259   */\n      dup2\n        /* \"#utility.yul\":3250:3266   */\n      add\n        /* \"#utility.yul\":3299:3302   */\n      dup5\n        /* \"#utility.yul\":3290:3296   */\n      dup5\n        /* \"#utility.yul\":3285:3288   */\n      dup5\n        /* \"#utility.yul\":3281:3297   */\n      add\n        /* \"#utility.yul\":3278:3303   */\n      gt\n        /* \"#utility.yul\":3275:3387   */\n      iszero\n      tag_183\n      jumpi\n        /* \"#utility.yul\":3306:3385   */\n      tag_184\n      tag_110\n      jump\t// in\n    tag_184:\n        /* \"#utility.yul\":3275:3387   */\n    tag_183:\n        /* \"#utility.yul\":3396:3450   */\n      tag_185\n        /* \"#utility.yul\":3443:3449   */\n      dup5\n        /* \"#utility.yul\":3438:3441   */\n      dup3\n        /* \"#utility.yul\":3433:3436   */\n      dup6\n        /* \"#utility.yul\":3396:3450   */\n      tag_115\n      jump\t// in\n    tag_185:\n        /* \"#utility.yul\":3115:3456   */\n      pop\n        /* \"#utility.yul\":3031:3456   */\n      swap4\n      swap3\n      pop\n      pop\n      pop\n      jump\t// out\n        /* \"#utility.yul\":3476:3816   */\n    tag_117:\n        /* \"#utility.yul\":3532:3537   */\n      0x00\n        /* \"#utility.yul\":3581:3584   */\n      dup3\n        /* \"#utility.yul\":3574:3578   */\n      0x1f\n        /* \"#utility.yul\":3566:3572   */\n      dup4\n        /* \"#utility.yul\":3562:3579   */\n      add\n        /* \"#utility.yul\":3558:3585   */\n      slt\n        /* \"#utility.yul\":3548:3670   */\n      tag_187\n      jumpi\n        /* \"#utility.yul\":3589:3668   */\n      tag_188\n      tag_109\n      jump\t// in\n    tag_188:\n        /* \"#utility.yul\":3548:3670   */\n    tag_187:\n        /* \"#utility.yul\":3706:3712   */\n      dup2\n        /* \"#utility.yul\":3693:3713   */\n      calldataload\n        /* \"#utility.yul\":3731:3810   */\n      tag_189\n        /* \"#utility.yul\":3806:3809   */\n      dup5\n        /* \"#utility.yul\":3798:3804   */\n      dup3\n        /* \"#utility.yul\":3791:3795   */\n      0x20\n        /* \"#utility.yul\":3783:3789   */\n      dup7\n        /* \"#utility.yul\":3779:3796   */\n      add\n        /* \"#utility.yul\":3731:3810   */\n      tag_116\n      jump\t// in\n    tag_189:\n        /* \"#utility.yul\":3722:3810   */\n      swap2\n      pop\n        /* \"#utility.yul\":3538:3816   */\n      pop\n        /* \"#utility.yul\":3476:3816   */\n      swap3\n      swap2\n      pop\n      pop\n      jump\t// out\n        /* \"#utility.yul\":3822:4331   */\n    tag_13:\n        /* \"#utility.yul\":3891:3897   */\n      0x00\n        /* \"#utility.yul\":3940:3942   */\n      0x20\n        /* \"#utility.yul\":3928:3937   */\n      dup3\n        /* \"#utility.yul\":3919:3926   */\n      dup5\n        /* \"#utility.yul\":3915:3938   */\n      sub\n        /* \"#utility.yul\":3911:3943   */\n      slt\n        /* \"#utility.yul\":3908:4027   */\n      iszero\n      tag_191\n      jumpi\n        /* \"#utility.yul\":3946:4025   */\n      tag_192\n      tag_101\n      jump\t// in\n    tag_192:\n        /* \"#utility.yul\":3908:4027   */\n    tag_191:\n        /* \"#utility.yul\":4094:4095   */\n      0x00\n        /* \"#utility.yul\":4083:4092   */\n      dup3\n        /* \"#utility.yul\":4079:4096   */\n      add\n        /* \"#utility.yul\":4066:4097   */\n      calldataload\n        /* \"#utility.yul\":4124:4142   */\n      0xffffffffffffffff\n        /* \"#utility.yul\":4116:4122   */\n      dup2\n        /* \"#utility.yul\":4113:4143   */\n      gt\n        /* \"#utility.yul\":4110:4227   */\n      iszero\n      tag_193\n      jumpi\n        /* \"#utility.yul\":4146:4225   */\n      tag_194\n      tag_102\n      jump\t// in\n    tag_194:\n        /* \"#utility.yul\":4110:4227   */\n    tag_193:\n        /* \"#utility.yul\":4251:4314   */\n      tag_195\n        /* \"#utility.yul\":4306:4313   */\n      dup5\n        /* \"#utility.yul\":4297:4303   */\n      dup3\n        /* \"#utility.yul\":4286:4295   */\n      dup6\n        /* \"#utility.yul\":4282:4304   */\n      add\n        /* \"#utility.yul\":4251:4314   */\n      tag_117\n      jump\t// in\n    tag_195:\n        /* \"#utility.yul\":4241:4314   */\n      swap2\n      pop\n        /* \"#utility.yul\":4037:4324   */\n      pop\n        /* \"#utility.yul\":3822:4331   */\n      swap3\n      swap2\n      pop\n      pop\n      jump\t// out\n        /* \"#utility.yul\":4337:4517   */\n    tag_21:\n        /* \"#utility.yul\":4385:4462   */\n      0x4e487b7100000000000000000000000000000000000000000000000000000000\n        /* \"#utility.yul\":4382:4383   */\n      0x00\n        /* \"#utility.yul\":4375:4463   */\n      mstore\n        /* \"#utility.yul\":4482:4486   */\n      0x32\n        /* \"#utility.yul\":4479:4480   */\n      0x04\n        /* \"#utility.yul\":4472:4487   */\n      mstore\n        /* \"#utility.yul\":4506:4510   */\n      0x24\n        /* \"#utility.yul\":4503:4504   */\n      0x00\n        /* \"#utility.yul\":4496:4511   */\n      revert\n        /* \"#utility.yul\":4523:4703   */\n    tag_118:\n        /* \"#utility.yul\":4571:4648   */\n      0x4e487b7100000000000000000000000000000000000000000000000000000000\n        /* \"#utility.yul\":4568:4569   */\n      0x00\n        /* \"#utility.yul\":4561:4649   */\n      mstore\n        /* \"#utility.yul\":4668:4672   */\n      0x11\n        /* \"#utility.yul\":4665:4666   */\n      0x04\n        /* \"#utility.yul\":4658:4673   */\n      mstore\n        /* \"#utility.yul\":4692:4696   */\n      0x24\n        /* \"#utility.yul\":4689:4690   */\n      0x00\n        /* \"#utility.yul\":4682:4697   */\n      revert\n        /* \"#utility.yul\":4709:4786   */\n    tag_119:\n        /* \"#utility.yul\":4746:4753   */\n      0x00\n        /* \"#utility.yul\":4775:4780   */\n      dup2\n        /* \"#utility.yul\":4764:4780   */\n      swap1\n      pop\n        /* \"#utility.yul\":4709:4786   */\n      swap2\n      swap1\n      pop\n      jump\t// out\n        /* \"#utility.yul\":4792:5025   */\n    tag_25:\n        /* \"#utility.yul\":4831:4834   */\n      0x00\n        /* \"#utility.yul\":4854:4878   */\n      tag_200\n        /* \"#utility.yul\":4872:4877   */\n      dup3\n        /* \"#utility.yul\":4854:4878   */\n      tag_119\n      jump\t// in\n    tag_200:\n        /* \"#utility.yul\":4845:4878   */\n      swap2\n      pop\n        /* \"#utility.yul\":4900:4966   */\n      0xffffffffffffffffffffffffffffffffffffffffffffffffffffffffffffffff\n        /* \"#utility.yul\":4893:4898   */\n      dup3\n        /* \"#utility.yul\":4890:4967   */\n      sub\n        /* \"#utility.yul\":4887:4990   */\n      tag_201\n      jumpi\n        /* \"#utility.yul\":4970:4988   */\n      tag_202\n      tag_118\n      jump\t// in\n    tag_202:\n        /* \"#utility.yul\":4887:4990   */\n    tag_201:\n        /* \"#utility.yul\":5017:5018   */\n      0x01\n        /* \"#utility.yul\":5010:5015   */\n      dup3\n        /* \"#utility.yul\":5006:5019   */\n      add\n        /* \"#utility.yul\":4999:5019   */\n      swap1\n      pop\n        /* \"#utility.yul\":4792:5025   */\n      swap2\n      swap1\n      pop\n      jump\t// out\n        /* \"#utility.yul\":5031:5200   */\n    tag_120:\n        /* \"#utility.yul\":5115:5126   */\n      0x00\n        /* \"#utility.yul\":5149:5155   */\n      dup3\n        /* \"#utility.yul\":5144:5147   */\n      dup3\n        /* \"#utility.yul\":5137:5156   */\n      mstore\n        /* \"#utility.yul\":5189:5193   */\n      0x20\n        /* \"#utility.yul\":5184:5187   */\n      dup3\n        /* \"#utility.yul\":5180:5194   */\n      add\n        /* \"#utility.yul\":5165:5194   */\n      swap1\n      pop\n        /* \"#utility.yul\":5031:5200   */\n      swap3\n      swap2\n      pop\n      pop\n      jump\t// out\n        /* \"#utility.yul\":5206:5383   */\n    tag_121:\n        /* \"#utility.yul\":5346:5375   */\n      0x557365722068617320616c726561647920726567697374657265640000000000\n        /* \"#utility.yul\":5342:5343   */\n      0x00\n        /* \"#utility.yul\":5334:5340   */\n      dup3\n        /* \"#utility.yul\":5330:5344   */\n      add\n        /* \"#utility.yul\":5323:5376   */\n      mstore\n        /* \"#utility.yul\":5206:5383   */\n      pop\n      jump\t// out\n        /* \"#utility.yul\":5389:5755   */\n    tag_122:\n        /* \"#utility.yul\":5531:5534   */\n      0x00\n        /* \"#utility.yul\":5552:5619   */\n      tag_206\n        /* \"#utility.yul\":5616:5618   */\n      0x1b\n        /* \"#utility.yul\":5611:5614   */\n      dup4\n        /* \"#utility.yul\":5552:5619   */\n      tag_120\n      jump\t// in\n    tag_206:\n        /* \"#utility.yul\":5545:5619   */\n      swap2\n      pop\n        /* \"#utility.yul\":5628:5721   */\n      tag_207\n        /* \"#utility.yul\":5717:5720   */\n      dup3\n        /* \"#utility.yul\":5628:5721   */\n      tag_121\n      jump\t// in\n    tag_207:\n        /* \"#utility.yul\":5746:5748   */\n      0x20\n        /* \"#utility.yul\":5741:5744   */\n      dup3\n        /* \"#utility.yul\":5737:5749   */\n      add\n        /* \"#utility.yul\":5730:5749   */\n      swap1\n      pop\n        /* \"#utility.yul\":5389:5755   */\n      swap2\n      swap1\n      pop\n      jump\t// out\n        /* \"#utility.yul\":5761:6180   */\n    tag_30:\n        /* \"#utility.yul\":5927:5931   */\n      0x00\n        /* \"#utility.yul\":5965:5967   */\n      0x20\n        /* \"#utility.yul\":5954:5963   */\n      dup3\n        /* \"#utility.yul\":5950:5968   */\n      add\n        /* \"#utility.yul\":5942:5968   */\n      swap1\n      pop\n        /* \"#utility.yul\":6014:6023   */\n      dup2\n        /* \"#utility.yul\":6008:6012   */\n      dup2\n        /* \"#utility.yul\":6004:6024   */\n      sub\n        /* \"#utility.yul\":6000:6001   */\n      0x00\n        /* \"#utility.yul\":5989:5998   */\n      dup4\n        /* \"#utility.yul\":5985:6002   */\n      add\n        /* \"#utility.yul\":5978:6025   */\n      mstore\n        /* \"#utility.yul\":6042:6173   */\n      tag_209\n        /* \"#utility.yul\":6168:6172   */\n      dup2\n        /* \"#utility.yul\":6042:6173   */\n      tag_122\n      jump\t// in\n    tag_209:\n        /* \"#utility.yul\":6034:6173   */\n      swap1\n      pop\n        /* \"#utility.yul\":5761:6180   */\n      swap2\n      swap1\n      pop\n      jump\t// out\n        /* \"#utility.yul\":6186:6366   */\n    tag_57:\n        /* \"#utility.yul\":6234:6311   */\n      0x4e487b7100000000000000000000000000000000000000000000000000000000\n        /* \"#utility.yul\":6231:6232   */\n      0x00\n        /* \"#utility.yul\":6224:6312   */\n      mstore\n        /* \"#utility.yul\":6331:6335   */\n      0x21\n        /* \"#utility.yul\":6328:6329   */\n      0x04\n        /* \"#utility.yul\":6321:6336   */\n      mstore\n        /* \"#utility.yul\":6355:6359   */\n      0x24\n        /* \"#utility.yul\":6352:6353   */\n      0x00\n        /* \"#utility.yul\":6345:6360   */\n      revert\n        /* \"#utility.yul\":6372:6471   */\n    tag_123:\n        /* \"#utility.yul\":6424:6430   */\n      0x00\n        /* \"#utility.yul\":6458:6463   */\n      dup2\n        /* \"#utility.yul\":6452:6464   */\n      mload\n        /* \"#utility.yul\":6442:6464   */\n      swap1\n      pop\n        /* \"#utility.yul\":6372:6471   */\n      swap2\n      swap1\n      pop\n      jump\t// out\n        /* \"#utility.yul\":6477:6657   */\n    tag_124:\n        /* \"#utility.yul\":6525:6602   */\n      0x4e487b7100000000000000000000000000000000000000000000000000000000\n        /* \"#utility.yul\":6522:6523   */\n      0x00\n        /* \"#utility.yul\":6515:6603   */\n      mstore\n        /* \"#utility.yul\":6622:6626   */\n      0x22\n        /* \"#utility.yul\":6619:6620   */\n      0x04\n        /* \"#utility.yul\":6612:6627   */\n      mstore\n        /* \"#utility.yul\":6646:6650   */\n      0x24\n        /* \"#utility.yul\":6643:6644   */\n      0x00\n        /* \"#utility.yul\":6636:6651   */\n      revert\n        /* \"#utility.yul\":6663:6983   */\n    tag_96:\n        /* \"#utility.yul\":6707:6713   */\n      0x00\n        /* \"#utility.yul\":6744:6745   */\n      0x02\n        /* \"#utility.yul\":6738:6742   */\n      dup3\n        /* \"#utility.yul\":6734:6746   */\n      div\n        /* \"#utility.yul\":6724:6746   */\n      swap1\n      pop\n        /* \"#utility.yul\":6791:6792   */\n      0x01\n        /* \"#utility.yul\":6785:6789   */\n      dup3\n        /* \"#utility.yul\":6781:6793   */\n      and\n        /* \"#utility.yul\":6812:6830   */\n      dup1\n        /* \"#utility.yul\":6802:6883   */\n      tag_214\n      jumpi\n        /* \"#utility.yul\":6868:6872   */\n      0x7f\n        /* \"#utility.yul\":6860:6866   */\n      dup3\n        /* \"#utility.yul\":6856:6873   */\n      and\n        /* \"#utility.yul\":6846:6873   */\n      swap2\n      pop\n        /* \"#utility.yul\":6802:6883   */\n    tag_214:\n        /* \"#utility.yul\":6930:6932   */\n      0x20\n        /* \"#utility.yul\":6922:6928   */\n      dup3\n        /* \"#utility.yul\":6919:6933   */\n      lt\n        /* \"#utility.yul\":6899:6917   */\n      dup2\n        /* \"#utility.yul\":6896:6934   */\n      sub\n        /* \"#utility.yul\":6893:6977   */\n      tag_215\n      jumpi\n        /* \"#utility.yul\":6949:6967   */\n      tag_216\n      tag_124\n      jump\t// in\n    tag_216:\n        /* \"#utility.yul\":6893:6977   */\n    tag_215:\n        /* \"#utility.yul\":6714:6983   */\n      pop\n        /* \"#utility.yul\":6663:6983   */\n      swap2\n      swap1\n      pop\n      jump\t// out\n        /* \"#utility.yul\":6989:7130   */\n    tag_125:\n        /* \"#utility.yul\":7038:7042   */\n      0x00\n        /* \"#utility.yul\":7061:7064   */\n      dup2\n        /* \"#utility.yul\":7053:7064   */\n      swap1\n      pop\n        /* \"#utility.yul\":7084:7087   */\n      dup2\n        /* \"#utility.yul\":7081:7082   */\n      0x00\n        /* \"#utility.yul\":7074:7088   */\n      mstore\n        /* \"#utility.yul\":7118:7122   */\n      0x20\n        /* \"#utility.yul\":7115:7116   */\n      0x00\n        /* \"#utility.yul\":7105:7123   */\n      keccak256\n        /* \"#utility.yul\":7097:7123   */\n      swap1\n      pop\n        /* \"#utility.yul\":6989:7130   */\n      swap2\n      swap1\n      pop\n      jump\t// out\n        /* \"#utility.yul\":7136:7229   */\n    tag_126:\n        /* \"#utility.yul\":7173:7179   */\n      0x00\n        /* \"#utility.yul\":7220:7222   */\n      0x20\n        /* \"#utility.yul\":7215:7217   */\n      0x1f\n        /* \"#utility.yul\":7208:7213   */\n      dup4\n        /* \"#utility.yul\":7204:7218   */\n      add\n        /* \"#utility.yul\":7200:7223   */\n      div\n        /* \"#utility.yul\":7190:7223   */\n      swap1\n      pop\n        /* \"#utility.yul\":7136:7229   */\n      swap2\n      swap1\n      pop\n      jump\t// out\n        /* \"#utility.yul\":7235:7342   */\n    tag_127:\n        /* \"#utility.yul\":7279:7287   */\n      0x00\n        /* \"#utility.yul\":7329:7334   */\n      dup3\n        /* \"#utility.yul\":7323:7327   */\n      dup3\n        /* \"#utility.yul\":7319:7335   */\n      shl\n        /* \"#utility.yul\":7298:7335   */\n      swap1\n      pop\n        /* \"#utility.yul\":7235:7342   */\n      swap3\n      swap2\n      pop\n      pop\n      jump\t// out\n        /* \"#utility.yul\":7348:7741   */\n    tag_128:\n        /* \"#utility.yul\":7417:7423   */\n      0x00\n        /* \"#utility.yul\":7467:7468   */\n      0x08\n        /* \"#utility.yul\":7455:7465   */\n      dup4\n        /* \"#utility.yul\":7451:7469   */\n      mul\n        /* \"#utility.yul\":7490:7587   */\n      tag_221\n        /* \"#utility.yul\":7520:7586   */\n      0xffffffffffffffffffffffffffffffffffffffffffffffffffffffffffffffff\n        /* \"#utility.yul\":7509:7518   */\n      dup3\n        /* \"#utility.yul\":7490:7587   */\n      tag_127\n      jump\t// in\n    tag_221:\n        /* \"#utility.yul\":7608:7647   */\n      tag_222\n        /* \"#utility.yul\":7638:7646   */\n      dup7\n        /* \"#utility.yul\":7627:7636   */\n      dup4\n        /* \"#utility.yul\":7608:7647   */\n      tag_127\n      jump\t// in\n    tag_222:\n        /* \"#utility.yul\":7596:7647   */\n      swap6\n      pop\n        /* \"#utility.yul\":7680:7684   */\n      dup1\n        /* \"#utility.yul\":7676:7685   */\n      not\n        /* \"#utility.yul\":7669:7674   */\n      dup5\n        /* \"#utility.yul\":7665:7686   */\n      and\n        /* \"#utility.yul\":7656:7686   */\n      swap4\n      pop\n        /* \"#utility.yul\":7729:7733   */\n      dup1\n        /* \"#utility.yul\":7719:7727   */\n      dup7\n        /* \"#utility.yul\":7715:7734   */\n      and\n        /* \"#utility.yul\":7708:7713   */\n      dup5\n        /* \"#utility.yul\":7705:7735   */\n      or\n        /* \"#utility.yul\":7695:7735   */\n      swap3\n      pop\n        /* \"#utility.yul\":7424:7741   */\n      pop\n      pop\n        /* \"#utility.yul\":7348:7741   */\n      swap4\n      swap3\n      pop\n      pop\n      pop\n      jump\t// out\n        /* \"#utility.yul\":7747:7807   */\n    tag_129:\n        /* \"#utility.yul\":7775:7778   */\n      0x00\n        /* \"#utility.yul\":7796:7801   */\n      dup2\n        /* \"#utility.yul\":7789:7801   */\n      swap1\n      pop\n        /* \"#utility.yul\":7747:7807   */\n      swap2\n      swap1\n      pop\n      jump\t// out\n        /* \"#utility.yul\":7813:7955   */\n    tag_130:\n        /* \"#utility.yul\":7863:7872   */\n      0x00\n        /* \"#utility.yul\":7896:7949   */\n      tag_225\n        /* \"#utility.yul\":7914:7948   */\n      tag_226\n        /* \"#utility.yul\":7923:7947   */\n      tag_227\n        /* \"#utility.yul\":7941:7946   */\n      dup5\n        /* \"#utility.yul\":7923:7947   */\n      tag_119\n      jump\t// in\n    tag_227:\n        /* \"#utility.yul\":7914:7948   */\n      tag_129\n      jump\t// in\n    tag_226:\n        /* \"#utility.yul\":7896:7949   */\n      tag_119\n      jump\t// in\n    tag_225:\n        /* \"#utility.yul\":7883:7949   */\n      swap1\n      pop\n        /* \"#utility.yul\":7813:7955   */\n      swap2\n      swap1\n      pop\n      jump\t// out\n        /* \"#utility.yul\":7961:8036   */\n    tag_131:\n        /* \"#utility.yul\":8004:8007   */\n      0x00\n        /* \"#utility.yul\":8025:8030   */\n      dup2\n        /* \"#utility.yul\":8018:8030   */\n      swap1\n      pop\n        /* \"#utility.yul\":7961:8036   */\n      swap2\n      swap1\n      pop\n      jump\t// out\n        /* \"#utility.yul\":8042:8311   */\n    tag_132:\n        /* \"#utility.yul\":8152:8191   */\n      tag_230\n        /* \"#utility.yul\":8183:8190   */\n      dup4\n        /* \"#utility.yul\":8152:8191   */\n      tag_130\n      jump\t// in\n    tag_230:\n        /* \"#utility.yul\":8213:8304   */\n      tag_231\n        /* \"#utility.yul\":8262:8303   */\n      tag_232\n        /* \"#utility.yul\":8286:8302   */\n      dup3\n        /* \"#utility.yul\":8262:8303   */\n      tag_131\n      jump\t// in\n    tag_232:\n        /* \"#utility.yul\":8254:8260   */\n      dup5\n        /* \"#utility.yul\":8247:8251   */\n      dup5\n        /* \"#utility.yul\":8241:8252   */\n      sload\n        /* \"#utility.yul\":8213:8304   */\n      tag_128\n      jump\t// in\n    tag_231:\n        /* \"#utility.yul\":8207:8211   */\n      dup3\n        /* \"#utility.yul\":8200:8305   */\n      sstore\n        /* \"#utility.yul\":8118:8311   */\n      pop\n        /* \"#utility.yul\":8042:8311   */\n      pop\n      pop\n      pop\n      jump\t// out\n        /* \"#utility.yul\":8317:8390   */\n    tag_133:\n        /* \"#utility.yul\":8362:8365   */\n      0x00\n        /* \"#utility.yul\":8317:8390   */\n      swap1\n      jump\t// out\n        /* \"#utility.yul\":8396:8585   */\n    tag_134:\n        /* \"#utility.yul\":8473:8505   */\n      tag_235\n      tag_133\n      jump\t// in\n    tag_235:\n        /* \"#utility.yul\":8514:8579   */\n      tag_236\n        /* \"#utility.yul\":8572:8578   */\n      dup2\n        /* \"#utility.yul\":8564:8570   */\n      dup5\n        /* \"#utility.yul\":8558:8562   */\n      dup5\n        /* \"#utility.yul\":8514:8579   */\n      tag_132\n      jump\t// in\n    tag_236:\n        /* \"#utility.yul\":8449:8585   */\n      pop\n        /* \"#utility.yul\":8396:8585   */\n      pop\n      pop\n      jump\t// out\n        /* \"#utility.yul\":8591:8777   */\n    tag_135:\n        /* \"#utility.yul\":8651:8771   */\n    tag_238:\n        /* \"#utility.yul\":8668:8671   */\n      dup2\n        /* \"#utility.yul\":8661:8666   */\n      dup2\n        /* \"#utility.yul\":8658:8672   */\n      lt\n        /* \"#utility.yul\":8651:8771   */\n      iszero\n      tag_240\n      jumpi\n        /* \"#utility.yul\":8722:8761   */\n      tag_241\n        /* \"#utility.yul\":8759:8760   */\n      0x00\n        /* \"#utility.yul\":8752:8757   */\n      dup3\n        /* \"#utility.yul\":8722:8761   */\n      tag_134\n      jump\t// in\n    tag_241:\n        /* \"#utility.yul\":8695:8696   */\n      0x01\n        /* \"#utility.yul\":8688:8693   */\n      dup2\n        /* \"#utility.yul\":8684:8697   */\n      add\n        /* \"#utility.yul\":8675:8697   */\n      swap1\n      pop\n        /* \"#utility.yul\":8651:8771   */\n      jump(tag_238)\n    tag_240:\n        /* \"#utility.yul\":8591:8777   */\n      pop\n      pop\n      jump\t// out\n        /* \"#utility.yul\":8783:9326   */\n    tag_136:\n        /* \"#utility.yul\":8884:8886   */\n      0x1f\n        /* \"#utility.yul\":8879:8882   */\n      dup3\n        /* \"#utility.yul\":8876:8887   */\n      gt\n        /* \"#utility.yul\":8873:9319   */\n      iszero\n      tag_243\n      jumpi\n        /* \"#utility.yul\":8918:8956   */\n      tag_244\n        /* \"#utility.yul\":8950:8955   */\n      dup2\n        /* \"#utility.yul\":8918:8956   */\n      tag_125\n      jump\t// in\n    tag_244:\n        /* \"#utility.yul\":9002:9031   */\n      tag_245\n        /* \"#utility.yul\":9020:9030   */\n      dup5\n        /* \"#utility.yul\":9002:9031   */\n      tag_126\n      jump\t// in\n    tag_245:\n        /* \"#utility.yul\":8992:9000   */\n      dup2\n        /* \"#utility.yul\":8988:9032   */\n      add\n        /* \"#utility.yul\":9185:9187   */\n      0x20\n        /* \"#utility.yul\":9173:9183   */\n      dup6\n        /* \"#utility.yul\":9170:9188   */\n      lt\n        /* \"#utility.yul\":9167:9216   */\n      iszero\n      tag_246\n      jumpi\n        /* \"#utility.yul\":9206:9214   */\n      dup2\n        /* \"#utility.yul\":9191:9214   */\n      swap1\n      pop\n        /* \"#utility.yul\":9167:9216   */\n    tag_246:\n        /* \"#utility.yul\":9229:9309   */\n      tag_247\n        /* \"#utility.yul\":9285:9307   */\n      tag_248\n        /* \"#utility.yul\":9303:9306   */\n      dup6\n        /* \"#utility.yul\":9285:9307   */\n      tag_126\n      jump\t// in\n    tag_248:\n        /* \"#utility.yul\":9275:9283   */\n      dup4\n        /* \"#utility.yul\":9271:9308   */\n      add\n        /* \"#utility.yul\":9258:9269   */\n      dup3\n        /* \"#utility.yul\":9229:9309   */\n      tag_135\n      jump\t// in\n    tag_247:\n        /* \"#utility.yul\":8888:9319   */\n      pop\n      pop\n        /* \"#utility.yul\":8873:9319   */\n    tag_243:\n        /* \"#utility.yul\":8783:9326   */\n      pop\n      pop\n      pop\n      jump\t// out\n        /* \"#utility.yul\":9332:9449   */\n    tag_137:\n        /* \"#utility.yul\":9386:9394   */\n      0x00\n        /* \"#utility.yul\":9436:9441   */\n      dup3\n        /* \"#utility.yul\":9430:9434   */\n      dup3\n        /* \"#utility.yul\":9426:9442   */\n      shr\n        /* \"#utility.yul\":9405:9442   */\n      swap1\n      pop\n        /* \"#utility.yul\":9332:9449   */\n      swap3\n      swap2\n      pop\n      pop\n      jump\t// out\n        /* \"#utility.yul\":9455:9624   */\n    tag_138:\n        /* \"#utility.yul\":9499:9505   */\n      0x00\n        /* \"#utility.yul\":9532:9583   */\n      tag_251\n        /* \"#utility.yul\":9580:9581   */\n      0x00\n        /* \"#utility.yul\":9576:9582   */\n      not\n        /* \"#utility.yul\":9568:9573   */\n      dup5\n        /* \"#utility.yul\":9565:9566   */\n      0x08\n        /* \"#utility.yul\":9561:9574   */\n      mul\n        /* \"#utility.yul\":9532:9583   */\n      tag_137\n      jump\t// in\n    tag_251:\n        /* \"#utility.yul\":9528:9584   */\n      not\n        /* \"#utility.yul\":9613:9617   */\n      dup1\n        /* \"#utility.yul\":9607:9611   */\n      dup4\n        /* \"#utility.yul\":9603:9618   */\n      and\n        /* \"#utility.yul\":9593:9618   */\n      swap2\n      pop\n        /* \"#utility.yul\":9506:9624   */\n      pop\n        /* \"#utility.yul\":9455:9624   */\n      swap3\n      swap2\n      pop\n      pop\n      jump\t// out\n        /* \"#utility.yul\":9629:9924   */\n    tag_139:\n        /* \"#utility.yul\":9705:9709   */\n      0x00\n        /* \"#utility.yul\":9851:9880   */\n      tag_253\n        /* \"#utility.yul\":9876:9879   */\n      dup4\n        /* \"#utility.yul\":9870:9874   */\n      dup4\n        /* \"#utility.yul\":9851:9880   */\n      tag_138\n      jump\t// in\n    tag_253:\n        /* \"#utility.yul\":9843:9880   */\n      swap2\n      pop\n        /* \"#utility.yul\":9913:9916   */\n      dup3\n        /* \"#utility.yul\":9910:9911   */\n      0x02\n        /* \"#utility.yul\":9906:9917   */\n      mul\n        /* \"#utility.yul\":9900:9904   */\n      dup3\n        /* \"#utility.yul\":9897:9918   */\n      or\n        /* \"#utility.yul\":9889:9918   */\n      swap1\n      pop\n        /* \"#utility.yul\":9629:9924   */\n      swap3\n      swap2\n      pop\n      pop\n      jump\t// out\n        /* \"#utility.yul\":9929:11324   */\n    tag_59:\n        /* \"#utility.yul\":10046:10083   */\n      tag_255\n        /* \"#utility.yul\":10079:10082   */\n      dup3\n        /* \"#utility.yul\":10046:10083   */\n      tag_123\n      jump\t// in\n    tag_255:\n        /* \"#utility.yul\":10148:10166   */\n      0xffffffffffffffff\n        /* \"#utility.yul\":10140:10146   */\n      dup2\n        /* \"#utility.yul\":10137:10167   */\n      gt\n        /* \"#utility.yul\":10134:10190   */\n      iszero\n      tag_256\n      jumpi\n        /* \"#utility.yul\":10170:10188   */\n      tag_257\n      tag_33\n      jump\t// in\n    tag_257:\n        /* \"#utility.yul\":10134:10190   */\n    tag_256:\n        /* \"#utility.yul\":10214:10252   */\n      tag_258\n        /* \"#utility.yul\":10246:10250   */\n      dup3\n        /* \"#utility.yul\":10240:10251   */\n      sload\n        /* \"#utility.yul\":10214:10252   */\n      tag_96\n      jump\t// in\n    tag_258:\n        /* \"#utility.yul\":10299:10366   */\n      tag_259\n        /* \"#utility.yul\":10359:10365   */\n      dup3\n        /* \"#utility.yul\":10351:10357   */\n      dup3\n        /* \"#utility.yul\":10345:10349   */\n      dup6\n        /* \"#utility.yul\":10299:10366   */\n      tag_136\n      jump\t// in\n    tag_259:\n        /* \"#utility.yul\":10393:10394   */\n      0x00\n        /* \"#utility.yul\":10417:10421   */\n      0x20\n        /* \"#utility.yul\":10404:10421   */\n      swap1\n      pop\n        /* \"#utility.yul\":10449:10451   */\n      0x1f\n        /* \"#utility.yul\":10441:10447   */\n      dup4\n        /* \"#utility.yul\":10438:10452   */\n      gt\n        /* \"#utility.yul\":10466:10467   */\n      0x01\n        /* \"#utility.yul\":10461:11079   */\n      dup2\n      eq\n      tag_261\n      jumpi\n        /* \"#utility.yul\":11123:11124   */\n      0x00\n        /* \"#utility.yul\":11140:11146   */\n      dup5\n        /* \"#utility.yul\":11137:11214   */\n      iszero\n      tag_262\n      jumpi\n        /* \"#utility.yul\":11189:11198   */\n      dup3\n        /* \"#utility.yul\":11184:11187   */\n      dup8\n        /* \"#utility.yul\":11180:11199   */\n      add\n        /* \"#utility.yul\":11174:11200   */\n      mload\n        /* \"#utility.yul\":11165:11200   */\n      swap1\n      pop\n        /* \"#utility.yul\":11137:11214   */\n    tag_262:\n        /* \"#utility.yul\":11240:11307   */\n      tag_263\n        /* \"#utility.yul\":11300:11306   */\n      dup6\n        /* \"#utility.yul\":11293:11298   */\n      dup3\n        /* \"#utility.yul\":11240:11307   */\n      tag_139\n      jump\t// in\n    tag_263:\n        /* \"#utility.yul\":11234:11238   */\n      dup7\n        /* \"#utility.yul\":11227:11308   */\n      sstore\n        /* \"#utility.yul\":11096:11318   */\n      pop\n        /* \"#utility.yul\":10431:11318   */\n      jump(tag_260)\n        /* \"#utility.yul\":10461:11079   */\n    tag_261:\n        /* \"#utility.yul\":10513:10517   */\n      0x1f\n        /* \"#utility.yul\":10509:10518   */\n      not\n        /* \"#utility.yul\":10501:10507   */\n      dup5\n        /* \"#utility.yul\":10497:10519   */\n      and\n        /* \"#utility.yul\":10547:10584   */\n      tag_264\n        /* \"#utility.yul\":10579:10583   */\n      dup7\n        /* \"#utility.yul\":10547:10584   */\n      tag_125\n      jump\t// in\n    tag_264:\n        /* \"#utility.yul\":10606:10607   */\n      0x00\n        /* \"#utility.yul\":10620:10828   */\n    tag_265:\n        /* \"#utility.yul\":10634:10641   */\n      dup3\n        /* \"#utility.yul\":10631:10632   */\n      dup2\n        /* \"#utility.yul\":10628:10642   */\n      lt\n        /* \"#utility.yul\":10620:10828   */\n      iszero\n      tag_267\n      jumpi\n        /* \"#utility.yul\":10713:10722   */\n      dup5\n        /* \"#utility.yul\":10708:10711   */\n      dup10\n        /* \"#utility.yul\":10704:10723   */\n      add\n        /* \"#utility.yul\":10698:10724   */\n      mload\n        /* \"#utility.yul\":10690:10696   */\n      dup3\n        /* \"#utility.yul\":10683:10725   */\n      sstore\n        /* \"#utility.yul\":10764:10765   */\n      0x01\n        /* \"#utility.yul\":10756:10762   */\n      dup3\n        /* \"#utility.yul\":10752:10766   */\n      add\n        /* \"#utility.yul\":10742:10766   */\n      swap2\n      pop\n        /* \"#utility.yul\":10811:10813   */\n      0x20\n        /* \"#utility.yul\":10800:10809   */\n      dup6\n        /* \"#utility.yul\":10796:10814   */\n      add\n        /* \"#utility.yul\":10783:10814   */\n      swap5\n      pop\n        /* \"#utility.yul\":10657:10661   */\n      0x20\n        /* \"#utility.yul\":10654:10655   */\n      dup2\n        /* \"#utility.yul\":10650:10662   */\n      add\n        /* \"#utility.yul\":10645:10662   */\n      swap1\n      pop\n        /* \"#utility.yul\":10620:10828   */\n      jump(tag_265)\n    tag_267:\n        /* \"#utility.yul\":10856:10862   */\n      dup7\n        /* \"#utility.yul\":10847:10854   */\n      dup4\n        /* \"#utility.yul\":10844:10863   */\n      lt\n        /* \"#utility.yul\":10841:11020   */\n      iszero\n      tag_268\n      jumpi\n        /* \"#utility.yul\":10914:10923   */\n      dup5\n        /* \"#utility.yul\":10909:10912   */\n      dup10\n        /* \"#utility.yul\":10905:10924   */\n      add\n        /* \"#utility.yul\":10899:10925   */\n      mload\n        /* \"#utility.yul\":10957:11005   */\n      tag_269\n        /* \"#utility.yul\":10999:11003   */\n      0x1f\n        /* \"#utility.yul\":10991:10997   */\n      dup10\n        /* \"#utility.yul\":10987:11004   */\n      and\n        /* \"#utility.yul\":10976:10985   */\n      dup3\n        /* \"#utility.yul\":10957:11005   */\n      tag_138\n      jump\t// in\n    tag_269:\n        /* \"#utility.yul\":10949:10955   */\n      dup4\n        /* \"#utility.yul\":10942:11006   */\n      sstore\n        /* \"#utility.yul\":10864:11020   */\n      pop\n        /* \"#utility.yul\":10841:11020   */\n    tag_268:\n        /* \"#utility.yul\":11066:11067   */\n      0x01\n        /* \"#utility.yul\":11062:11063   */\n      0x02\n        /* \"#utility.yul\":11054:11060   */\n      dup9\n        /* \"#utility.yul\":11050:11064   */\n      mul\n        /* \"#utility.yul\":11046:11068   */\n      add\n        /* \"#utility.yul\":11040:11044   */\n      dup9\n        /* \"#utility.yul\":11033:11069   */\n      sstore\n        /* \"#utility.yul\":10468:11079   */\n      pop\n      pop\n      pop\n        /* \"#utility.yul\":10431:11318   */\n    tag_260:\n      pop\n        /* \"#utility.yul\":10021:11324   */\n      pop\n      pop\n      pop\n        /* \"#utility.yul\":9929:11324   */\n      pop\n      pop\n      jump\t// out\n        /* \"#utility.yul\":11330:11478   */\n    tag_140:\n        /* \"#utility.yul\":11432:11443   */\n      0x00\n        /* \"#utility.yul\":11469:11472   */\n      dup2\n        /* \"#utility.yul\":11454:11472   */\n      swap1\n      pop\n        /* \"#utility.yul\":11330:11478   */\n      swap3\n      swap2\n      pop\n      pop\n      jump\t// out\n        /* \"#utility.yul\":11484:11730   */\n    tag_141:\n        /* \"#utility.yul\":11565:11566   */\n      0x00\n        /* \"#utility.yul\":11575:11688   */\n    tag_272:\n        /* \"#utility.yul\":11589:11595   */\n      dup4\n        /* \"#utility.yul\":11586:11587   */\n      dup2\n        /* \"#utility.yul\":11583:11596   */\n      lt\n        /* \"#utility.yul\":11575:11688   */\n      iszero\n      tag_274\n      jumpi\n        /* \"#utility.yul\":11674:11675   */\n      dup1\n        /* \"#utility.yul\":11669:11672   */\n      dup3\n        /* \"#utility.yul\":11665:11676   */\n      add\n        /* \"#utility.yul\":11659:11677   */\n      mload\n        /* \"#utility.yul\":11655:11656   */\n      dup2\n        /* \"#utility.yul\":11650:11653   */\n      dup5\n        /* \"#utility.yul\":11646:11657   */\n      add\n        /* \"#utility.yul\":11639:11678   */\n      mstore\n        /* \"#utility.yul\":11611:11613   */\n      0x20\n        /* \"#utility.yul\":11608:11609   */\n      dup2\n        /* \"#utility.yul\":11604:11614   */\n      add\n        /* \"#utility.yul\":11599:11614   */\n      swap1\n      pop\n        /* \"#utility.yul\":11575:11688   */\n      jump(tag_272)\n    tag_274:\n        /* \"#utility.yul\":11722:11723   */\n      0x00\n        /* \"#utility.yul\":11713:11719   */\n      dup5\n        /* \"#utility.yul\":11708:11711   */\n      dup5\n        /* \"#utility.yul\":11704:11720   */\n      add\n        /* \"#utility.yul\":11697:11724   */\n      mstore\n        /* \"#utility.yul\":11546:11730   */\n      pop\n        /* \"#utility.yul\":11484:11730   */\n      pop\n      pop\n      pop\n      jump\t// out\n        /* \"#utility.yul\":11736:12126   */\n    tag_142:\n        /* \"#utility.yul\":11842:11845   */\n      0x00\n        /* \"#utility.yul\":11870:11909   */\n      tag_276\n        /* \"#utility.yul\":11903:11908   */\n      dup3\n        /* \"#utility.yul\":11870:11909   */\n      tag_123\n      jump\t// in\n    tag_276:\n        /* \"#utility.yul\":11925:12014   */\n      tag_277\n        /* \"#utility.yul\":12007:12013   */\n      dup2\n        /* \"#utility.yul\":12002:12005   */\n      dup6\n        /* \"#utility.yul\":11925:12014   */\n      tag_140\n      jump\t// in\n    tag_277:\n        /* \"#utility.yul\":11918:12014   */\n      swap4\n      pop\n        /* \"#utility.yul\":12023:12088   */\n      tag_278\n        /* \"#utility.yul\":12081:12087   */\n      dup2\n        /* \"#utility.yul\":12076:12079   */\n      dup6\n        /* \"#utility.yul\":12069:12073   */\n      0x20\n        /* \"#utility.yul\":12062:12067   */\n      dup7\n        /* \"#utility.yul\":12058:12074   */\n      add\n        /* \"#utility.yul\":12023:12088   */\n      tag_141\n      jump\t// in\n    tag_278:\n        /* \"#utility.yul\":12113:12119   */\n      dup1\n        /* \"#utility.yul\":12108:12111   */\n      dup5\n        /* \"#utility.yul\":12104:12120   */\n      add\n        /* \"#utility.yul\":12097:12120   */\n      swap2\n      pop\n        /* \"#utility.yul\":11846:12126   */\n      pop\n        /* \"#utility.yul\":11736:12126   */\n      swap3\n      swap2\n      pop\n      pop\n      jump\t// out\n        /* \"#utility.yul\":12132:12407   */\n    tag_74:\n        /* \"#utility.yul\":12264:12267   */\n      0x00\n        /* \"#utility.yul\":12286:12381   */\n      tag_280\n        /* \"#utility.yul\":12377:12380   */\n      dup3\n        /* \"#utility.yul\":12368:12374   */\n      dup5\n        /* \"#utility.yul\":12286:12381   */\n      tag_142\n      jump\t// in\n    tag_280:\n        /* \"#utility.yul\":12279:12381   */\n      swap2\n      pop\n        /* \"#utility.yul\":12398:12401   */\n      dup2\n        /* \"#utility.yul\":12391:12401   */\n      swap1\n      pop\n        /* \"#utility.yul\":12132:12407   */\n      swap3\n      swap2\n      pop\n      pop\n      jump\t// out\n\n    auxdata: 0xa264697066735822122023c7bf257c521a40fbe5f2308a320dacb03380f9c753e44f5ad56a5ff7ed43a364736f6c63430008130033\n}\n",
				"bytecode": {
					"linkReferences": {},
					"object": "608060405234801561001057600080fd5b50610fa7806100206000396000f3fe608060405234801561001057600080fd5b50600436106100365760003560e01c8063163f75221461003b578063bfc92b3e1461006b575b600080fd5b610055600480360381019061005091906108bd565b610087565b6040516100629190610905565b60405180910390f35b61008560048036038101906100809190610a66565b610135565b005b600080600090505b60038054905081101561012a578273ffffffffffffffffffffffffffffffffffffffff16600382815481106100c7576100c6610aaf565b5b9060005260206000200160009054906101000a900473ffffffffffffffffffffffffffffffffffffffff1673ffffffffffffffffffffffffffffffffffffffff1603610117576001915050610130565b808061012290610b17565b91505061008f565b50600090505b919050565b61013e33610087565b1561017e576040517f08c379a000000000000000000000000000000000000000000000000000000000815260040161017590610bbc565b60405180910390fd5b60006040518061018001604052803373ffffffffffffffffffffffffffffffffffffffff168152602001838152602001600067ffffffffffffffff8111156101c9576101c861093b565b5b6040519080825280602002602001820160405280156101f75781602001602082028036833780820191505090505b508152602001600067ffffffffffffffff8111156102185761021761093b565b5b6040519080825280602002602001820160405280156102465781602001602082028036833780820191505090505b508152602001600067ffffffffffffffff8111156102675761026661093b565b5b6040519080825280602002602001820160405280156102955781602001602082028036833780820191505090505b508152602001600067ffffffffffffffff8111156102b6576102b561093b565b5b6040519080825280602002602001820160405280156102e45781602001602082028036833780820191505090505b508152602001600067ffffffffffffffff8111156103055761030461093b565b5b60405190808252806020026020018201604052801561033857816020015b60608152602001906001900390816103235790505b508152602001600067ffffffffffffffff8111156103595761035861093b565b5b60405190808252806020026020018201604052801561038c57816020015b60608152602001906001900390816103775790505b508152602001600067ffffffffffffffff8111156103ad576103ac61093b565b5b6040519080825280602002602001820160405280156103db5781602001602082028036833780820191505090505b5081526020016040518060200160405280600081525081526020016040518060200160405280600081525081526020016000600581111561041f5761041e610bdc565b5b8152509050806000803373ffffffffffffffffffffffffffffffffffffffff1673ffffffffffffffffffffffffffffffffffffffff16815260200190815260200160002060008201518160000160006101000a81548173ffffffffffffffffffffffffffffffffffffffff021916908373ffffffffffffffffffffffffffffffffffffffff16021790555060208201518160010190816104bf9190610e22565b5060408201518160020190805190602001906104dc9291906106e7565b5060608201518160030190805190602001906104f99291906106e7565b5060808201518160040190805190602001906105169291906106e7565b5060a08201518160050190805190602001906105339291906106e7565b5060c0820151816006019080519060200190610550929190610771565b5060e082015181600701908051906020019061056d929190610771565b5061010082015181600801908051906020019061058b9291906106e7565b506101208201518160090190816105a29190610e22565b5061014082015181600a0190816105b99190610e22565b5061016082015181600b0160006101000a81548160ff021916908360058111156105e6576105e5610bdc565b5b0217905550905050336001836040516105ff9190610f5a565b908152602001604051809103902060006101000a81548173ffffffffffffffffffffffffffffffffffffffff021916908373ffffffffffffffffffffffffffffffffffffffff16021790555060028290806001815401808255809150506001900390600052602060002001600090919091909150908161067f9190610e22565b506003339080600181540180825580915050600190039060005260206000200160009091909190916101000a81548173ffffffffffffffffffffffffffffffffffffffff021916908373ffffffffffffffffffffffffffffffffffffffff1602179055505050565b828054828255906000526020600020908101928215610760579160200282015b8281111561075f5782518260006101000a81548173ffffffffffffffffffffffffffffffffffffffff021916908373ffffffffffffffffffffffffffffffffffffffff16021790555091602001919060010190610707565b5b50905061076d91906107ca565b5090565b8280548282559060005260206000209081019282156107b9579160200282015b828111156107b85782518290816107a89190610e22565b5091602001919060010190610791565b5b5090506107c691906107e7565b5090565b5b808211156107e35760008160009055506001016107cb565b5090565b5b8082111561080757600081816107fe919061080b565b506001016107e8565b5090565b50805461081790610c45565b6000825580601f106108295750610848565b601f01602090049060005260206000209081019061084791906107ca565b5b50565b6000604051905090565b600080fd5b600080fd5b600073ffffffffffffffffffffffffffffffffffffffff82169050919050565b600061088a8261085f565b9050919050565b61089a8161087f565b81146108a557600080fd5b50565b6000813590506108b781610891565b92915050565b6000602082840312156108d3576108d2610855565b5b60006108e1848285016108a8565b91505092915050565b60008115159050919050565b6108ff816108ea565b82525050565b600060208201905061091a60008301846108f6565b92915050565b600080fd5b600080fd5b6000601f19601f8301169050919050565b7f4e487b7100000000000000000000000000000000000000000000000000000000600052604160045260246000fd5b6109738261092a565b810181811067ffffffffffffffff821117156109925761099161093b565b5b80604052505050565b60006109a561084b565b90506109b1828261096a565b919050565b600067ffffffffffffffff8211156109d1576109d061093b565b5b6109da8261092a565b9050602081019050919050565b82818337600083830152505050565b6000610a09610a04846109b6565b61099b565b905082815260208101848484011115610a2557610a24610925565b5b610a308482856109e7565b509392505050565b600082601f830112610a4d57610a4c610920565b5b8135610a5d8482602086016109f6565b91505092915050565b600060208284031215610a7c57610a7b610855565b5b600082013567ffffffffffffffff811115610a9a57610a9961085a565b5b610aa684828501610a38565b91505092915050565b7f4e487b7100000000000000000000000000000000000000000000000000000000600052603260045260246000fd5b7f4e487b7100000000000000000000000000000000000000000000000000000000600052601160045260246000fd5b6000819050919050565b6000610b2282610b0d565b91507fffffffffffffffffffffffffffffffffffffffffffffffffffffffffffffffff8203610b5457610b53610ade565b5b600182019050919050565b600082825260208201905092915050565b7f557365722068617320616c726561647920726567697374657265640000000000600082015250565b6000610ba6601b83610b5f565b9150610bb182610b70565b602082019050919050565b60006020820190508181036000830152610bd581610b99565b9050919050565b7f4e487b7100000000000000000000000000000000000000000000000000000000600052602160045260246000fd5b600081519050919050565b7f4e487b7100000000000000000000000000000000000000000000000000000000600052602260045260246000fd5b60006002820490506001821680610c5d57607f821691505b602082108103610c7057610c6f610c16565b5b50919050565b60008190508160005260206000209050919050565b60006020601f8301049050919050565b600082821b905092915050565b600060088302610cd87fffffffffffffffffffffffffffffffffffffffffffffffffffffffffffffffff82610c9b565b610ce28683610c9b565b95508019841693508086168417925050509392505050565b6000819050919050565b6000610d1f610d1a610d1584610b0d565b610cfa565b610b0d565b9050919050565b6000819050919050565b610d3983610d04565b610d4d610d4582610d26565b848454610ca8565b825550505050565b600090565b610d62610d55565b610d6d818484610d30565b505050565b5b81811015610d9157610d86600082610d5a565b600181019050610d73565b5050565b601f821115610dd657610da781610c76565b610db084610c8b565b81016020851015610dbf578190505b610dd3610dcb85610c8b565b830182610d72565b50505b505050565b600082821c905092915050565b6000610df960001984600802610ddb565b1980831691505092915050565b6000610e128383610de8565b9150826002028217905092915050565b610e2b82610c0b565b67ffffffffffffffff811115610e4457610e4361093b565b5b610e4e8254610c45565b610e59828285610d95565b600060209050601f831160018114610e8c5760008415610e7a578287015190505b610e848582610e06565b865550610eec565b601f198416610e9a86610c76565b60005b82811015610ec257848901518255600182019150602085019450602081019050610e9d565b86831015610edf5784890151610edb601f891682610de8565b8355505b6001600288020188555050505b505050505050565b600081905092915050565b60005b83811015610f1d578082015181840152602081019050610f02565b60008484015250505050565b6000610f3482610c0b565b610f3e8185610ef4565b9350610f4e818560208601610eff565b80840191505092915050565b6000610f668284610f29565b91508190509291505056fea264697066735822122023c7bf257c521a40fbe5f2308a320dacb03380f9c753e44f5ad56a5ff7ed43a364736f6c63430008130033",
					"opcodes": "PUSH1 0x80 PUSH1 0x40 MSTORE CALLVALUE DUP1 ISZERO PUSH2 0x10 JUMPI PUSH1 0x0 DUP1 REVERT JUMPDEST POP PUSH2 0xFA7 DUP1 PUSH2 0x20 PUSH1 0x0 CODECOPY PUSH1 0x0 RETURN INVALID PUSH1 0x80 PUSH1 0x40 MSTORE CALLVALUE DUP1 ISZERO PUSH2 0x10 JUMPI PUSH1 0x0 DUP1 REVERT JUMPDEST POP PUSH1 0x4 CALLDATASIZE LT PUSH2 0x36 JUMPI PUSH1 0x0 CALLDATALOAD PUSH1 0xE0 SHR DUP1 PUSH4 0x163F7522 EQ PUSH2 0x3B JUMPI DUP1 PUSH4 0xBFC92B3E EQ PUSH2 0x6B JUMPI JUMPDEST PUSH1 0x0 DUP1 REVERT JUMPDEST PUSH2 0x55 PUSH1 0x4 DUP1 CALLDATASIZE SUB DUP2 ADD SWAP1 PUSH2 0x50 SWAP2 SWAP1 PUSH2 0x8BD JUMP JUMPDEST PUSH2 0x87 JUMP JUMPDEST PUSH1 0x40 MLOAD PUSH2 0x62 SWAP2 SWAP1 PUSH2 0x905 JUMP JUMPDEST PUSH1 0x40 MLOAD DUP1 SWAP2 SUB SWAP1 RETURN JUMPDEST PUSH2 0x85 PUSH1 0x4 DUP1 CALLDATASIZE SUB DUP2 ADD SWAP1 PUSH2 0x80 SWAP2 SWAP1 PUSH2 0xA66 JUMP JUMPDEST PUSH2 0x135 JUMP JUMPDEST STOP JUMPDEST PUSH1 0x0 DUP1 PUSH1 0x0 SWAP1 POP JUMPDEST PUSH1 0x3 DUP1 SLOAD SWAP1 POP DUP2 LT ISZERO PUSH2 0x12A JUMPI DUP3 PUSH20 0xFFFFFFFFFFFFFFFFFFFFFFFFFFFFFFFFFFFFFFFF AND PUSH1 0x3 DUP3 DUP2 SLOAD DUP2 LT PUSH2 0xC7 JUMPI PUSH2 0xC6 PUSH2 0xAAF JUMP JUMPDEST JUMPDEST SWAP1 PUSH1 0x0 MSTORE PUSH1 0x20 PUSH1 0x0 KECCAK256 ADD PUSH1 0x0 SWAP1 SLOAD SWAP1 PUSH2 0x100 EXP SWAP1 DIV PUSH20 0xFFFFFFFFFFFFFFFFFFFFFFFFFFFFFFFFFFFFFFFF AND PUSH20 0xFFFFFFFFFFFFFFFFFFFFFFFFFFFFFFFFFFFFFFFF AND SUB PUSH2 0x117 JUMPI PUSH1 0x1 SWAP2 POP POP PUSH2 0x130 JUMP JUMPDEST DUP1 DUP1 PUSH2 0x122 SWAP1 PUSH2 0xB17 JUMP JUMPDEST SWAP2 POP POP PUSH2 0x8F JUMP JUMPDEST POP PUSH1 0x0 SWAP1 POP JUMPDEST SWAP2 SWAP1 POP JUMP JUMPDEST PUSH2 0x13E CALLER PUSH2 0x87 JUMP JUMPDEST ISZERO PUSH2 0x17E JUMPI PUSH1 0x40 MLOAD PUSH32 0x8C379A000000000000000000000000000000000000000000000000000000000 DUP2 MSTORE PUSH1 0x4 ADD PUSH2 0x175 SWAP1 PUSH2 0xBBC JUMP JUMPDEST PUSH1 0x40 MLOAD DUP1 SWAP2 SUB SWAP1 REVERT JUMPDEST PUSH1 0x0 PUSH1 0x40 MLOAD DUP1 PUSH2 0x180 ADD PUSH1 0x40 MSTORE DUP1 CALLER PUSH20 0xFFFFFFFFFFFFFFFFFFFFFFFFFFFFFFFFFFFFFFFF AND DUP2 MSTORE PUSH1 0x20 ADD DUP4 DUP2 MSTORE PUSH1 0x20 ADD PUSH1 0x0 PUSH8 0xFFFFFFFFFFFFFFFF DUP2 GT ISZERO PUSH2 0x1C9 JUMPI PUSH2 0x1C8 PUSH2 0x93B JUMP JUMPDEST JUMPDEST PUSH1 0x40 MLOAD SWAP1 DUP1 DUP3 MSTORE DUP1 PUSH1 0x20 MUL PUSH1 0x20 ADD DUP3 ADD PUSH1 0x40 MSTORE DUP1 ISZERO PUSH2 0x1F7 JUMPI DUP2 PUSH1 0x20 ADD PUSH1 0x20 DUP3 MUL DUP1 CALLDATASIZE DUP4 CALLDATACOPY DUP1 DUP3 ADD SWAP2 POP POP SWAP1 POP JUMPDEST POP DUP2 MSTORE PUSH1 0x20 ADD PUSH1 0x0 PUSH8 0xFFFFFFFFFFFFFFFF DUP2 GT ISZERO PUSH2 0x218 JUMPI PUSH2 0x217 PUSH2 0x93B JUMP JUMPDEST JUMPDEST PUSH1 0x40 MLOAD SWAP1 DUP1 DUP3 MSTORE DUP1 PUSH1 0x20 MUL PUSH1 0x20 ADD DUP3 ADD PUSH1 0x40 MSTORE DUP1 ISZERO PUSH2 0x246 JUMPI DUP2 PUSH1 0x20 ADD PUSH1 0x20 DUP3 MUL DUP1 CALLDATASIZE DUP4 CALLDATACOPY DUP1 DUP3 ADD SWAP2 POP POP SWAP1 POP JUMPDEST POP DUP2 MSTORE PUSH1 0x20 ADD PUSH1 0x0 PUSH8 0xFFFFFFFFFFFFFFFF DUP2 GT ISZERO PUSH2 0x267 JUMPI PUSH2 0x266 PUSH2 0x93B JUMP JUMPDEST JUMPDEST PUSH1 0x40 MLOAD SWAP1 DUP1 DUP3 MSTORE DUP1 PUSH1 0x20 MUL PUSH1 0x20 ADD DUP3 ADD PUSH1 0x40 MSTORE DUP1 ISZERO PUSH2 0x295 JUMPI DUP2 PUSH1 0x20 ADD PUSH1 0x20 DUP3 MUL DUP1 CALLDATASIZE DUP4 CALLDATACOPY DUP1 DUP3 ADD SWAP2 POP POP SWAP1 POP JUMPDEST POP DUP2 MSTORE PUSH1 0x20 ADD PUSH1 0x0 PUSH8 0xFFFFFFFFFFFFFFFF DUP2 GT ISZERO PUSH2 0x2B6 JUMPI PUSH2 0x2B5 PUSH2 0x93B JUMP JUMPDEST JUMPDEST PUSH1 0x40 MLOAD SWAP1 DUP1 DUP3 MSTORE DUP1 PUSH1 0x20 MUL PUSH1 0x20 ADD DUP3 ADD PUSH1 0x40 MSTORE DUP1 ISZERO PUSH2 0x2E4 JUMPI DUP2 PUSH1 0x20 ADD PUSH1 0x20 DUP3 MUL DUP1 CALLDATASIZE DUP4 CALLDATACOPY DUP1 DUP3 ADD SWAP2 POP POP SWAP1 POP JUMPDEST POP DUP2 MSTORE PUSH1 0x20 ADD PUSH1 0x0 PUSH8 0xFFFFFFFFFFFFFFFF DUP2 GT ISZERO PUSH2 0x305 JUMPI PUSH2 0x304 PUSH2 0x93B JUMP JUMPDEST JUMPDEST PUSH1 0x40 MLOAD SWAP1 DUP1 DUP3 MSTORE DUP1 PUSH1 0x20 MUL PUSH1 0x20 ADD DUP3 ADD PUSH1 0x40 MSTORE DUP1 ISZERO PUSH2 0x338 JUMPI DUP2 PUSH1 0x20 ADD JUMPDEST PUSH1 0x60 DUP2 MSTORE PUSH1 0x20 ADD SWAP1 PUSH1 0x1 SWAP1 SUB SWAP1 DUP2 PUSH2 0x323 JUMPI SWAP1 POP JUMPDEST POP DUP2 MSTORE PUSH1 0x20 ADD PUSH1 0x0 PUSH8 0xFFFFFFFFFFFFFFFF DUP2 GT ISZERO PUSH2 0x359 JUMPI PUSH2 0x358 PUSH2 0x93B JUMP JUMPDEST JUMPDEST PUSH1 0x40 MLOAD SWAP1 DUP1 DUP3 MSTORE DUP1 PUSH1 0x20 MUL PUSH1 0x20 ADD DUP3 ADD PUSH1 0x40 MSTORE DUP1 ISZERO PUSH2 0x38C JUMPI DUP2 PUSH1 0x20 ADD JUMPDEST PUSH1 0x60 DUP2 MSTORE PUSH1 0x20 ADD SWAP1 PUSH1 0x1 SWAP1 SUB SWAP1 DUP2 PUSH2 0x377 JUMPI SWAP1 POP JUMPDEST POP DUP2 MSTORE PUSH1 0x20 ADD PUSH1 0x0 PUSH8 0xFFFFFFFFFFFFFFFF DUP2 GT ISZERO PUSH2 0x3AD JUMPI PUSH2 0x3AC PUSH2 0x93B JUMP JUMPDEST JUMPDEST PUSH1 0x40 MLOAD SWAP1 DUP1 DUP3 MSTORE DUP1 PUSH1 0x20 MUL PUSH1 0x20 ADD DUP3 ADD PUSH1 0x40 MSTORE DUP1 ISZERO PUSH2 0x3DB JUMPI DUP2 PUSH1 0x20 ADD PUSH1 0x20 DUP3 MUL DUP1 CALLDATASIZE DUP4 CALLDATACOPY DUP1 DUP3 ADD SWAP2 POP POP SWAP1 POP JUMPDEST POP DUP2 MSTORE PUSH1 0x20 ADD PUSH1 0x40 MLOAD DUP1 PUSH1 0x20 ADD PUSH1 0x40 MSTORE DUP1 PUSH1 0x0 DUP2 MSTORE POP DUP2 MSTORE PUSH1 0x20 ADD PUSH1 0x40 MLOAD DUP1 PUSH1 0x20 ADD PUSH1 0x40 MSTORE DUP1 PUSH1 0x0 DUP2 MSTORE POP DUP2 MSTORE PUSH1 0x20 ADD PUSH1 0x0 PUSH1 0x5 DUP2 GT ISZERO PUSH2 0x41F JUMPI PUSH2 0x41E PUSH2 0xBDC JUMP JUMPDEST JUMPDEST DUP2 MSTORE POP SWAP1 POP DUP1 PUSH1 0x0 DUP1 CALLER PUSH20 0xFFFFFFFFFFFFFFFFFFFFFFFFFFFFFFFFFFFFFFFF AND PUSH20 0xFFFFFFFFFFFFFFFFFFFFFFFFFFFFFFFFFFFFFFFF AND DUP2 MSTORE PUSH1 0x20 ADD SWAP1 DUP2 MSTORE PUSH1 0x20 ADD PUSH1 0x0 KECCAK256 PUSH1 0x0 DUP3 ADD MLOAD DUP2 PUSH1 0x0 ADD PUSH1 0x0 PUSH2 0x100 EXP DUP2 SLOAD DUP2 PUSH20 0xFFFFFFFFFFFFFFFFFFFFFFFFFFFFFFFFFFFFFFFF MUL NOT AND SWAP1 DUP4 PUSH20 0xFFFFFFFFFFFFFFFFFFFFFFFFFFFFFFFFFFFFFFFF AND MUL OR SWAP1 SSTORE POP PUSH1 0x20 DUP3 ADD MLOAD DUP2 PUSH1 0x1 ADD SWAP1 DUP2 PUSH2 0x4BF SWAP2 SWAP1 PUSH2 0xE22 JUMP JUMPDEST POP PUSH1 0x40 DUP3 ADD MLOAD DUP2 PUSH1 0x2 ADD SWAP1 DUP1 MLOAD SWAP1 PUSH1 0x20 ADD SWAP1 PUSH2 0x4DC SWAP3 SWAP2 SWAP1 PUSH2 0x6E7 JUMP JUMPDEST POP PUSH1 0x60 DUP3 ADD MLOAD DUP2 PUSH1 0x3 ADD SWAP1 DUP1 MLOAD SWAP1 PUSH1 0x20 ADD SWAP1 PUSH2 0x4F9 SWAP3 SWAP2 SWAP1 PUSH2 0x6E7 JUMP JUMPDEST POP PUSH1 0x80 DUP3 ADD MLOAD DUP2 PUSH1 0x4 ADD SWAP1 DUP1 MLOAD SWAP1 PUSH1 0x20 ADD SWAP1 PUSH2 0x516 SWAP3 SWAP2 SWAP1 PUSH2 0x6E7 JUMP JUMPDEST POP PUSH1 0xA0 DUP3 ADD MLOAD DUP2 PUSH1 0x5 ADD SWAP1 DUP1 MLOAD SWAP1 PUSH1 0x20 ADD SWAP1 PUSH2 0x533 SWAP3 SWAP2 SWAP1 PUSH2 0x6E7 JUMP JUMPDEST POP PUSH1 0xC0 DUP3 ADD MLOAD DUP2 PUSH1 0x6 ADD SWAP1 DUP1 MLOAD SWAP1 PUSH1 0x20 ADD SWAP1 PUSH2 0x550 SWAP3 SWAP2 SWAP1 PUSH2 0x771 JUMP JUMPDEST POP PUSH1 0xE0 DUP3 ADD MLOAD DUP2 PUSH1 0x7 ADD SWAP1 DUP1 MLOAD SWAP1 PUSH1 0x20 ADD SWAP1 PUSH2 0x56D SWAP3 SWAP2 SWAP1 PUSH2 0x771 JUMP JUMPDEST POP PUSH2 0x100 DUP3 ADD MLOAD DUP2 PUSH1 0x8 ADD SWAP1 DUP1 MLOAD SWAP1 PUSH1 0x20 ADD SWAP1 PUSH2 0x58B SWAP3 SWAP2 SWAP1 PUSH2 0x6E7 JUMP JUMPDEST POP PUSH2 0x120 DUP3 ADD MLOAD DUP2 PUSH1 0x9 ADD SWAP1 DUP2 PUSH2 0x5A2 SWAP2 SWAP1 PUSH2 0xE22 JUMP JUMPDEST POP PUSH2 0x140 DUP3 ADD MLOAD DUP2 PUSH1 0xA ADD SWAP1 DUP2 PUSH2 0x5B9 SWAP2 SWAP1 PUSH2 0xE22 JUMP JUMPDEST POP PUSH2 0x160 DUP3 ADD MLOAD DUP2 PUSH1 0xB ADD PUSH1 0x0 PUSH2 0x100 EXP DUP2 SLOAD DUP2 PUSH1 0xFF MUL NOT AND SWAP1 DUP4 PUSH1 0x5 DUP2 GT ISZERO PUSH2 0x5E6 JUMPI PUSH2 0x5E5 PUSH2 0xBDC JUMP JUMPDEST JUMPDEST MUL OR SWAP1 SSTORE POP SWAP1 POP POP CALLER PUSH1 0x1 DUP4 PUSH1 0x40 MLOAD PUSH2 0x5FF SWAP2 SWAP1 PUSH2 0xF5A JUMP JUMPDEST SWAP1 DUP2 MSTORE PUSH1 0x20 ADD PUSH1 0x40 MLOAD DUP1 SWAP2 SUB SWAP1 KECCAK256 PUSH1 0x0 PUSH2 0x100 EXP DUP2 SLOAD DUP2 PUSH20 0xFFFFFFFFFFFFFFFFFFFFFFFFFFFFFFFFFFFFFFFF MUL NOT AND SWAP1 DUP4 PUSH20 0xFFFFFFFFFFFFFFFFFFFFFFFFFFFFFFFFFFFFFFFF AND MUL OR SWAP1 SSTORE POP PUSH1 0x2 DUP3 SWAP1 DUP1 PUSH1 0x1 DUP2 SLOAD ADD DUP1 DUP3 SSTORE DUP1 SWAP2 POP POP PUSH1 0x1 SWAP1 SUB SWAP1 PUSH1 0x0 MSTORE PUSH1 0x20 PUSH1 0x0 KECCAK256 ADD PUSH1 0x0 SWAP1 SWAP2 SWAP1 SWAP2 SWAP1 SWAP2 POP SWAP1 DUP2 PUSH2 0x67F SWAP2 SWAP1 PUSH2 0xE22 JUMP JUMPDEST POP PUSH1 0x3 CALLER SWAP1 DUP1 PUSH1 0x1 DUP2 SLOAD ADD DUP1 DUP3 SSTORE DUP1 SWAP2 POP POP PUSH1 0x1 SWAP1 SUB SWAP1 PUSH1 0x0 MSTORE PUSH1 0x20 PUSH1 0x0 KECCAK256 ADD PUSH1 0x0 SWAP1 SWAP2 SWAP1 SWAP2 SWAP1 SWAP2 PUSH2 0x100 EXP DUP2 SLOAD DUP2 PUSH20 0xFFFFFFFFFFFFFFFFFFFFFFFFFFFFFFFFFFFFFFFF MUL NOT AND SWAP1 DUP4 PUSH20 0xFFFFFFFFFFFFFFFFFFFFFFFFFFFFFFFFFFFFFFFF AND MUL OR SWAP1 SSTORE POP POP POP JUMP JUMPDEST DUP3 DUP1 SLOAD DUP3 DUP3 SSTORE SWAP1 PUSH1 0x0 MSTORE PUSH1 0x20 PUSH1 0x0 KECCAK256 SWAP1 DUP2 ADD SWAP3 DUP3 ISZERO PUSH2 0x760 JUMPI SWAP2 PUSH1 0x20 MUL DUP3 ADD JUMPDEST DUP3 DUP2 GT ISZERO PUSH2 0x75F JUMPI DUP3 MLOAD DUP3 PUSH1 0x0 PUSH2 0x100 EXP DUP2 SLOAD DUP2 PUSH20 0xFFFFFFFFFFFFFFFFFFFFFFFFFFFFFFFFFFFFFFFF MUL NOT AND SWAP1 DUP4 PUSH20 0xFFFFFFFFFFFFFFFFFFFFFFFFFFFFFFFFFFFFFFFF AND MUL OR SWAP1 SSTORE POP SWAP2 PUSH1 0x20 ADD SWAP2 SWAP1 PUSH1 0x1 ADD SWAP1 PUSH2 0x707 JUMP JUMPDEST JUMPDEST POP SWAP1 POP PUSH2 0x76D SWAP2 SWAP1 PUSH2 0x7CA JUMP JUMPDEST POP SWAP1 JUMP JUMPDEST DUP3 DUP1 SLOAD DUP3 DUP3 SSTORE SWAP1 PUSH1 0x0 MSTORE PUSH1 0x20 PUSH1 0x0 KECCAK256 SWAP1 DUP2 ADD SWAP3 DUP3 ISZERO PUSH2 0x7B9 JUMPI SWAP2 PUSH1 0x20 MUL DUP3 ADD JUMPDEST DUP3 DUP2 GT ISZERO PUSH2 0x7B8 JUMPI DUP3 MLOAD DUP3 SWAP1 DUP2 PUSH2 0x7A8 SWAP2 SWAP1 PUSH2 0xE22 JUMP JUMPDEST POP SWAP2 PUSH1 0x20 ADD SWAP2 SWAP1 PUSH1 0x1 ADD SWAP1 PUSH2 0x791 JUMP JUMPDEST JUMPDEST POP SWAP1 POP PUSH2 0x7C6 SWAP2 SWAP1 PUSH2 0x7E7 JUMP JUMPDEST POP SWAP1 JUMP JUMPDEST JUMPDEST DUP1 DUP3 GT ISZERO PUSH2 0x7E3 JUMPI PUSH1 0x0 DUP2 PUSH1 0x0 SWAP1 SSTORE POP PUSH1 0x1 ADD PUSH2 0x7CB JUMP JUMPDEST POP SWAP1 JUMP JUMPDEST JUMPDEST DUP1 DUP3 GT ISZERO PUSH2 0x807 JUMPI PUSH1 0x0 DUP2 DUP2 PUSH2 0x7FE SWAP2 SWAP1 PUSH2 0x80B JUMP JUMPDEST POP PUSH1 0x1 ADD PUSH2 0x7E8 JUMP JUMPDEST POP SWAP1 JUMP JUMPDEST POP DUP1 SLOAD PUSH2 0x817 SWAP1 PUSH2 0xC45 JUMP JUMPDEST PUSH1 0x0 DUP3 SSTORE DUP1 PUSH1 0x1F LT PUSH2 0x829 JUMPI POP PUSH2 0x848 JUMP JUMPDEST PUSH1 0x1F ADD PUSH1 0x20 SWAP1 DIV SWAP1 PUSH1 0x0 MSTORE PUSH1 0x20 PUSH1 0x0 KECCAK256 SWAP1 DUP2 ADD SWAP1 PUSH2 0x847 SWAP2 SWAP1 PUSH2 0x7CA JUMP JUMPDEST JUMPDEST POP JUMP JUMPDEST PUSH1 0x0 PUSH1 0x40 MLOAD SWAP1 POP SWAP1 JUMP JUMPDEST PUSH1 0x0 DUP1 REVERT JUMPDEST PUSH1 0x0 DUP1 REVERT JUMPDEST PUSH1 0x0 PUSH20 0xFFFFFFFFFFFFFFFFFFFFFFFFFFFFFFFFFFFFFFFF DUP3 AND SWAP1 POP SWAP2 SWAP1 POP JUMP JUMPDEST PUSH1 0x0 PUSH2 0x88A DUP3 PUSH2 0x85F JUMP JUMPDEST SWAP1 POP SWAP2 SWAP1 POP JUMP JUMPDEST PUSH2 0x89A DUP2 PUSH2 0x87F JUMP JUMPDEST DUP2 EQ PUSH2 0x8A5 JUMPI PUSH1 0x0 DUP1 REVERT JUMPDEST POP JUMP JUMPDEST PUSH1 0x0 DUP2 CALLDATALOAD SWAP1 POP PUSH2 0x8B7 DUP2 PUSH2 0x891 JUMP JUMPDEST SWAP3 SWAP2 POP POP JUMP JUMPDEST PUSH1 0x0 PUSH1 0x20 DUP3 DUP5 SUB SLT ISZERO PUSH2 0x8D3 JUMPI PUSH2 0x8D2 PUSH2 0x855 JUMP JUMPDEST JUMPDEST PUSH1 0x0 PUSH2 0x8E1 DUP5 DUP3 DUP6 ADD PUSH2 0x8A8 JUMP JUMPDEST SWAP2 POP POP SWAP3 SWAP2 POP POP JUMP JUMPDEST PUSH1 0x0 DUP2 ISZERO ISZERO SWAP1 POP SWAP2 SWAP1 POP JUMP JUMPDEST PUSH2 0x8FF DUP2 PUSH2 0x8EA JUMP JUMPDEST DUP3 MSTORE POP POP JUMP JUMPDEST PUSH1 0x0 PUSH1 0x20 DUP3 ADD SWAP1 POP PUSH2 0x91A PUSH1 0x0 DUP4 ADD DUP5 PUSH2 0x8F6 JUMP JUMPDEST SWAP3 SWAP2 POP POP JUMP JUMPDEST PUSH1 0x0 DUP1 REVERT JUMPDEST PUSH1 0x0 DUP1 REVERT JUMPDEST PUSH1 0x0 PUSH1 0x1F NOT PUSH1 0x1F DUP4 ADD AND SWAP1 POP SWAP2 SWAP1 POP JUMP JUMPDEST PUSH32 0x4E487B7100000000000000000000000000000000000000000000000000000000 PUSH1 0x0 MSTORE PUSH1 0x41 PUSH1 0x4 MSTORE PUSH1 0x24 PUSH1 0x0 REVERT JUMPDEST PUSH2 0x973 DUP3 PUSH2 0x92A JUMP JUMPDEST DUP2 ADD DUP2 DUP2 LT PUSH8 0xFFFFFFFFFFFFFFFF DUP3 GT OR ISZERO PUSH2 0x992 JUMPI PUSH2 0x991 PUSH2 0x93B JUMP JUMPDEST JUMPDEST DUP1 PUSH1 0x40 MSTORE POP POP POP JUMP JUMPDEST PUSH1 0x0 PUSH2 0x9A5 PUSH2 0x84B JUMP JUMPDEST SWAP1 POP PUSH2 0x9B1 DUP3 DUP3 PUSH2 0x96A JUMP JUMPDEST SWAP2 SWAP1 POP JUMP JUMPDEST PUSH1 0x0 PUSH8 0xFFFFFFFFFFFFFFFF DUP3 GT ISZERO PUSH2 0x9D1 JUMPI PUSH2 0x9D0 PUSH2 0x93B JUMP JUMPDEST JUMPDEST PUSH2 0x9DA DUP3 PUSH2 0x92A JUMP JUMPDEST SWAP1 POP PUSH1 0x20 DUP2 ADD SWAP1 POP SWAP2 SWAP1 POP JUMP JUMPDEST DUP3 DUP2 DUP4 CALLDATACOPY PUSH1 0x0 DUP4 DUP4 ADD MSTORE POP POP POP JUMP JUMPDEST PUSH1 0x0 PUSH2 0xA09 PUSH2 0xA04 DUP5 PUSH2 0x9B6 JUMP JUMPDEST PUSH2 0x99B JUMP JUMPDEST SWAP1 POP DUP3 DUP2 MSTORE PUSH1 0x20 DUP2 ADD DUP5 DUP5 DUP5 ADD GT ISZERO PUSH2 0xA25 JUMPI PUSH2 0xA24 PUSH2 0x925 JUMP JUMPDEST JUMPDEST PUSH2 0xA30 DUP5 DUP3 DUP6 PUSH2 0x9E7 JUMP JUMPDEST POP SWAP4 SWAP3 POP POP POP JUMP JUMPDEST PUSH1 0x0 DUP3 PUSH1 0x1F DUP4 ADD SLT PUSH2 0xA4D JUMPI PUSH2 0xA4C PUSH2 0x920 JUMP JUMPDEST JUMPDEST DUP2 CALLDATALOAD PUSH2 0xA5D DUP5 DUP3 PUSH1 0x20 DUP7 ADD PUSH2 0x9F6 JUMP JUMPDEST SWAP2 POP POP SWAP3 SWAP2 POP POP JUMP JUMPDEST PUSH1 0x0 PUSH1 0x20 DUP3 DUP5 SUB SLT ISZERO PUSH2 0xA7C JUMPI PUSH2 0xA7B PUSH2 0x855 JUMP JUMPDEST JUMPDEST PUSH1 0x0 DUP3 ADD CALLDATALOAD PUSH8 0xFFFFFFFFFFFFFFFF DUP2 GT ISZERO PUSH2 0xA9A JUMPI PUSH2 0xA99 PUSH2 0x85A JUMP JUMPDEST JUMPDEST PUSH2 0xAA6 DUP5 DUP3 DUP6 ADD PUSH2 0xA38 JUMP JUMPDEST SWAP2 POP POP SWAP3 SWAP2 POP POP JUMP JUMPDEST PUSH32 0x4E487B7100000000000000000000000000000000000000000000000000000000 PUSH1 0x0 MSTORE PUSH1 0x32 PUSH1 0x4 MSTORE PUSH1 0x24 PUSH1 0x0 REVERT JUMPDEST PUSH32 0x4E487B7100000000000000000000000000000000000000000000000000000000 PUSH1 0x0 MSTORE PUSH1 0x11 PUSH1 0x4 MSTORE PUSH1 0x24 PUSH1 0x0 REVERT JUMPDEST PUSH1 0x0 DUP2 SWAP1 POP SWAP2 SWAP1 POP JUMP JUMPDEST PUSH1 0x0 PUSH2 0xB22 DUP3 PUSH2 0xB0D JUMP JUMPDEST SWAP2 POP PUSH32 0xFFFFFFFFFFFFFFFFFFFFFFFFFFFFFFFFFFFFFFFFFFFFFFFFFFFFFFFFFFFFFFFF DUP3 SUB PUSH2 0xB54 JUMPI PUSH2 0xB53 PUSH2 0xADE JUMP JUMPDEST JUMPDEST PUSH1 0x1 DUP3 ADD SWAP1 POP SWAP2 SWAP1 POP JUMP JUMPDEST PUSH1 0x0 DUP3 DUP3 MSTORE PUSH1 0x20 DUP3 ADD SWAP1 POP SWAP3 SWAP2 POP POP JUMP JUMPDEST PUSH32 0x557365722068617320616C726561647920726567697374657265640000000000 PUSH1 0x0 DUP3 ADD MSTORE POP JUMP JUMPDEST PUSH1 0x0 PUSH2 0xBA6 PUSH1 0x1B DUP4 PUSH2 0xB5F JUMP JUMPDEST SWAP2 POP PUSH2 0xBB1 DUP3 PUSH2 0xB70 JUMP JUMPDEST PUSH1 0x20 DUP3 ADD SWAP1 POP SWAP2 SWAP1 POP JUMP JUMPDEST PUSH1 0x0 PUSH1 0x20 DUP3 ADD SWAP1 POP DUP2 DUP2 SUB PUSH1 0x0 DUP4 ADD MSTORE PUSH2 0xBD5 DUP2 PUSH2 0xB99 JUMP JUMPDEST SWAP1 POP SWAP2 SWAP1 POP JUMP JUMPDEST PUSH32 0x4E487B7100000000000000000000000000000000000000000000000000000000 PUSH1 0x0 MSTORE PUSH1 0x21 PUSH1 0x4 MSTORE PUSH1 0x24 PUSH1 0x0 REVERT JUMPDEST PUSH1 0x0 DUP2 MLOAD SWAP1 POP SWAP2 SWAP1 POP JUMP JUMPDEST PUSH32 0x4E487B7100000000000000000000000000000000000000000000000000000000 PUSH1 0x0 MSTORE PUSH1 0x22 PUSH1 0x4 MSTORE PUSH1 0x24 PUSH1 0x0 REVERT JUMPDEST PUSH1 0x0 PUSH1 0x2 DUP3 DIV SWAP1 POP PUSH1 0x1 DUP3 AND DUP1 PUSH2 0xC5D JUMPI PUSH1 0x7F DUP3 AND SWAP2 POP JUMPDEST PUSH1 0x20 DUP3 LT DUP2 SUB PUSH2 0xC70 JUMPI PUSH2 0xC6F PUSH2 0xC16 JUMP JUMPDEST JUMPDEST POP SWAP2 SWAP1 POP JUMP JUMPDEST PUSH1 0x0 DUP2 SWAP1 POP DUP2 PUSH1 0x0 MSTORE PUSH1 0x20 PUSH1 0x0 KECCAK256 SWAP1 POP SWAP2 SWAP1 POP JUMP JUMPDEST PUSH1 0x0 PUSH1 0x20 PUSH1 0x1F DUP4 ADD DIV SWAP1 POP SWAP2 SWAP1 POP JUMP JUMPDEST PUSH1 0x0 DUP3 DUP3 SHL SWAP1 POP SWAP3 SWAP2 POP POP JUMP JUMPDEST PUSH1 0x0 PUSH1 0x8 DUP4 MUL PUSH2 0xCD8 PUSH32 0xFFFFFFFFFFFFFFFFFFFFFFFFFFFFFFFFFFFFFFFFFFFFFFFFFFFFFFFFFFFFFFFF DUP3 PUSH2 0xC9B JUMP JUMPDEST PUSH2 0xCE2 DUP7 DUP4 PUSH2 0xC9B JUMP JUMPDEST SWAP6 POP DUP1 NOT DUP5 AND SWAP4 POP DUP1 DUP7 AND DUP5 OR SWAP3 POP POP POP SWAP4 SWAP3 POP POP POP JUMP JUMPDEST PUSH1 0x0 DUP2 SWAP1 POP SWAP2 SWAP1 POP JUMP JUMPDEST PUSH1 0x0 PUSH2 0xD1F PUSH2 0xD1A PUSH2 0xD15 DUP5 PUSH2 0xB0D JUMP JUMPDEST PUSH2 0xCFA JUMP JUMPDEST PUSH2 0xB0D JUMP JUMPDEST SWAP1 POP SWAP2 SWAP1 POP JUMP JUMPDEST PUSH1 0x0 DUP2 SWAP1 POP SWAP2 SWAP1 POP JUMP JUMPDEST PUSH2 0xD39 DUP4 PUSH2 0xD04 JUMP JUMPDEST PUSH2 0xD4D PUSH2 0xD45 DUP3 PUSH2 0xD26 JUMP JUMPDEST DUP5 DUP5 SLOAD PUSH2 0xCA8 JUMP JUMPDEST DUP3 SSTORE POP POP POP POP JUMP JUMPDEST PUSH1 0x0 SWAP1 JUMP JUMPDEST PUSH2 0xD62 PUSH2 0xD55 JUMP JUMPDEST PUSH2 0xD6D DUP2 DUP5 DUP5 PUSH2 0xD30 JUMP JUMPDEST POP POP POP JUMP JUMPDEST JUMPDEST DUP2 DUP2 LT ISZERO PUSH2 0xD91 JUMPI PUSH2 0xD86 PUSH1 0x0 DUP3 PUSH2 0xD5A JUMP JUMPDEST PUSH1 0x1 DUP2 ADD SWAP1 POP PUSH2 0xD73 JUMP JUMPDEST POP POP JUMP JUMPDEST PUSH1 0x1F DUP3 GT ISZERO PUSH2 0xDD6 JUMPI PUSH2 0xDA7 DUP2 PUSH2 0xC76 JUMP JUMPDEST PUSH2 0xDB0 DUP5 PUSH2 0xC8B JUMP JUMPDEST DUP2 ADD PUSH1 0x20 DUP6 LT ISZERO PUSH2 0xDBF JUMPI DUP2 SWAP1 POP JUMPDEST PUSH2 0xDD3 PUSH2 0xDCB DUP6 PUSH2 0xC8B JUMP JUMPDEST DUP4 ADD DUP3 PUSH2 0xD72 JUMP JUMPDEST POP POP JUMPDEST POP POP POP JUMP JUMPDEST PUSH1 0x0 DUP3 DUP3 SHR SWAP1 POP SWAP3 SWAP2 POP POP JUMP JUMPDEST PUSH1 0x0 PUSH2 0xDF9 PUSH1 0x0 NOT DUP5 PUSH1 0x8 MUL PUSH2 0xDDB JUMP JUMPDEST NOT DUP1 DUP4 AND SWAP2 POP POP SWAP3 SWAP2 POP POP JUMP JUMPDEST PUSH1 0x0 PUSH2 0xE12 DUP4 DUP4 PUSH2 0xDE8 JUMP JUMPDEST SWAP2 POP DUP3 PUSH1 0x2 MUL DUP3 OR SWAP1 POP SWAP3 SWAP2 POP POP JUMP JUMPDEST PUSH2 0xE2B DUP3 PUSH2 0xC0B JUMP JUMPDEST PUSH8 0xFFFFFFFFFFFFFFFF DUP2 GT ISZERO PUSH2 0xE44 JUMPI PUSH2 0xE43 PUSH2 0x93B JUMP JUMPDEST JUMPDEST PUSH2 0xE4E DUP3 SLOAD PUSH2 0xC45 JUMP JUMPDEST PUSH2 0xE59 DUP3 DUP3 DUP6 PUSH2 0xD95 JUMP JUMPDEST PUSH1 0x0 PUSH1 0x20 SWAP1 POP PUSH1 0x1F DUP4 GT PUSH1 0x1 DUP2 EQ PUSH2 0xE8C JUMPI PUSH1 0x0 DUP5 ISZERO PUSH2 0xE7A JUMPI DUP3 DUP8 ADD MLOAD SWAP1 POP JUMPDEST PUSH2 0xE84 DUP6 DUP3 PUSH2 0xE06 JUMP JUMPDEST DUP7 SSTORE POP PUSH2 0xEEC JUMP JUMPDEST PUSH1 0x1F NOT DUP5 AND PUSH2 0xE9A DUP7 PUSH2 0xC76 JUMP JUMPDEST PUSH1 0x0 JUMPDEST DUP3 DUP2 LT ISZERO PUSH2 0xEC2 JUMPI DUP5 DUP10 ADD MLOAD DUP3 SSTORE PUSH1 0x1 DUP3 ADD SWAP2 POP PUSH1 0x20 DUP6 ADD SWAP5 POP PUSH1 0x20 DUP2 ADD SWAP1 POP PUSH2 0xE9D JUMP JUMPDEST DUP7 DUP4 LT ISZERO PUSH2 0xEDF JUMPI DUP5 DUP10 ADD MLOAD PUSH2 0xEDB PUSH1 0x1F DUP10 AND DUP3 PUSH2 0xDE8 JUMP JUMPDEST DUP4 SSTORE POP JUMPDEST PUSH1 0x1 PUSH1 0x2 DUP9 MUL ADD DUP9 SSTORE POP POP POP JUMPDEST POP POP POP POP POP POP JUMP JUMPDEST PUSH1 0x0 DUP2 SWAP1 POP SWAP3 SWAP2 POP POP JUMP JUMPDEST PUSH1 0x0 JUMPDEST DUP4 DUP2 LT ISZERO PUSH2 0xF1D JUMPI DUP1 DUP3 ADD MLOAD DUP2 DUP5 ADD MSTORE PUSH1 0x20 DUP2 ADD SWAP1 POP PUSH2 0xF02 JUMP JUMPDEST PUSH1 0x0 DUP5 DUP5 ADD MSTORE POP POP POP POP JUMP JUMPDEST PUSH1 0x0 PUSH2 0xF34 DUP3 PUSH2 0xC0B JUMP JUMPDEST PUSH2 0xF3E DUP2 DUP6 PUSH2 0xEF4 JUMP JUMPDEST SWAP4 POP PUSH2 0xF4E DUP2 DUP6 PUSH1 0x20 DUP7 ADD PUSH2 0xEFF JUMP JUMPDEST DUP1 DUP5 ADD SWAP2 POP POP SWAP3 SWAP2 POP POP JUMP JUMPDEST PUSH1 0x0 PUSH2 0xF66 DUP3 DUP5 PUSH2 0xF29 JUMP JUMPDEST SWAP2 POP DUP2 SWAP1 POP SWAP3 SWAP2 POP POP JUMP INVALID LOG2 PUSH5 0x6970667358 0x22 SLT KECCAK256 0x23 0xC7 0xBF 0x25 PUSH29 0x521A40FBE5F2308A320DACB03380F9C753E44F5AD56A5FF7ED43A36473 PUSH16 0x6C634300081300330000000000000000 "
				},
				"gasEstimates": {
					"creation": {
						"codeDepositCost": "801400",
						"executionCost": "838",
						"totalCost": "802238"
					},
					"external": {
						"isUserRegistered(address)": "infinite",
						"registerToWalletContract(string)": "infinite"
					}
				},
				"methodIdentifiers": {
					"isUserRegistered(address)": "163f7522",
					"registerToWalletContract(string)": "bfc92b3e"
				}
			},
			"storageLayout": {
				"storage": [
					{
						"astId": 70,
						"contract": "WalletContract.sol:WalletContract",
						"label": "publicAddressToNodeMap",
						"offset": 0,
						"slot": "0",
						"type": "t_mapping(t_address,t_struct(Node)34_storage)"
					},
					{
						"astId": 74,
						"contract": "WalletContract.sol:WalletContract",
						"label": "userNameToPublicAddressMap",
						"offset": 0,
						"slot": "1",
						"type": "t_mapping(t_string_memory_ptr,t_address)"
					},
					{
						"astId": 77,
						"contract": "WalletContract.sol:WalletContract",
						"label": "userNames",
						"offset": 0,
						"slot": "2",
						"type": "t_array(t_string_storage)dyn_storage"
					},
					{
						"astId": 80,
						"contract": "WalletContract.sol:WalletContract",
						"label": "users",
						"offset": 0,
						"slot": "3",
						"type": "t_array(t_address)dyn_storage"
					}
				],
				"types": {
					"t_address": {
						"encoding": "inplace",
						"label": "address",
						"numberOfBytes": "20"
					},
					"t_array(t_address)dyn_storage": {
						"base": "t_address",
						"encoding": "dynamic_array",
						"label": "address[]",
						"numberOfBytes": "32"
					},
					"t_array(t_string_storage)dyn_storage": {
						"base": "t_string_storage",
						"encoding": "dynamic_array",
						"label": "string[]",
						"numberOfBytes": "32"
					},
					"t_enum(State)65": {
						"encoding": "inplace",
						"label": "enum WalletContract.State",
						"numberOfBytes": "1"
					},
					"t_mapping(t_address,t_struct(Node)34_storage)": {
						"encoding": "mapping",
						"key": "t_address",
						"label": "mapping(address => struct WalletContract.Node)",
						"numberOfBytes": "32",
						"value": "t_struct(Node)34_storage"
					},
					"t_mapping(t_string_memory_ptr,t_address)": {
						"encoding": "mapping",
						"key": "t_string_memory_ptr",
						"label": "mapping(string => address)",
						"numberOfBytes": "32",
						"value": "t_address"
					},
					"t_string_memory_ptr": {
						"encoding": "bytes",
						"label": "string",
						"numberOfBytes": "32"
					},
					"t_string_storage": {
						"encoding": "bytes",
						"label": "string",
						"numberOfBytes": "32"
					},
					"t_struct(Node)34_storage": {
						"encoding": "inplace",
						"label": "struct WalletContract.Node",
						"members": [
							{
								"astId": 3,
								"contract": "WalletContract.sol:WalletContract",
								"label": "ownerAddress",
								"offset": 0,
								"slot": "0",
								"type": "t_address"
							},
							{
								"astId": 5,
								"contract": "WalletContract.sol:WalletContract",
								"label": "userName",
								"offset": 0,
								"slot": "1",
								"type": "t_string_storage"
							},
							{
								"astId": 8,
								"contract": "WalletContract.sol:WalletContract",
								"label": "shareHolders",
								"offset": 0,
								"slot": "2",
								"type": "t_array(t_address)dyn_storage"
							},
							{
								"astId": 11,
								"contract": "WalletContract.sol:WalletContract",
								"label": "temporaryShareHolders",
								"offset": 0,
								"slot": "3",
								"type": "t_array(t_address)dyn_storage"
							},
							{
								"astId": 14,
								"contract": "WalletContract.sol:WalletContract",
								"label": "holderRequestAcceptedHolders",
								"offset": 0,
								"slot": "4",
								"type": "t_array(t_address)dyn_storage"
							},
							{
								"astId": 17,
								"contract": "WalletContract.sol:WalletContract",
								"label": "holderRequestRejectedHolders",
								"offset": 0,
								"slot": "5",
								"type": "t_array(t_address)dyn_storage"
							},
							{
								"astId": 20,
								"contract": "WalletContract.sol:WalletContract",
								"label": "myShares",
								"offset": 0,
								"slot": "6",
								"type": "t_array(t_string_storage)dyn_storage"
							},
							{
								"astId": 23,
								"contract": "WalletContract.sol:WalletContract",
								"label": "releasedShares",
								"offset": 0,
								"slot": "7",
								"type": "t_array(t_string_storage)dyn_storage"
							},
							{
								"astId": 26,
								"contract": "WalletContract.sol:WalletContract",
								"label": "secretOwners",
								"offset": 0,
								"slot": "8",
								"type": "t_array(t_address)dyn_storage"
							},
							{
								"astId": 28,
								"contract": "WalletContract.sol:WalletContract",
								"label": "email",
								"offset": 0,
								"slot": "9",
								"type": "t_string_storage"
							},
							{
								"astId": 30,
								"contract": "WalletContract.sol:WalletContract",
								"label": "encryptedVault",
								"offset": 0,
								"slot": "10",
								"type": "t_string_storage"
							},
							{
								"astId": 33,
								"contract": "WalletContract.sol:WalletContract",
								"label": "state",
								"offset": 0,
								"slot": "11",
								"type": "t_enum(State)65"
							}
						],
						"numberOfBytes": "384"
					}
				}
			},
			"userdoc": {
				"kind": "user",
				"methods": {},
				"version": 1
			}
		}
	}
}